:020000040800F2
:10000000D0350024AD020008A54D0008114B0008B2
:100010002D4D0008ED140008795C00080000000078
:10002000000000000000000000000000BF02000807
:100030008517000800000000A74D0008CD4F0008FC
:100040007D5C0008C70200087D510008C14F000810
:10005000C7020008C7020008C7020008C70200085C
:10006000C7020008C7020008C7020008C70200084C
:10007000C7020008C7020008C7020008C70200083C
:10008000C7020008C7020008C7020008C70200082C
:10009000C7020008C7020008C7020008C70200081C
:1000A000C7020008C7020008C702000895510008EF
:1000B000C7020008A1510008C7020008C7020008D3
:1000C000C7020008C7020008C7020008C7020008EC
:1000D000C7020008C7020008C7020008C7020008DC
:1000E000C7020008514F000800000000C7020008C6
:1000F000C7020008C7020008C7020008C7020008BC
:10010000C7020008C7020008AD510008C702000876
:10011000C7020008C7020008C7020008C70200089B
:10012000C7020008C7020008C7020008C70200088B
:10013000C7020008C7020008C7020008C70200087B
:1001400000000000000000000000000000000000AF
:10015000C7020008C7020008C7020008C70200085B
:10016000C7020008C7020008C7020008C70200084B
:10017000C7020008C7020008C7020008000000000C
:10018000C7020008C7020008C7020008C70200082B
:10019000C7020008C7020008C7020008C70200081B
:1001A000C7020008C7020008C7020008C70200080B
:1001B000C7020008C7020008C7020008C7020008FB
:1001C000C7020008C7020008C7020008C7020008EB
:1001D000C7020008C7020008C7020008C7020008DB
:1001E000C7020008C7020008C7020008C7020008CB
:1001F000C7020008C7020008C7020008C7020008BB
:10020000C7020008C7020008C7020008C7020008AA
:10021000C7020008C7020008C7020008C70200089A
:10022000C7020008C7020008C7020008000000005B
:10023000C7020008C702000800000000C70200084B
:10024000C7020008C7020008C7020008C70200086A
:10025000C7020008C7020008C7020008C70200085A
:10026000C7020008C7020008C7020008C70200084A
:10027000C7020008C7020008C7020008000000000B
:10028000C702000800000000C702000800000000CC
:1002900000000000C7020008DFF80CD000F07AF878
:1002A0000048004795610008D03500240648804783
:1002B00006480047FEE7FEE7FEE7FEE7FEE7FEE74B
:1002C000FEE7FEE7FEE7FEE7F550000899020008AA
:1002D0002DE9F05F0546002092469B46884606467B
:1002E000814640241BE0284641464746224600F00E
:1002F00041F853465A46C01A914110D31146184648
:10030000224600F028F82D1A67EB01084F462246D6
:100310000120002100F01FF817EB00094E41201EBC
:10032000A4F10104DFDC484631462A464346BDE8D5
:10033000F09F40EA01039B0703D009E008C9121FA0
:1003400008C0042AFAD203E011F8013B00F8013B8F
:10035000521EF9D27047202A04DB203A00FA02F13B
:10036000002070479140C2F1200320FA03F31943A3
:1003700090407047202A04DB203A21FA02F0002145
:10038000704721FA02F3D040C2F1200291400843A5
:1003900019467047064C074D06E0E06840F001033F
:1003A00094E8070098471034AC42F6D3FFF778FF83
:1003B00020A9000840A9000810B500F07FF8BDE8AA
:1003C000104001A005F060BC4957444720666565B0
:1003D0006420696E204253505F49646C652829206F
:1003E000657665727920302E363873202D20312EB7
:1003F000383873210D0A00000A4810B50178491CED
:10040000017001783C290BD10021017000F056F8F1
:10041000012000F051FBBDE8104003A005F034BC02
:1004200010BD000000000024495744472066656560
:100430006420696E204253505F52756E5065723170
:10044000306D73282920657665727920302E3673D9
:10045000210D0A0070470000002810B511D00128B6
:1004600000D10220012181F31088064C0021A060F8
:10047000217081F3108800BFFFF79EFF20780128CC
:10048000FAD110BD140000240B49002270B54FF0C2
:10049000E024496865694843A369A1699942FCD091
:1004A00002D2A3EB010302E0A5EB010633441A4498
:1004B0000B468242F1D370BD14000024014801F0C4
:1004C000E8BB00006804002470B5134C06460D46D6
:1004D000206840010DD5012000F0C2FA4FF47A6087
:1004E000FFF7BAFF206840F480302060012000F060
:1004F0008BFA0B4A40F6FF700849C2E90250C2E984
:100500000016104601F096FB002803D0BDE87040AD
:1005100001F039B970BD0000D044025800480058BD
:10052000680400240948C723094A002110B5064C75
:10053000C0E902120161C0E9004303F0EAFEBDE830
:100540001040024803F034BF000C0040BC030024FC
:100550003F420F0070B51E4905461E4A062D1E4833
:1005600086B00DD2DFE805F00322222B2B2B1B4C8B
:10057000086840F004000860086800F00400059076
:10058000174E0120032156F82520CDE90020CDE9A2
:1005900002016946204601F03FFA36F825000122A3
:1005A00081B2204601F03BFB06B070BD08681446DE
:1005B00040F080000860086800F08000DFE7044633
:1005C000086840F008000860086800F00800D6E7F6
:1005D000E0440258001C0258000C0258000802585F
:1005E000A061000870B50B4B002204461146481C60
:1005F00001EB4105C1B203EB8500426082604270AD
:1006000003F825200429F2D3042003F061FE0248F8
:10061000446070BD0C030024140000240C49002227
:100620000A4B10B50C240B60C1E90102CA600846F0
:100630000A61C1E90542CA6104F021F9002803D02A
:10064000BDE8104001F09FB810BD0000001001404F
:100650003C03002470B5084D5FF00004074855F8CE
:10066000241002F06CFF08B1601C70BD641C202CCB
:10067000F4D3002070BD000054000024E8040024DE
:100680000E4970B50646A1F16C0000240268088886
:1006900022B13046BDE8704000F038BA4D880021E4
:1006A0004543084600F088F800F0A4F9B0B20449C8
:1006B00001E00880641CAC42FBD370BDC80200247A
:1006C000000008602DE9F041044639480E460068F4
:1006D00020B12046BDE8F04100F04EBA344D270A63
:1006E0004FEA16286C352846A9884089A1F513439E
:1006F000413B0CD0A1F5A643103B08D0A1F5AA437D
:10070000103B10D0A1F5C853633B25D048E000F062
:1007100055FB384600F046FBE0B200F043FBA889E9
:1007200000F04CFB36E000F049FB384600F03AFBA5
:100730006889401C80B200F041FBE0B200F032FB5F
:10074000A88900F03BFB404600F02CFBA889401C28
:1007500080B200F033FB20E0A97919B92988091B80
:10076000491E8CB200F02AFB270A384600F01AFB1B
:10077000E0B200F017FB384600F014FBE0B200F0E6
:1007800011FBA88900F01AFB404600F00BFBF0B209
:1007900000F008FB404600F005FBF0B200F002FB61
:1007A000044928898B1C08801A80BDE8F08100006C
:1007B0005C020024FEFF0760F0B53F4A060A0446CB
:1007C0000D4610460F0A91884089A1F51343413B1D
:1007D00028D0A1F5A643103B24D0A1F5C853633B14
:1007E0002FD0A1F5AA43103B64D100F0E7FA3046C0
:1007F00000F0D8FA5089401C80B200F0DFFAE0B275
:1008000000F0D0FA908900F0D9FA384600F0CAFA20
:100810009089401C80B200F0D1FAE8B2BDE8F04007
:1008200000F0C0BA00F0CAFA304600F0BBFAE0B2FD
:1008300000F0B8FA908900F0C1FA384600F0B2FA38
:10084000EBE7917929B300F0B9FA304600F0AAFA43
:10085000E0B200F0A7FA1088401EC0F30F2000F0AD
:10086000A1FA1078401EC0B200F09CFA908900F006
:10087000A5FA384600F096FAE8B200F093FA5088EC
:10088000401EC0F30F2000F08DFA9078401EC0B2D9
:10089000C4E71188091B491E8CB200F08FFA0020B2
:1008A00000F080FA002000F07DFA200A00F07AFAC9
:1008B000E0B2D9E7F0BD0000C80200242DE9FF4FE7
:1008C00058071D460C468A4600D00120DFF8B8B014
:1008D000690800EBD500002610FB01F1203A01F079
:1008E000FF09D0B202904BE00C2D11D0102D14D086
:1008F000182D17D0202D45D10298244901EBC010A6
:100900004FF00008875D380613D52148026814E0CF
:100910000298204900EB400008E002981E4901EBD4
:100920000010EDE702981D4900EBC00001EB8000CC
:10093000E6E70D9828B91648426821460098FFF767
:10094000C1FE7906BBF80200641CA4B20F0EA042DF
:1009500018D9A4EB0A00A84209D100985446BBF864
:100960000010401C80B2009081420BD906E008F1D3
:10097000010000F0FF08B8F1080FC4D3761CF6B2EE
:100980004E45B1D3BDE8FF8FC80200247879000836
:1009900004000024B86100082C6600081C6C0008E4
:1009A0002DE9F84F0D46044658194FF0000A111969
:1009B00087B21FFA81F8DDE90AB604F0FF0912E0F8
:1009C000444503D305EB0B004C4685B2BD420FD224
:1009D0005B4629462046CDF800A0FFF76FFF04EBE9
:1009E0005B0084B2761C3278A2F120005E28E7D941
:1009F000BDE8F88F0248034900890880704700006D
:100A0000C8020024FEFF076011490246114B062A66
:100A1000114830B41AD2DFE802F003080A0F1113AC
:100A20000888012281B20D480DE0888800E008891D
:100A3000012281B2184606E0898902E0098A00E0B5
:100A4000898A012289B230BC01F0E9B830BC704714
:100A5000A0610008001C0258000C0258000802584F
:100A600011490246114B062A114830B41AD2DFE868
:100A700002F003080A0F11130888002281B20D4802
:100A80000DE0888800E00889002281B2184606E05F
:100A9000898902E0098A00E0898A002289B230BC93
:100AA00001F0BDB830BC7047A0610008001C0258BE
:100AB000000C02580008025810490246104B062A42
:100AC000104830B417D2DFE802F00307090D0F1108
:100AD000088881B20C480BE0888800E0088981B260
:100AE000184605E0898902E0098A00E0898A89B20E
:100AF00030BC01F090B830BC70470000A061000825
:100B0000001C0258000C02580008025808B500905A
:100B10000548018BC08A491E8BB2401E82B200215B
:100B2000084600F047F808BD5C02002410B5B0B0DC
:100B300002230DF1240C1C0700948CE80B00CDE976
:100B40000C32684601F000FC002800D0012030B0D3
:100B500010BD000007490A464875938812889BB269
:100B600092B220B1012801D1CA820B837047CB8297
:100B70000A8370475C020024F0B50C4C95B2DFF894
:100B800030C02346677D1E7DDA691B685CF82660ED
:100B900027B103FB01004243B552F0BD6468201A3F
:100BA000401E03FB001050433552F0BD5C02002490
:100BB0000C0000242DE9F047274D0027DDF820A088
:100BC0006C7D14B10446164606E01E466B680C4662
:100BD000991A1B1A491E5B1E2868DFF88090321B89
:100BE000861A95F814C000FB0144591AD9F8003050
:100BF000DFF87080761EED69194858F82C8043F4B0
:100C0000000C05FB0484B3B2C9F800C04FF44036B1
:100C10000660022545630364ED030368491C05EB88
:100C20000242114323F001020260C4634164C0F830
:100C300038A00268410242F00102026002E07F1C1B
:100C40008F4202D242689207F9D5816841F00201D1
:100C50008160BDE8F08700005C020024D84402589F
:100C6000001000520C0000242DE9F0438DB0144D0B
:100C700014460022DDE916C7DDE9149800920292BD
:100C80004FEA0C2C2E6801964FEA08286D68CDE9D2
:100C9000044303954B460B95CDE9091606AE69460C
:100CA00086E808118DF832208DF83120024604487C
:100CB0008DF83070A83801F021F80DB0BDE8F08350
:100CC0005C02002470B51E46044603460548049D98
:100CD00001F034F923462A4631460248BDE8704007
:100CE00001F056B9B40100242B4830B587B0016833
:100CF00041F040010160016801F040010591016887
:100D000041F480710160006800210122234C00F44D
:100D100080700590402003238DE80F00694620462F
:100D200000F07AFE1E4D842069460090284600F0AF
:100D300073FE4021204600F069FF04210446284646
:100D400000F064FF44EA40042846802100F05EFF82
:100D500044EA800010F0FF000CD001280DD00228DA
:100D60000ED003280FD0042810D0052811D0002061
:100D700007B030BD44F24230FAE747F28400F7E7AB
:100D800047F21600F4E747F21800F1E748F21600C0
:100D9000EEE741F21800EBE7E04402580018025871
:100DA0000020025801B5BDF800100348ADF800104E
:100DB000BDF80010018008BD0000086001B5BDF855
:100DC00000100348ADF80010BDF80010018008BD08
:100DD000FEFF07602DE9FF5FFFF786FFBF4C05466A
:100DE000A0F586404FF0010A42384FF0080B4FF44F
:100DF000F07C4FF0060937D0A5F5E04084384FF479
:100E0000487143D0A5F5E0404FF08C0816384FF0FC
:100E100003004FF480664FF4167747D0A5F5E04302
:100E2000183B4FF4A06250D0A5F50043163B4FD0BD
:100E3000A5F58053183B4ED04AF201039D424FF472
:100E4000407E54D140F256524FF0180CC4E9002EA7
:100E50008F23238146262682D527A78160811C22E5
:100E6000A4F80EC06082C8E04FF4887328220526DB
:100E7000C4E900C3A4F808A0A4F80AA0A2815822DB
:100E8000A4F80EB02682A4F812B0B6E0C4E9001CA3
:100E9000A4F808A02E23A4F80AA01722A381D22622
:100EA000E2811627268218226782A6E0C4E900673D
:100EB000142121816081A023A4F80C804FF00C0C38
:100EC000E1812382A4F812C060E0C4E9002198E027
:100ED000C4E9006795E0C4E90021A4F80C800A2366
:100EE000238210222381E3816382608185E0A5F55E
:100EF0002043023B4FF0500315D0A5F52048B8F130
:100F0000030820D0A5F52042043A2ED0A5F52040B4
:100F100005383DD0A5F5204006384AD0A5F520403B
:100F200007385AD06DE0C4E90021202626813027F9
:100F30002782A3814FF00E08A4F80A901622A4F885
:100F40000E80608259E0C4E9002E20262681A3810C
:100F5000302727824FF0070CA4F80AC04FF00C0886
:100F6000A4F80E801722608247E0C4E9006E4FF0BB
:100F7000880CA4F808C018222282A023A381A4F818
:100F80000A904FF01D08A4F80E806082122234E00F
:100F90004FF45476C4E9006C70202081A0811027A2
:100FA00027821722A4F80AB0E2812F22A4F8129017
:100FB00023E0C4E90017802626814FF0580CA4F8DE
:100FC0000CC0282020824FF00408A4F80A801722C1
:100FD000E2810246A4F812A00FE04FF42073C4E9A6
:100FE000003C60272781A4F810B03826A681022093
:100FF00060812922E2813E226082A0210520FFF744
:1010000095FD364F00262168A5F580526C37DFF834
:10101000D080183A4FF00203A7F58A70314D39801D
:1010200062687A80304FE361C8F80070C0E900560A
:101030008660C660066101D1DB06036123895D1EFF
:10104000456165896F1E40F8187FA7893B445F1E84
:101050004760E7893D44A5F1010CC0F808C0A2F142
:10106000010CAC444F1E1F44C0E9037C278A39445D
:101070001944491E4161618A11442944491E816114
:101080008677467706771548A83800F061FE072076
:10109000CDE90069CDE90206D8F80010FF2302224D
:1010A0000020FFF7E1FDA0880022114680B20090E9
:1010B000208883B21046FFF705FE0120FFF74AFDA6
:1010C0000A4801222021267500F0A9FD04B04FF046
:1010D000FF30BDE8F05FFFF719BD00005C0200249F
:1010E0000C00002400100050000000C00004025852
:1010F000034900234FF48072A1F1380002F026BDAD
:101100002005002402490022024802F05FBD0000D1
:101110004D000024E804002402490022A1F124002B
:1011200002F078BD0C05002438B517480024154995
:101130007F22FF23E0E8021480E81C000461446180
:10114000114802F095FD08B100F01DFB0E4800218A
:1011500002F0F5F945F25005A84211D000230094A1
:1011600032211A460A2000F099F823231D22082173
:10117000122000F055F8044800212A4602F0E4F954
:10118000002038BD00400058E8040024F0B58BB0C2
:101190000DF1140C00248DF800104FF070658DF8DF
:1011A00001204FF080468DF802300194B7158DF87C
:1011B00003408CE870008DF820000D480997006806
:1011C000C16801F0800161F42071C160084800220B
:1011D000694602F0CDFD08B100F0D5FA03220421E2
:1011E000292000F00DFF292000F0FDFE0BB0F0BD1E
:1011F000E8040024084808B5016841F08051016006
:10120000006800F08050009000F02CFF0348016857
:10121000C943C903FBD408BDE0440258084802583A
:1012200008B58DF803008DF8011069468DF802208D
:10123000002203488DF8003002F07CFE08BD00005B
:10124000E80400241448012310B5002102220360A1
:101250004161D3038161C16101624162C0E9022140
:101260004360016160380068C16801F0800161F489
:101270000251C1600849A1F1600002F0C5F908B14E
:1012800000F081FA00220421022000F0B9FEBDE83E
:101290001040022000F0A7BE4805002410B586B01B
:1012A0008DF800000020089C8DF8011069468DF82B
:1012B0000220024603900490034801938DF80340F6
:1012C00002F0A6FE06B010BDE80400240D4810B5DB
:1012D0000068C16801F0800161F40861C16000220A
:1012E0000848114602F00CFA08B100F04CFA00224E
:1012F0000421022000F084FEBDE81040022000F02E
:1013000072BE0000E80400240C4A10B51268D368CD
:1013100003F0800363F49063D3600246074802F051
:1013200029FA08B100F02FFA04220320114600F038
:1013300067FEBDE81040032000F055BEE80400241D
:10134000F0B5144800220823114F87B04FF0400C2D
:1013500002210126C0E90072C0E902638E02102555
:101360000561CF01CD02C0E90726C0E90952062474
:10137000C0E905C78DE81A00CDE903410591069142
:10138000694602F0DFFE034800F006F807B0F0BD42
:1013900040410052D8020024002301221846114681
:1013A00010B500F021F84FF4FA70FFF76DF8002344
:1013B00001221846022100F017F8002308221846DF
:1013C000032100F011F80122042100204FF40873DA
:1013D00000F00AF8BDE81040024840F2A52102F0F2
:1013E0004DBF0000D80200241FB54FF0000410B11B
:1013F000012802D002E0102400E008240748CDE9CB
:1014000002234FF6FF72CDE90014694602F048FF4F
:10141000002800D0012004B010BD0000D802002434
:10142000014908607047000034040040124A491E18
:1014300010B504460F4B00201360C2E90110C2E949
:101440000340104603F062F90B48641E60214030EF
:101450000022016004EBD4714910416002218160D7
:101460000146403803F0BEF8BDE8104002480021B4
:1014700003F094B900040040700500242DE9F04108
:10148000174C074615460E462068C0000DD50020B3
:10149000FFF7E6FA4FF47A60FEF7DEFF206840F4CB
:1014A000803020600020FFF7AFFA012001F016FC29
:1014B0000C4C4FF400700C49C4E9037084E86200DE
:1014C000204603F0F4FA08B100F05DF9D4E9021007
:1014D000401A401C04F066F8401CBDE8F081000092
:1014E000D04402587804002400300050FEE7000089
:1014F000F0B5BFF34F8FBFF36F8F1D490020086019
:10150000BFF34F8FBFF36F8F1A4B196841F400314F
:101510001960BFF34F8FBFF36F8F164970310860AA
:10152000BFF34F8F081F43F6FF740068104D10354E
:10153000C0F34E31C0F3C90204EA4116104600BFA1
:1015400046EA80772F60401EFAD2491EF4D2BFF3DC
:101550004F8F186840F480301860BFF34F8FBFF38F
:101560006F8F03484C30016841F004010160F0BD09
:1015700050EF00E014ED00E000251CB501272E46D9
:10158000FFF7B6FF00F08BFB03F05CFD0020FEF7D9
:10159000E1FF0120FEF7DEFF0220FEF7DBFF032064
:1015A000FEF7D8FF0420FEF7D5FF0520FEF7D2FF97
:1015B0004FF4E130FFF732F84FF4C870FFF712F83C
:1015C000FEF7B0FF4FF4FA7404202146FEF77CFFCB
:1015D0005F217F204FF4C052FFF750FFFFF7A4FDBB
:1015E00000210420FFF790FE00230B211A46032060
:1015F000FFF7CCFDFFF76AFEFFF724FEFFF7FAFDC9
:10160000C8212046FFF712FFFFF79AFEFFF7E2FB23
:1016100000F08CF9574C4FF47841554804F1280BF1
:1016200004F1500804F1780A04F1A00901600C2EBD
:101630000DD2DFE806F006096C6E7174777A7D8052
:1016400083864FF6FF7000E00020FFF719F8484945
:101650004FF47840086000F029F92020CDE900041B
:10166000282103460A204FF44872FFF799F9182100
:10167000CDE9001B0A200B4650214FF44872FFF7BA
:101680008FF91821CDE900180A200B4678214FF474
:101690004872FFF785F91821CDE9001A0A200B4698
:1016A000A0214FF44872FFF77BF91821CDE900190A
:1016B0000A200B46C8214FF44872FFF771F92E49F2
:1016C00018204FF448720346CDE90001F0210A20AA
:1016D000FFF766F9294918204FF448720346CDE90F
:1016E00000010A204FF48C71FFF75AF924491820A1
:1016F0004FF448720346CDE900010A204FF4A0716F
:10170000FFF74EF9761CF6B20C2E1DD01DE01F20FF
:101710009BE74FF4784098E74FF61F0095E74FF4AA
:10172000FC6092E747F6FF708FE74FF6E0708CE7BA
:101730004FF6074089E748F2304086E74CF21860E0
:1017400083E74BF6404080E700264FF47A70FEF7BF
:1017500083FE0FB16D1C00E06D1EADB2B5F5967F36
:1017600000D9002705B901272846FFF759FE5EE793
:1017700004000024EC0000248C040024B4040024A1
:10178000DC04002470470120FFF73EF90220FFF738
:1017900067F9F8E7F0B5D1E90125D1E90343D1E9CB
:1017A00005762A43D1F800C044EA0304D1E907359D
:1017B00042EA0402496A42EA0702BCF1010F42EA26
:1017C000060208D004681A432A430A43E30BDB03EA
:1017D0001A4302600BE0066844682B4326F4F84580
:1017E00029430B4303606FF30E0422434260002041
:1017F000F0BD426942EA410141610020704738B5BD
:1018000091E81C00C9686FF01F051A4305EB4414EA
:1018100044EA41210A4300920261002038BD0000E1
:101820002DE9F043914691E81C006FF00F05521E20
:101830002E0105EB03131A430B7E06EB04268C8A5C
:101840002F034FEA054C0D8A32434FF07F4808EBD7
:101850000366CB68B9F1010F07EB05450CEB0454A7
:101860000CD081683F1107EB03331A432A4322430C
:10187000324301F070410A43826011E08168DFF871
:1018800028C0C7681B03A3F5805323432A4301EAFA
:101890000C0132430B43836007F070442243C26063
:1018A0000020BDE8F0830000FF0F0FFF38B5FFF701
:1018B00033FCFFF727FCFFF71BFC0D4881780091F4
:1018C0000CA143780278803804F0EEF90E4C0FA199
:1018D000A078009006486378E278583804F0E4F97C
:1018E000227810A10248BDE83840303804F0DCB955
:1018F0000C05002454696D653A253032643A253070
:1019000032643A25303264004D000024446174652D
:101910003A3230253032642D253032642D25303274
:10192000640000005765656B3A256400F8B5134AFA
:10193000111D081D16680D68046811A1184804F0EF
:10194000B3F9174817A1283004F0AEF914481EA1C6
:101950002B4622465030009604F0A6F910484FF06E
:1019600080721FA1783004F09FF9224822A182885A
:10197000BDE8F8400A48A03004F096B900E8F11F2D
:10198000424F415244204E414D45203A2053544D40
:101990003332483720434F5245424F4152440000B2
:1019A000EC000024435055204E414D45203A205331
:1019B000544D33324837343349493136204C51463F
:1019C0005031373600000000435055204944203A3A
:1019D00020253038582025303858202530385800F8
:1019E0004253502056455253494F4E203A202530FD
:1019F00038580000C80200244C4344204944203A8F
:101A000020253034580000000248016841F00101EF
:101A100001607047200400582DE9F84F6F4D0022F7
:101A20004FF001094FF0030E4FF00F0B0B6809FA4E
:101A300002F803EA0803434574D14C68022C01D034
:101A4000122C0FD1D4080E69570700EB8404A2466C
:101A5000246AFF0E0BFA07FCBE4024EA0C0426435E
:101A6000CAF820600F79540006680EFA04FC07F0EB
:101A7000030726EA0C06A740374307604E68012E8D
:101A800005D0022E03D0112E01D0122E0FD1866860
:101A9000CF6826EA0C06A7403743876046680F796F
:101AA00026EA0806C7F30017974037434760C76820
:101AB0008E6827EA0C07A6403E43C6604C68E400E7
:101AC00030D5474C266846F002062660246822F08E
:101AD000030606F1B04604F0020400949407270FB1
:101AE000D6F80844DFF8FC800BFA07FC404524EAEE
:101AF0000C0402D14FF0000C41E0DFF8ECC060456F
:101B000002D14FF0010C3AE0DFF8E0C0604502D1AD
:101B10004FF0020C33E0DFF8D8C0604503D14FF03E
:101B2000030C2CE053E0DFF8CCC0604502D14FF04D
:101B3000040C24E0DFF8C0C0604502D14FF0050C72
:101B40001DE0DFF8B8C0604502D14FF0060C16E08A
:101B5000DFF8ACC0604502D14FF0070C0FE0DFF8B2
:101B6000A4C0604502D14FF0080C08E0DFF898C02F
:101B7000604502D14FF0090C01E04FF00A0C0CFA5D
:101B800007FC4CEA040CC6F808C42C684E6824EA2A
:101B90000304F60300D51C432C606C684E6824EAED
:101BA0000304B60300D51C436C604FF0B0444F688B
:101BB0002668FF0226EA030600D51E4326604F680A
:101BC0006668BF0226EA030600D51E436660521C03
:101BD000102AFFF42BAFBDE8F88F000080000058FA
:101BE000F444025800000258000402580008025849
:101BF000000C025800100258001402580018025835
:101C0000001C0258002002580024025800690840B5
:101C100000D00120704742694A40426170470AB1D2
:101C20000183704741837047014880687047000016
:101C3000DC00002470B5040011D022684CF6CC41C1
:101C400045F25550116021680860D4E900014160F7
:101C50002168A0688860FFF7E7FF054609E00120DA
:101C600070BD00BFFFF7E0FF401B302801D9032003
:101C700070BD2068C0680028F4D12068E16802695E
:101C80008A4201D0016102E04AF6AA2101600020E7
:101C900070BD01684AF6AA20086000207047032042
:101CA00010B500F0CDF90F2000F008F808B10120C0
:101CB00010BD00F097F9002010BD000070B50D4D6B
:101CC00004464FF47A700C4A29781268B0FBF1F0A0
:101CD000B2FBF0F002F008FB48B9102C07D200224A
:101CE0002146501E00F08CF900206C6070BD012070
:101CF00070BD0000DC000024D40000242DE9F04178
:101D0000044690F8A00016460F4601281DD0012574
:101D100084F8A050022084F8A10006EB860000EBB6
:101D2000C600342204EB80003830FEF702FB324656
:101D30003946204602F012FF216800204D6284F8E7
:101D4000A15084F8A000BDE8F0810220FBE700006C
:101D50002DE9F041040004D094F8A100002518B149
:101D600007E00120BDE8F081204684F8A05000F093
:101D70006BF83448022184F8A110012202CC8B694F
:101D800023F070438B6194E84A001943E3681E43D3
:101D900054F8043D31439E693143996121688B6851
:101DA00003408B602168A68AA7698B683B4343EA9E
:101DB00006438B602168CB680340CB602168A38B0E
:101DC000276ACE683E4346EA0346CE6021680B6927
:101DD00003400B612368A68CA76A1969394341EA5D
:101DE0000641196121684B6903404B612068A38D4E
:101DF000266B4169314341EA03414161236894F80C
:101E0000351094F83600DE6A000406F07F46DE6284
:101E1000236840EA012094F83460D96A31430143D1
:101E2000D9622068416B41F00601416320688169F5
:101E300041F001018161C4F8A45084F8A120002080
:101E400090E7000000F800F0364810B586B0016851
:101E500041F008010160006800F008000590314879
:101E60001038016841F010010160006800F01000B6
:101E700005902C48001F016841F0020101600168D3
:101E800001F002010591016841F020010160016843
:101E900001F020010591016841F0400101600168F5
:101EA00001F040010591016841F080010160016885
:101EB00001F080010591016841F4807101600068C2
:101EC0000324202100F4807005900120CDE9020454
:101ED000CDE9001014486946FFF79EFD022100225B
:101EE0000E2304934FF480608DE817000F48694675
:101EF000FFF792FD4FF40C6000900D486946FFF724
:101F00008BFD4FF47E4000900A486946FFF784FD40
:101F100040F2F760009008486946FFF77DFD06B083
:101F200010BD0000E4440258000402580014025896
:101F300000180258001C02580020025870B50446D0
:101F400090F8A0000E46012820D003EB830000EBA0
:101F5000C301012584F8A050022084F8A10004EBFD
:101F600081018E63086E3044C1E90F02486E10444F
:101F7000486438311A46204602F0F0FD21680020FE
:101F80004D6284F8A15084F8A00070BD022070BD9D
:101F900070B5044690F8A0000E46012820D003EB4F
:101FA000830000EBC301012584F8A050022084F8CF
:101FB000A10004EB8101886B3044C863086C1044B5
:101FC0004864C1E9186238311A46204602F0C6FD5D
:101FD000216800204D6284F8A15084F8A00070BDF3
:101FE000022070BD7047002809DB410900F01F0284
:101FF0008900012001F1E0219040C1F80001704703
:102000000E4BF0B41B680D46C3F30223C3F1070661
:10201000042E00D90426191D072901D2002300E04F
:10202000DB1E012404FA06F19C40491E2940641E6F
:10203000994014402143F0BC03F04ABE0CED00E08F
:10204000064900F0070210B54FF6FF040868044B7C
:10205000204040EA02201843086010BD0CED00E06B
:102060000000FA0570B50B4D286840F001002860AB
:10207000FFF7DAFD4FF47A76044606E0FFF7D4FD69
:10208000001BB04201D9032070BD2868C003F5D5FC
:10209000002070BD084802580248016841F4807170
:1020A000016070470048025810B500F053FF08491E
:1020B0004FF480730A6893FAA3F3064902F470623E
:1020C000B3FA83F3DA40044B9A5CD040086010BD49
:1020D00018440258D4000024F8A8000810B500F0F5
:1020E000F3FE07491022096892FAA2F201F070018A
:1020F000B2FA82F2D140034A515CC84010BD0000E0
:1021000020440258F8A80008424A30B5414D141D39
:1021100013681435DFED400A1268291FB7EE001A64
:1021200024682D6813F0030304F01004C2F3053291
:10213000C5F3CC0515FB04F400EE104AB8EE400AD6
:1021400005D0364C012B5DD0022B5BD159E0314CD0
:10215000334B283C2568AD0615D525680C68C5F3BA
:10216000C105C4F30804EB4001EE904AB3FBF2F260
:10217000F8EE611A40EE201A00EE102A71EE810A84
:10218000B8EE400A10E00C68B3FBF2F2C4F30804A6
:1021900001EE904AB8EE612A01EE902A00EE202A64
:1021A000B8EE610A72EE010A0A6820EE200AC2F354
:1021B0004622521C00EE902AF8EE600A80EE201AA9
:1021C000FCEEC10AC0ED000A0A68C2F30642521CC6
:1021D00000EE902AF8EE600A80EE201AFCEEC10AAA
:1021E000C0ED010A0968C1F30661491C00EE901AAE
:1021F000F8EE600A80EE201ABCEEC10A80ED020AF9
:1022000030BD084C0B68B4FBF2F2C3F3080301EED7
:10221000903ABFE7284402580000003900093D0009
:102220000090D00340787D01424A30B5414D141DE5
:1022300013681C35DFED400A1268291FB7EE001A3B
:1022400024682D6813F0030304F48074C2F305526C
:10225000C5F3CC0515FB04F400EE104AB8EE400AB5
:1022600005D0364C012B5DD0022B5BD159E0314CAF
:10227000334B283C2568AD0615D525680C68C5F399
:10228000C105C4F30804EB4001EE904AB3FBF2F23F
:10229000F8EE611A40EE201A00EE102A71EE810A63
:1022A000B8EE400A10E00C68B3FBF2F2C4F3080485
:1022B00001EE904AB8EE612A01EE902A00EE202A43
:1022C000B8EE610A72EE010A0A6820EE200AC2F333
:1022D0004622521C00EE902AF8EE600A80EE201A88
:1022E000FCEEC10AC0ED000A0A68C2F30642521CA5
:1022F00000EE902AF8EE600A80EE201AFCEEC10A89
:10230000C0ED010A0968C1F30661491C00EE901A8C
:10231000F8EE600A80EE201ABCEEC10A80ED020AD7
:1023200030BD084C0B68B4FBF2F2C3F3080301EEB6
:10233000903ABFE7284402580000003900093D00E8
:102340000090D00340787D012DE9FC5F0446FE4DEE
:1023500050F8241B0026DFF8F4933746009008015C
:1023600023D5606E50B1B0F5801F0CD0B0F5001FC2
:1023700011D0B0F5401F23D0012615E0286840F4A5
:10238000003028601CE0286840F400102860201D00
:1023900002F00AFD06E0286840F08070286000988E
:1023A00002F06CFD06000BD037462088C00529D509
:1023B000606D052824D2DFE800F00C1119212100FE
:1023C000626ED9F8001021F440111143C9F80010D1
:1023D000EBE7286840F4003028600FE0286840F4FC
:1023E00000202860201D02F0DFFC06E0286840F491
:1023F00080002860009802F041FD06466EB100E0C2
:1024000001263743208880052ED5A06D802821D055
:102410000CDC90B140280ED114E0626DD9F80010A8
:1024200021F007011143C9F80010EBE7C02819D0CB
:10243000B0F5807F16D0012615E0286840F4003002
:1024400028600FE0286840F400202860201D02F07A
:10245000ABFC06E0286840F480002860009802F099
:102460000DFD064696B137432088DFF8E08240052F
:1024700008F1080832D5D4F8A400B0F5800F23D0B5
:102480000DDCA0B1B0F5001F0FD115E0A26DD9F899
:10249000001021F4E0711143C9F80010E4E7B0F531
:1024A000C00F19D0B0F5000F16D0012615E028682E
:1024B00040F4003028600FE0286840F400202860D5
:1024C000201D02F071FC06E0286840F480002860BE
:1024D000009802F0D3FC064676B137432088000509
:1024E00033D5D4F8A800B0F1007F24D00EDCA8B119
:1024F000B0F1807F10D116E0D4F8A420D8F80010F5
:1025000021F460011143C8F80010E7E7B0F1407F03
:1025100019D0B0F1806F16D0012615E0286840F47C
:10252000003028600FE0286840F400202860201D5B
:1025300002F03AFC06E0286840F480002860009829
:1025400002F09CFC06466EB137432068800122D51C
:10255000A06CF0B110280FD0202812D0302818D04D
:10256000012617E0D4F8A820D8F8001021F0E06187
:102570001143C8F80010E8E7286840F400302860EC
:1025800007E0286840F400102860201D02F00CFCD1
:1025900006466EB137432088C00431D5E06DB0F5F2
:1025A000005F23D00DDCA0B1B0F5805F0FD115E046
:1025B0006648A26C001F016821F0300111430160E0
:1025C000E9E7B0F5405F19D0B0F5804F16D001268D
:1025D00015E0286840F4003028600FE0286840F4D7
:1025E00000202860201D02F0DFFB06E0286840F490
:1025F00080002860009802F041FC064686B137430F
:10260000208880042FD5206EB0F5403F29D010DC03
:1026100038B3B0F5803F14D0B0F5003F0FD118E0CB
:10262000E26DD9F8001021F4E0411143C9F800101F
:10263000E6E7B0F5802F14D0B0F5A02F11D0012619
:1026400010E0286840F480102860201D02F0ACFBE8
:1026500006E0286840F400002860009802F00EFCB4
:1026600006468EB137432088400430D5D4F8AC00FC
:10267000B0F1405F29D010DC38B3B0F1805F14D0E6
:10268000B0F1005F0FD118E0226ED9F8001021F4EC
:10269000E0211143C9F80010E5E7B0F1804F14D0F4
:1026A000B0F1A04F11D0012610E0286840F480104E
:1026B0002860201D02F078FB06E0286840F4000046
:1026C0002860009802F0DAFB06466EB13743208896
:1026D000000422D5E06EF0B1B0F1805F0ED0B0F111
:1026E000005F10D0012617E0D4F8AC20D8F8001015
:1026F00021F0E0411143C8F80010E8E7286840F4F1
:102700000030286007E0286840F480102860201D11
:1027100002F04AFB06466EB137432068C00126D559
:10272000606C10B3012813D0022816D003281CD0E7
:1027300001261BE0E26ED9F8001021F04051114350
:10274000C9F80010E9E700002C4402585044025830
:10275000286840F40030286007E0286840F4001042
:102760002860201D02F020FB064676B13743206822
:10277000DFF8F4B340021FD5FC48016841F48071D2
:102780000160FFF751FA824610E0F748626C3C3076
:10279000016821F0030111430160E8E7FFF744FA03
:1027A000A0EB0A00642801D9032604E0EF48006882
:1027B000C005F3D58EB137432078DFF8ACA3C0074E
:1027C0000AF1440A78D0A06F182873D05CDCC8B333
:1027D00008285FD010285BD164E0DFF88CA3B4F840
:1027E000B0100AF1600ADAF8000001F4407100F458
:1027F0004070884211D0DAF80010DAF8002021F495
:10280000407142F48032CAF80020DAF8002022F445
:102810008032CAF80020CAF80010D4F8B000B0F531
:10282000807F14D1FFF700FA01900CE0FFF7FCF96C
:102830000199411A41F28830814204D9032647F0B8
:102840000307B9E736E0DAF800008007EED5D4F8E0
:10285000B010C1F30120032858460DD0016821F4BF
:102860007C510160B4F8B020DAF80010C2F30B021A
:102870001143CAF800109FE7BD4A036802EA11122B
:1028800023F47C511143ECE7202813D0282811D0E1
:10289000012610E0286840F480102860201D02F016
:1028A00083FA06E0286840F400002860009802F0EF
:1028B000E5FA06465EB137432078800724D5606F7D
:1028C00006281FD2DFE800F01C0C141C1C1CA26F91
:1028D000DAF8001021F038011143CAF80010EBE7D4
:1028E000286840F480102860201D02F05DFA06E0A0
:1028F000286840F400002860009802F0BFFA0646FD
:1029000076B100E0012637432078400725D5D4F87A
:10291000900006281FD2DFE800F01C0C141C1C1CC1
:10292000626FDAF8001021F007011143CAF80010B5
:10293000EAE7286840F480102860201D02F034FA8D
:1029400006E0286840F400002860009802F096FA3B
:1029500006469EB100E0012637432078800631D537
:10296000D4F88C00B0F1405F2AD011DC40B3B0F154
:10297000805F15D0B0F1005F10D119E0D4F890203D
:10298000D8F8001021F007011143C8F80010E4E75F
:10299000B0F1804F14D0B0F1A04F11D0012610E05B
:1029A000286840F400202860201D02F0FDF906E0B0
:1029B000286840F080702860009802F05FFA0646B0
:1029C0008EB137432078400631D5D4F89800B0F561
:1029D000406F2AD011DC40B3B0F5806F15D0B0F550
:1029E000006F10D119E0D4F88C20DAF8001021F033
:1029F000E0411143CAF80010E4E7B0F5805F14D05D
:102A0000B0F5A05F11D0012610E0286840F4002046
:102A10002860201D02F0C8F906E0286840F08070A8
:102A20002860009802F02AFA06468EB137432078D3
:102A3000000631D5D4F89C00B0F5C04F2AD011DC87
:102A400040B3B0F5005F15D0B0F5804F10D119E05C
:102A5000D4F89820D8F8001021F4E0511143C8F8B8
:102A60000010E4E7B0F5004F14D0B0F5204F11D0BE
:102A7000012610E0286840F400202860201D02F0A4
:102A800093F906E0286840F080702860009802F012
:102A9000F5F9064666B33743207800070BD5D4F81E
:102AA0008010B1F5805F2DD0DAF8002022F440527A
:102AB0000A43CAF800202078C0060BD5D4F8941039
:102AC000B1F5807F26D0D8F8002022F440720A4366
:102AD000C8F800202068000336D5D4F8A00008B359
:102AE000B0F5803F26D0B0F5003F2BD001262AE07C
:102AF000D4F89C20D8F8001021F460411143C8F8A4
:102B00000010C9E7009802F0B9F9286840F0807019
:102B10002860D0E7009802F0B1F9286840F0807092
:102B20002860D7E7286840F400202860201D02F0C4
:102B30003BF906E0286840F080702860009802F0B9
:102B40009DF90646B6B13743206840032BD5D4F82B
:102B50008400B0F5801F17D0B0F5001F19D0B0F574
:102B6000401F1ED001261DE01044025800480258A4
:102B7000CFFFFF00D4F8A020D8F8001021F4403196
:102B80001143C8F80010DFE7286840F400302860DF
:102B900007E0286840F400002860009802F06EF911
:102BA000064656B137432068C0031FD5E06C70B1AC
:102BB000B0F5803F10D0012617E0D4F88420DAF871
:102BC000001021F440111143CAF80010EBE7286807
:102BD00040F40030286007E0286840F400102860C6
:102BE000201D02F0E1F80646DEB137432068800080
:102BF00007D5286840F080702860009802F03EF900
:102C00000743206880031AD5E06FB0B1B0F5807F2C
:102C10000FD0B0F5007F10D0B0F5407F0DD0012669
:102C20000CE02D48E26C016821F480311143016011
:102C3000DCE7286840F400302860EEB337432068B2
:102C4000C00207D5226FD9F8001021F000411143CE
:102C5000C9F800102068C00008D5D4F8B420DBF80B
:102C6000001021F480411143CBF80010206880024D
:102C700007D5A26ED9F8001021F080711143C9F870
:102C80000010206840000CD5DBF8001021F4004152
:102C9000CBF80010DBF80010D4F8B8201143CBF8C3
:102CA00000102068002806DA0B48226D016821F028
:102CB00040511143016000E003E05FB10120BDE835
:102CC000FC9FE26FDAF8001021F440711143CAF85A
:102CD0000010B4E70020F2E74C44025802490A68A9
:102CE00002430A6070470000A04402582DE9F047F3
:102CF000DFF8C49104460E46D9F8000000F0070042
:102D0000B0420CD2D9F8001021F007013143C9F8C4
:102D10000010D9F8000000F00700B04272D120780E
:102D2000DFF89881800707D5E268D8F8001021F015
:102D30000F011143C8F800102078C00767D05F4921
:102D4000A368D8F80020183922F470621A43C8F832
:102D50000020606802281CD003281DD009680128C3
:102D60001DD04907002963DA544D083D296821F038
:102D7000070101432960FEF757FF6168074641F2EA
:102D80008830022914D0032920D0012982462AD074
:102D900039E009688903E5E709688901E2E7C905BF
:102DA000E0E700BFFEF740FFC11B514501D926E017
:102DB00082462868C0F3C2000228F3D127E000BF92
:102DC000FEF732FFC11B514501D918E08246286841
:102DD000C0F3C2000328F3D119E000BFFEF724FFBF
:102DE000C11B51450BD82868C0F3C2000128F5D19A
:102DF0000DE000BFFEF718FFC11B514503D90320AA
:102E0000BDE8F08714E0286810F0380FF2D1D9F847
:102E10000010484601F00701B1420BD9016821F0CA
:102E2000070131430160006800F00700B04201D0A3
:102E30000120E5E72078400707D52269D8F800107F
:102E400021F070011143C8F8001021781B48001DC3
:102E5000090705D56269016821F07001114301601D
:102E60002178C90605D5A269016821F4E061114302
:102E700001602078800607D51048E26908300168B3
:102E800021F070011143016000F064F8D8F80010DF
:102E90004FF4807292FAA2F201F47061B2FA82F2F7
:102EA000D140074A515CC840064908600F20FEF730
:102EB00005FF0020A4E7000000200052184402583B
:102EC000F8A80008D400002410B5FFF7EDF8084971
:102ED00001230A6893FAA3F3064902F00F02B3FA3A
:102EE00083F3DA40044B9A5CD040086010BD0000C8
:102EF00018440258D8000024F8A8000810B5FFF7BD
:102F0000E3FF07491022096892FAA2F201F070016A
:102F1000B2FA82F2D140034A515CC84010BD0000B1
:102F20001C440258F8A8000810B5FFF7CDFF074968
:102F30004FF48072096892FAA2F201F4E061B2FAE9
:102F400082F2D140024A515CC84010BD1C44025874
:102F5000F8A800084749F0B547480968454B103BB9
:102F600011F0380409D00111082C04D0434A102C68
:102F70000BD0182C0BD00846F0BD19688906FBD57C
:102F80001968C1F3C101C840F0BD1046F0BD394C0D
:102F9000DFF8E0C01834261D0CF1240C2768351D1D
:102FA0002468DFED370AB7EE001A3668DCF800C097
:102FB00017F0030706F00106C4F30514CCF3CC0C9C
:102FC0001CFB06F600EE106AB8EE400A09D0012F8D
:102FD00001D0022F3BD02868B1FBF4F1C0F3080008
:102FE0003AE01968890615D51A682968C2F3C10242
:102FF000C1F30801D04001EE901AB0FBF4F0F8EEF6
:10300000611A40EE201A00EE100A71EE810AB8EE45
:10301000400A0BE02968B0FBF4F0C1F3080101EEAF
:10302000901AB8EE612A01EE900A1BE020EE200A09
:103030002868C0F34620401C00EE900AF8EE600AB3
:1030400080EE201ABCEEC10A10EE100AF0BD28680E
:10305000B2FBF4F1C0F3080001EE900AB8EE612A69
:1030600001EE901A00EE202AB8EE610A72EE010A13
:10307000DCE70000104402580090D00340787D0146
:10308000000000392DE9F05FFD4C0546007841F263
:103090008838DFF8EC93103CF94FC00709F11809A4
:1030A0004CD03868C0F3C20002281AD03868C0F388
:1030B000C200032805D1D9F8000000F0030002285F
:1030C0000FD06868B0F5803F12D010B1B0F5A02FD6
:1030D00018D0206820F480302060206820F4802000
:1030E00009E02068800329D5686800286CD025E0B5
:1030F000206840F480302060686890B1FEF794FD4D
:1031000006460AE0206840F480202060F0E700BF17
:10311000FEF78AFD811B414575D820688003F7D5ED
:103120000CE0FEF781FD064605E000BFFEF77CFDE2
:10313000811B4145F0D820688003F7D42878D04E11
:103140000C3E800769D538684FF47C3B10F0380F8F
:1031500013D03868C0F3C200032803D1D9F80000A7
:1031600080070AD0E86870B3216821F01901014393
:103170002160FEF759FD82462EE02068400702D507
:10318000E8680028B2D0E968206820F019000843F8
:103190002060FEF749FD824606E000BFFEF744FDD1
:1031A000A0EB0A000228B7D820684007F6D52969A5
:1031B00032689BFAABF0B0FA80F0814022F47C30A8
:1031C0000843306029E016E0BEE000BFFEF72CFDAA
:1031D000A0EB0A0002289FD820684007F6D528698E
:1031E00032689BFAABF1B1FA81F1884022F47C316C
:1031F0000143316011E0206820F001002060FEF7FB
:1032000013FD824606E0EFE0FEF70EFDA0EB0A009C
:1032100002288FD820684007F6D42878C00647D502
:1032200038684FF0F84BC0F3C200012815D0386859
:10323000C0F3C200032805D1D9F8000000F0030054
:1032400001280AD0E8690028206822D040F08000D8
:103250002060FEF7E9FC82460CE02068C0050CD532
:10326000E869802870D108E0FEF7DEFCA0EB0A00D8
:10327000022898D82068C005F6D5286A32689BFADB
:10328000ABF1B1FA81F1884022F0F841014331609D
:103290000EE020F080002060FEF7C6FC064604E049
:1032A000FEF7C2FC801B022895D82068C005F7D421
:1032B0002878000729D57248696964300029824658
:1032C000016811D041F001010160FEF7ADFC064636
:1032D00005E000BFFEF7A8FC801B022899D8DAF8A9
:1032E00000008007F6D510E021F001010160FEF733
:1032F0009BFC064605E000BFFEF796FC801B0228FB
:1033000072D8DAF800008007F6D42878800625D530
:10331000A8690028206810D040F480502060FEF793
:1033200083FC064605E000BFFEF77EFC801B0228FA
:103330005AD820688004F7D510E020F4805020602F
:10334000FEF772FC064606E0D4E000BFFEF76CFC18
:10335000801B022848D820688004F7D428784007CA
:103360004DD5DFF820A1DAF8001041F48071CAF8D9
:103370000010FEF759FC064605E000BFFEF754FCBE
:10338000801B642830D8DAF80000C005F6D53C4E22
:10339000A868603601280AD008B1052811D0306825
:1033A00020F001003060306820F0040002E0306856
:1033B00040F001003060A86890B1FEF735FC82460D
:1033C0000AE0306840F004003060F0E7FEF72CFCC3
:1033D000A0EB0A01414507D830688007F6D50EE01A
:1033E000FEF722FC824607E083E000BFFEF71CFCEC
:1033F000A0EB0A0141457CD830688007F6D4686AA2
:10340000E8B33968C1F3C201032973D002282068E8
:1034100020F08070206003D0FEF706FC054683E0B4
:10342000FEF702FC064604E0FEF7FEFB801B0228C6
:1034300077D820688001F7D4EB6A40F2F332D9F8EC
:1034400000104FF4FE0755F8286F914341EA03112D
:103450003143C9F80010287B4FF0FE4C084EB5F8F8
:10346000088040022B8A20362A7DA8F10108311DF0
:10347000A0F5007080B25B1EC8F3080804E056E0B7
:103480001044025800480258521E07EA034340EA1B
:1034900008000CEA02674FF6F872184338433060B0
:1034A0000B6892FAA2F72E6AB7FA87F7224893437D
:1034B000BE4033430B600168AA6921F00C0111433F
:1034C00001600168EA6921F00201114301600168AD
:1034D00041F480310160016841F40031016001680C
:1034E00041F480210160016841F001010160206820
:1034F00001E016E01DE040F080702060FEF794FBD4
:10350000054604E0FEF790FB401B022809D820681E
:103510008001F7D50BE000BFFEF786FB401B0228B9
:1035200002D90320BDE8F09F20688001F4D4002078
:10353000F8E70120F6E700002C44025870470068C5
:10354000503050F8210070470068503040F821207A
:10355000704700002DE9F04106460068DFF8A4E05E
:10356000002715460C4640224FF63F7C016B002B8E
:10357000406B01EA0E0100EA0C00C1F30543237021
:1035800002EA1142C1F3062C84F801C001F07F0168
:10359000A170E27000F03F023368C0F30421C0F371
:1035A00042309B6B6360EF706970AA70287017D10E
:1035B000207801F0D3FC2070607801F0CFFC6070BF
:1035C000A07801F0CBFCA070687801F0C7FC6870AF
:1035D000A87801F0C3FCA870287801F0BFFC28701F
:1035E0003068C16801F08001A1F500318139C16006
:1035F0003068C16801F0800161F40861C160002099
:10360000BDE8F0817F7F7F002DE9F04390F8202016
:10361000012A70D04FF0010980F82090022380F831
:1036200021308A6812B10A6852008A60CA68002490
:1036300092B10A68CC60D30702D04FF40033CB605C
:10364000130703D5CB6843F48013CB60920603D5F0
:10365000CA6842F40002CA600A6992B10A680C6141
:10366000D30702D04FF480230B61130703D50B69F6
:1036700043F400130B61920603D50A6942F080728D
:103680000A6108C90568DFF8748091E8C400D1F8C0
:103690000CC01A433E4348EA4307D5F84080324302
:1036A00001F110063B4342EA0C0296E8C01028EAFA
:1036B0000308D1E907313243C5F8408005683A4331
:1036C00042EA0C021A432B6C0A434FF0B0411343F9
:1036D0002B64D1F8802042F48022C1F880200B684E
:1036E00043F480230B6080F8219080F82040002074
:1036F000BDE8F083FFE70220FAE7000084FFFF0146
:1037000070B590F82020012A32D0012380F82030B3
:10371000022280F821200468CA2640F60805A26823
:10372000666253240668AA4374620A4301688A6089
:1037300001688A6842F400628A60026894684FF007
:10374000B04144F400449460D1F8802042F48022D7
:10375000C1F880200A6842F480220A600468FF21D0
:103760000022616280F8213080F82020104670BD70
:10377000022070BD2DE9F74F044690F820008B46DB
:1037800001281AD002224FF0010884F82080CA21B3
:1037900084F82120532022680025FF264FF0030AD9
:1037A0004FF47A7951622168486220688068400548
:1037B0000FD5FEF739FA074607E00220BDE8FE8F75
:1037C000FEF732FAC01B484519D82068C068400788
:1037D000F6D42068816821F4806181602068C16826
:1037E00001F0800161F49061C160FEF71DFA0746A7
:1037F0000DE000BFFEF718FAC01B484507D9216845
:103800004E6284F821A0032084F82050D6E7206877
:10381000C0684007EED522684FF0B040C2F814B03F
:10382000424621688B6823F007038B6021688B6810
:10383000029F3B438B60D0F8801041F40021C0F818
:103840008010016841F4002101602068816841F422
:10385000804181602068816841F4806181602068D6
:10386000466284F82120002084F82050A6E700005A
:103870000EA010B502F008FAFCF7ECFEA0B119A0FA
:1038800002F002FA1E480168CA6802F0800262F47F
:103890000252CA600068016C21F001010164016CF0
:1038A00021F00101016410BD16A0E9E754616D70BB
:1038B000657231204576656E742064657465637445
:1038C00065642C20616C6C2074686520424B52202A
:1038D00077696C6C20626520726573657421200DB8
:1038E0000A0000000A0D20525443B1B8B7DDBCC431
:1038F000B4E6C6F7B8B4CEBBCAA7B0DC200A0D0048
:10390000E80400240A0D20525443B1B8B7DDBCC40A
:10391000B4E6C6F7B8B4CEBBB3C9B9A6200A0D0049
:10392000704770474FF0B04110B504464FF4802007
:10393000C1F888002068816809040CD5C0680005BA
:1039400009D5204600F048F82068C16801F08001E0
:1039500061F40861C16020681C4A016C11420CD0FE
:10396000C068800409D52046FFF782FF2068C1683F
:1039700001F0800161F40251C1602068144A016CB9
:1039800011420CD0C068400409D52046FFF7C8FF9B
:103990002068C16801F0800161F48141C160206844
:1039A0000C4A016C11420DD0C06800040AD52046B3
:1039B000FFF7B7FF2068C16801F08001A1F5004161
:1039C0008139C160012084F8210010BD040001008C
:1039D000040008000400400010B50E4900230C4A02
:1039E000A1F12400FFF7B6FD0BA002F04DF9094844
:1039F00083784278017814A002F046F9044883786D
:103A00004278C17815A0BDE8104002F03DB9000031
:103A10004D0000240C05002454696D655374616DDC
:103A200070204576656E74206465746563746564A2
:103A30002C207468652074696D652069732073613A
:103A400076656421200D0A00252E32643A252E3237
:103A5000643A252E3264200D0A000000252E3264BF
:103A60002D252E32642D252E3264200D0A000000F3
:103A700001A002F009B9000052544345785F576134
:103A80006B65557054696D65724576656E744361FA
:103A90006C6C6261636B210D0A0000004FF0B04155
:103AA00010B504464FF40020C1F888002068C168B2
:103AB000490508D5C16801F0800161F49061C160D9
:103AC0002046FFF7D5FF012084F8210010BD00003B
:103AD00001A002F0D9B800005254435F416C6172FA
:103AE0006D414576656E7443616C6C6261636B21F8
:103AF0000D0A00004FF0B04110B504464FF40030FD
:103B0000C1F8880020688168C9040BD5C168C9055F
:103B100008D5C16801F0800161F4C071C160204620
:103B2000FFF7D6FF2068816889040BD5C168890535
:103B300008D5C16801F0800161F42071C1602046A0
:103B4000FFF7FCFC012084F8210010BDF0B50C4605
:103B50004FF480718A4204D161620068C169406C8F
:103B600005E04FF4007161620068016A806C4027D3
:103B700001F07F06C1F30625C0F30E02C1F3054034
:103B80002070657007EA1147A670C1F3056CE770F5
:103B900001F0804E626001F0803184F820C0C4F8EA
:103BA0001CE0616183B901F0D9F92070607801F0FF
:103BB000D5F96070A07801F0D1F9A07094F82000D8
:103BC00001F0CCF984F820000020F0BD10B50B46C0
:103BD00001680F48002A496801EA000101F03F042A
:103BE0004FEA1140D870C1F304225A709C70C1F39F
:103BF000423119700AD101F0B1F9D870587801F04A
:103C0000ADF95870987801F0A9F99870002010BDAE
:103C10003FFFFF0030B50B460168144D4024002AD9
:103C2000896A596001680969C1F30E0199600068E9
:103C3000016801EA050104EA1142C1F30540187068
:103C4000C1F306245C7001F07F019970DA700AD12B
:103C500001F084F91870587801F080F9587098785C
:103C600001F07CF99870002030BD00007F7F7F005C
:103C70002DE9F041040003D094F8210018B108E0C8
:103C80000120BDE8F081002084F82000204600F0EB
:103C900047F8022084F82100CA212268532051628B
:103CA00021684862204601F06DF9002820684FF035
:103CB000FF0104D00422416284F82120E0E7174D7F
:103CC000012382682A408260D4E90006A769256939
:103CD00082683D4332432A4382602268E068106173
:103CE00020682289056945EA024202612068C268AB
:103CF00022F08002C2602068C26C22F00302C2641B
:103D000020686569E269C66C2A433243C264206850
:103D1000416284F821300020B3E70000BFFF8FFF2D
:103D2000124800B5C3B0016841F4803101600068F9
:103D300000F480304290FEF7AFF904202F9000216C
:103D40003891012231922FA8FFF79CF94FF480009F
:103D50000090811368462C91FEF7F6FA03488438E8
:103D6000016841F40041016043B000BDF4440258D1
:103D70002DE9F05F044690F820000B46012851D051
:103D80000221012084F8200084F821104FF0000661
:103D9000206880684FEA4060F2B3002863DA187840
:103DA00001F0DCF893F8200001F0D8F8597893F886
:103DB00000C0DA789878090293F8205040EA0C4065
:103DC000DF6941EA0241D3F814C0084340EA0565BF
:103DD0003D4345EA0C052268D3F818C0CA215F6844
:103DE00053204FF0FF0851624FF47A7A216847EA76
:103DF0000C074FF0030B4862586AB0F5807F2068CB
:103E0000816832D021F4007181602068C16801F0BE
:103E1000800161F4207100E007E0C160FDF704FF5C
:103E200081465EE00220BDE8F09F002800DBDE70E6
:103E3000187801F09CF80204587801F098F842EAEA
:103E40000022987801F093F8D978024393F8200083
:103E500042EA014201F08BF8D96942EA00655869EB
:103E60000D430543B7E7DE709CE721F48071816064
:103E70002068C16801F0800161F4C071C160FDF784
:103E8000D3FE81460CE000BFFDF7CEFEA0EB09009B
:103E9000504505D92268C2F8248084F821B01CE07E
:103EA0002068C068C007EFD02068C56120684764FB
:103EB0002068816841F4807181602068816841F4E4
:103EC00080511FE0FDF7B0FEA0EB0900504508D976
:103ED0002268C2F8248084F821B0032084F820608E
:103EE000A1E72068C0688007ECD5206805622068DB
:103EF00087642068816841F400718160206881686E
:103F000041F4005181604FF0B040D0F88030012280
:103F100043F40033C0F88030036843F40033036097
:103F20002068C0F8248084F82120002084F82060D4
:103F300079E700002DE9F047044690F820000B4691
:103F4000012828D04FF0010984F82090022184F83C
:103F50002110587812B301F001F8987800F0FEFFB4
:103F600059789878DA781B78090240EA024541EAE4
:103F7000433005432268CA215320516221684862B8
:103F8000204600F0FFFF4FF000064FF0FF074FF014
:103F9000040858BB19E00220BDE8F087C10603D52C
:103FA00000F0EF000A305870D87800F0E0FF02040B
:103FB000587800F0DCFF42EA0022987800F0D7FF42
:103FC0001978024342EA4135D4E721680F48054099
:103FD0004D602068C16821F08001C1602068806860
:103FE00080060BD4204600F091F838B121684F626A
:103FF00084F82180012084F82060CDE721684F6299
:1040000084F82190002084F82060C5E73FFFFF007E
:104010002DE9F047044690F820000D46012813D002
:104020004FF0010A84F820A0022184F821102068B2
:104030004FF0000680684FEA406042B100281ADA6B
:10404000287800F08BFF17E00220BDE8F0870028F9
:1040500000DBEE70287800F08AFF0204687800F038
:1040600086FF42EA0022A87800F081FFE978024347
:1040700042EA01470AE0EE7069782A78A878EB787E
:10408000090240EA024741EA034007432268CA2185
:104090005320516221684862204600F073FF4FF0C0
:1040A000FF084FF00409E0B92168174807400F6086
:1040B0002068816821F4802181602068D5E903129D
:1040C00083681143194381602068C16821F0800131
:1040D000C1602068806880060CD4204600F016F885
:1040E00040B12268C2F8248084F82190012084F82D
:1040F0002060AAE72268C2F8248084F821A000206A
:1041000084F82060A1E700007F7F7F0070B504463F
:104110000068C16821F0A001C160FDF785FD4FF482
:104120007A76054607E000BFFDF77EFD401BB042F2
:1041300001D9032070BD2068C0688006F4D5002036
:1041400070BD000070B504000D4603D094F82C003B
:1041500010B107E0012070BD002084F82D0020463A
:1041600000F018F8022084F82C002068211DFDF7CB
:1041700011FBD4E900022946FDF752FB0448012156
:10418000026842F00042026084F82C10002070BDEA
:1041900000400052334810B586B0016841F002017A
:1041A0000160006800F0020005902E482038016888
:1041B00041F480510160006800F480500590294866
:1041C0001438016841F004010160016801F0040144
:1041D0000591016841F008010160016801F00801E2
:1041E0000591016841F010010160016801F01001C2
:1041F0000591016841F020010160016801F0200192
:104200000591016841F0400101600068022101222E
:1042100000F0400005900D2003230C248DE81F00C2
:1042200011486946FDF7F8FB4CF2037000900F4807
:104230006946FDF7F1FB4FF6837000900C48694624
:10424000FDF7EAFB4FF63F0000900A486946FDF78C
:10425000E3FB48F23710009007486946FDF7DCFBA6
:1042600006B010BDF444025800080258000C025871
:1042700000100258001402580018025810B50446E5
:1042800090F82C00022809D0022084F82C00206825
:10429000FDF7AFFA012084F82C00002010BD0000CB
:1042A00070B5044690F82C000D4602280DD002206F
:1042B00084F82C002068FDF7A2FA2868022805D0AF
:1042C0005FF0010084F82C00002070BD0520F9E7A4
:1042D00004284FF0E020016903D021F004010161BE
:1042E000704741F00401FAE7401EB0F1807F10B53D
:1042F00001D3012010BD4FF0E02460610F21601751
:1043000001F0E6FC0020A0610721216110BD70478B
:10431000704710B5040003D094F83D0010B107E0D9
:10432000012010BD002084F83C00204600F00CF86D
:10433000022084F83D002068211D00F03DFF01208F
:1043400084F83D00002010BD38B5164905460068C8
:10435000154C88420FD1206840F00800206020688A
:104360000122042100F0080000903220FDF748FEF1
:104370003220FDF738FE0D492868884211D12068A7
:1043800040F00200206020680422032100F00200B7
:1043900000901D20FDF734FEBDE838401D20FDF7DC
:1043A00022BE38BD000C0040E84402580004004022
:1043B0000168CA6842F00102CA600068018841F0E1
:1043C000010101800020704710B5017F022915D13D
:1043D000164C218859B1012910D1042100F02CFA82
:1043E0002061E16888420AD9A0EB01000FE04FF09C
:1043F000040100F021FAE0600121218010BD08D203
:104400004FF6FF72A2EB0101084400F10100A06029
:1044100001E0FDF7B8F9FEF787FDA2684100002032
:10442000B1FBF2F16160208010BD00002400002487
:1044300070B50446006800250169C943890715D491
:10444000C168C943890711D4EA1E0261012121779D
:10445000206880698007204602D0FFF7B5FF04E09E
:1044600000F0A6F8204600F097F92577206801694A
:10447000C943490717D4C168C943490713D4022166
:104480006FF00402026121772068806910F4407F98
:10449000204602D0FFF798FF04E000F089F820469C
:1044A00000F07AF9257720680169C943090716D415
:1044B000C168C943090712D404216FF008020261E0
:1044C00021772068C0698007204602D0FFF77CFF73
:1044D00004E000F06DF8204600F05EF925772068D2
:1044E0000169C943C90617D4C168C943C90613D4B1
:1044F00008216FF01002026121772068C06910F472
:10450000407F204602D0FFF75FFF04E000F050F844
:10451000204600F041F9257720680169C943C907A1
:1045200008D1C168C943C90704D1891E0161204669
:1045300000F060F920686FF080050169C943090641
:1045400007D4C168C943090603D405612046FFF7B3
:10455000DEFE20680169C943C90507D4C168C943A3
:10456000090603D405612046FFF7D1FE20680169E2
:10457000C943490609D4C168C943490605D46FF047
:1045800040010161204600F079F920680169C943C2
:1045900089060BD4C168C943890607D46FF020018E
:1045A00001612046BDE87040FFF7B2BE70BD00005B
:1045B0000A49884211D1007F0949012807D0022801
:1045C00007D0042807D0082807D1086A004748699F
:1045D000FCE78869FAE7C869F8E77047BC0300247C
:1045E0002400002470B5044690F83C000D460128D4
:1045F0000ED0012684F83C60022084F83D000C2A8D
:1046000045D007DC5AB1042A1BD0082A78D12CE007
:10461000022070BD102A4ED0142A71D15DE02068AE
:1046200000F038FE2068816941F00801816120684E
:10463000816921F00401816120682A69816911433F
:1046400011E0206800F07AFE2068816941F4006181
:1046500081612068816921F4806181612068296914
:10466000826942EA012181614AE0206800F0B2FEDD
:104670002068C16941F00801C1612068C16921F069
:104680000401C16120682A69C169114311E02068F1
:1046900000F0E6FE2068C16941F40061C161206854
:1046A000C16921F48061C16120682969C26942EA57
:1046B0000121C16124E0206800F008FF2068416DFD
:1046C00041F0080141652068416D21F00401416518
:1046D00020682A69416D114311E0206800F02CFF29
:1046E0002068416D41F4006141652068416D21F40D
:1046F0008061416520682969426D42EA0121416576
:10470000002084F83D6084F83C0070BD10B50400C2
:1047100003D094F83D0010B107E0012010BD002047
:1047200084F83C00204600F00DF8022084F83D009B
:104730002068211D00F040FD012084F83D0000208C
:1047400010BD0000124800B587B0016841F00201B9
:104750000160006800F0020005900D48083801680B
:1047600041F00201016000680DF1040C102100F01D
:1047700002000590022000910122694603238CE883
:104780000D0004900348FDF747F907B000BD000095
:10479000E8440258000402587047000010B5012296
:1047A0000446006800F06AFD0D48216881420BD084
:1047B0000C48814208D00C48814205D00B48814208
:1047C00002D00B48814203D1486C40F40040486459
:1047D0002068018841F001010180002010BD000027
:1047E000000001400004014000400140004401403D
:1047F0000048014010B504460748844202D107A092
:1048000001F042FA0B48844204D1BDE81040032075
:10481000FCF752B910BD0000BC03002454494D7888
:1048200020506572696F6420456C61707365642106
:10483000200D0A007005002490F83C300022012B66
:104840000AD0012380F83C3041B1042909D008295D
:104850000AD00C290DD10AE00220704701684A6B8A
:1048600007E001688A6B04E00168CA6B01E0016837
:104870000A6C002180F83C1010467047704710B554
:10488000040003D094F8790010B107E0012010BDB6
:10489000002084F87800204600F026F8242084F8D0
:1048A00079002068016821F001010160204600F0D4
:1048B0003DFF0128EBD0606B10B1204600F0A4FE54
:1048C0002068416821F4904141602068816821F0AE
:1048D0002A0181602068016841F0010101602046E1
:1048E000BDE8104000F0F4BE1E48F0B50168B5B058
:1048F00041F001010160016801F00101349101689A
:1049000041F00101016000680124009400F0010001
:10491000349000201E906846FDF716FD11481030B7
:10492000016841F0100101600068032102250E4F6B
:1049300000F010003490072633966002CDE9314133
:10494000CDE92F052FA93846FDF766F8A00231AA58
:10495000CDE92F052FA9384682E87000FDF75CF8F5
:1049600035B0F0BDE0440258000002582DE9F8438C
:10497000044690F879001F4616460D4620284ED171
:10498000C5B1BEB194F87800012848D0012284F85E
:10499000782021214FF00008C4F87C8084F8791039
:1049A0006034FDF741F9268081466680603C4FF413
:1049B000805619E00120BDE8F88300BFB4F862001A
:1049C000401EA4F8620000224B468021204600973A
:1049D00001F020F9A0B9A068B04201D1206988B1E6
:1049E00015F8010B21680885B4F862000028E5D1AC
:1049F00000224B4640212046009701F00BF938B1C8
:104A00000320D8E735F8020B2168C0F30800EAE775
:104A1000202184F87910002084F87880CBE70220E8
:104A2000C9E70000094810B500F06CF808480178A3
:104A3000491C017001781E2906D100210170BDE8D2
:104A4000104004A001F020B910BD0000780400243B
:104A50004800002457574447206665656420696E06
:104A60002048414C5F575744475F4561726C795706
:104A7000616B65757043616C6C6261636B282920A2
:104A80006576657279203330306D73210D0A000030
:104A900010B501684A68D243920507D48A68D243A8
:104AA000D20703D1921E8A60FFF7BCFF10BD10B57C
:104AB00004000ED000F010F82168E06840F080009B
:104AC000086094E80E0020691043184348600020F5
:104AD00010BD012010BD0000094808B5016841F073
:104AE0004001016000680322114600F04000009080
:104AF0000020FDF785FABDE808400020FDF773BAF5
:104B0000E4440258C168006801600020704700005A
:104B10000649002006A2135C0B85CB695B06FCD519
:104B2000401CC0B22A28F6D3FEE700000010014066
:104B30000D0A456E74657220486172644661756C39
:104B4000745F48616E646C65722C20537973746570
:104B50006D2048616C742E0D0A0000002DE9FE4F97
:104B600081460068882493468D888C2204EBCB17FD
:104B70008A46C3689421BE46C459C3F30B432B44F1
:104B800004F470441F04019702EBCB1240F80E406E
:104B900001EBCB13DAF800709C214FF0AC0C01EB69
:104BA000CB1440F2077102910CEBCB11D9F800C085
:104BB00098250020CDF800C0A02605EBCB15DCF829
:104BC0000CC006EBCB16CCF30B4C0CF1010C07EB35
:104BD0000C08DDF800C0019F48EA07084CF80E8079
:104BE000D9F80070BAF80CC0B846FF68C7F30A07D6
:104BF00067444FEA074E58F8027007F4704C48F8C3
:104C000002C0D9F800C0DAF80870DCF80C80C8F3EC
:104C10000A0808F10108B84448EA0E084CF8028076
:104C2000D9F80020D75827F00707D750D9F80070D7
:104C3000DAF81020FA509AF831209AF818304FEA32
:104C4000022C9AF83220120442EA0362D9F80030AA
:104C50001F5918519AF8303043EA0C031343D9F81E
:104C600000201351D9F80020535923F0FF0353516A
:104C7000D9F80020DAF814305351D9F800209359AC
:104C8000029CA3439351D9F80030DAE90724224368
:104C90009A51D9F8002053585050D9F80020DAF82A
:104CA00024005050DAF81000C8B301283AD0042884
:104CB0003AD0022838D0032836D0072834D0012033
:104CC000D9F80030B02505EBCB11B42284245D580F
:104CD00002EBCB1205F0E0255D50DAE9003504EB7C
:104CE000CB14EB1ABAF8285043434543D9F80000D7
:104CF000DB1D43EA05434350D9F8000081586FF3A8
:104D00000A018150D9F80000DAF82C108150D9F846
:104D10000000015941F001010151BDE8FE8FFFE79C
:104D20000420CDE70320CBE70220C9E70120FBF7F1
:104D30006BFE0220FBF794FE0DA000F0A5FF4FF4E0
:104D40007A742046FBF788FB0FA000F09DFF2046F9
:104D5000FBF782FBBFF34F8F1048114A016801F443
:104D6000E06111430160BFF34F8F00BFFDE700001A
:104D70004D656D20416363657373204572726F7278
:104D800021210D0A00000000536F667420526573E4
:104D90006574696E672E2E2E0D0A00000CED00E082
:104DA0000400FA05704770472DE9F047324E04467B
:104DB0004FF000093068C043800709D02E4D283DD0
:104DC000286820F080602860FCF72EFF074608E086
:104DD0000120BDE8F08700BFFCF726FFC01B0228BA
:104DE00043D828680001F7D4206831684FF4FE07E3
:104DF00021F47C3141EA00303060217A4FF0FE4CE2
:104E0000A389B4F8048049021B4E1B485B1E227C18
:104E1000A8F101081036001DA1F5007189B2521EDB
:104E2000C8F3080807EA034341EA080119430CEAFA
:104E30000262114331600168626921F0C0011143CF
:104E400001600168A26921F0200111430160286816
:104E500040F080602860FCF7E7FE044607E000BFF2
:104E6000FCF7E2FE001B022801D90320B1E7286805
:104E70000001F5D54846ACE7284402582DE9F04733
:104E8000324E04464FF000093068C043800709D015
:104E90002E4D283D286820F080502860FCF7C4FE85
:104EA000074608E00120BDE8F08700BFFCF7BCFE24
:104EB000C01B022843D828688000F7D420883168B6
:104EC0004FF4FE0721F07C7141EA00503060217AF6
:104ED0004FF0FE4CA389B4F8048049021B4E1B48D6
:104EE0005B1E227CA8F101081836001DA1F5007197
:104EF00089B2521EC8F3080807EA034341EA0801D1
:104F000019430CEA0262114331600168626921F4BD
:104F10004061114301600168A26921F400711143ED
:104F20000160286840F080502860FCF77DFE044650
:104F300007E000BFFCF778FE001B022801D9032020
:104F4000B1E728688000F5D54846ACE72844025808
:104F50000148FEF7CFBD0000E8040024020900F07C
:104F60000F0102EB820001EB4000C0B2704700214C
:104F700002E00A38491CC0B20A28FAD2090740EAFE
:104F80001160704770B504460068C168490614D4C2
:104F90004FF0FF31C160FCF747FE4FF47A760546CB
:104FA00007E000BFFCF740FE401BB04201D90320E0
:104FB00070BD2068C0684006F4D5002070BD0000B8
:104FC0000148FEF76BBD0000E804002470B51B4CDF
:104FD0000122A06820B1A068401EA06000D122700C
:104FE0000021174B01EB410003EB800045684DB1F8
:104FF00045686D1E456005D142700578012D01D1CF
:1050000085684560491CC9B20429EBD3E0680025D6
:105010006FF00041401CE060E068884200D1E5602C
:10502000FBF718FA6078401CC0B260700A2804D3FD
:105030006570BDE87040FBF7DFB970BD1400002457
:105040000C030024294830B59DB0016821F004010B
:10505000016026480C300024016841F440410160A1
:10506000016801F440411B9101688904FCD50220CC
:1050700003940121009105230794C2030192A0210A
:105080000990CDE90A030422CDE90C100825CDE9E9
:105090000E20CDE910546846FDF7F4FF00B1FEE79D
:1050A00040201A903F210301CDE916500322CDE99B
:1050B000180313AB13A883E816000421FDF716FEAE
:1050C00000B1FEE70A48016841F08001016008482C
:1050D000F430016841F002010160006800F0020054
:1050E0001B90FCF791FC1DB030BD00000C4802582D
:1050F000004402581D4AF0B51D49146800201C4B9D
:1051000044F47004146010330A681A4C42F001022F
:105110000A6018600D68164A25400D601832131D8C
:105120001C1D134D1060283518602A1D2060131DAA
:105130001C1D2860251D10602A1D1860131D20608D
:105140001C1D28601060186020600A680124084B4C
:10515000064FE606084D6033803F22F480220A6045
:105160001860C5F808413E60F0BD000088ED00E021
:10517000004402587FEDF6EA00800051034810B564
:10518000FEF7D0FB02490120087010BDE80400249E
:105190004C0000240148FFF74BB90000FC03002439
:1051A0000148FFF745B90000700500240148FFF7EA
:1051B0003FB90000BC0300242DE9F047274B4FF016
:1051C000804A274D02889842264E274F274C09D007
:1051D000504507D0A84205D0B04203D0B84201D014
:1051E000A04205D1D1F804C022F070024CEA0202BC
:1051F000DFF87CC0DFF87C809842DFF87C900FD02D
:1052000050450DD0A8420BD0B04209D0B84207D0CB
:10521000A04205D0604503D0404501D0484503D1A8
:10522000CD6822F440722A438D8A22F080022A43FC
:10523000028098428A68C2620A88028507D0A0422A
:1052400005D0604503D0404501D0484501D1098AC9
:10525000018601214161BDE8F087000000000140A6
:105260000004004000080040000C00400004014021
:1052700000400140004401400048014010B5046A6C
:1052800001238A408B409C430462016A11430162FE
:1052900010BD00002DE9F04F026ADFF88880DFF8CA
:1052A000889022F00102DFF884A0DFF884B0214F5B
:1052B0000262DFF884C0066A4268836926F002064B
:1052C0000D68B8428C6803EA0C0323F0030344EA38
:1052D000060445EA030507D0404505D0484503D0FC
:1052E000504501D0584505D1CB6824F0080423432C
:1052F00023F00404B84207D0404505D0484503D008
:10530000504501D0584505D122F44076D1E9053207
:1053100033431A4342608561496841630462BDE8D2
:10532000F08F0000000401400040014000440140B3
:1053300000480140000001408FFFFEFFF0B5026A07
:105340001E4E1F4C22F01002DFF878E00262056A60
:105350004368826925F02005D1F808C0A0420F6893
:1053600002EA060222F4407245EA0C1542EA0722DC
:1053700001D0704506D1CE6825F0800545EA0615B6
:1053800025F04005A0420AD0704508D00E4CA0423E
:1053900005D00E4CA04202D00D4CA04207D1D1E95D
:1053A000054623F4406343EA840343EA86034360EB
:1053B0008261496881630562F0BD0000FF8FFFFED6
:1053C0000000014000040140004001400044014051
:1053D00000480140F0B5026A1C4D1D4E22F4807257
:1053E000A8420262026A4368C76922F40072D1F8D7
:1053F00008C00C6827F0730742EA0C2244EA07044D
:1054000001D0B04206D1CF6822F4006242EA0722FE
:1054100022F48062A8420AD0B04208D00D4DA842C2
:1054200005D00D4DA84202D00C4DA84207D1D1E9BC
:10543000055623F4405343EA051343EA0613436039
:10544000C4614968C1630262F0BD00000000014010
:105450000004014000400140004401400048014078
:1054600070B5026A144B22F4805202629842036AB9
:105470004268C46923F400538E680D6824F4E6443E
:1054800043EA063344EA05240BD00C4DA84208D069
:105490000B4DA84205D00B4DA84202D00A4DA842A0
:1054A00004D14D6922F4804242EA85124260C4610F
:1054B00049680164036270BD0000014000040140BE
:1054C000004001400044014000480140F0B5026A3C
:1054D00022F480320262134F056A4268446D25F45B
:1054E00000350E89B8420B6824F0700445EA064581
:1054F00043EA04030BD00C4CA04208D00B4CA04252
:1055000005D00B4CA04202D00A4CA04204D14C69F9
:1055100022F4803242EA0422426043654968816590
:105520000562F0BD00000140000401400040014060
:105530000044014000480140F0B5026A22F48012A4
:105540000262134F046A4268436D24F400140E890A
:10555000B8420D6823F4E04344EA065443EA0523C5
:105560000BD00C4DA84208D00B4DA84205D00B4DD6
:10557000A84202D00A4DA84204D14D6922F400325B
:1055800042EA8522426043654968C1650462F0BD14
:10559000000001400004014000400140004401407F
:1055A0000048014070B500240646FDF7A7FC0546FB
:1055B000144840684105490D18D1C012082815D279
:1055C000DFE800F00406080A0C0E101201240FE0B8
:1055D00002240DE004240BE0082409E0102407E075
:1055E000202405E0402403E0802401E0FCF7CBF810
:1055F0004FF47A71B5FBF1F120037043B0FBF1F089
:1056000070BD00007804002490F83410C90706D05B
:105610000168836B4A6822F400321A434A6090F8AA
:105620003410890706D50168C36B4A6822F48032BA
:105630001A434A6090F83410490706D50168036C94
:105640004A6822F480221A434A6090F8341009070D
:1056500006D50168436C4A6822F400421A434A6046
:1056600090F83410C90606D50168836C8A6822F464
:1056700080521A438A6090F83410890606D5016872
:10568000C36C8A6822F400521A438A6090F834107E
:10569000490611D50168036D4A6822F480121A4345
:1056A0004A60016DB1F5801F06D10168436D4A68FB
:1056B00022F4C0021A434A6090F83410090606D555
:1056C0000168826D486820F40020104348607047EC
:1056D000F8B500260446C667FCF7A6FA054620681A
:1056E0006FF07E470068000708D500222B464FF474
:1056F00000112046009700F08DFA60B9206800681C
:1057000040070AD500222B464FF48001204600971F
:1057100000F080FA08B10320F8BD202084F8790059
:1057200084F8786084F87A000020F8BD2DE9F04F05
:1057300004460268816887B0C369D4E90465806A59
:105740003143F84E1D4313682943DFF8DC930843C7
:105750008025334000210343136020680F46E3682F
:10576000426822F440521A4342602368A0694B45C4
:1057700001D0226A1043A26AB2F1005F03D1D4E9DA
:105780000B2632431043D3F808C0DFF8A083E84E5D
:10579000E84A0CEA080C4CEA000CC3F808C0206880
:1057A000D4F824C0C36A23F00F0343EA0C03C36296
:1057B0002068B04210D1126802F03802182A74D062
:1057C00005DCCAB3082A7AD0102A47D179E0202A0A
:1057D0007BD0282A7CD17AE0D74B984209D1126835
:1057E00002F00702062A73D2DFE802F053696B6DFC
:1057F0006F71D24B984209D1126802F00702062A53
:1058000066D2DFE802F0465C5E606264CC4B984290
:1058100009D1126802F00702062A59D2DFE802F025
:10582000394F51535557C74B98420BD1126802F06C
:105830000702062A4CD200E00EE0DFE802F02A4020
:1058400042444648C04B984209D1126802F03802DF
:10585000182A38D0BBDCB4E74FF0010538E0BB4B69
:10586000984209D1126802F00702062A30D2DFE816
:1058700002F01026282A2C2EB54B98420BD1126824
:1058800002F00702062A23D2DFE802F003191B1DEB
:105890001F2100251CE048451AD1A64A121D126896
:1058A00002F00702062A13D202E00CE007E00CE047
:1058B000DFE802F0030507090B0D022508E00425C7
:1058C00006E0402504E0082502E0102500E0202540
:1058D000A04EDFF884A24845DFF880B27DD1102DBC
:1058E00031D006DC022D09D0042D0AD0082D2FD18D
:1058F00011E0202D29D0402D2AD107E0FCF7EEFB46
:1059000013E06846FCF700FC01980EE003A8FCF7E2
:105910008BFC049809E0DBF800005946800610D59E
:105920000968C1F3C1012AFA01F0002811D06168A9
:10593000894601EB410181420AD8B0EB093F07D803
:1059400008E05046F3E78648F1E74FF40040EEE701
:10595000012759E1102D4FF000085BD006DC022D25
:1059600011D0042D20D0082D04D13AE0202D57D09D
:10597000402D1ED001277B4AA0F540719142E7D807
:105980002168C86040E1FCF7A9FB626A0023414638
:1059900036F81220FAF79CFC6268090241EA1061AD
:1059A000034650081B0216E06846FCF7ADFB019861
:1059B00003E003A8FCF738FC04980023616A36F87A
:1059C00011201946FAF784FC626803461D0E500840
:1059D0001B0245EA0121181800E036E041EB0801FE
:1059E00014E0DBF800005946800609D50968002359
:1059F000C1F3C1012AFA01F0616A36F8112015E0FD
:105A0000606A002336F8102050460FE00023FAF7B2
:105A10005FFCB0E7606A002336F81020504805E0CC
:105A2000606A002336F810204FF400400021FAF796
:105A30004FFC02464FEA5900130E120210184A4654
:105A400043EA012141EB0801E0E7E3694FF400423A
:105A5000934257D1082D2BD005DC95B1012D13D0E1
:105A6000042D06D118E0102D3DD0202D43D0402D1F
:105A700018D00127226821F00F00C1F3420108432A
:105A80009CE0FDF73BFA01E0FDF74EFA0146606A43
:105A900036F8102060682BE06846FCF735FB626A38
:105AA000019922E003A8FCF7BFFB626A04991CE09D
:105AB000DBF800105846626A890608D5036836F894
:105AC00012206068C3F3C1032AFA03F110E036F82C
:105AD00012206068BAFBF2F1490001EB5001B1FB02
