:020000040800F2
:10000000903C0024AD020008F18A0008D98700085E
:10001000598A000899260008A9A2000800000000DB
:10002000000000000000000000000000BF02000807
:10003000792B000800000000F38A00088D8E00086C
:10004000ADA20008C702000895900008658D000861
:10005000C7020008C7020008C7020008C70200085C
:10006000C7020008C7020008C7020008C70200084C
:10007000C7020008C7020008C7020008C70200083C
:1000800009290008C7020008C7020008C7020008C3
:10009000C7020008C7020008C7020008C70200081C
:1000A000C7020008C7020008C7020008AD90000898
:1000B000C7020008C7020008BD900008C702000878
:1000C000C7020008C7020008C7020008C7020008EC
:1000D000C702000859A20008C7020008C7020008AA
:1000E000C7020008E58C000800000000C7020008F5
:1000F000C7020008C7020008C7020008C7020008BC
:10010000C7020008C702000801910008C7020008E2
:10011000C7020008C702000811910008C7020008C2
:10012000C7020008C7020008C7020008C70200088B
:10013000C7020008C7020008C7020008C70200087B
:1001400000000000000000000000000000000000AF
:10015000C7020008C7020008C7020008C70200085B
:10016000C7020008C7020008C7020008C70200084B
:10017000C7020008C7020008C7020008000000000C
:10018000C7020008C7020008C7020008C70200082B
:10019000C7020008C7020008C7020008C70200081B
:1001A000C7020008C7020008C7020008C70200080B
:1001B000C7020008C7020008C7020008C7020008FB
:1001C000C7020008C7020008C7020008C7020008EB
:1001D000C7020008C7020008C7020008C7020008DB
:1001E000C7020008C7020008C7020008C7020008CB
:1001F000C7020008C7020008C7020008C7020008BB
:10020000C7020008C7020008C7020008C7020008AA
:10021000C7020008C7020008C7020008C70200089A
:10022000C7020008C7020008C7020008000000005B
:10023000C7020008C702000800000000C70200084B
:10024000C7020008C7020008C7020008C70200086A
:10025000C7020008C7020008C7020008C70200085A
:10026000C7020008C7020008C7020008C70200084A
:10027000C7020008C7020008C7020008000000000B
:10028000C702000800000000C702000800000000CC
:1002900000000000C7020008DFF80CD000F07AF878
:1002A00000480047E9A70008903C00240648804722
:1002B00006480047FEE7FEE7FEE7FEE7FEE7FEE74B
:1002C000FEE7FEE7FEE7FEE701900008990200085E
:1002D0002DE9F05F0546002092469B46884606467B
:1002E000814640241BE0284641464746224600F00E
:1002F00041F853465A46C01A914110D31146184648
:10030000224600F028F82D1A67EB01084F462246D6
:100310000120002100F01FF817EB00094E41201EBC
:10032000A4F10104DFDC484631462A464346BDE8D5
:10033000F09F40EA01039B0703D009E008C9121FA0
:1003400008C0042AFAD203E011F8013B00F8013B8F
:10035000521EF9D27047202A04DB203A00FA02F13B
:10036000002070479140C2F1200320FA03F31943A3
:1003700090407047202A04DB203A21FA02F0002145
:10038000704721FA02F3D040C2F1200291400843A5
:1003900019467047064C074D06E0E06840F001033F
:1003A00094E8070098471034AC42F6D3FFF778FF83
:1003B000040701082407010870B58C1810F8015BC8
:1003C00015F0070301D110F8013B2A1106D110F8EE
:1003D000012B03E010F8016B01F8016B5B1EF9D1F2
:1003E0002B0705D40023521E0DD401F8013BFAE778
:1003F00010F8013BCB1A921C03E013F8015B01F8E3
:10040000015B521EF9D5A142D8D3002070BD000077
:100410002DE9F04104460D460027B8460026206825
:10042000806800F00C0008B1012000E000200028E6
:100430006CD02068C06800F00070F8B1607D0128C1
:100440001CD1207D012819D10C250EE030488642B0
:100450000AD3606D40F010006065A06D40F00100AF
:10046000A0650120BDE8F081761C20680068C0F31B
:1004700080100028EAD0402021680860602D0FD04D
:100480002068806800F0040050B12068806800F0A7
:10049000020028B92068806840F010002168886058
:1004A0000C2D0FD02068806800F0080050B1206843
:1004B000806800F0020028B92068806840F02000C1
:1004C00021688860602D03D06C2D03D10C2703E0D8
:1004D000082701E0042700BF00BF04F087FC804626
:1004E0000FE004F083FCA0EB0800052809D9606D3B
:1004F00040F010006065A06D40F00100A065012093
:10050000B0E72068806838400028EAD10020A9E7D9
:1005100000DC0C0070B50546AC6B606D00F050005F
:10052000A0BB606D40F4007060652068006800F05A
:100530000800B0B12068C06800F4406010BB2068BB
:10054000C06800F40050E8B9606D20F48070606508
:10055000606D00F48050A8B9606D40F001006065E6
:1005600010E02068C06800F0030058B9606D20F406
:1005700080706065606D00F4805018B9606D40F067
:1005800001006065204603F081F807E0FFE7606D39
:1005900000F0100010B1204603F0FAF970BD70B5FC
:1005A0000546AC6B606D40F040006065A06D40F0AA
:1005B0000400A065204603F0EBF970BD70B5044659
:1005C000A56B284603F068F870BD70B50446002599
:1005D0002068806800F00300012806D120680068C8
:1005E00000F0010008B1012000E0002080B3206885
:1005F000806800F00D00012800D100E0002050B11B
:1006000000BF2068806840F00200216888600320F5
:100610002168086009E0606D40F010006065A06D21
:1006200040F00100A065012070BD04F0DFFB05462D
:100630000FE004F0DBFB401B02280AD9606D40F09C
:1006400010006065A06D40F00100A0650120EBE79F
:1006500005E02068806800F001000028E9D1002052
:10066000E2E7000070B5044600252068806800F0CD
:100670000300012806D12068006800F0010008B1DD
:10068000012000E0002088BB206880681C490840E9
:1006900008B9012000E0002048B9606D40F010006A
:1006A0006065A06D40F00100A065012070BD20686C
:1006B000806840F001002168886004F097FB0546DF
:1006C00015E02068806840F001002168886004F02F
:1006D0008DFB401B02280AD9606D40F01000606558
:1006E000A06D40F00100A0650120DFE705E0206873
:1006F000006800F001000028E3D00020D6E70000E9
:100700003F0000807047000010B507480078401C8B
:1007100005490870084600783C2804D1002008707C
:10072000012001F02FF910BDF201002470470000F4
:1007300010B5044604B910BD012C00D102240120DB
:1007400009F00BFE0948046000200949087009F00F
:1007500004FE06E0FFF7D6FF05480078012800D127
:1007600000E0F7E700BF00BFE5E70000C00200249B
:10077000C402002470B5034600224FF0E0267569DC
:100780000D4E366803FB06F44FF0E026B16910E029
:100790004FF0E026B06988420BD0884202D20E1A90
:1007A000324402E02E1A0E4432440146A24200D3E3
:1007B00000E0EDE700BF70BDBC0200242DE9F04170
:1007C00004460E4617461D464FF0804022490860F9
:1007D0000846466000218160601E1F49C8600021F4
:1007E0001D48016107F0F0FC60201C49086004FB13
:1007F00007F000EE100AB8EE400B9FED191B20EE3B
:10080000010BBCEEC00B084680ED010A0220886097
:10081000082D0DD10822104807F01CFC2B463A4643
:100820003146204601F09AFE08210B4807F01EFDD4
:100830000C2D0ED10C220949074807F00BFC2B4662
:100840003A463146204601F089FE0C21024807F065
:100850000DFDBDE8F0810000280500246C07002490
:100860007B14AE47E17A843F38B505460C4600BF9D
:100870001348006840F00400114908600846006809
:1008800000F00400009000BF00BF0E480E49086051
:100890000846446000218160681E0B49C860002141
:1008A0000948016107F0E9F9032211461E2004F00E
:1008B000B4FC1E2004F0A1FC034807F05DFA38BD2B
:1008C000E844025800080040A805002430B587B06D
:1008D0000546062D64D2DFE805F0031323334353A6
:1008E0003C4C00BF3C48006840F004003A490860B6
:1008F0000846006800F00400019000BF00BF50E00F
:10090000364C00BF3448006840F08000324908602F
:100910000846006800F08000019000BF00BF40E082
:100920002E4C00BF2C48006840F080002A49086027
:100930000846006800F08000019000BF00BF30E072
:10094000274C00BF2448006840F008002249086096
:100950000846006800F00800019000BF00BF20E0DA
:100960001F4C00BF1C48006840F008001A4908608E
:100970000846006800F00800019000BF00BF10E0CA
:10098000174C00BF1448006840F008001249086086
:100990000846006800F00800019000BF00BF00E0BA
:1009A00000BF00BF0F4850F82500029001200390BF
:1009B00004900320059002A9204604F0DFF80948BE
:1009C00030F8250081B20122204604F009FA07B070
:1009D00030BD000000080258E0440258001C0258D4
:1009E000000C025824FE000870B50546002416E0ED
:1009F000002004EB44010E4A02EB8101486004EB45
:100A0000440102EB8101886004EB440102EB8101A7
:100A1000487004EB440102F82100601CC4B2042CAD
:100A2000E6DB042007F0F9F80248056070BD00001D
:100A3000F40A0024BC02002410B504460C480D49F9
:100A400008600846446000218160C16001618161E5
:100A50000C2141610021C16107F056FD08B102F08F
:100A60008CF801220449034807F0ECFD10BD00009A
:100A700000100140240B0024D402002410B5484883
:100A800002F010FE08B102F078F8464844490860C8
:100A90004FF4403048600021414881600121C1602D
:100AA0000421016100210175012141750521816148
:100AB000002101770162012141620021816203214D
:100AC000C1624FF480510163002180F83910012187
:100AD00080F8381002F066FF08B102F04EF80022EC
:100AE00011462F4802F008FA08B102F046F8122029
:100AF0002D49086001204860072088600020C860F8
:100B00000861486108764876254802F053FA1320B8
:100B10002549086002204860062088600020C860DF
:100B200008614861087648761D4802F043FA1120B2
:100B30001D49086003204860052088600020C860C7
:100B40000861486108764876154802F033FA0420B7
:100B5000154908604860032088600020C86008616B
:100B60004861087648760E4802F024FA06200E49BD
:100B7000086005204860012088600020C860086186
:100B8000486108764876064802F014FA05220749BB
:100B9000034803F053F908B101F0EFFF10BD000066
:100BA0005403002400600258B8030024D403002436
:100BB00070B5044600260D4805880D48006818B138
:100BC000204600F023FF0FE00848408845430021FD
:100BD000084600F01BFC00F02FFE002602E005494D
:100BE0000C80761CAE42FAD370BD00007C09002454
:100BF000100900240000086010B504465C488471A8
:100C00005C48006850B1204600F02AFF5948C08A6D
:100C1000574908805748008B488010BD002C51D19F
:100C2000F020534908804FF4A0704880084680881F
:100C300049F24131884205D04D48808845F2103153
:100C4000884214D12C204A4908812A2048812B202F
:100C500088810846808845F21031884206D14FF4D9
:100C6000A070434908804FF4F07048807BE0404812
:100C7000808845F21051884210D14FF430503C49E1
:100C800008814FF4285048814FF42C5088814FF44C
:100C9000F07008804FF44870488064E034488088E1
:100CA00041F6631188425ED12C20314908812B2006
:100CB00048812A2088814FF4F07008804FF44870F2
:100CC000488050E04FF4A07029490880F020488007
:100CD0000846808849F24131884205D024488088FE
:100CE00045F21031884207D12C20214908812A2061
:100CF00048812B20888129E01D48808845F21051C9
:100D0000884210D14FF43050194908814FF42850CF
:100D100048814FF42C5088814FF4487008804FF47C
:100D2000F070488012E01248808841F663118842D2
:100D30000CD12C200E4908812A2048812B20888143
:100D40004FF4487008804FF4F0704880084880885D
:100D500045F21031884206D14FF4F0700449088002
:100D60004FF4A0704880002000F016FA00BF54E74E
:100D70007C090024100900242DE9FF4F84B081462E
:100D80008A460020039002900698A0EB0905079878
:100D9000A0EB0A06CDF80490CDF800A0002D01DDEF
:100DA000012705E00DB9002702E04FF0FF376D4243
:100DB000002E02DD4FF0010806E016B94FF00008E2
:100DC00002E04FF0FF387642B54201DD2C4600E0EC
:100DD00034464FF0000B21E0009A91B2019A90B294
:100DE00000F022F8039828440390029830440290BF
:100DF0000398A04205DD0398001B03900198384436
:100E000001900298A04205DD0298001B0290009814
:100E1000404400900BF101001FFA80FB601C8345E9
:100E2000DADD08B0BDE8F08F30B504460D460A485B
:100E3000006830B1094829460268204600F026FEC5
:100E400009E02946204600F0E1FA00F0F5FC0348ED
:100E500000880349088030BD1009002428020024BE
:100E600000000860F0B504460D4616461F462B46A6
:100E7000324629462046FFF77FFF3B462246294659
:100E80002046FFF779FF3B46324639462046FFF7BA
:100E900073FF3B46324629463046FFF76DFFF0BDF3
:100EA0002DE9F04306460F469046002445460320B0
:100EB000A0EB48093CE07A1B91B2321990B2FFF7DF
:100EC000B3FF3A1B91B2721990B2FFF7ADFF3A1916
:100ED00091B2721990B2FFF7A7FF7A1991B2321945
:100EE00090B2FFF7A1FF7A1991B2321B90B2FFF7CF
:100EF0009BFF3A1991B2721B90B2FFF795FF7A1BD4
:100F000091B2321B90B2FFF78FFF3A1B91B2721B66
:100F100090B2FFF789FF641CB9F1000F03DAA0005B
:100F2000801D814404E0601B80000A3081446D1EF6
:100F3000AC42C0DDBDE8F08370B504460D461646F0
:100F40004348006828B132462946204600F09EFDFD
:100F500070BD4048808849F24131884205D03D4803
:100F6000808845F21031884214D13A49488900F00E
:100F70009DFF201200F08EFFE0B200F08BFF35499C
:100F8000888900F093FF281200F084FFE8B200F097
:100F900081FF54E02F48808845F21051884220D1CB
:100FA0002C49488900F082FF201200F073FF294984
:100FB0004989491C88B200F079FFE0B200F06AFF6D
:100FC0002449888900F072FF281200F063FF21494C
:100FD0008989491C88B200F069FFE8B200F05AFF25
:100FE0002DE01C48808841F66311884227D11948BA
:100FF000807920B917480088401E001B84B215492B
:10100000488900F053FF201200F044FFE0B200F0E6
:1010100041FF201200F03EFFE0B200F03BFF0D491F
:10102000888900F043FF281200F034FFE8B200F096
:1010300031FF281200F02EFFE8B200F02BFF054828
:10104000008905490880891C0E8000BF80E70000E8
:10105000100900247C090024FEFF07602DE9F84FE9
:1010600005460E4617469846DDF828904FF0000BCF
:101070001448006840B143463A4631462846CDF808
:10108000009000F02BFD1BE0781B401C1FFA80FB3A
:10109000344613E02146284600F0B8F900F0CCFBB6
:1010A0004FF0000A06E00849A1F800900AF101009B
:1010B0001FFA80FADA45F6DB601C84B24445E9DDAC
:1010C000BDE8F88F10090024000008602DE9F04108
:1010D00005460E4600240027A0462D480088A84259
:1010E00003DD2B484088B04202DC0020BDE8F081DF
:1010F0002848006820B13146284600F07BFEF5E71D
:101100003146284600F082F92148808849F2413171
:1011100088420BD01E48808845F21031884205D0A5
:101120001B48808841F66311884203D12E2000F0CD
:10113000BDFE09E01648808845F21051884203D16F
:101140004FF4385000F0B2FE00F09AFE044610480A
:10115000808841F66311884201D12046C6E702200B
:1011600009F047FB00F08CFE0446022009F041FB29
:1011700000F086FE8046E7B24FF6FF7000EA0727D0
:10118000E012C002B91240EA411040EAE820ADE79F
:101190007C09002410090024F0B50546002400272E
:1011A00099488079012805D19748808841F66311D4
:1011B000884208D194488079F0B99348808841F6F4
:1011C0006311884218D1082D15D2DFE805F0040616
:1011D000080A0C0E101206250DE007250BE0042569
:1011E00009E0052507E0012505E0002503E00325CA
:1011F00001E0022500BF00BF8348808849F24131E9
:10120000884211D08048808845F2103188420BD046
:101210007D48808845F21051884205D07A48808800
:1012200041F6631188427DD1082D1CD2DFE805F01C
:101230000406090C0F12151800BF14E044F08004D6
:1012400011E044F040040EE044F0C0040BE044F030
:10125000200408E044F0600405E044F0A00402E04B
:1012600044F0E00400BF00BF6748808845F2105199
:10127000884202D14FF4585700E0362762488088F0
:1012800045F2103188420DD05F48808845F21051F8
:10129000884207D05C48808841F66311884201D0BB
:1012A00044F008042146384600F0D0FA56488088B9
:1012B00041F6631188421DD004F0200068B1524805
:1012C000008851494988884214DA4F480688408886
:1012D0004D490880084646800CE04B4800884A4942
:1012E0004988884206DD4848068840884649088083
:1012F000084646804448808845F21051884254D1BF
:101300004149488900F0D2FD002000F0C3FD3E496C
:101310004989491C88B200F0C9FD002000F0BAFDDF
:10132000394900E06FE04989891C88B200F0BEFDB0
:1013300035490988491EC1F30F2000F0ABFD324941
:101340004989C91C88B200F0B1FD2F490978491EAE
:10135000C8B200F09FFD2C49888900F0A7FD00204D
:1013600000F098FD28498989491C88B200F09EFD4B
:10137000002000F08FFD24498989891C88B200F083
:1013800095FD21494988491EC1F30F2000F082FDD7
:101390001D498989C91C88B200F088FD1A498978DD
:1013A000491EC8B200F076FD2DE01749488900F0CB
:1013B0007DFD002000F06EFD002000F06BFD124965
:1013C0000988491EC1F30F2000F064FD0E49097819
:1013D000491EC8B200F05EFD0B49888900F066FD29
:1013E000002000F057FD002000F054FD0649498818
:1013F000491EC1F30F2000F04DFD03498978491EB5
:10140000C8B200F047FDF0BD7C09002410B50246CB
:101410000C464B48808849F24131884205D0484803
:10142000808845F21031884214D14549488900F03E
:101430003DFD101200F02EFDD0B200F02BFD404912
:10144000888900F033FD201200F024FDE0B200F0A6
:1014500021FD73E03A48808841F66311884247D104
:1014600037488079A8B936480088401E801A82B271
:101470003349488900F01AFD002000F00BFD0020E0
:1014800000F008FD101200F005FDD0B200F002FDE2
:1014900016E02B49488900F009FD101200F0FAFC13
:1014A000D0B200F0F7FC26490988491EC1F30F208D
:1014B00000F0F0FC22490978491EC8B200F0EAFCAD
:1014C0001F49888900F0F2FC201200F0E3FCE0B232
:1014D00000F0E0FC1A494988491EC1F30F2000F0D2
:1014E000D9FC17498978491EC8B200F0D3FC25E021
:1014F0001348808845F2105188421FD1104948890D
:1015000000F0D4FC101200F0C5FC0D494989491CBB
:1015100088B200F0CBFCD0B200F0BCFC084988894E
:1015200000F0C4FC201200F0B5FC05498989491C73
:1015300088B200F0BBFCE0B200F0ACFC10BD0000D3
:101540007C0900242DE9F84F80460F4616461C46BC
:10155000BB462046E31704EB5373DB1021464FEAEA
:10156000E47C04EB5C7C4FEAEC0CA4EBCC0CBCF10F
:10157000000F02D04FF0010C01E04FF0000C63446B
:10158000224604EBD27C4FEA6C0C03FB0CF3DBB27B
:101590000093A6F12000C6B200255EE00C2C07D116
:1015A00006EB46002F4901EB800010F805901BE088
:1015B000102C05D12C4800EB061010F8059013E014
:1015C000182C07D106EBC600284901EB800010F863
:1015D000059009E0202C05D1254800EBC61010F835
:1015E000059001E0BDE8F88F4FF0000A2FE009F008
:1015F000800030B11F48394602684046FFF79CFC26
:1016000007E00A9828B91C48394602684046FFF7A7
:1016100093FC4FEA49604FEA1069781C87B217487B
:101620004088B84200DCDDE7A7EB0B00A0420AD1FE
:101630005F4608F101001FFA80F810480088404515
:1016400000DCCFE706E00AF1010000F0FF0ABAF182
:10165000080FCCDB00BF681CC5B2009885429DDB3B
:1016600000BFBFE7B4B6000828BB000818C10008D7
:1016700074CE0008280200242C0200247C090024D7
:101680002DE9FF4F81B0074691461E460E9D4FF053
:10169000000A002439E0301B401EC1B20A2007F0C6
:1016A000C7F8B9FBF0F00A21B0FBF1F201FB120818
:1016B000BAF1000F16D1701EA04213DDB8F1000F71
:1016C0000ED10020AB4605EBDB71491001FB047124
:1016D000009088B22B4620220299FFF733FF12E0D8
:1016E0004FF0010A0020AB4605EBDB71491001FB0E
:1016F0000471009088B208F13001CAB22B460299F9
:10170000FFF720FF00BF601CC4B2B442C3DB05B0CA
:10171000BDE8F08F2DE9F84704460D4690469946FE
:10172000DDE9096704F0FF0A08EB04001FFA80F8FE
:1017300009EB05001FFA80F916E0444502DB544628
:10174000A81985B24D4500DB14E0002000903A78DE
:10175000334629462046FFF7F5FE304606EBD071AA
:1017600004EB61018CB27F1C38787E2802DC38786B
:101770002028E2DA00BFBDE8F8872DE9FF4F82B0EC
:10178000064692461F46DDE90F48002001900025DD
:101790004DE0781B401EC1B20A2007F049F8BAFBA1
:1017A000F0F00A21B0FBF1F201FB1209019850BBE5
:1017B000781EA84227DDB9F1000F22D108F0800081
:1017C00078B108F00100A34604EBDB71491001FB7E
:1017D0000561009088B2234630220399FFF7B2FEDC
:1017E0000EE008F00100A34604EBDB71491001FB99
:1017F0000561009088B2234620220399FFF7A2FEDC
:1018000013E00120019008F00100A34604EBDB7116
:10181000491001FB0561009088B209F13001CAB29C
:1018200023460399FFF78EFE00BF681CC5B2BD4278
:10183000AFDB06B0BDE8F08F02480089024908809E
:10184000704700007C090024FEFF0760024A1080F8
:10185000921C118070470000FEFF076010B504461F
:10186000062C3AD2DFE804F0030C151E27301C4882
:1018700030F8240081B201221A4803F0B1FA2DE0B9
:10188000174830F8240081B20122174803F0A8FA63
:1018900024E0134830F8240081B20122124803F0FA
:1018A0009FFA1BE00E4830F8240081B201220F4855
:1018B00003F096FA12E00A4830F8240081B20122BF
:1018C0000A4803F08DFA09E0054830F8240081B297
:1018D0000122064803F084FA00E000BF00BF10BDFB
:1018E00024FE000800080258001C0258000C025890
:1018F00010B50446062C3AD2DFE804F0030C151E9E
:1019000027301C4830F8240081B200221A4803F026
:1019100067FA2DE0174830F8240081B200221748FA
:1019200003F05EFA24E0134830F8240081B200226C
:10193000124803F055FA1BE00E4830F8240081B23B
:1019400000220F4803F04CFA12E00A4830F8240055
:1019500081B200220A4803F043FA09E0054830F852
:10196000240081B20022064803F03AFA00E000BFEA
:1019700000BF10BD24FE000800080258001C0258D9
:10198000000C025810B50446062C34D2DFE804F0EF
:10199000030B131B232B194830F8240081B218487D
:1019A00003F01AFA28E0154830F8240081B21548EF
:1019B00003F012FA20E0114830F8240081B21148F7
:1019C00003F00AFA18E00D4830F8240081B20E48FE
:1019D00003F002FA10E0094830F8240081B20A4806
:1019E00003F0FAF908E0054830F8240081B206480F
:1019F00003F0F2F900E000BF00BF10BD24FE0008B4
:101A000000080258001C0258000C025818B5044681
:101A100006480094008B401E83B20448C08A401ED2
:101A200082B20021084600F059F818BD10090024C0
:101A300070B5B0B004460E4615464FF00050019008
:101A40000A940B9602210C910D910E9501A803F0BA
:101A50009FFE10B9002030B070BD0120FBE70000F0
:101A60000949487530B98988074AD18211460988E1
:101A7000118308E0012806D103490988024AD1826E
:101A800011468988118370471009002470B5114BE5
:101A90005B7D6BB10F4BDB690E4D2D6805FB0105BE
:101AA0006B430C4D2D7D0C4E56F82550EA520FE03D
:101AB000084B1D685B681B1A5B1E05FB0313054D75
:101AC000ED696B43034D2D7D034E56F82550EA52C8
:101AD00070BD000010090024200200242DE9F04F01
:101AE00004460D4616464FF0000CDFF8289199F891
:101AF0001590B9F1000F04D02046294632461F4602
:101B000011E02846DFF80C91D9F80490A9EB0609FA
:101B1000A9F101011A46DFF8FC90D9F80490A9EB6D
:101B20000409A9F10107DFF8EC90B9F80090A2EBE5
:101B3000000A0AF1010AA9EB0A091FFA89F8DFF87D
:101B4000D49099F81490DFF8D0A05AF82990DFF8D3
:101B5000C4A0DAF81CA0DFF8BCB0DBF800B00BFBC7
:101B6000010B0AFB0B9EDFF8B490D9F8009049F402
:101B70000009DFF8A8A0CAF800904FF44039DFF858
:101B8000A0A0CAF800904FF00209CAF83490D146DC
:101B9000C9F84080D9F8009029F00109CAF80090EE
:101BA000D146C9F83CE0A7EB010909F10109A2EB14
:101BB000000A0AF1010A49EA0A49DFF864A0CAF8F2
:101BC0004490DDF82490CAF83890D146D9F80090B6
:101BD00049F00109CAF8009005E00CF1010CBCF5D0
:101BE000001F00D308E0DFF83890D9F8049009F01E
:101BF0000209B9F1000FF0D000BFDFF82490D9F846
:101C0000089049F00209DFF818A0CAF80890BDE86A
:101C1000F08F00001009002420020024D84402584C
:101C2000001000522DE9F04F8DB005460E461746C4
:101C30009846DDE917ABDDF85890199C002000901C
:101C4000029015480068019013484068039004977B
:101C5000CDF81480CDF818904FEA0A2007904FEA8B
:101C60000B20089009960C4800680A900A484068C2
:101C70000B90002001148DF8321001128DF83110F4
:101C8000E0B28DF830002A466946044803F0E8F8CF
:101C90000DB0BDE8F08F00001009002408080024F2
:101CA00010B501290CD1114A12688432C301D258EF
:101CB00042F001030D4A12688432C40113510CE052
:101CC00059B90A4A12688432C301D25822F001037A
:101CD000064A12688432C4011351044A1268526AD7
:101CE00042F00102014B1B685A6210BD0808002433
:101CF0002DE9F04104460E4617461D46DDF81880D2
:101D000023463A463146054803F00AFA234642463E
:101D10002946024803F03AFABDE8F0810808002499
:101D200010B586B0002400BF2F48006840F0400086
:101D30002D4908600846006800F04000009000BF90
:101D400000BF00BF0846006840F480700860084685
:101D5000006800F48070009000BF00BF4020019038
:101D600000200290012003900320049001A91F4845
:101D700002F004FF8420019001A91D4802F0FEFE3C
:101D800040211A4803F020F804460421184803F0C3
:101D90001BF844EA4000C4B28021154803F014F84F
:101DA00044EA8000C4B21CB944F2423006B010BD0F
:101DB000012C02D147F28400F8E7022C02D147F24D
:101DC0001600F3E7032C02D147F21800EEE7042CCB
:101DD00002D148F21600E9E7052C02D141F21800C1
:101DE000E4E70020E2E70000E0440258001802584F
:101DF0000020025810B502461048407D68B10F48D7
:101E0000C0690E4B1B6803FB012358430B4B1B7D22
:101E10000B4C54F82330185A10BD0848036840682A
:101E2000801A401E03FB0010044BDB695843034B30
:101E30001B7D034C54F82330185AEDE71009002499
:101E40002002002401490875704700001009002491
:101E5000012808D109490968896941F00101074A47
:101E60001268916108E038B904490968896921F06C
:101E70000101024A126891617047000008080024BD
:101E800008B5034800880090BDF8000008BD0000B8
:101E90000000086001B5BDF800000090BDF800002A
:101EA0000149088008BD00000000086001B5BDF8C8
:101EB00000000090BDF800000149088008BD000046
:101EC000FEFF07601FB50024FFF72AFF044644F217
:101ED0004230844217D14FF4F070F24908604FF459
:101EE0008870486001200881488128208881082066
:101EF000C88105200882082048825822A021052098
:101F0000FFF796FD2FE147F28400844217D14FF48A
:101F10004870E44908604FF4F0704860012008817F
:101F200048812E2088811720C881D220088216205F
:101F300048821822A0210520FFF77AFD13E147F21D
:101F40001600844218D14FF48060D64908604FF4DF
:101F50001670486014200881032048818C208881F5
:101F60001420C881A02008820C2048821222A021BF
:101F70000520FFF75DFDF6E047F21800844207D127
:101F80004FF4A060C74908604FF448704860EAE029
:101F900048F21600844206D14011C24908604FF44D
:101FA00016704860DFE041F21800844215D14FF40A
:101FB000A060BC4908604FF4487048608C2088815C
:101FC0000A2008820881C8814882032048811022A3
:101FD000A0210520FFF72CFDC5E04AF20100844254
:101FE00018D140F25650AF4908604FF44070486035
:101FF0008F20088146200882D520888103204881CF
:102000001820C881032048821C22A0210520FFF748
:102010000FFDA8E04AF20200844217D14011A14905
:1020200008604FF448704860202008813020088202
:1020300050208881062048810E20C88103204882D4
:102040001622A0210520FFF7F3FC8CE04AF20300E2
:10205000844217D14011934908604FF440704860A2
:102060002020088150208881302008820720488164
:102070000C20C881032048821722A0210520FFF7E9
:10208000D7FC70E04AF20400844218D14FF480601B
:10209000844908604FF44070486088200881182007
:1020A0000882A0208881062048811D20C881032045
:1020B00048821222A0210520FFF7BAFC53E04AF221
:1020C0000500844217D14FF45470764908604FF4EC
:1020D000F0704860702008818881102008820820F4
:1020E00048811720C881062048822F22A021052080
:1020F000FFF79EFC37E04AF20600844218D14FF405
:102100004870684908604FF4167048608020088164
:102110005820888128200882042048811720C881FF
:10212000012048822822A0210520FFF781FC1AE027
:102130004AF20700844216D180115A4908604FF4D0
:10214000F07048606020088108200882382088816B
:10215000022048812920C881022048823E22A021F5
:102160000520FFF765FC4F4800884F4908804D481F
:102170008088488002204B49C8614C484C4908601F
:102180004C484D4908600020486000214A48816061
:10219000C160016141F21800844203D14FF08051C7
:1021A000454801613F480089401E434948613D4818
:1021B0004089401E88613B4800893A498989084422
:1021C000401E3D49C861374840893649C98908449D
:1021D000401E3949086233480089324989890844D8
:1021E000304909680844401E334948622D484089F7
:1021F0002C49C98908442B4949680844401E2E4986
:10220000886228480089274989890844254909683E
:1022100008442449098A0844401E2749C8622148C5
:1022200040892049C98908441E49496808441D4914
:10223000498A0844401E2049086300211E4880F84E
:10224000361080F8351080F8341002F039FE002086
:1022500007210622CDE90002CDE902101448FF2330
:10226000022201680020FFF7DDFC0E48808880B262
:1022700000900C48008883B2002211461046FFF7F8
:1022800037FD0120FFF7ECFB0020FFF7DBFD01220B
:1022900020210A4802F0A4FD4FF0FF30FFF7B6FB03
:1022A0001FBD0000100900247C090024000000C0AC
:1022B00020020024001000500808002400040258E6
:1022C00010B500234FF480720249034805F008F866
:1022D00010BD0000C40900248C09002410B50022A0
:1022E0000249034805F04AF810BD000031020024FD
:1022F0008C09002410B500220249034805F064F857
:1023000010BD0000B00900248C09002408B518484D
:1023100018490860002048607F2116488160FF212D
:10232000C160002101618161C16105F07DF808B1E2
:1023300000F023FC00210F4804F063FE45F2500139
:10234000884213D00020034602461D21009007203A
:1023500000F062F8032305220921122000F046F85C
:1023600045F250020021034804F054FE002008BD4D
:10237000004000588C090024F0B58BB004460D468F
:1023800016461F468DF804508DF805608DF80670CE
:10239000002002908DF8070006904FF070600790C3
:1023A0004FF0804008908DF8244080150A900E4828
:1023B0000068C06800F0800060F420700A49096875
:1023C000C860002201A9084805F0C0F808B100F073
:1023D000D4FB03220421292002F01FFF292002F050
:1023E0000CFF0BB0F0BD00008C090024F8B50446CA
:1023F0000D4617461E468DF803408DF801508DF8A6
:1024000002708DF8006000226946024805F0BAF9B2
:10241000F8BD00008C0900242DE9F04186B0044687
:102420000D4616461F46DDF830808DF804408DF8C5
:1024300005508DF8066002978DF807800020049003
:102440000590002201A9034805F02EFA06B0BDE868
:10245000F08100008C09002400B587B016481749A8
:102460000860002048600121144881600821C16093
:102470001021016140214161890081610021C16118
:102480004FF4006101624900416200218162022033
:1024900000900820019006200290039002200490F2
:1024A000059006906946054805F0C0FA034800F01B
:1024B00007F807B000BD000040410052C00A0024E8
:1024C00070B505460024002301221146184600F08D
:1024D00021F84FF4FA70FEF74DF900230122022192
:1024E000184600F017F8002308220321184600F0D0
:1024F00011F84FF40874234601220421002000F053
:1025000009F840F2A521024805F056FB70BD000015
:10251000C00A00242DE9FF4104460D4616461F4619
:102520004FF0000814B94FF0100803E0012C01D15E
:102530004FF008080095CDF80480029603974FF6F7
:10254000FF726946044805F04BFB18B9002004B03F
:10255000BDE8F0810120FAE7C00A00242DE9F0412E
:1025600004460D4616461F46082F1DD1601ED9068B
:10257000C862681E088504FB06F000EE100AB8EE7B
:10258000400B9FED1B1B20EE010BBCEEC00B10EEB1
:10259000100AC86304FB05F01749B1FBF0F8324696
:1025A000414616A007F08AFE0C2F1ED1601E4FF088
:1025B0008041C862681E088504FB06F000EE100A20
:1025C000B8EE400B9FED0A1B20EE010BBCEEC00BDA
:1025D00010EE100A086404FB05F00749B1FBF0F89F
:1025E0003246414615A007F069FEBDE8F0810000C3
:1025F0007B14AE47E17A843F00C2EB0B5468652040
:1026000050574D20696E205041322C2054494D5F67
:102610004348414E4E454C5F332069732067656ED9
:1026200065726174656420617320256420487A2C8A
:102630002025642525200D0A00000000546865202F
:1026400050574D20696E205041332C2054494D5F26
:102650004348414E4E454C5F342069732067656E98
:1026600065726174656420617320256420487A2C4A
:102670002025642525200D0A00000000416851B185
:102680004168491E416031B9012141700178012939
:1026900001D181684160704700BFFEE710B506F0C8
:1026A000B7FB06F067FB0348006840F004000149EF
:1026B000086010BD9CEF00E01CB5FFF7EFFF02F0D3
:1026C0009BFB06F025FC0020FEF700F90120FEF739
:1026D000FDF80220FEF7FAF80320FEF7F7F80420D1
:1026E000FEF7F4F80520FEF7F1F84FF4E130FEF7BD
:1026F000A3F94FF4C870FEF777F9FFF707FE082338
:10270000142211466420FEF759F80C2332221421BA
:102710006420FEF753F8FEF7B1F94749486880474F
:10272000FFF79AFEFFF7CEFB00F05CFB4FF478401A
:10273000424908607FE01F20FEF73AFA00F0C8FA2D
:102740003F4820210B464FF44872CDE90010282164
:102750000A20FEF7DFFF3A48283018210B464FF4D5
:102760004872CDE9001050210A20FEF7D3FF34480B
:10277000503018210B464FF44872CDE900107821F3
:102780000A20FEF7C7FF2E48783018210B464FF479
:102790004872CDE90010A0210A20FEF7BBFF2848AF
:1027A000A03018210B464FF44872CDE90010C82123
:1027B0000A20FEF7AFFF234818210B464FF448725A
:1027C000CDE90010F0210A20FEF7A4FF1E481821D1
:1027D0000B464FF44872CDE900104FF48C710A207B
:1027E000FEF798FF194818210B464FF44872CDE9BF
:1027F00000104FF4A0710A20FEF78CFF4FF47A709E
:10280000FDF796FF1248016812A007F057FD104827
:1028100041681BA007F052FD0D48816821A007F018
:102820004DFD0B48C16826A007F048FD0848016926
:102830002CA007F043FD7EE7FC00002428020024C2
:10284000E8030024140A00243C0A0024640A00243B
:10285000D40300245468652054656D7065726174FA
:1028600075726520696E2043505520697320256478
:10287000206465677265737321200D0A00000000F3
:10288000546865204350555F496E7465726E5F569B
:10289000657266496E74206973202564206D562127
:1028A000200D0A0054686520426F617264205662F0
:1028B0006174206973202564206D5621200D0A0063
:1028C000546865204144432056616C756520696EEB
:1028D0002050413420414443312069732025642134
:1028E000200D0A00546865204144432056616C75F0
:1028F0006520696E2050413620414443322069737F
:1029000020256421200D0A0010B50249886801F0D5
:1029100093FC10BDB0040024014608781038182339
:10292000B0FBF3F20848805CC865032A05D9086843
:102930006FF30900001D886503E008686FF3090064
:102940008865886D70470000ACFE000810B5002156
:102950000268174B9A4213D8154B8C3B9A420FD3FF
:102960000378083B1424B3FBF4F1124B03EB81030F
:102970000366104B8033436601238B40836616E069
:102980000378103B1824B3FBF4F10B4B9A4204D8A4
:10299000094BA83B9A4200D30831084B03EB810353
:1029A0000366064B8033436601238B40836610BD6C
:1029B0009454025800580258B804024000080240DB
:1029C00010B502680179E9B108291BD80E4B9A426B
:1029D0000CD80D4B8C3B9A4208D34B1E0B4C04EB8E
:1029E0008303C366094B4033036707E04B1E084C63
:1029F00004EB8303C366064B403303674B1E01247D
:102A00009C40446710BD000094540258005902587D
:102A100000090240014600208A69D2B98A6A32B1AF
:102A2000012A0DD0022A03D0032A10D10EE000BFE4
:102A3000CA6A02F08072B2F1807F00D1012007E003
:102A4000CA6AB2F1C07F00D1012001E000E000BFFE
:102A500036E08A69B2F5005F1BD18A6A32B1012A79
:102A600007D0022A03D0032A11D10AE000BF0120B7
:102A70000EE0CA6A02F08072B2F1807F00D10120BC
:102A800006E0CA6AB2F1C07F00D1012000E000BFB9
:102A900016E08A6A32B1012A05D0022A04D0032A3C
:102AA0000CD103E000BF00BF012008E0CA6A02F0B9
:102AB0008072B2F1807F00D1012000E000BF00BF32
:102AC00070470000F0B5846DD0E919657560C56E7A
:102AD00015B1D0E91C657560244E0568B54205D373
:102AE000234E0568B54201D8012500E00025CDB18F
:102AF00090F85C603F25B540A56005682D6825F419
:102B000080250668356005686B608568402D04D1B6
:102B10000568AA600568E96026E00568A96005689F
:102B2000EA6021E0134E0568B5421DD3114E8C3684
:102B30000568B54218D80F4D2D1F2D6890F85C70B0
:102B40000126BE4035430B4E361F356005686B606D
:102B50008568402D04D10568AA600568E96003E036
:102B60000568A9600568EA60F0BD00001000024039
:102B7000B804024008540258704705E00120FEF7EF
:102B80006DFE0220FEF7B4FEF8E730B502460023E2
:102B900000240868012816D013686FF30E03D1E9EA
:102BA00001052843CD6828430D6928434D69284312
:102BB0008D692843CD6928430D6A28434D6A28430F
:102BC0000343136019E0136823F4F843D1E90705C0
:102BD00028434D6A2843034354686FF30E04D1E938
:102BE00001052843CD6828430D6928434D692843D2
:102BF0008D692843044313605460002030BD0246B1
:102C0000506940EA410050610020704718B5034602
:102C100000200090D1E9000420438C68641E40EA43
:102C20004410CC6840EA44200090009818610020CD
:102C300018BD000070B50346154600220024012D82
:102C40001FD09A6802F070420868401E4E68761ED7
:102C500040EA06168868401E46EA0026C868401EFC
:102C600046EA0036088A401E46EA0046888A401E28
:102C700046EA0056087E401E46EA006002439A601B
:102C800022E09A6811480240C868401E0603888AFC
:102C9000401E46EA00500243DC6804F070440868B5
:102CA000401E4E68761E40EA06168868401E46EAB8
:102CB0000026088A401E46EA0046087E401E46EA74
:102CC000006004439A60DC60002070BDFF0F0FFFBE
:102CD00008B5FFF70FFBFFF701FBFFF7F1FA174805
:102CE0008078009015484378027815A1194807F0BC
:102CF000F5FA19488078009017484378C27817A1F0
:102D00001C4807F0EBFA144802781BA11C4807F096
:102D1000E5FA0A488378427801781AA007F0CEFADB
:102D20000D4883784278C1781FA007F0C7FA0A4897
:102D3000017826A007F0C2FA08BD0000B0090024FF
:102D400054696D653A253032643A253032643A254B
:102D500030326400140A0024310200244461746596
:102D60003A3230253032642D253032642D25303210
:102D7000640000003C0A00245765656B3A25640036
:102D8000640A00245468652043757272656E74206D
:102D900054696D653A253032643A253032643A25FB
:102DA0003032640D0A000000546865204375727269
:102DB000656E7420446174653A3230253032642D7A
:102DC000253032642D253032640D0A0054686520A8
:102DD00043757272656E74205765656B3A25640D94
:102DE0000A000000F8B51F480468001D0568001DB2
:102DF00006681DA1244807F071FA24A12248283052
:102E000007F06CFA2B46324629A11F485030009437
:102E100007F064FA4FF080722BA11B48783007F05E
:102E20005DFA2E4882882EA11748A03007F056FA86
:102E300015492FA007F042FA134928312CA007F0BA
:102E40003DFA114950312AA007F038FA0E4978317D
:102E500027A007F033FA0C49A03125A007F02EFA7D
:102E6000F8BD000000E8F11F424F415244204E419E
:102E70004D45203A2053544D3332483720434F526A
:102E800045424F4152440000E8030024435055207E
:102E90004E414D45203A2053544D33324837343358
:102EA00049493136204C5146503137360000000038
:102EB000435055204944203A2025303858202530A9
:102EC0003858202530385800425350205645525328
:102ED000494F4E203A202530385800007C09002404
:102EE0004C4344204944203A202530345800000007
:102EF0002573200D0A0000002DE9F04104460D461F
:102F000016460027B84600BF94F85000012802D1A9
:102F10000220BDE8F081012084F8500000BF204667
:102F2000FDF753FB0746CFBB606D20F4885040F09F
:102F3000020060652068806820F08040304321688E
:102F400088602068806820F4803028432168886089
:102F50002068806840F000402168886011E008F136
:102F60000108B8F57A4F0CD3606D20F0020040F0F4
:102F70001000606500BF002084F8500000BF0120F1
:102F8000C7E72068806800F000400028E7D1606D46
:102F900020F0020040F00100606504E0FFE7606D92
:102FA00040F01000606500BF002084F8500000BFB2
:102FB0003846AEE7F8B5024600250020009092F8AA
:102FC0003900012800D100E000BFC868B0F1804F8F
:102FD00000D00AE0FE4E1068B04200D105E0FD4E80
:102FE0001068B04200D100E000BF00BF92F850006E
:102FF000012801D10220F8BD012082F8500000BF55
:1030000010688068C0F3800000287DD11068C06916
:103010000F780126BE4030431668F06148680528E5
:103020001CD21068066B08794FF4F86797FAA7F777
:10303000B7FA87F778431F27874026EA07000F79FA
:103040004FF4F86C9CFAACFCBCFA8CFC07FB0CF758
:103050000E68BE4030431668306363E048680A2853
:103060001ED21068466B0879401F4FF4F86797FA34
:10307000A7F7B7FA87F778431F27874026EA0700A4
:103080000E79761F4FF4F86C9CFAACFCBCFA8CFC01
:1030900006FB0CF60F68B74038431668706341E0D2
:1030A00048680F281ED21068866B08790A384FF4DA
:1030B000F86797FAA7F7B7FA87F778431F2787408B
:1030C00026EA07000E790A3E4FF4F86C9CFAACFC35
:1030D000BCFA8CFC06FB0CF60F68B7403843166848
:1030E000B0631FE01068C66B08790F384FF4F867BB
:1030F00097FAA7F7B7FA87F778431F27874026EA9A
:1031000007000E790F3E00E0A5E24FF4F86C9CFA40
:10311000ACFCBCFA8CFC06FB0CF60F68B7403843DD
:103120001668F0631068806800F00C0008B1012098
:1031300000E00020002874D108680A281DD3106818
:10314000866908780A38382797FAA7F7B7FA87F711
:1031500078430727874026EA07000E780A3E4FF09B
:10316000380C9CFAACFCBCFA8CFC06FB0CF68F68A5
:10317000B74038431668B06119E0106840690E78AE
:10318000382797FAA7F7B7FA87F77E430727B7409C
:10319000B8430F784FF0380C9CFAACFCBCFA8CFCAE
:1031A00007FB0CF78E68BE403043166870614869B3
:1031B0001668F668C6F38206760000FA06F4086917
:1031C000012806D002282DD0032854D0042874D119
:1031D0007BE01068006E00F000464FF0F84797FA69
:1031E000A7F7B7FA87F70868B84020430643106886
:1031F00006661068006920F400600E7E3043166891
:103200003061487E30B11068006E40F000401668B2
:10321000306605E01068006E20F0004016683066E9
:10322000CDE0CDE01068406E00F000464FF0F8476A
:1032300097FAA7F7B7FA87F70868B840204306431C
:10324000106846661068006920F480500E7E40EADF
:10325000460016683061487E30B11068406E40F01C
:1032600000401668706605E01068406E20F000406F
:1032700016687066A3E01068806E00F000464FF09C
:10328000F84797FAA7F7B7FA87F70868B8402043D6
:103290000643106886661068006920F400500E7EB0
:1032A00040EA860016683061487E38B11068806E4A
:1032B00040F000401668B06606E02FE01068806EAF
:1032C00020F000401668B06679E01068C06E00F02B
:1032D00000464FF0F84797FAA7F7B7FA87F708685C
:1032E000B840204306431068C6661068006920F4A1
:1032F00080400E7E40EAC60016683061487E30B1DC
:103300001068C06E40F000401668F06605E0106876
:10331000C06E20F000401668F06650E01068006E45
:1033200000F0F8464FF0F84797FAA7F7B7FA87F793
:103330000868B840864205D11068006E20F0004051
:10334000166830661068406E00F0F8464FF0F84797
:1033500097FAA7F7B7FA87F70868B840864205D109
:103360001068406E20F00040166870661068806E2D
:1033700000F0F8464FF0F84797FAA7F7B7FA87F743
:103380000868B840864205D11068806E20F0004081
:103390001668B0661068C06E00F0F8464FF0F84747
:1033A00097FAA7F7B7FA87F70868B840864205D1B9
:1033B0001068C06E20F000401668F06600BF00BFC5
:1033C0001068806800F0030001280BD1106803E04A
:1033D0000060025800200240006800F0010008B1BF
:1033E000012000E0002000287ED1C868B0F1804FA5
:1033F0000AD01068D0F8C0000F780126BE40B04354
:103400001668C6F8C00047E01068D0F8C0000F7812
:103410000126BE4030431668C6F8C0000868092877
:103420001DD31068866908780938382797FAA7F7F6
:10343000B7FA87F778430727874026EA07000E7810
:10344000093E4FF0380C9CFAACFCBCFA8CFC06FB35
:103450000CF68F68B74038431668B0611CE01068FE
:1034600046690878401C382797FAA7F7B7FA87F714
:1034700078430727874026EA07000E78761C4FF02E
:10348000380C9CFAACFCBCFA8CFC06FB0CF68F6882
:10349000B740384316687061754E1068B04203D06B
:1034A000744E1068B04201D1734B00E0734B086852
:1034B000122803D1986800F4000070B10868112840
:1034C00003D1986800F0807038B1086813288BD158
:1034D000986800F48000002886D11068806800F0A9
:1034E0000300012808D100E0AEE01068006800F099
:1034F000010008B1012000E0002000287ED15C4ED0
:103500001068B04222D15B480830006800F0030028
:10351000012806D15748006800F0010008B10120D9
:1035200000E0002070B95648806800F003000128D0
:1035300006D15348006800F0010008B1012000E006
:10354000002008B1012049E0002047E0494E106802
:10355000B04221D14648806800F00300012806D11E
:103560004348006800F0010008B1012000E000209D
:1035700070B94348806800F00300012806D1404834
:10358000006800F0010008B1012000E0002008B14F
:1035900001200FE000200DE03548806800F00300B6
:1035A000012806D13248006800F0010008B101206E
:1035B00000E0002078B92F480830006800F00300D0
:1035C000012806D12B48006800F0010008B1012055
:1035D00000E0002008B1012000E0002070B9086878
:1035E00012281AD1264E1068B04216D1986840F4BD
:1035F0000000986023480068234E00E025E0B0FBFF
:10360000F6F0C0EB0010C000009002E00098401EF1
:10361000009000980028F9D122E00868112808D10C
:10362000174E1068B04204D1986840F080709860DE
:1036300016E00868132813D1114E1068B0420FD15C
:10364000986840F4800098600AE0506D40F02000D7
:103650005065012504E0506D40F0200050650125C3
:1036600000BF002082F8500000BF2846C3E40000DD
:103670000020024000210240002302400063025863
:1036800000600258DC02002480841E000121014AEF
:1036900011707047F10100240021014A1170704738
:1036A000F101002470B504460CB9012070BD606DB5
:1036B00040F0020060656C212046FCF7A9FE2068FE
:1036C000C06840F400102168C8602046FCF77DFF08
:1036D000206840686FF30A002168486040F2FF707C
:1036E000216808602068806820F0A0402168886018
:1036F0002068806840F00050216888602068C068B9
:1037000000F080202168C8602068C06840F0004058
:103710002168C860206800699549084021680861EF
:103720002068406900F04040216848612068806955
:1037300000F07840216888612068006A00F07C40D1
:10374000216808622068406A00F07C402168486275
:103750002068D0F8B00000F07C402168C1F8B000CB
:103760002068D0F8B40000F07C402168C1F8B400B3
:103770002068D0F8B80000F07C402168C1F8B8009B
:103780002068D0F8BC0000F07C402168C1F8BC0083
:103790002068006B77490840216808632068406B07
:1037A000744910390840216848632068806B71496A
:1037B00010390840216888632068C06B40F2DF71CF
:1037C00088432168C8632068006E0020216808666D
:1037D0002068406E0020216848662068806E0020C6
:1037E000216888662068C06E00202168C86620684D
:1037F000D0F8A0006FF313002168C1F8A000206882
:10380000D0F8A4006FF313002168C1F8A400206869
:10381000D0F8C0006FF313002168C1F8C000206821
:10382000D0F8C40000F0F8202168C1F8C400206876
:10383000806800F00300012806D12068006800F0CD
:10384000010008B1012000E0002000287BD14A4996
:103850002068884222D14948006800F0030001280E
:1038600007D146480838006800F0010008B101207F
:1038700000E0002070B94248806800F00300012891
:1038800006D13F48006800F0010008B1012000E0C7
:10389000002008B101204AE0002048E037490839FB
:1038A0002068884221D13448806800F00300012854
:1038B00006D13148006800F0010008B1012000E0A5
:1038C000002070B92E48806800F00300012806D15E
:1038D0002B48006800F0010008B1012000E0002042
:1038E00008B101200FE000200DE02348806800F0BF
:1038F0000300012806D12048006800F0010008B14B
:10390000012000E0002078B91C48006800F00300A6
:10391000012807D119480838006800F0010008B1F3
:10392000012000E0002008B1012000E0002050B993
:1039300011492068884204D010490839206888421B
:1039400002D1104D01E004E00F4DA8680F49084076
:10395000A860204600F0D2F90020A065E0650021B3
:103960002166606500BF84F8500000BF00BF9DE67F
:103970001CF800FC300882E00020024008210240D0
:10398000006002580023024000630258E03000FE4D
:1039900010B50446A06D00F0020008B9FFF7EDF87D
:1039A00010BD0000F8B50446002700260020009056
:1039B0000CB90120F8BDE06818B1207F012800D1C2
:1039C00000BF606D30B9204600F0BCF90020A06552
:1039D00084F850002068806800F0005028B120680A
:1039E000806820F00050216888602068806800F0BE
:1039F0008050A8B92068806840F0805021688860B5
:103A0000B5480068B549B0FBF1F000EB800040001C
:103A1000009002E00098401E009000980028F9D124
:103A20002068806800F0805040B9606D40F0100060
:103A30006065A06D40F00100A0650127606D00F099
:103A4000100000286FD120688068C0F38000002833
:103A5000F8D1606D40F002006065A149206888429D
:103A600003D0A0492068884201D19F4D00E09F4DBE
:103A70002068806800F00300012806D120680068F3
:103A800000F0010008B1012000E00020002877D1FB
:103A900093492068884222D192480830006800F09B
:103AA0000300012806D18F48006800F0010008B12A
:103AB000012000E0002070B98D48806800F003000C
:103AC000012806D18A48006800F0010008B10120F1
:103AD00000E0002008B101204BE0002049E08149CE
:103AE0002068884222D17E48806800F003000128C7
:103AF00006D17B48006800F0010008B1012000E019
:103B0000002070B97A48806800F00300012806D1CF
:103B10007748006800F0010008B1012000E00020B3
:103B200010B1012010E0D0E000200DE06C4880686A
:103B300000F00300012806D16948006800F0010088
:103B400008B1012000E0002078B96648083000681C
:103B500000F00300012806D16248006800F001006F
:103B600008B1012000E0002010B1012001E007E0D1
:103B7000002028B9A86820F47C1061680843A86078
:103B8000607D4FF4005191FAA1F1B1FA81F18840C2
:103B9000216B0843A1680843217F4FF4803292FAD9
:103BA000A2F2B2FA82F2914040EA0106207F012897
:103BB00009D1206A401E4FF4602191FAA1F1B1FAB7
:103BC00081F188400643606A012805D0A06A18B1D7
:103BD000D4E90901084306432068C0684549084004
:103BE00030432168C8602068806800F00C0008B18C
:103BF000012000E0002070BB207D4FF4804191FA4D
:103C0000A1F1B1FA81F18840E16A40EA0106206839
:103C1000C06844F20301884330432168C86094F8C7
:103C20003900012818D1606A012801D0A06A00B9C2
:103C300000BFA08F012141EA0041206C0843616C64
:103C40000843A16C0843216809692B4A11400843C5
:103C50002168086106E01EE02068006920F001008C
:103C6000216808612068006920F07040616B08439A
:103C70002168086194F83800012806D1206880681E
:103C800040F480702168886005E02068806820F436
:103C9000807021688860E068012809D12068006B85
:103CA00020F00F00A169491E08432168086305E060
:103CB0002068006B20F00F0021680863606D20F021
:103CC000020040F00100606504E0606D40F010000B
:103CD0006065012738466DE6DC02002480841E0002
:103CE00000200240002102400023024000630258ED
:103CF0000060025803C0F0FF1EF800FC10B5044637
:103D00000D492068884216D10C48006840F0807048
:103D10000A4908600846006820F08070086007487B
:103D20005830006820F080700449583108605021F4
:103D3000034800F061FE10BD00600258884402583C
:103D40000000025810B5D4B00446384920688842B3
:103D50006AD14FF40020259080104D9025A801F0E5
:103D600017FD00BF3248006840F00100304908608C
:103D70000846006800F00100019000BF00BF00BFCE
:103D80000846006840F0807008600846006800F04F
:103D90008070019000BF00BF25488838006820F47B
:103DA000403040F4003022498839086000BF204884
:103DB0000838006840F001001D49083908600846CD
:103DC000006800F00100019000BF00BF502020906B
:103DD000032021900020229020A9164800F0CEFE5A
:103DE00015480290092003900021049105914FF499
:103DF0008061069149000791890008914911099154
:103E000000210A910B9101210C9100210D910E913D
:103E100002A800F081F902A800F034FC00BF02A85B
:103E2000E064109400BF00BF54B010BD00600258A1
:103E3000E044025800000258280002402DE9F041F9
:103E400004460D461646002720688068C0F38000AF
:103E500000287CD100BF94F85000012802D1022034
:103E6000BDE8F081012084F8500000BF424920687D
:103E7000884203D041492068884214D140480068F4
:103E800000F01F0068B13E48006800F01F000528E0
:103E900007D03B48006800F01F00092801D001202E
:103EA00002E0002000E0002000285BD12046FCF763
:103EB000D9FB0746002F50D1606D00F4805020B12F
:103EC000A06D20F00600A06501E00020A065606DF7
:103ED00040F60161884340F480706065264920689F
:103EE000884203D025492068884201D1012007E09B
:103EF0002348006800F01F0008B9012000E00020FE
:103F000018B1606D20F4801060651E48E16CC863D4
:103F10001D48E16C08641D48E16CC8641C202168E0
:103F200008602068406840F01000216848602268FE
:103F300002F1400133462A46E06C00F0ABFC00BFC2
:103F4000002084F8500000BF2068806800E00FE087
:103F500040F00400216888600BE000BF002084F876
:103F6000500006E0012700BF002084F8500000E068
:103F70000227384674E7000000200240002102407A
:103F80000823024015050008BD0500089F0500082C
:103F90007047704710B504462068006800F4005070
:103FA000B0F5005F19D12068406B00F40050B0F507
:103FB000005F12D104202071206940F001002061CF
:103FC0004FF40050216848632068006820F4805056
:103FD000216808602046FFF7DCFF2068006800F0D9
:103FE0000050B0F1005F19D12068406B00F0005024
:103FF000B0F1005F12D104202071206940F002006E
:1040000020614FF00050216848632068006820F06C
:104010008050216808602046FFF7BAFF10BD0000FD
:1040200010B504460CB9012010BD94F835000228E3
:1040300003D0802060650120F6E73449206888427B
:1040400005D333492068884201D8012000E00020D0
:10405000C0B1042084F835002C49206888420AD376
:104060002B492068884206D82068006820F00100AB
:104070002168086048E02068006820F0010021689D
:10408000086041E02068006820F00E0021680860A8
:104090001E49206888420AD31D492068884206D8F4
:1040A0002068006820F001002168086005E02068B1
:1040B000006820F0010021680860206E006820F48C
:1040C0008070216E086094F85C10012088401149CE
:1040D0000860D4E919104860E06E40B1E06E0068F5
:1040E00020F48070E16E0860D4E91C10486000BFC5
:1040F000002084F8340000BF012084F83500206DD2
:1041000010B12046216D884700208DE71000024045
:10411000B80402400454025870B5044600250CB996
:10412000012070BD94F83500022803D1800260653B
:104130000120F6E73D49206888420AD33C492068BF
:10414000884206D82068006820F0010021680860D5
:1041500005E02068006820F001002168086033490C
:104160002068884205D332492068884201D801205E
:1041700000E00020B8B10020216808602168486094
:10418000216888602168C860216808612120216851
:1041900048612046FEF7C0FB054694F85C103F20BE
:1041A0008840A8601CE023492068884206D3214942
:1041B0008C312068884201D8012000E0002078B1CD
:1041C00000202168086021684860216888602168B3
:1041D000C86094F85C10012088401649091F0860E7
:1041E0002046FEF7B3FB206E28B10020216E086048
:1041F000D4E919104860606858B16068082808D888
:104200002046FEF7DDFB0020E16E0860D4E91C10BB
:1042100048600020E06620676067606584F83500CC
:1042200000BF84F8340000BF00BF7AE710000240EE
:10423000B8040240085402582DE9F8430446002708
:10424000002500200090FE4800684FF41651B0FB96
:10425000F1F8A66D3768FB492068884205D3FA4912
:104260002068884201D8012000E0002000287BD08F
:1042700094F85C1008208840384000B3F149206869
:10428000884208D3F0492068884204D82068006832
:1042900000F0040003E02068006800F0080070B13E
:1042A0002068006820F004002168086094F85C1021
:1042B00008208840B060606D40F00100606594F8AF
:1042C0005C10E24888403840C8B1DE492068884226
:1042D00008D3DD492068884204D82068406900F08E
:1042E000800002E020680068002040B194F85C1073
:1042F000D6488840B060606D40F00200606594F878
:104300005C10D248C01C88403840D0B1CD492068EC
:10431000884208D3CC492068884204D820680068C5
:1043200000F0020002E020680068002048B194F824
:104330005C10C648C01C8840B060606D40F004004E
:10434000606594F85C1010208840384030B3BD4957
:104350002068884209D3BC492068884205D8206873
:10436000006800F0080004E0EFE02068006800F05A
:10437000040098B194F85C1010208840B060206868
:10438000006800F4802080B12068006800F40020FC
:1043900028B9206C10B12046216C884715E0A06C2C
:1043A00098B12046A16C88470FE02068006800F4AF
:1043B000807028B92068006820F008002168086033
:1043C000206C10B12046216C884794F85C102020A6
:1043D00088403840002873D09A492068884208D322
:1043E00099492068884204D82068006800F01000CD
:1043F00003E02068006800F00200002860D094F814
:104400005C1020208840B06094F83500042829D141
:104410002068006820F01600216808602068406964
:1044200020F0800021684861206C08B9A06C28B198
:104430002068006820F008002168086094F85C108B
:104440003F208840B06000BF002084F8340000BFE7
:10445000012084F83500206D10B12046216D884779
:10446000BDE8F8832068006800F4802080B12068EF
:10447000006800F4002028B9606C10B12046616C1F
:1044800088471DE0E06BD8B12046E16B884717E014
:104490002068006800F4807068B92068006820F027
:1044A00010002168086000BF002084F8340000BFBD
:1044B000012084F83500E06B10B12046E16B88479D
:1044C000606D002840D0606D00F0010090B30420C2
:1044D00084F835005B49206888420AD35A4920682D
:1044E000884206D82068006820F001002168086032
:1044F00005E02068006820F001002168086000BF26
:104500000098401C0090404500D905E020680068F4
:1045100000F001000028F3D100BF00BF002084F8A4
:10452000340000BF2068006800F0010018B10320CB
:1045300084F8350002E0012084F83500E06C0028A2
:1045400002D02046E16C884797E0414920688842C4
:1045500006D33F498C312068884201D8012000E011
:104560000020002853D0256839480838006894F89E
:104570005C20042191400840E0B1286800F004006C
:10458000C0B1286800F0200018B9286820F00400A5
:1045900028602F48001F006894F85C200421914097
:1045A00008432B49091F0860206C80B32046216C0A
:1045B000884762E026480838006894F85C200221A9
:1045C0009140084020B3286800F0020000B328683A
:1045D00000F0200058B9286820F00A00286000BFC9
:1045E000002084F8340000BF012084F8350018480A
:1045F000001F006894F85C20022191400843144990
:10460000091F0860E06B10B12046E16B884734E079
:104610000F480838006894F85C2008219140084051
:1046200058B3286800F0080038B3286820F00E005E
:1046300028600748001F006894F85C20012109E009
:10464000DC02002410000240B80402400100800097
:1046500008540258914008430949086001206065E8
:1046600000BF002084F8340000BF012084F835002A
:10467000E06C10B12046E16C884700BFF0E6000016
:10468000045402582DE9F0410446002500F0AEFB29
:104690000646002714B90120BDE8F0817949206859
:1046A000884205D378492068884201D8012000E07B
:1046B0000020002871D0606A00B100BF00BF002058
:1046C00084F8340000BF022084F835006D4920686A
:1046D00088420AD36C492068884206D8206800685E
:1046E00020F001002168086005E02068006820F0E3
:1046F0000100216808600BE000F078FB801B0528B2
:1047000006D920206065032084F835000120C3E726
:104710002068006800F001000028EDD120680568DD
:104720005A480540D4E902010843216908436169F8
:104730000843A1690843E1690843216A0843054326
:10474000606A042803D1D4E90B01084305432068BB
:1047500005602068456925F00705606A0543606AC1
:1047600004280DD1A06A0543E06A48B12046FEF74F
:1047700051F928B140206065012084F835008BE7AD
:10478000206845612046FEF7C7F8074694F85C109C
:104790003F208840B8604DE0FFE73D4920688842EF
:1047A00006D33B498C312068884201D8012000E0C3
:1047B0000020B8B300BF002084F8340000BF0220FE
:1047C00084F835002068056847F6F0708543A068D6
:1047D000402801D1102105E0A068802801D1C10145
:1047E00000E00021E06841EAD001206941EAD001FF
:1047F000606941EAD001A06941EAD0002022E16964
:1048000002EAD1010843216A40EA111005432068F9
:1048100005601F492068401A1421B0FBF1F08000A8
:10482000E06507E0FFE740206065032084F835007D
:10483000012031E72046FEF789F8A068802801D1E1
:10484000002060602079216E0860D4E9191048606A
:10485000606860B16068082809D82046FEF7B0F8A3
:104860000020E16E0860D4E91C10486003E00020DD
:10487000E0662067606700206065012084F83500ED
:10488000002009E710000240B80402403F8010FEFB
:10489000085402582DE9F04104460D4616461F46BD
:1048A0004FF0000814B90120BDE8F08100BF94F872
:1048B0003400012801D10220F6E7012084F83400F9
:1048C00000BF94F8350001287CD1022084F835001F
:1048D000002060654149206888420AD34049206829
:1048E000884206D82068006820F00100216808602E
:1048F00005E02068006820F00100216808603B4660
:10490000324629462046FEF7DDF8344920688842C1
:1049100005D333492068884201D8012000E00020F7
:10492000B0B12068006820F01E0040F01600216839
:1049300008602068406940F0800021684861206C70
:10494000B0B12068006840F00800216808600FE0FE
:104950002068006820F00E0040F00A00216808601E
:10496000206C28B12068006840F0040021680860CD
:10497000206E006800F4803028B1206E006840F49A
:104980008070216E0860E06E28B1E06E006840F42F
:104990008070E16E08601149206888420BD310498D
:1049A0002068884207D82068006840F0010021682C
:1049B000086011E006E02068006840F0010021680E
:1049C000086009E000BF002084F8340000BF4FF405
:1049D000006060654FF00108404665E71000024046
:1049E000B80402400348006840F001000149086033
:1049F0007047000020040058F0B50C460025002246
:104A0000002300219DE0012606FA01F504EA0502D3
:104A1000AA427DD106684FEA410C032707FA0CF73A
:104A20003E430660CF0800F1200656F827604F0786
:104A30004FEAD76C0F2707FA0CF7BE434FEAD10CA9
:104A400000F1200747F82C6086684FEA410C0327E5
:104A500007FA0CF7BE438660476801268E40B743CD
:104A60004760C6684FEA410C032707FA0CF7BE43BC
:104A7000C660364E8F0856F827308E07370F0F2640
:104A8000BE403340324EB04201D100262DE0314EBF
:104A9000B04201D1012628E02F4EB04201D10226BA
:104AA00023E02E4EB04201D103261EE02C4EB04230
:104AB00001D1042619E02B4EB04201D1052614E0A5
:104AC000294EB04201D106260FE0284EB04201D156
:104AD00007260AE0264EB04201D1082605E0254E01
:104AE000B04201D1092600E00A268F073F0FBE40E1
:104AF0009E4225D18E07370F0F2606FA07F3134E75
:104B00008F0856F827609E43104F4FEA910C00E043
:104B100016E047F82C60184E366896434FF0B047C1
:104B2000C7F880603E46D6F884609643C7F8846034
:104B30003E46366896433E603E46766896437E60C3
:104B4000491C1029FFF45FAFF0BD000008040058B5
:104B5000000002580004025800080258000C0258D5
:104B6000001002580014025800180258001C025885
:104B7000002002580024025880000058F8B5024670
:104B80000B460021002600240020824D00BFFCE0DF
:104B9000012707FA01F61F6807EA0604B4427CD130
:104BA0005F68022F02D05F68122F1AD14FEAD10C32
:104BB00002F1200757F82C004F074FEAD76C0F2758
:104BC00007FA0CF7B8434FEA417C4FEADC6C1F69E7
:104BD00007FA0CF738434FEAD10C02F1200747F8E7
:104BE0002C0010684FEA410C032707FA0CF7B84372
:104BF0001F7907F003074FEA410C07FA0CF7384317
:104C000010605F68012F08D05F68022F05D05F68D1
:104C1000112F02D05F68122F17D190684FEA410C14
:104C2000032707FA0CF7B8434FEA410CDF6807FA8D
:104C30000CF738439060506801278F40B8431F79C4
:104C4000C7F300178F4038435060D0684FEA410CDB
:104C5000032707FA0CF7B8434FEA410C9F6807FA9D
:104C60000CF73843D0605F6807F08057B7F1805F7A
:104C700095D100BF484F3F6847F00207DFF818C1E1
:104C8000CCF8007067463F6807F00207009700BF46
:104C900000BF424F4FEA910C00E075E057F82C003E
:104CA0008F074FEA177C0F2707FA0CF7B8433C4FE2
:104CB000BA4201D100272DE03A4FBA4201D1012773
:104CC00028E0394FBA4201D1022723E0374FBA42D8
:104CD00001D103271EE0364FBA4201D1042719E063
:104CE000344FBA4201D1052714E0334FBA4201D103
:104CF00006270FE0314FBA4201D107270AE0304FB3
:104D0000BA4201D1082705E02E4FBA4201D1092746
:104D100000E00A274FEA817C4FEA1C7C07FA0CF777
:104D200038431E4F4FEA910C47F82C002868A043E7
:104D30005F6807F48037B7F5803F00D120432860D3
:104D40006868A0435F6807F40037B7F5003F00D1FB
:104D5000204368604FF0B0473868A0435F6807F4AD
:104D60008017B7F5801F00D120434FF0B04738605F
:104D70007868A0435F6807F40017B7F5001F00D1FB
:104D800020434FF0B0477860491C1029FFF400AF72
:104D9000F8BD000080000058F44402580804005890
:104DA000000002580004025800080258000C025883
:104DB000001002580014025800180258001C025833
:104DC0000020025800240258024613690B400BB120
:104DD000012000E00020704742694A40426170476C
:104DE0000AB1018300E04183704700000148006878
:104DF00070470000E402002410B5032000F04CFAD4
:104E00000F2000F007F808B1012010BD00F0F4F900
:104E10000020FAE770B504460E4800784FF47A7126
:104E2000B1FBF0F00C490968B1FBF0F5284602F03F
:104E300008FF08B1012070BD102C07D200222146C6
:104E4000501E00F0EAF90548046001E00120F2E795
:104E50000020F0E7EC020024DC020024E802002439
:104E600070B504460E46154600BF94F8A000012810
:104E700001D1022070BD012084F8A00000BF0220F3
:104E800084F8A10005EB850101EBC50204F13801AE
:104E900001EB820034223146FBF74BFA2A463146B9
:104EA000204603F0D0FC01202168486284F8A1006C
:104EB00000BF002084F8A00000BF00BFDAE70000B8
:104EC00070B50446002500260CB9012070BD94F889
:104ED000A10028B9002084F8A000204600F07EF848
:104EE000022084F8A1002068806920F070402168C9
:104EF0008861D4E901010843E16808432169084356
:104F0000216889690843216888612068806832497E
:104F1000084021688860A08A050420688068A1692B
:104F200029430843216888602068C0682A490840EE
:104F30002168C860A08B05042068C068216A2943E5
:104F400008432168C8602068006923490840216837
:104F50000861A08C050420680069A16A2943084300
:104F600021680861206840691B4908402168486140
:104F7000A08D050420684069216B294308432168FE
:104F8000486194F83500050294F83600060420685C
:104F9000C06A00F07F402168C86246EA050094F8C4
:104FA000341008432168C96A08432168C862206830
:104FB000406B40F00600216848632068806940F03B
:104FC0000100216888610020C4F8A400012084F851
:104FD000A10000207AE7000000F800F010B586B0CC
:104FE000044600BF4848006840F008004649086091
:104FF0000846006800F00800009000BF00BF00BF36
:1050000041481038006840F010003F4910390860EE
:105010000846006800F01000009000BF00BF00BF0D
:105020003948001F006840F002003749091F086036
:105030000846006800F00200009000BF00BF00BFFB
:105040000846006840F0200008600846006800F04C
:105050002000009000BF00BF00BF0846006840F07D
:10506000400008600846006800F04000009000BF63
:1050700000BF00BF0846006840F080000860084696
:10508000006800F08000009000BF00BF00BF08462D
:10509000006840F4807008600846006800F4807082
:1050A000009000BF00BF20200190012002900390DB
:1050B0000320049001A91548FFF760FD4FF48060BC
:1050C00001900220029000200390032004900E2003
:1050D000059001A90E48FFF751FD4FF40C600190B7
:1050E00001A90C48FFF74AFD4FF47E40019001A949
:1050F0000948FFF743FD40F2F760019001A9074816
:10510000FFF73CFD06B010BDE4440258000402580D
:105110000014025800180258001C025800200258BF
:105120002DE9F04104460E461746984600BF94F814
:10513000A000012802D10220BDE8F081012084F8FE
:10514000A00000BF022084F8A10008EB880000EB5B
:10515000C80104F1380000EB81052E60A86A3044D4
:105160006860AF60E86A3844E860424629462046F5
:1051700003F069FB01202168486284F8A10000BFA8
:10518000002084F8A00000BF00BFD5E72DE9F04162
:1051900004460E461746984600BF94F8A000012822
:1051A00002D10220BDE8F081012084F8A00000BFF8
:1051B000022084F8A10008EB880000EBC80104F18C
:1051C000380000EB8105286830446860A8683844DE
:1051D000E860AE62EF6242462946204603F033FBA8
:1051E00001202168486284F8A10000BF002084F8F3
:1051F000A00000BF00BFD5E7704701460846002861
:1052000009DB00F01F0301229A4043099B0003F1D0
:10521000E023C3F8002100BF70472DE9F05F80460E
:105220000D461646002705F06DF8074639462A4612
:10523000334601F00700C0F1070ABAF1040F02D9A2
:105240004FF0040A01E0C0F1070AD14600F1040A58
:10525000BAF1070F02D24FF0000A01E0A0F1030AF1
:10526000D4464FF0010A0AFA09FAAAF1010A0AEA39
:10527000020A0AFA0CFA4FF0010B0BFA0CFBABF125
:10528000010B0BEA030B4AEA0B042146404605F0EA
:1052900041F8BDE8F09F000000BF00F00702064B98
:1052A00019684FF6FF031940044B0B4343EA0221F0
:1052B000014B196000BF70470CED00E00000FA05DB
:1052C0000348006840F4807001490860704700009E
:1052D0000048025810B501F00FFA0949096801F4B5
:1052E00070614FF4807292FAA2F2B2FA82F2D14067
:1052F000044A515CC840044908600846006810BD73
:10530000184402586CFE0008DC02002410B501F0BD
:10531000ABF90749096801F07001102292FAA2F274
:10532000B2FA82F2D140034A515CC84010BD00007D
:10533000204402586CFE000870B50146002201208E
:10534000002300249FED811AB0EE410A9FED7F1AE1
:10535000F0EE410A7E4D2D6805F003027C4D2D686C
:10536000C5F305307A4D2D1D2D6805F01003784DDD
:1053700014352D68C5F3CC0515FB03F501EE105A65
:10538000B8EE411AB0EE410A22B1012A4DD0022AEC
:105390007DD169E06E4D283D2D68C5F340152DB3D4
:1053A0006B4D283D2D68C5F3C1066A4D25FA06F4FC
:1053B000B4FBF0F501EE105AF8EE411A9FED661AB3
:1053C00080EE012A624D10352D68C5F3080501EE07
:1053D000105AB8EE411A32EE011AB7EE002A31EE39
:1053E000021A21EE811AF0EE410A1DE0594DB5FB7B
:1053F000F0F501EE105AF8EE411A9FED571A80EEC3
:10540000012A534D10352D68C5F3080501EE105AD9
:10541000B8EE411A32EE011AB7EE002A31EE021A46
:1054200021EE811AF0EE410A5EE04C4DB5FBF0F53D
:1054300001EE105AB8EE412A9FED471AC0EE011A4C
:10544000434D10352D68C5F3080501EE105AB8EE2E
:10545000411A31EE811AF7EE001A31EE211A22EECE
:10546000011AF0EE410A3FE03D4DB5FBF0F501EECB
:10547000105AF8EE411A9FED381A80EE012A344D89
:1054800010352D68C5F3080501EE105A00E00CE058
:10549000B8EE411A32EE011AB7EE002A31EE021AC6
:1054A00021EE811AF0EE410A1EE02C4DB5FBF0F51D
:1054B00001EE105AB8EE412A9FED271AC0EE011AEC
:1054C000234D10352D68C5F3080501EE105AB8EECE
:1054D000411A31EE811AF7EE001A31EE211A22EE4E
:1054E000011AF0EE410A00BF00BF194D10352D68BA
:1054F000C5F346256D1C01EE105AB8EE411AC0EEF8
:10550000811ABCEEE11A81ED001A114D10352D689B
:10551000C5F306456D1C01EE105AB8EE411AC0EEF7
:10552000811ABCEEE11A81ED011A094D10352D6882
:10553000C5F306656D1C01EE105AB8EE411AC0EEB7
:10554000811ABCEEE11A81ED021A70BD0000000064
:10555000284402580090D0030000004600093D0096
:1055600040787D0170B5014600220120002300240F
:105570009FED811AB0EE410A9FED7F1AF0EE410ACD
:105580007E4D2D6805F003027C4D2D68C5F3055056
:105590007A4D2D1D2D6805F48073784D1C352D68CE
:1055A000C5F3CC0515FB03F501EE105AB8EE411A10
:1055B000B0EE410A22B1012A4DD0022A7DD169E024
:1055C0006E4D283D2D68C5F340152DB36B4D283D1C
:1055D0002D68C5F3C1066A4D25FA06F4B4FBF0F553
:1055E00001EE105AF8EE411A9FED661A80EE012A7C
:1055F000624D18352D68C5F3080501EE105AB8EE56
:10560000411A32EE011AB7EE002A31EE021A21EEEB
:10561000811AF0EE410A1DE0594DB5FBF0F501EE9F
:10562000105AF8EE411A9FED571A80EE012A534D99
:1056300018352D68C5F3080501EE105AB8EE411A69
:1056400032EE011AB7EE002A31EE021A21EE811A6B
:10565000F0EE410A5EE04C4DB5FBF0F501EE105A5C
:10566000B8EE412A9FED471AC0EE011A434D183596
:105670002D68C5F3080501EE105AB8EE411A31EE57
:10568000811AF7EE001A31EE211A22EE011AF0EE1D
:10569000410A3FE03D4DB5FBF0F501EE105AF8EE42
:1056A000411A9FED381A80EE012A344D18352D68C5
:1056B000C5F3080501EE105A00E00CE0B8EE411AFF
:1056C00032EE011AB7EE002A31EE021A21EE811AEB
:1056D000F0EE410A1EE02C4DB5FBF0F501EE105A3C
:1056E000B8EE412A9FED271AC0EE011A234D183556
:1056F0002D68C5F3080501EE105AB8EE411A31EED7
:10570000811AF7EE001A31EE211A22EE011AF0EE9C
:10571000410A00BF00BF194D18352D68C5F3462555
:105720006D1C01EE105AB8EE411AC0EE811ABCEEA3
:10573000E11A81ED001A114D18352D68C5F30645A3
:105740006D1C01EE105AB8EE411AC0EE811ABCEE83
:10575000E11A81ED011A094D18352D68C5F306656A
:105760006D1C01EE105AB8EE411AC0EE811ABCEE63
:10577000E11A81ED021A70BD0000000028440258B1
:105780000090D0030000004600093D0040787D01F4
:105790002DE9F04104464FF00008002700250026BF
:1057A000206800F0006000283AD0606E48B1B0F583
:1057B000801F0DD0B0F5001F15D0B0F5401F1FD1D0
:1057C0001DE0FB48006840F40030F949086019E02A
:1057D000F748006840F40010F5490860201D03F008
:1057E00089F905460EE0F248006840F08070F04903
:1057F000086004F1240003F0F9F9054602E001E035
:10580000012500BF00BF55B9E9482430006820F4E5
:105810004010616E0843E6492431086000E02E43E1
:10582000208800F48070A8B3606D052824D2DFE8DA
:1058300000F0030A15212200DD48006840F4003022
:10584000DB4908601AE0DA48006840F40020D849D3
:105850000860201D03F04EF905460FE0D4480068AB
:1058600040F48000D249086004F1240003F0BEF93E
:10587000054603E002E001E0012500BF00BF55B985
:10588000CB482430006820F00700616D0843C84908
:105890002431086000E02E43208800F40070D8B363
:1058A000A06D80281CD003DC40B1402826D10CE03C
:1058B000C02821D0B0F5807F20D11EE0BC48006810
:1058C00040F40030BA4908601AE0B948006840F472
:1058D0000020B7490860201D03F00CF905460FE0D1
:1058E000B348006840F48000B149086004F1240026
:1058F00003F07CF9054603E002E001E0012500BF6A
:1059000000BF55B9AA482430006820F4E070A16DAA
:105910000843A7492431086000E02E43208800F4A2
:10592000806078B3D4F8A400B0F5800F1ED004DCFA
:1059300050B1B0F5001F28D10DE0B0F5C00F22D056
:10594000B0F5000F21D11FE09948006840F4003005
:10595000974908601BE09648006840F4002094498D
:105960000860201D03F0C6F8054610E09048006866
:1059700040F480008E49086004F1240003F036F9F9
:10598000054604E012E002E001E0012500BF00BF8F
:105990005DB987482C30006820F46000D4F8A4106A
:1059A000084383492C31086000E02E43208800F42E
:1059B000006078B3D4F8A800B0F1007F1ED004DCFA
:1059C00050B1B0F1807F28D10DE0B0F1407F22D0FE
:1059D000B0F1806F21D11FE07548006840F40030BD
:1059E000734908601BE07248006840F40020704969
:1059F0000860201D03F07EF8054610E06C48006842
:105A000040F480006A49086004F1240003F0EEF8D5
:105A1000054604E012E002E001E0012500BF00BFFE
:105A20005DB963482C30006820F0E060D4F8A8101D
:105A300008435F492C31086000E02E43206800F0E5
:105A4000007050B3A06CC8B1102804D0202809D031
:105A5000302814D111E05648006840F40030544911
:105A600008600EE05248006840F400105049086099
:105A7000201D03F03FF8054603E002E001E00125A8
:105A800000BF00BF55B94A482030006820F0300000
:105A9000A16C084346492031086000E02E4320886D
:105AA00000F4805078B3E06DB0F5005F1ED004DCE8
:105AB00050B1B0F5805F28D10DE0B0F5405F21D046
:105AC000B0F5804F21D11FE03948006840F4003024
:105AD000374908601BE03648006840F4002034492C
