:020000040800F2
:10000000D8F00724AD0200088176000815710008B9
:1000100009760008F7240008CD9E000800000000C3
:10002000000000000000000000000000BF02000807
:10003000012A0008000000009579000845870008A3
:10004000D19E0008C7020008098900082D7E00081B
:10005000C7020008C7020008C7020008C70200085C
:10006000C7020008C7020008C7020008C70200084C
:10007000F1290008C7020008C7020008C7020008EB
:10008000F5290008C7020008C7020008C7020008D7
:10009000C7020008C7020008C7020008C70200081C
:1000A000C7020008C7020008C7020008218900082B
:1000B000C7020008C70200082D890008C70200080F
:1000C000C7020008C7020008C7020008C7020008EC
:1000D000C7020008899E0008C7020008C70200087E
:1000E000C7020008BD7D000800000000C70200082C
:1000F000C7020008C7020008C7020008C7020008BC
:10010000C7020008C702000861890008C70200088A
:10011000C7020008C70200086D890008C70200086E
:10012000C7020008C7020008C7020008C70200088B
:10013000C7020008C7020008C7020008C70200087B
:1001400000000000000000000000000000000000AF
:10015000C7020008C7020008C7020008C70200085B
:10016000C7020008C7020008C7020008C70200084B
:10017000C7020008C7020008C7020008000000000C
:10018000C7020008C7020008C7020008C70200082B
:10019000C7020008C7020008C7020008C70200081B
:1001A000C7020008C7020008C7020008C70200080B
:1001B000C7020008C7020008C7020008C7020008FB
:1001C000C7020008C7020008C7020008C7020008EB
:1001D000C7020008C7020008C7020008C7020008DB
:1001E000C7020008C7020008C7020008C7020008CB
:1001F000C7020008C7020008C7020008C7020008BB
:10020000C7020008C7020008C7020008C7020008AA
:10021000C7020008C7020008C7020008C70200089A
:10022000C7020008C7020008C7020008000000005B
:10023000C7020008C702000800000000C70200084B
:10024000C7020008C7020008C7020008C70200086A
:10025000C7020008C7020008C7020008C70200085A
:10026000C7020008C7020008C7020008C70200084A
:10027000C7020008C7020008C7020008000000000B
:10028000C702000800000000C702000800000000CC
:1002900000000000C7020008DFF80CD000F07AF878
:1002A0000048004741AA0008D8F0072406488047C4
:1002B00006480047FEE7FEE7FEE7FEE7FEE7FEE74B
:1002C000FEE7FEE7FEE7FEE78188000899020008E6
:1002D0002DE9F05F0546002092469B46884606467B
:1002E000814640241BE0284641464746224600F00E
:1002F00041F853465A46C01A914110D31146184648
:10030000224600F028F82D1A67EB01084F462246D6
:100310000120002100F01FF817EB00094E41201EBC
:10032000A4F10104DFDC484631462A464346BDE8D5
:10033000F09F40EA01039B0703D009E008C9121FA0
:1003400008C0042AFAD203E011F8013B00F8013B8F
:10035000521EF9D27047202A04DB203A00FA02F13B
:10036000002070479140C2F1200320FA03F31943A3
:1003700090407047202A04DB203A21FA02F0002145
:10038000704721FA02F3D040C2F1200291400843A5
:1003900019467047064C074D06E0E06840F001033F
:1003A00094E8070098471034AC42F6D3FFF778FF83
:1003B000A40F0108C40F010870B58C1810F8015B78
:1003C00015F0070301D110F8013B2A1106D110F8EE
:1003D000012B03E010F8016B01F8016B5B1EF9D1F2
:1003E0002B0705D40023521E0DD401F8013BFAE778
:1003F00010F8013BCB1A921C03E013F8015B01F8E3
:10040000015B521EF9D5A142D8D3002070BD06F081
:10041000CFBE2DE9F0410D4646190020044608E004
:100420000702301B401E80B200F007F8641C3844FD
:10043000E4B2AC42F4D3BDE8F08110B5044606F056
:1004400071FF210AA02000EB4100C0B206F034FF8A
:1004500006F0B8FFE0B206F02FFF06F0B3FF06F09B
:1004600061FFA12006F028FF06F0ACFF002006F097
:10047000EFFE044606F07EFF204610BD2DE9F04158
:10048000002416460D46074609E0E0003A1925FA11
:1004900000F0C1B290B200F006F8641CE4B2B442BD
:1004A000F3D3BDE8F08170B50D46044606F03AFF7F
:1004B000210AA02000EB4100C0B206F0FDFE06F0CC
:1004C00081FFE0B206F0F8FE06F07CFF284606F059
:1004D000F3FE06F077FF06F04DFFBDE870400A20FE
:1004E00000F014B87047000006480178491C0170FC
:1004F00001783C2904D100210170012000F0D0BE18
:10050000704700002802002470470000002810B542
:1005100011D0012800D10220012181F31088064C5E
:100520000021A060217081F3108800BFFFF7DAFF7F
:1005300020780128FAD110BD340300240B49002291
:1005400070B54FF0E024496865694843A369A16923
:100550009942FCD002D2A3EB010302E0A5EB010615
:1005600033441A440B468242F1D370BD3403002455
:1005700010B500F08DF8074CE06001F0D1FC00F000
:1005800087F82061E168BDE81040411A02A009F037
:10059000A5BC000050030024457261736820746894
:1005A000652077686F6C6520466C61736820636FA7
:1005B0006D706C65746521205370616E64205469A0
:1005C0006D653A2025646D730D0A000070B505460F
:1005D00000F05EF8074CE060284601F0B5FC00F042
:1005E00057F82061E168BDE87040411A02A009F0A7
:1005F00075BC000050030024457261736820746864
:10060000652077686F6C6520466C61736820636F46
:100610006D706C65746521205370616E642054693F
:100620006D653A2025646D730D0A000070B5164D96
:1006300000244FF40E760020314601F045FF45F8C6
:10064000240018B1641CE4B2032CF4D34FF41676E2
:100650000020314601F038FF0C4D31462860002063
:1006600001F032FF4FF400716860002001F02CFFB0
:10067000032CA86006D1296821B1696811B108B1BD
:10068000002070BD012070BDC0A00724A403002479
:10069000012080F310880448C1680161002181F3C2
:1006A000108800697047000034030024114A38B5EF
:1006B000136843F0040313601268401E00230E4CBD
:1006C00002F0040200920D4AC2E9023013611046A2
:1006D000C2E9004106F099F903221E20114603F0F9
:1006E0003FFD1E2003F02FFDBDE83840034806F013
:1006F000F3B90000E84402580008004090090024C3
:1007000070B51E4905461E4A062D1E4886B00DD2FC
:10071000DFE805F00322222B2B2B1B4C086840F04E
:1007200004000860086800F004000590174E0120DE
:10073000032156F82520CDE90020CDE902016946C4
:10074000204603F047FA36F82500012281B2204600
:1007500003F043FB06B070BD0868144640F080000B
:100760000860086800F08000DFE70446086840F091
:1007700008000860086800F00800D6E7E044025866
:10078000001C0258000C0258000802586CFE0008B9
:1007900070B50B4B002204461146481C01EB410585
:1007A000C1B203EB850042608260427003F82520ED
:1007B0000429F2D3042006F007F90248446070BD12
:1007C0002C0E0024340300240D4900220B4B10B5DD
:1007D0000C240B60C1E90102CA6008460A61C1E944
:1007E0000542CA6106F080FB08B102F00AF9BDE8D3
:1007F000104004490122024806F0FABB00100140F3
:100800005C0E0024480300240E4970B50646A1F191
:100810006C0000240268088822B13046BDE87040B0
:1008200000F068BD4D8800214543084600F030FBCC
:1008300000F0CCFCB0B2044901E00880641CAC427A
:10084000FBD370BD040D0024000008602DE9F04FBB
:10085000394CA4F16C05A071296839B100F06EFD26
:10086000E88A2080288B6080BDE8F08F002832481D
:100870004FF4305E4FF0F00C4FF4487649F24138B7
:100880004FF4A0774FF02C0280884FF4F0714FF0B6
:100890002A034FF02B0545F2105B45F210390BD0BF
:1008A00027804045BA46A4F802C001D0484527D168
:1008B00022816381A58135E0A4F800C040456780AE
:1008C00001D0484507D1228148456381A5812ED1B9
:1008D000278061802BE0584508D1A4F808E04FF448
:1008E000285363814FF42C50A08106E0A0F5C8572F
:1008F000633F1CD122816581A3812180668016E03F
:10090000584506D14FF42853A4F808E04FF42C556D
:1009100004E0A0F5C857633F04D122816381A5811B
:1009200026806180484502D12180A4F802A00020E1
:10093000BDE8F04F00F0D0B9040D00242DE9FE4FC2
:10094000161A4FF000085D1A4FF0FF34002E47468C
:10095000CDE9001002DD4FF0010002E003D14FF0BD
:100960000000834602E0C6F10006A346002D02DD2A
:100970004FF0010002E003D14FF00000824602E098
:10098000C5F10005A246AE4201DD344600E02C462A
:10099000601C0290002017E0009881B2019880B29C
:1009A00000F018F8B044A0452F4404DD0198A8EBEE
:1009B000040858440190A74203DD00983F1B5044AF
:1009C000009009F1010080B2029981468842E3DD7E
:1009D000BDE8FE8F084A10B5084C126822B12268A3
:1009E000BDE8104000F0BCBC00F052FA00F0EEFB95
:1009F00003492088088010BD980C00245002002470
:100A000000000860F0B51C4615460E4607460B462A
:100A1000FFF794FF3A46234631461046FFF78EFF14
:100A200023462A4619463846FFF788FF2A462346BA
:100A300031461046BDE8F040FFF780BF2DE9FC4F7E
:100A40008046144603200F460025A0EB440649E0EB
:100A5000391B019108EB050A89B21FFA8AF0FFF7EA
:100A6000B9FF791B009108EB04091FFA89F089B2DC
:100A7000FFF7B0FF07EB050B1FFA8BF11FFA89F0A8
:100A8000FFF7A8FF07EB04091FFA89F11FFA8AF0A4
:100A9000FFF7A0FFA8EB050A1FFA8AF01FFA89F1F9
:100AA000FFF798FFA8EB04091FFA8BF11FFA89F0F2
:100AB000FFF790FF01991FFA8AF089B2FFF78AFFCA
:100AC00000991FFA89F089B2FFF784FF6D1C002E90
:100AD00003DA06EB8506B61D04E0281B641E06EB50
:100AE00080060A36A542B3DDBDE8FC8F2DE9F04152
:100AF000044639480E46006820B12046BDE8F04162
:100B000000F02EBC344D270A4FEA16286C352846D3
:100B1000A9884089A1F51343413B0CD0A1F5A64318
:100B2000103B08D0A1F5AA43103B10D0A1F5C85343
:100B3000633B25D048E000F08FFD384600F080FD93
:100B4000E0B200F07DFDA88900F086FD36E000F0FF
:100B500083FD384600F074FD6889401C80B200F0C7
:100B60007BFDE0B200F06CFDA88900F075FD404609
:100B700000F066FDA889401C80B200F06DFD20E009
:100B8000A97919B92988091B491E8CB200F064FDA6
:100B9000270A384600F054FDE0B200F051FD384617
:100BA00000F04EFDE0B200F04BFDA88900F054FDCE
:100BB000404600F045FDF0B200F042FD404600F036
:100BC0003FFDF0B200F03CFD044928898B1C0880F1
:100BD0001A80BDE8F0810000980C0024FEFF076039
:100BE0002DE9F8431E46144B804608981B6833B124
:100BF00033460090404600F0D1FBBDE8F883A2EBFD
:100C00000802DFF83890521C0C4687B295B20FE00C
:100C10002146404600F03CF900F0D8FA0020494651
:100C200002E0401C0F8080B2A842FAD3641CA4B238
:100C3000B442EDD9E1E70000980C00240000086000
:100C400010B5244C2288824202D962888A4201D897
:100C5000002010BD1F4A6C3A12681AB1BDE810405E
:100C600000F0AEBC00F014F9A08841F66312A0F5C4
:100C70001341413905D0A0F5A641103901D0904269
:100C800001D12E2005E0A0F5AA41103903D14FF47F
:100C9000385000F0E1FC00F0C9FCA1889142D8D0A6
:100CA0000120411EC8B2FCD200F0C0FC0146012068
:100CB000421ED0B2FCD200F0B9FCCAB24FF6FF73AC
:100CC0006FF30A0103EA0222920A41EA421141EA61
:100CD000D02010BD040D0024F0B56C4C002541F669
:100CE00063172146A2798988012A01D01AB11BE035
:100CF000B94202D118E0B94216D1082814D2DFE86F
:100D000000F00406080A0C0E101206200CE0072062
:100D10000AE0042008E0052006E0012004E00020AD
:100D200002E0032000E0022045F21032A1F5134357
:100D300045F21056413B05D0914203D0B14201D05B
:100D4000B94277D1082812D2DFE800F01104060872
:100D50000A0C0E1080250AE0402508E0C02506E0B8
:100D6000202504E0602502E0A02500E0E025B14256
:100D700002D14FF4585000E03620914205D0B142E4
:100D800003D0B94201D045F00805294600F028FA01
:100D9000A188B9420AD06288A806208802D590426C
:100DA00002D303E0904201D922806080B142608981
:100DB00041D100F051FC002000F042FC6089401C51
:100DC00080B200F049FC002000F03AFC6089801CF1
:100DD00080B200F041FC2088401EC0F30F2000F0DC
:100DE0002FFC6089C01C80B200F036FC2078401EC9
:100DF000C0B200F025FCA08900F02EFC002000F01D
:100E00001FFCA089401C80B200F026FC002000F0EE
:100E100017FCA089801C80B200F01EFC6088401E78
:100E2000C0F30F2000F00CFCA089C01C80B200F0C1
:100E300013FC22E028E000F00FFC002000F000FC92
:100E4000002000F0FDFB2088401EC0F30F2000F0C2
:100E5000F7FB2078401EC0B200F0F2FBA08900F042
:100E6000FBFB002000F0ECFB002000F0E9FB6088B9
:100E7000401EC0F30F2000F0E3FBA078BDE8F04077
:100E8000401EC0B200F0DCBBF0BD0000040D002429
:100E9000F0B53F4A060A04460D4610460F0A9188EF
:100EA0004089A1F51343413B28D0A1F5A643103B4F
:100EB00024D0A1F5C853633B2FD0A1F5AA43103B22
:100EC00064D100F0C9FB304600F0BAFB5089401CE9
:100ED00080B200F0C1FBE0B200F0B2FB908900F0FC
:100EE000BBFB384600F0ACFB9089401C80B200F0A0
:100EF000B3FBE8B2BDE8F04000F0A2BB00F0ACFBF1
:100F0000304600F09DFBE0B200F09AFB908900F0C3
:100F1000A3FB384600F094FBEBE7917929B300F08E
:100F20009BFB304600F08CFBE0B200F089FB1088A0
:100F3000401EC0F30F2000F083FB1078401EC0B2AB
:100F400000F07EFB908900F087FB384600F078FBCC
:100F5000E8B200F075FB5088401EC0F30F2000F08F
:100F60006FFB9078401EC0B2C4E71188091B491E70
:100F70008CB200F071FB002000F062FB002000F05A
:100F80005FFB200A00F05CFBE0B2D9E7F0BD000097
:100F9000040D00242DE9FF4F58071D460C468A46D4
:100FA00000D00120DFF8B8B0690800EBD5000026BA
:100FB00010FB01F1203A01F0FF09D0B202904BE0A2
:100FC0000C2D11D0102D14D0182D17D0202D45D157
:100FD0000298244901EBC0104FF00008875D3806E5
:100FE00013D52148026814E00298204900EB400024
:100FF00008E002981E4901EB0010EDE702981D4938
:1010000000EBC00001EB8000E6E70D9828B9164818
:10101000426821460098FFF769FD7906BBF8020097
:10102000641CA4B20F0EA04218D9A4EB0A00A84277
:1010300009D100985446BBF80010401C80B20090C3
:1010400081420BD906E008F1010000F0FF08B8F179
:10105000080FC4D3761CF6B24E45B1D3BDE8FF8F5E
:10106000040D0024E8CE00085002002428B7000830
:101070009CBB00088CC100082DE9FF4F81B04FF0E8
:1010800000081D46934681464646DDF838A0444692
:101090004FEA5A0727E0281B401EC1B20A2006F07B
:1010A000C3F9BBFBF0F00A21B0FBF1F201FB120027
:1010B00026B9691E8C4201DA48B10126534607FB66
:1010C00004913030CDF80080C2B288B206E007FB50
:1010D00004902022534680B2CDF800800299FFF799
:1010E00059FF641CE4B2AC42D5D305B0BDE8F08F23
:1010F0002DE9F84F0D46044658194FF0000A111912
:1011000087B21FFA81F8DDE90AB604F0FF0912E0A0
:10111000444503D305EB0B004C4685B2BD420FD2CC
:101120005B4629462046CDF800A0FFF733FF04EBCD
:101130005B0084B2761C3278A2F120005E28E7D9E9
:10114000BDE8F88F2DE9FF4F81B04FF000081E4633
:1011500081464446DDE90EBA0AF001054FEA5B0715
:101160002CE0301B401EC1B20A2006F05DF9039945
:101170000A22B8F1000FB1FBF0F1B1FBF2F302FB70
:10118000131005D1711E8C4202DA48B14FF00108EC
:101190005B4607FB049130300095C2B288B208E08C
:1011A0005FEA0A605B4607FB0490009580B20AD5AF
:1011B00030220299FFF7EEFE641CE4B2B442D0D3B1
:1011C00005B0BDE8F08F2022F3E700000248034994
:1011D0000089088070470000040D0024FEFF0760AE
:1011E000024B9A1C1880118070470000FEFF0760B8
:1011F00011490246114B062A114830B41AD2DFE8D1
:1012000002F003080A0F11130888012281B20D4869
:101210000DE0888800E00889012281B2184606E0C6
:10122000898902E0098A00E0898A012289B230BCFA
:1012300002F0D3BD30BC70476CFE0008001C0258A1
:10124000000C02580008025811490246114B062AA8
:10125000114830B41AD2DFE802F003080A0F111364
:101260000888002281B20D480DE0888800E00889D6
:10127000002281B2184606E0898902E0098A00E06E
:10128000898A002289B230BC02F0A7BD30BC704709
:101290006CFE0008001C0258000C0258000802589E
:1012A00010490246104B062A104830B417D2DFE826
:1012B00002F00307090D0F11088881B20C480BE0FA
:1012C000888800E0088981B2184605E0898902E033
:1012D000098A00E0898A89B230BC02F07ABD30BC4C
:1012E000704700006CFE0008001C0258000C0258F9
:1012F0000008025808B500900548018BC08A491EB5
:101300008BB2401E82B20021084600F047F808BDAB
:10131000980C002410B5B0B002230DF1240C1C076A
:1013200000948CE80B00CDE90C32684603F058FAC3
:10133000002800D0012030B010BD000007490A4647
:101340004875938812889BB292B220B1012801D1CE
:10135000CA820B837047CB820A837047980C0024A3
:10136000F0B50C4C95B2DFF830C02346677D1E7D8A
:10137000DA691B685CF8266027B103FB0100424371
:10138000B552F0BD6468201A401E03FB00105043A4
:101390003552F0BD980C0024580200242DE9F04786
:1013A000274D0027DDF820A06C7D14B104461646B9
:1013B00006E01E466B680C46991A1B1A491E5B1EF6
:1013C0002868DFF88090321B861A95F814C000FB5D
:1013D0000144591AD9F80030DFF87080761EED69A3
:1013E000194858F82C8043F4000C05FB0484B3B270
:1013F000C9F800C04FF44036066002254563036417
:10140000ED030368491C05EB0242114323F001027E
:101410000260C4634164C0F838A00268410242F02F
:101420000102026002E07F1C8F4202D242689207F2
:10143000F9D5816841F002018160BDE8F0870000C4
:10144000980C0024D844025800100052580200247E
:101450002DE9F0438DB0144D14460022DDE916C786
:10146000DDE91498009202924FEA0C2C2E68019646
:101470004FEA08286D68CDE9044303954B460B9568
:10148000CDE9091606AE694686E808118DF83220C6
:101490008DF83120024604488DF83070A83802F0EB
:1014A000DDFC0DB0BDE8F083980C00240B4B10B5AB
:1014B000842401291A6804EBC01001D021B107E08F
:1014C000115841F0010102E0115821F001011150C1
:1014D0001868416A41F00101416210BDF00B00241F
:1014E00070B51E46044603460548049D02F0D6FD2D
:1014F00023462A4631460248BDE8704002F0F8BD56
:10150000F00B00242B4830B587B0016841F0400152
:101510000160016801F040010591016841F48071AA
:101520000160006800210122234C00F480700590C6
:10153000402003238DE80F006946204602F04AFB55
:101540001E4D842069460090284602F043FB40214E
:10155000204602F039FC04210446284602F034FCFF
:1015600044EA40042846802102F02EFC44EA800030
:1015700010F0FF000CD001280DD002280ED0032857
:101580000FD0042810D0052811D0002007B030BD9E
:1015900044F24230FAE747F28400F7E747F21600D8
:1015A000F4E747F21800F1E748F21600EEE741F2DF
:1015B0001800EBE7E04402580018025800200258D7
:1015C000F0B50C4BDFF830C01C465F7D267D2568EA
:1015D000E2695CF8264027B105FB01004243A05AAE
:1015E000F0BD5B68181A401E05FB00105043205ADE
:1015F000F0BD0000980C0024580200240149087531
:1016000070470000980C002407490128096806D09B
:10161000002803D1886920F001008861704788693B
:1016200040F00100F9E70000F00B0024034808B582
:101630000088ADF80000BDF8000008BD000008609B
:1016400001B5BDF800100348ADF80010BDF800105A
:10165000018008BD0000086001B5BDF80010034816
:10166000ADF80010BDF80010018008BDFEFF076056
:101670004FF000700E4B2DE9F04190FAA0F20D48AA
:1016800000210124B2FA82F2A602521EC0E90561CD
:10169000C161102501620427C0E9035280E8980067
:1016A00002F0D4FD002800D00120BDE8F081000048
:1016B00000500052C80F0024074A491E10B5126896
:1016C000116141F288320146034802F081FE002890
:1016D00000D0012010BD0000C80F0024F0B58FB06D
:1016E00014AC94E8E0000024039609970D94CDE92A
:1016F00007540B940C94CDE90523CDE9000104486F
:1017000041F28832694602F05DFD0FB0F0BD000085
:10171000C80F0024074A491E10B51268116141F232
:1017200088320146034802F0B1FE002800D00120B3
:1017300010BD0000C80F00242DE9FF5FFFF7E2FE97
:10174000BF4C0546A0F586404FF0010A42384FF0E5
:10175000080B4FF4F07C4FF0060937D0A5F5E040B8
:1017600084384FF4487143D0A5F5E0404FF08C0821
:1017700016384FF003004FF480664FF4167747D0C9
:10178000A5F5E043183B4FF4A06250D0A5F5004307
:10179000163B4FD0A5F58053183B4ED04AF20103BB
:1017A0009D424FF4407E54D140F256524FF0180CF7
:1017B000C4E9002E8F23238146262682D527A781C0
:1017C00060811C22A4F80EC06082C8E04FF48873C8
:1017D00028220526C4E900C3A4F808A0A4F80AA09A
:1017E000A2815822A4F80EB02682A4F812B0B6E066
:1017F000C4E9001CA4F808A02E23A4F80AA017220C
:10180000A381D226E2811627268218226782A6E0CB
:10181000C4E90067142121816081A023A4F80C8011
:101820004FF00C0CE1812382A4F812C060E0C4E9FF
:10183000002198E0C4E9006795E0C4E90021A4F81C
:101840000C800A23238210222381E381638260813A
:1018500085E0A5F52043023B4FF0500315D0A5F5D8
:101860002048B8F1030820D0A5F52042043A2ED034
:10187000A5F5204005383DD0A5F5204006384AD0D2
:10188000A5F5204007385AD06DE0C4E90021202694
:10189000268130272782A3814FF00E08A4F80A90F2
:1018A0001622A4F80E80608259E0C4E9002E20269A
:1018B0002681A381302727824FF0070CA4F80AC0A5
:1018C0004FF00C08A4F80E801722608247E0C4E9AC
:1018D000006E4FF0880CA4F808C018222282A023C2
:1018E000A381A4F80A904FF01D08A4F80E8060822E
:1018F000122234E04FF45476C4E9006C7020208149
:10190000A081102727821722A4F80AB0E2812F2293
:10191000A4F8129023E0C4E90017802626814FF036
:10192000580CA4F80CC0282020824FF00408A4F81A
:101930000A801722E2810246A4F812A00FE04FF4B9
:101940002073C4E9003C60272781A4F810B0382632
:10195000A681022060812922E2813E226082A021AC
:101960000520FFF7D7FC364F00262168A5F58052E9
:101970006C37DFF8D080183A4FF00203A7F58A7071
:10198000314D398062687A80304FE361C8F8007069
:10199000C0E900568660C660066101D1DB060361BE
:1019A00023895D1E456165896F1E40F8187FA789F0
:1019B0003B445F1E4760E7893D44A5F1010CC0F838
:1019C00008C0A2F1010CAC444F1E1F44C0E9037CC7
:1019D000278A39441944491E4161618A11442944C6
:1019E000491E81618677467706771548A83802F048
:1019F0005FFA0720CDE90069CDE90206D8F80010AA
:101A0000FF2302220020FFF723FDA08800221146B9
:101A100080B20090208883B21046FFF761FD01205C
:101A2000FFF78CFC0A4801222021267502F0D5F927
:101A300004B04FF0FF30BDE8F05FFFF75BBC000083
:101A4000980C00245802002400100050000000C030
:101A500000040258034900234FF48072A1F13800BA
:101A600004F0CFB8A80D002402490022024804F077
:101A700009B90000AD020024700D002402490022C3
:101A8000A1F1240004F022B9940D0024F0B58BB02C
:101A90000DF1140C00248DF800104FF070658DF8D6
:101AA00001204FF080468DF802300194B7158DF873
:101AB00003408CE870008DF820000D4809970068FD
:101AC000C16801F0800161F42071C1600848002202
:101AD000694604F029F908B100F093FF03220421BC
:101AE000292002F03DFB292002F02DFB0BB0F0BDB8
:101AF000700D002408B58DF803008DF801106946BB
:101B00008DF80220002203488DF8003004F0EEF931
:101B100008BD0000700D002410B586B08DF80000DF
:101B20000020089C8DF8011069468DF802200246BD
:101B300003900490034801938DF8034004F044FAA5
:101B400006B010BD700D00242DE9F04116460F4679
:101B5000FEF79EFD104C0025E06006E00F4832467F
:101B6000394600F065FA6D1CADB2A068B0FBF6F026
:101B7000A842F3D8FEF78CFD20614FF47A72D4E9C5
:101B8000021401FB02F3021B0548B3FBF2F3BDE8AC
:101B9000F04108F0A3B90000500300241410002401
:101BA000E40D01082DE9F84316468846FEF770FD5E
:101BB0001A4D32464146E860194800F039FAFEF7FE
:101BC00067FD286117A008F089F9154F002412E07D
:101BD000395D1EA008F082F9E043C00604D004F08D
:101BE0001F000F2802D004E01AA000E01AA008F09D
:101BF00075F9641CA4B2B442EAD34FF47A70D5E903
:101C000003127043531A3246B0FBF3F04146009082
:101C1000124808F063F9BDE8F8830000500300247F
:101C200014100024577269746520466C6173682033
:101C3000737563636573732C5468652064617461A4
:101C400073206172653A0D0A0000000020253032D1
:101C5000580000000D0A0000202D20003C0E010855
:101C600010B500F0FBF9A0F56F401A4913380628AB
:101C70004FF480522BD2DFE800F003090F151B212F
:101C80004FF48010886014488A801CE04FF40010E4
:101C9000886012488A8016E04FF4800088601048FF
:101CA0008A8010E04FF4000088600E488A800AE0C5
:101CB0004FF0807088600C488A8004E04FF000701C
:101CC00088600A488A80BDE8104008F007B908A07B
:101CD000F9E7000050030024A80B0108040C0108D8
:101CE000C40C0108840D0108240D0108640C0108CE
:101CF000556E6B6E6F7720466C6173682C20506C4C
:101D00006561736520636865636B20746865204650
:101D10004C415348210D0A00F0B514480022082315
:101D2000114F87B04FF0400C02210126C0E900722C
:101D3000C0E902638E0210250561CF01CD02C0E922
:101D40000726C0E909520624C0E905C78DE81A0034
:101D5000CDE9034105910691694604F0CFF90348A6
:101D600000F006F807B0F0BD40410052F80D002425
:101D7000002301221846114610B500F021F84FF457
:101D8000FA70FEF7DBFB002301221846022100F067
:101D900017F8002308221846032100F011F8012249
:101DA000042100204FF4087300F00AF8BDE8104049
:101DB000024840F2A52104F03DBA0000F80D0024CD
:101DC0001FB54FF0000410B1012802D002E010242A
:101DD00000E008240748CDE902234FF6FF72CDE961
:101DE0000014694604F038FA002800D0012004B03D
:101DF00010BD0000F80D0024044810B504F0B8FB35
:101E0000042801D0012010BD002010BD1430002492
:101E10000D4800214FF4804310B50A4C0422C0E95C
:101E20000041C0E90213C0E9041204F0BDFB08B18F
:101E3000012010BD044904487C3104F087FB0020D8
:101E400010BD0000007000521430002438B50C4C56
:101E5000012383F3108813460A460146094800947B
:101E600004F01EFC054602E0641E00D20125FFF7C7
:101E7000C3FF0028F8D180F31088284638BD000041
:101E800000E1F5051430002438B50C4C012383F330
:101E9000108813460A4601460948009404F0C0FC25
:101EA000054602E0641E00D20125FFF7A5FF0028C9
:101EB000F8D180F31088284638BD000000E1F50510
:101EC0001430002410B500FB02F4491E8AB2401EF3
:101ED0009FED111B082B4FF080410FD00C2B0CD124
:101EE00000EE104AC862B8EE400B20EE010B0A85E6
:101EF000BCEEC00B10EE100A086410BD00EE104AD4
:101F0000C862B8EE400B20EE010B0A85BCEEC00B98
:101F100010EE100AC86310BD7B14AE47E17A843F0F
:101F20000EB500F045F900F0E9F8002000904FF4FC
:101F300040730246014601900290C720FFF7CEFB96
:101F4000BDE80E4000F0DAB83EB5040300F030F909
:101F500000F0D4F84FF44051002288108DE80700BB
:101F6000831021462020FFF7B9FBBDE83E4000F07A
:101F7000C5B800007FB5FFF77BFB00F039F800F033
:101F80006DF81A49A0F56F42183A488002D0012036
:101F900004B070BD032000F085F800248DF80C001B
:101FA000C0074FF440750AD100F002F900222B4619
:101FB000B7201146009401940294FFF78FFB00F0C4
:101FC000F7F84FF04070009400222B461146CDE9FF
:101FD0000140C020FFF782FB30208DF80C0001216A
:101FE00003A8FFF797FB0020D2E70000500300246E
:101FF0003EB5022000F056F80446800706D400F0F3
:10200000D7F8022044F0020100F022F900200090ED
:102010004FF4807302460146019002903820FFF78A
:102020005DFB0249012008703EBD00005003002402
:102030003EB5154604464FF44052901083038DE898
:102040000D00831008220B20FFF748FB03B0294640
:102050002046BDE83040FFF72FBB00001FB51049F8
:102060004FF40050097829B14FF440629103029176
:102070000B1404E04FF48062910302910B14CDE93C
:102080000020002290201146FFF728FB022103A820
:10209000FFF712FBBDF80C0004B040BA10BD000001
:1020A000500300241FB5002101288DF80C1003D027
:1020B000022803D0032803D0052002E0352000E0E9
:1020C00015200D4A127822B14FF04072009113147E
:1020D00003E04FF0807200911314CDE90112002249
:1020E0001146FFF7FBFA012103A8FFF7E5FA9DF877
:1020F0000C0004B010BD00005003002410B50120F6
:10210000FFF7D0FFC007FAD110BD00002DE9F05F46
:10211000C1F30B06DFF894800F0B8946C6F5805497
:102120008246A242154600D81446404639034FF471
:1021300080528B46FFF77CFF002006E0321818F82B
:102140000210FF2903D1401C80B2A042F6D3A04266
:1021500023D23846FFF7F8FE002006E083191AF86C
:102160000020401C80B208F80320A042F6D34FF4B0
:10217000805259464FEA080000F030F8A54212D0CC
:10218000291B4FF000068DB27F1C4FF48050854212
:10219000A244A14405D90446C7E722464946504611
:1021A000EAE72C46C1E7BDE8F09F000014200024B8
:1021B00009480EB50178002000900190029011B1FD
:1021C0004FF4407301E04FF4807300220620114663
:1021D000FFF784FA0EBD0000500300242DE9F04102
:1021E00007460E46C8B21546C0F58074A24200D814
:1021F00014464FF4807822463146384600F00EF8F7
:10220000A54209D0291B8DB245452744264401D952
:102210004446F0E72C46EEE7BDE8F081FEB51646F1
:102220000C460546FFF7C4FF4FF440518810820367
:102230008DE807008310214600220220FFF74EFAA6
:1022400031462846FFF766FABDE8FE40FFF756BF65
:1022500003B5012883B004D002280BD003280BD08B
:1022600001200E490A78002142B14FF040720091DE
:10227000131407E03120F4E71120F2E74FF08072E9
:1022800000911314CDE9011200221146FFF726FA3E
:10229000012104A8FFF73EFA05B000BD5003002459
:1022A00070B51C4A002102E04C1C5054A1B2994266
:1022B000FAD3FEF7EDF9184D0024E86011E000BFF5
:1022C00004FB02F11348FFF7A9FF14A007F006FE74
:1022D0006006B0F17E4F02D111A007F0FFFD641C33
:1022E000A4B2AA88A868B0FBF2F0A042E8D8FEF732
:1022F000CFF928614FF47A72D5E9021401FB02F399
:10230000021B0848B3FBF2F3BDE87040890A07F0EE
:10231000E5BD000014100024500300242E0000002E
:102320000D0A0000600F0108F8B5002014460D46A4
:10233000104902E0421C085490B2A042FAD3FEF7C2
:10234000A7F90D4E22462946F0600A48FFF7DEFE47
:10235000FEF79EF94FF47A713061F2686143831A97
:102360002246B1FBF3F029460090044807F0B6FD81
:10237000F8BD00001410002450030024940E01083E
:10238000F8B5002014460D46104902E0421C0854DE
:1023900090B2A042FAD3FEF77BF90D4E22462946B1
:1023A000F0600A48FFF71AFFFEF772F94FF47A71EE
:1023B0003061F2686143831A2246B1FBF3F029468B
:1023C0000090044807F08AFDF8BD000014100024B6
:1023D00050030024F80E010830B504460848074DA4
:1023E00050F8241005EB84008A00006A002100F0F8
:1023F0007BF82919012081F8380030BD64030024DE
:1024000084FE00082DE9F0411E4E04460F463019A7
:10241000002590F8380010B93168204688474FF001
:10242000FF326FB3184B53F82410B7FBF1FCB7FB26
:10243000F1F001FB1C7101B1401C1349183951F82E
:102440002410491E1CD406EB8406376A57F821C0B5
:10245000BCF1000F04D0002585420FD1002206E018
:102460006D1CF9E7356A8F18521C45F82700824227
:10247000F8D353F824004843BDE8F081491EE5D560
:102480001046F9E7640300249CFE000810B50C4CCC
:1024900000220C4B114603EB800354F8200005E0AA
:1024A0001C6A54F8214004B1521C491C8842F7D8D8
:1024B0004FF47A714A43B2FBF0F080B210BD0000D5
:1024C00084FE00086403002410B50446FFF79AFF59
:1024D000411C05D0034901EB84018968084410BD03
:1024E000002010BD6403002402E000BF00F8011BBF
:1024F000521EFBD27047FEE7F0B5BFF34F8FBFF31C
:102500006F8F1D4900200860BFF34F8FBFF36F8F9F
:102510001A4B196841F400311960BFF34F8FBFF3B4
:102520006F8F164970310860BFF34F8F081F43F655
:10253000FF740068104D1035C0F34E31C0F3C9026E
:1025400004EA4116104600BF46EA80772F60401E1D
:10255000FAD2491EF4D2BFF34F8F186840F480308E
:102560001860BFF34F8FBFF36F8F03484C30016883
:1025700041F004010160F0BD50EF00E014ED00E017
:1025800070B5144D00224021284601F026FC124C63
:10259000206820F0C0002060206840F040002060EB
:1025A0000220FDF7CBFF00222046082101F015FC98
:1025B0000220FDF7C3FF01222846402101F00DFC57
:1025C0000220FDF7BBFF2846BDE8704000224021F5
:1025D00001F003BC001C025800200258124800B54C
:1025E00087B0016841F080010160016801F080015D
:1025F0000591016841F48071016000680322402167
:1026000000F4807005900120CDE90202CDE90010B0
:102610000648694601F0DEFA082000900448694641
:1026200001F0D8FA07B000BDE0440258001C02587F
:102630000020025870B5144D00224021284601F0B8
:10264000CCFB124C206820F0C0002060206840F0D5
:10265000400020600220FDF771FF01222046082182
:1026600001F0BBFB0220FDF769FF01222846402153
:1026700001F0B3FB0220FDF761FF2846BDE8704082
:102680000022402101F0A9BB001C02580020025882
:102690002DE9F041184D06460024286820F0C000BE
:1026A0002860286828601E20FDF748FF134FA846C1
:1026B000002500223846402101F08FFB0220FDF763
:1026C0003DFF01223846402101F087FB60060821CA
:1026D000040E404601F078FB08B1641CE4B26D1CA6
:1026E000EDB2082DE5D326B1FFF74AFF2046BDE83D
:1026F000F081FFF79FFFF9E700200258001C025805
:102700002DE9F0411A4C0646206820F0C0002060F8
:10271000206840F040002060164F002240213846DB
:1027200001F05BFB0220FDF709FF0025300601D513
:10273000012200E000222046082101F04EFB700635
:102740000122060E3846402101F047FB0220FDF72A
:10275000F5FE00223846402101F03FFB0220FDF744
:10276000EDFE6D1CEDB2082DE0D3BDE8F081000058
:1027700000200258001C025870B5134C206820F04D
:10278000C0002060206840F0400020600122204608
:10279000082101F022FB0D4D01224021284601F0C5
:1027A0001CFB1E20FDF7CAFE00222046082101F076
:1027B00014FB0220FDF7C2FE2846BDE8704000224F
:1027C000402101F00ABB000000200258001C025802
:1027D00010B5104C206820F0C0002060206840F048
:1027E000400020600C480122402101F0F6FA1E2032
:1027F000FDF7A4FE00222046082101F0EEFA022097
:10280000FDF79CFE01222046BDE81040082101F0A2
:10281000E4BA000000200258001C025870B5164DA2
:1028200000242846296821F0C00129602968296010
:102830000122082101F0D1FA104E01224021304638
:1028400001F0CBFA07E0641CE4B2FA2C03D9FFF7DD
:10285000BFFF012070BD0220FDF770FE0821284651
:1028600001F0B2FA0028EED100223046402101F0FA
:10287000B4FA002070BD000000200258001C02586D
:102880001CB5FFF739FE01F0BBFA05F099FF0020F7
:10289000FDF736FF0120FDF733FF0220FDF730FF83
:1028A0000320FDF72DFF0420FDF72AFF0520FDF78B
:1028B00027FF4FF4E130FDF787FF4FF4C870FDF7B5
:1028C00067FF424840688047FFF726FA0020FFF77D
:1028D00083FD0120FFF780FD0420FFF77DFDFEF75B
:1028E000C7FEFFF747FBFFF793FAFDF79FFE384857
:1028F000012238A1006807F067FEFEF71DFF364889
:102900000068804700F0E2FE344C182534494FF44B
:102910007840DFF8D0B04FF4487A04F1280904F188
:10292000500804F17807086004F1A0061F20FDF7A5
:102930006BFF00F08BFE20205246CDE900042821D9
:1029400003460A20FEF7D4FB1823524650210A20E2
:10295000CDE90059FEF7CCFB1823524678210A2016
:10296000CDE90058FEF7C4FB18235246A0210A20E7
:10297000CDE90057FEF7BCFB18235246C8210A20B8
:10298000CDE90056FEF7B4FB17481823F021524654
:10299000CDE900500A20FEF7ABFB182352460A206F
:1029A000CDE9005B4FF48C71FEF7A2FB0F481823B2
:1029B0004FF4A0715246CDE900500A20FEF798FB73
:1029C0004FF47A70FDF7A2FDB0E700003401002457
:1029D000C0A00724303A000064020024D00700247D
:1029E000500200243C0D0024140D0024640D00242A
:1029F000704700000148806800F070BF980800240C
:102A000070470120FEF7F4FB0220FEF71DFCF8E7FB
:102A1000F0B5D1E90125D1E90343D1E905762A438F
:102A2000D1F800C044EA0304D1E9073542EA0402C0
:102A3000496A42EA0702BCF1010F42EA060208D0E5
:102A400004681A432A430A43E30BDB031A43026078
:102A50000BE0066844682B4326F4F84529430B43F2
:102A600003606FF30E04224342600020F0BD426910
:102A700042EA410141610020704738B591E81C00ED
:102A8000C9686FF01F051A4305EB441444EA41215D
:102A90000A4300920261002038BD00002DE9F04396
:102AA000914691E81C006FF00F05521E2E0105EBB8
:102AB00003131A430B7E06EB04268C8A2F034FEA7E
:102AC000054C0D8A32434FF07F4808EB0366CB6814
:102AD000B9F1010F07EB05450CEB04540CD08168EC
:102AE0003F1107EB03331A432A432243324301F0D9
:102AF00070410A43826011E08168DFF828C0C7682E
:102B00001B03A3F5805323432A4301EA0C013243FC
:102B10000B43836007F070442243C2600020BDE88D
:102B2000F0830000FF0F0FFF70B5394888B00168CF
:102B300041F080010160016801F0800106910168A7
:102B400041F48071016000680321002400F480706A
:102B5000069001268020CDE90361CDE901042D48CE
:102B600001A901F037F83502CDE901562A4E01A935
:102B7000304601F02FF8FFF731FD0022294630469C
:102B800001F02BF91420FDF7C1FC01222946304643
:102B900001F023F93220FDF7B9FC0122694600203B
:102BA0008DF8004000F00EF901226946A42000F0E3
:102BB00009F91620694601228DF80000802000F0F6
:102BC00001F90C20694601228DF80000882000F0F0
:102BD000F9F802226946A12000F026F89DF80010BD
:102BE000302903D19DF80100032808D09DF8010089
:102BF000012804D0022802D0012008B070BDC0B264
:102C000000EB012105A007F069F90020F5E70000BD
:102C1000E0440258001C025800200258435450203F
:102C200049443A25780D0A002DE9F04115460F4632
:102C30000446FFF7A1FD7020FFF762FDFFF7EEFDF0
:102C4000E0B2FFF75DFDFFF7E9FDFFF795FD7120AD
:102C5000FFF756FDFFF7E2FD6E1E002409E0B442C7
:102C600001D0012000E00020FFF712FD611C385563
:102C7000CCB2AC42F3D3BDE8F041FFF7A9BD0000F0
:102C80002DE9F1474B4E00244FF00A0ADFF8289156
:102C900081B0A0463078401CC0B23070B0FBFAF270
:102CA0000AFB120109B10A2867D20122022001A9F8
:102CB000FFF7BAFF9DF8040001075ED000F00F0097
:102CC00006285AD2FF214D4600274FF001088140C7
:102CD000C8B2C04340F0C000A9F83400A98E08FA79
:102CE00004F001423CD035480422694630F8140013
:102CF000FFF79AFF95F844009DF80110C0079DF872
:102D0000000010D000F00F0205EB440001EB02219F
:102D100001849DF802209DF8031002F00F0201EBE0
:102D20000221818112E0264A138800F00F0205EB90
:102D3000440001EB0221591A81819DF802209DF87F
:102D4000031002F00F0201EB022101849DF8000044
:102D50000821B1EB101F03D005EB440007848781E5
:102D6000641CE4B2052CB9D3A8894FF0010818B946
:102D7000288C08B98DF8047037709DF80400C006DF
:102D80000FD1B9F8341048460A0602D521F0800167
:102D900005E04FF6FF72828101F0E0010284A9F89C
:102DA00034103078F02801D986F800A04046BDE8FC
:102DB000FC870000B1070024640200249AFF000889
:102DC000040D00242DE9F041002516460F46044667
:102DD000FFF7D2FC7020FFF793FCFFF71FFDE0B276
:102DE000FFF78EFCFFF71AFD002408E0385DFFF7BF
:102DF00087FCFFF713FD050003D1641CE4B2B44265
:102E0000F4D3FFF7E5FC2846BDE8F0812DE9F04357
:102E1000424889B0016841F080010160016801F019
:102E200080010791016841F480710160006801AA86
:102E3000DFF8EC90002400F4807007908025009566
:102E4000012669460327484682E8D00000F0C2FE0A
:102E50004FF480786946CDE90086324E304600F066
:102E6000B9FEFFF7BBFB00224146304600F0B5FF3C
:102E70000A20FDF74BFB01224146304600F0ADFF32
:102E80000A20FDF743FBCDE90054CDE9024769462E
:102E9000484600F09FFE6420FDF738FB042248F20C
:102EA000401005A900F056F805A98DF818401EA09D
:102EB00007F014F81FA105A807F0EFFD18B10120D5
:102EC00009B0BDE8F083022048F2400501228DF8E8
:102ED000140005A9284600F083F90122E81D05A980
:102EE00000F038F89DF8141060290BD213A006F0FA
:102EF000F5FF17488088A0F5AA41103902D10120BA
:102F000000F046F90A20FDF701FB0122284605A939
:102F10008DF8144000F064F90020D1E7E044025835
:102F2000001C0258002002584354502049443A25BE
:102F3000730D0A00393134370000000044656661C2
:102F4000756C74205665723A25640D0A0000000005
:102F5000040D00242DE9F04115460F460446FFF705
:102F60000BFC2820FFF7CCFBFFF758FC200AFFF7EB
:102F7000C7FBFFF753FCE0B2FFF7C2FBFFF74EFCC5
:102F8000FFF7FAFB2920FFF7BBFBFFF747FC6E1E9C
:102F9000002409E0B44201D0012000E00020FFF746
:102FA00077FB611C3855CCB2AC42F3D3BDE8F0419D
:102FB000FFF70EBC2DE9F14F714E00244FF00A0BC4
:102FC000DFF8C0A182B0A0463078401CC0B230709B
:102FD000B0FBFBF20BFB120109B10A2879D248F2CF
:102FE0004E150122284602A9FFF7B4FF9DF80800FC
:102FF000002701060AD500F00F00062806D201229C
:10300000284601A98DF8047000F0EAF89DF8080040
:1030100001075ED000F00F0006285AD2FF21DFF82A
:10302000688155468140C8B28DF80400C14341F023
:10303000C0009AF83410AAF83400BAF80C0001F075
:10304000FF09AAF81400BAF82000AAF82800012005
:10305000A98EA04001424FD04C480422694630F866
:103060001400FFF777FFB8F80400A0F5AA41103963
:1030700004D0A0F58641423916D03DE095F84400D1
:10308000C00715D09DF801109DF8000000EB01214C
:1030900005EB440001849DF803209DF8021001EB2C
:1030A0000221C1F5487126E095F84400C00711D00F
:1030B0009DF801109DF8000000EB012105EB440094
:1030C00081819DF803209DF8021001EB022101840B
:1030D00012E02BE09DF801109DF8000000EB0121AB
:1030E00005EB440001849DF803209DF8021001EBDC
:1030F0000221C1F588718181641CE4B2052CA6D33C
:103100004046A9894FF001080288914203D8298CD2
:103110004088814209D99DF8080000F00F0001287D
:103120000BD9E889A881688C288437709DF808003D
:1031300000F08F0080280AD019E0A98A8020A98198
:10314000298D29848DF80800A5F83490EEE7BAF8A7
:10315000341050460A0602D521F0800105E04FF6F2
:10316000FF72828101F0E0010284AAF83410307805
:10317000F02801D986F800B04046BDE8FE8F000077
:10318000B207002464020024040D00245C0001083E
:1031900008B5124900228DF800208DF80100104674
:1031A0009DF800200B5C401CC0B2B8281A448DF872
:1031B0000020F5D3D0B20949C043401C8DF800006F
:1031C000B82248F2470000F00BF80222694648F2A4
:1031D000FF0000F005F8002008BD0000A4FF000873
:1031E0002DE9F041002516460F460446FFF7C4FAC4
:1031F0002820FFF785FAFFF711FB200AFFF780FA76
:10320000FFF70CFBE0B2FFF77BFAFFF707FB0024A8
:1032100008E0385DFFF774FAFFF700FB050003D103
:10322000641CE4B2B442F4D3FFF7D2FA2846BDE8F6
:10323000F08100002DE9F0433F4889B0016841F07A
:1032400080010160016801F080010791016841F48B
:1032500080710160006801AADFF8E090002400F4AA
:10326000807007908025009501266946032748460F
:1032700082E8D00000F0AEFC4FF480786946CDE9DA
:1032800000862F4E304600F0A5FCFFF7A7F900227C
:103290004146304600F0A1FD0A20FDF737F9012232
:1032A0004146304600F099FD0A20FDF72FF9CDE99F
:1032B0000054CDE902476946484600F08BFC642083
:1032C000FDF724F9042248F2401005A900F050F857
:1032D00005A98DF818401BA006F000FE1DA105A849
:1032E00007F0DBFB18B1012009B0BDE8F083022034
:1032F00048F2400501228DF8140005A92846FFF781
:103300006FFF0122E81D05A9FFF724FE9DF81410A8
:10331000412905D211A006F0E1FD012000F044F999
:103320000A20FDF7F3F80122284605A98DF814407C
:10333000FFF756FF0020D7E7E0440258001C025870
:10334000002002584354502049443A25730D0A0D79
:103350000A00000039323731000000004465666120
:10336000756C74205665723A25640D0A00000000E1
:103370002DE9F04115460F460446FFF7FDF92820D8
:10338000FFF7BEF9FFF74AFA200AFFF7B9F9FFF78E
:1033900045FAE0B2FFF7B4F9FFF740FAFFF7ECF9AE
:1033A0002920FFF7ADF9FFF739FA6E1E002409E076
:1033B000B44201D0012000E00020FFF769F9611C50
:1033C0003855CCB2AC42F3D3BDE8F041FFF700BAB8
:1033D0002DE9F14F6B4C86B000254FF00A0BDFF85A
:1033E000A8912E468DF804504FF6FF7A2078401CA5
:1033F000C0B22070B0FBFBF20BFB120109B10A282E
:103400007DD248F24E170122384606A9FFF7B0FFD9
:103410009DF8180001060AD500F00F000B2806D20F
:103420000122384601A98DF8045000F0E5F89DF816
:103430001800010778D000F00F010B2974D2012683
:10344000B9F834700AFA01F0C043C84640F0C00031
:10345000A9F83400B9F80C00A9F81E00B9F820004A
:10346000A9F832008DF804509DF80410B8F8342003
:1034700006FA01F0024232D04448062230F8110028
:1034800002A9FFF775FF98F844009DF80B209DF8FE
:103490000A10C0079DF8040001EB022108EB400070
:1034A00008D001849DF809209DF8081001EB022145
:1034B000818109E0C1F5487181819DF809209DF85D
:1034C000081001EB022101849DF804100B4608EB63
:1034D0004100028C009282892DA006F0FFFC9DF82D
:1034E0000400401CC0B28DF804000A28BCD32D484B
:1034F0000126B8F80C100288914206D800E013E0CB
:10350000B8F82010408881420DD99DF8180000F0CD
:103510000F0001280FD9B8F80E00A8F80C00B8F871
:103520002200A8F8200025709DF8180000F08F00F8
:1035300080280ED01DE0B8F81E108020A8F80C10CE
:10354000B8F83210A8F820108DF81800A8F83470D8
:10355000EAE7B9F8341048460A0602D521F080019E
:1035600005E0A0F80CA001F46041A0F820A0A9F8A3
:1035700034102078F02801D984F800B007B0304624
:10358000BDE8F08FB00700246402002486FF000825
:10359000785B25645D3A25642C795B25645D3A256A
:1035A000640D0A00040D002408B5124900228DF8AC
:1035B00000208DF8010010469DF800200B5C401C97
:1035C000C0B2B8281A448DF80020F5D3D0B209490A
:1035D000C043401C8DF80000BA2248F2470000F0BA
:1035E0000BF80222694648F2FF0000F005F80020BF
:1035F00008BD0000CCFE00082DE9F041002516466C
:103600000F460446FFF7B8F82820FFF779F8FFF7D0
:1036100005F9200AFFF774F8FFF700F9E0B2FFF7A9
:103620006FF8FFF7FBF8002408E0385DFFF768F853
:10363000FFF7F4F8050003D1641CE4B2B442F4D3FC
:10364000FFF7C6F82846BDE8F081000038B5FEF760
:1036500015FAFEF709FAFEF7FDF90D488178009199
:103660000CA143780278803806F048FC0E4C0FA17C
:10367000A078009006486378E278583806F03EFC5F
:10368000227810A10248BDE83840303806F036BC38
:10369000940D002454696D653A253032643A253022
:1036A00032643A2530326400AD020024446174650E
:1036B0003A3230253032642D253032642D253032B7
:1036C000640000005765656B3A256400F8B51F4A31
:1036D000111D081D16680D6804681DA1244806F018
:1036E0000DFC234823A12830074606F007FC20489C
:1036F00029A12B46224650300096064606F0FEFBD6
:103700001B484FF080722AA17830054606F0F6FB80
:103710002C482DA182881648A030044606F0EEFB06
:1037200013492CA006F0DAFB2AA0394606F0D6FB96
:1037300028A0314606F0D2FB26A0294606F0CEFB93
:103740002146BDE8F84023A006F0C8BB00E8F11F01
:10375000424F415244204E414D45203A2053544D52
:103760003332483720434F5245424F4152440000C4
:10377000D0070024435055204E414D45203A205358
:10378000544D33324837343349493136204C514651
:103790005031373600000000435055204944203A4C
:1037A000202530385820253038582025303858000A
:1037B0004253502056455253494F4E203A2025300F
:1037C00038580000040D00244C4344204944203A5A
:1037D000202558002573200D0A000000704770470F
:1037E00070B50446006804250168890411D5416B51
:1037F00089040ED525712269E90242F00102226195
:1038000041632068016821F4805101602046FFF780
:10381000E6FF20680168890014D5416B890011D545
:10382000257122694FF0005142F00202226141638A
:103830002068016821F0805101602046BDE8704099
:10384000FFF7CCBF70BD000010B528B190F835105F
:10385000022903D080214165012010BD1D4A4FF48B
:10386000956301688C189C4207D8042280F83520A3
:10387000086820F00100086029E00C6824F00E04BC
:103880000C6001680A440A6822F001020A60016EB5
:103890000122114B0C6824F480740C6090F85C10C9
:1038A00002FA01F11960D0E919134B60C16E31B110
:1038B0000B6823F480730B60D0E91C134B6000236A
:1038C000016D80F8343080F8352001B18847002040
:1038D00010BD0000F0FFFDBF045402582DE9F84F61
:1038E000AB4A00274FF41653044600974FF49569EE
:1038F000DFF8988216680822A56DB6FBF3FB006816
:103900002E6800EB080CCC454FF0010A78D894F8EB
:103910005C3002FA03F131420FD0016811F0040F5C
:103920000BD0016821F00401016094F85C00824032
:10393000AA60606D40F00100606594F85C109548E5
:10394000884030420DD0216801EB08024A452CD84E
:10395000496911F0800F04D0A860606D40F002004A
:1039600060658C4894F85C10C01C884030420DD0D3
:10397000216801EB08024A4519D8096811F0020FC5
:1039800004D0A860606D40F00400606594F85C109D
:1039900010208840304224D0216801EB08024A45BB
:1039A000096806D801F0080105E00868D9E7086849
:1039B000ECE701F00401A1B1A860206801684903A7
:1039C00004D50068000308D5A16C07E00168C905AB
:1039D00003D4016821F008010160216C09B120467F
:1039E000884794F85C102020884030423AD0216803
:1039F00001EB08024A45096803D801F0100102E012
:103A000065E001F0020169B3A86094F8350004286C
:103A10002068016806D0490342D5006800031DD420
:103A2000616C1CE021F0160101602068416921F001
:103A300080014161206C08B9A06C20B12068016848
:103A400021F00801016094F85C203F219140A960B9
:103A500084F8347084F835A0216D31E0E16B09B150
:103A600020468847606D002874D0606DC00726D05E
:103A70002068042184F83510016821F001010160FB
:103A800020680099491C0091594502D80168C9076E
:103A9000F7D184F834700068C0070DD003200CE023
:103AA0000168C905DAD4026822F01002026084F8C5
:103AB000347084F835A0D1E7504684F83500E16CC5
:103AC000002960D001B02046BDE8F04F08473249D8
:103AD00001448C2957D8314D0423E66D291DD5F8B2
:103AE00000C003FA06F81CEA080F13D0D0F800C093
:103AF0005FEA4C7C0ED50268920603D4026822F07D
:103B00000402026094F85C2008689340184308603F
:103B1000216CD5E7D5F800C0022303FA06F81CEAA9
:103B2000080F18D0D0F800C05FEA8C7C13D502686B
:103B3000920607D4056825F00A05056084F83470FC
:103B400084F835A094F85C20086893401843086016
:103B5000E16BB5E717E02B68B240134213D002685F
:103B6000120710D5026822F00E02026094F85C3051
:103B700050460A680AFA03F31A430A60C4F854A0CC
:103B800084F8347099E7BDE8F88F0000F0FFFDBFBE
:103B9000B407002401008000F8ABFDA700540258D0
:103BA00070B5044600F01EF90546601C02D00448BA
:103BB0000078044400F016F9401BA042FAD370BD0F
:103BC000BC0700240248016841F001010160704710
:103BD000200400582DE9F84F6F4D00224FF00109E5
:103BE0004FF0030E4FF00F0B0B6809FA02F803EACF
:103BF0000803434574D14C68022C01D0122C0FD11C
:103C0000D4080E69570700EB8404A246246AFF0E0D
:103C10000BFA07FCBE4024EA0C042643CAF82060D5
:103C20000F79540006680EFA04FC07F0030726EA31
:103C30000C06A740374307604E68012E05D0022EC0
:103C400003D0112E01D0122E0FD18668CF6826EA3C
:103C50000C06A7403743876046680F7926EA0806B6
:103C6000C7F30017974037434760C7688E6827EA55
:103C70000C07A6403E43C6604C68E40030D5474C74
:103C8000266846F002062660246822F0030606F144
:103C9000B04604F0020400949407270FD6F80844B5
:103CA000DFF8FC800BFA07FC404524EA0C0402D143
:103CB0004FF0000C41E0DFF8ECC0604502D14FF05E
:103CC000010C3AE0DFF8E0C0604502D14FF0020C91
:103CD00033E0DFF8D8C0604503D14FF0030C2CE08F
:103CE00053E0DFF8CCC0604502D14FF0040C24E073
:103CF000DFF8C0C0604502D14FF0050C1DE0DFF8D1
:103D0000B8C0604502D14FF0060C16E0DFF8ACC039
:103D1000604502D14FF0070C0FE0DFF8A4C060450A
:103D200002D14FF0080C08E0DFF898C0604502D1DE
:103D30004FF0090C01E04FF00A0C0CFA07FC4CEABA
:103D4000040CC6F808C42C684E6824EA0304F60381
:103D500000D51C432C606C684E6824EA0304B6034B
:103D600000D51C436C604FF0B0444F682668FF02DA
:103D700026EA030600D51E4326604F686668BF0228
:103D800026EA030600D51E436660521C102AFFF483
:103D90002BAFBDE8F88F000080000058F4440258B3
:103DA000000002580004025800080258000C025893
:103DB000001002580014025800180258001C025843
:103DC00000200258002402580069084000D0012059
:103DD000704742694A40426170470AB101837047A7
:103DE000418370470148806870470000BC07002489
:103DF000024881680278114481607047BC07002442
:103E0000032010B500F0CCF90F2000F007F808B13E
:103E1000012010BD00F096F9002010BD70B50D4DC9
:103E200004464FF47A700C4A29781268B0FBF1F01E
:103E3000B2FBF0F002F0D4FD48B9102C07D20022FA
:103E40002146501E00F08CF900206C6070BD0120EE
:103E500070BD0000BC070024B40700242DE9F04128
:103E6000044690F8A00016460F4601281DD00125F3
:103E700084F8A050022084F8A10006EB860000EB35
:103E8000C600342204EB80003830FCF752FA324688
:103E90003946204603F0D0FA216800204D6284F8AC
:103EA000A15084F8A000BDE8F0810220FBE70000EB
:103EB0002DE9F041040004D094F8A100002518B1C8
:103EC00007E00120BDE8F081204684F8A05000F012
:103ED0006BF83448022184F8A110012202CC8B69CE
:103EE00023F070438B6194E84A001943E3681E4352
:103EF00054F8043D31439E693143996121688B68D0
:103F000003408B602168A68AA7698B683B4343EA1C
:103F100006438B602168CB680340CB602168A38B8C
:103F2000276ACE683E4346EA0346CE6021680B69A5
:103F300003400B612368A68CA76A1969394341EADB
:103F40000641196121684B6903404B612068A38DCC
:103F5000266B4169314341EA03414161236894F88A
:103F6000351094F83600DE6A000406F07F46DE6203
:103F7000236840EA012094F83460D96A3143014350
:103F8000D9622068416B41F0060141632068816974
:103F900041F001018161C4F8A45084F8A1200020FF
:103FA00090E7000000F800F0364810B586B00168D0
:103FB00041F008010160006800F0080005903148F8
:103FC0001038016841F010010160006800F0100035
:103FD00005902C48001F016841F002010160016852
:103FE00001F002010591016841F0200101600168C2
:103FF00001F020010591016841F040010160016874
:1040000001F040010591016841F080010160016803
:1040100001F080010591016841F480710160006840
:104020000324202100F4807005900120CDE90204D2
:10403000CDE9001014486946FFF7CCFD02210022AB
:104040000E2304934FF480608DE817000F486946F3
:10405000FFF7C0FD4FF40C6000900D486946FFF774
:10406000B9FD4FF47E4000900A486946FFF7B2FD63
:1040700040F2F760009008486946FFF7ABFD06B0D4
:1040800010BD0000E4440258000402580014025815
:1040900000180258001C02580020025870B504464F
:1040A00090F8A0000E46012820D003EB830000EB1F
:1040B000C301012584F8A050022084F8A10004EB7C
:1040C00081018E63086E3044C1E90F02486E1044CE
:1040D000486438311A46204603F0AEF921680020C2
:1040E0004D6284F8A15084F8A00070BD022070BD1C
:1040F00070B5044690F8A0000E46012820D003EBCE
:10410000830000EBC301012584F8A050022084F84D
:10411000A10004EB8101886B3044C863086C104433
:104120004864C1E9186238311A46204603F084F920
:10413000216800204D6284F8A15084F8A00070BD71
:10414000022070BD7047002809DB410900F01F0202
:104150008900012001F1E0219040C1F80001704781
:104160000E4BF0B41B680D46C3F30223C3F10706E0
:10417000042E00D90426191D072901D2002300E0CE
:10418000DB1E012404FA06F19C40491E2940641EEE
:10419000994014402143F0BC05F0C4BE0CED00E092
:1041A000064900F0070210B54FF6FF040868044BFB
:1041B000204040EA02201843086010BD0CED00E0EA
:1041C0000000FA052DE9F84F17468B460446FFF725
:1041D00009FE824694F8400001280ED001264FF0D7
:1041E000000884F8406094F84100012807D00225B7
:1041F00084F840802846BDE8F88F0220FBE74FF0A6
:104200000209C4F8448084F84190002220215346DA
:104210002046009703F0D9FC0500E9D10022594659
:10422000204603F0B8FBDBF8240058B901225346BE
:1042300002212046009703F0C8FC0500D8D1216870
:10424000C1F80C9084F84160D2E700002DE9F84FE6
:104250000446FFF7C7FD064664B194F84000012804
:104260000BD000254FF0010A84F840A094F84100DB
:1042700028B10CE00120BDE8F88F0220FBE784F8AC
:104280004050204600F05AF841F28830A06421687E
:104290004FF47062A06892FAA2F30A68401EB3FA63
:1042A00083F322F47062984002430A60A06C0022FB
:1042B000202133460090204603F087FCB0BB2368E2
:1042C0004FF07F42666892FAA2F7E168D4E907C22C
:1042D00099461B68B7FA87F8164F41EA0C0106FAAF
:1042E00008F6324311434FF4F8123B4092FAA2F21F
:1042F0001943C9F80010B2FA82FC2268D4E90431EB
:104300000D4FA669D2F8048003FA0CF308EA0708F7
:10431000314348EA030841EA0801516021680A680C
:1043200042F001030B60656484F841A084F84050BA
:10433000A1E700002FFFFF00FEF8E0FF214830B5A5
:1043400087B0016841F480410160006800F480405A
:1043500005901C480C30016841F0020101600168C1
:1043600001F002010591016841F02001016000683F
:1043700003240221144D00F020000590402001226A
:104380000A2304938DE8170069462846FFF722FCAC
:104390000021CDE9021420020C4C69460090204611
:1043A000FFF718FC04200090092128460491694673
:1043B000FFF710FCC020694600902046FFF70AFC7A
:1043C00007B030BDD444025800040258001402580B
:1043D0002DE9F84F15460E460446FFF703FD8246C9
:1043E0002068816994F8403000F12009012B0DD03C
:1043F00001274FF0000884F8407094F84120012A0A
:1044000006D0022084F84080BDE8F88F0220FBE748
:10441000C4F844809EB3222284F841200269521CD1
:10442000A2630269521C62632663426922F0406201
:1044300042F080624261206881610DE006212046E1
:1044400003F0C3FBC0B999F80020206B411C216325
:104450000270A06B401EA063A06B53464FF0010298
:1044600000950028EAD14FF00201204603F0ADFB91
:1044700010B922680221D16084F84170C2E7FFE7D9
:10448000616C012041F008016164BBE72DE9F84F40
:1044900015460E460446FFF7A5FC94F840108246E8
:1044A0002068012900F120090ED001274FF00008F3
:1044B00084F8407094F84110012907D05FF00200A1
:1044C00084F84080BDE8F88F0220FBE7C4F8448000
:1044D0007EB3122184F841100169491CE16201692F
:1044E000491CA1626662416921F0406141610DE0B1
:1044F0000421204603F069FBC0B9606A411C616277
:10450000017889F80010E06A401EE062E06A5346D4
:104510004FF0010200950028EAD14FF00201204639
:1045200003F053FB10B922680221D16084F8417076
:10453000C6E7FFE7616C012041F008016164BFE755
:1045400010B500F04BFF08494FF480730A6893FAE6
:10455000A3F3064902F47062B3FA83F3DA40044B22
:104560009A5CD040086010BD18440258B40700247B
:104570007000010810B500F0EBFE07491022096831
:1045800092FAA2F201F07001B2FA82F2D140034A2B
:10459000515CC84010BD0000204402587000010862
:1045A000424A30B5414D141D13681435DFED400A01
:1045B0001268291FB7EE001A24682D6813F0030350
:1045C00004F01004C2F30532C5F3CC0515FB04F466
:1045D00000EE104AB8EE400A05D0364C012B5DD0F3
:1045E000022B5BD159E0314C334B283C2568AD069A
:1045F00015D525680C68C5F3C105C4F30804EB4064
:1046000001EE904AB3FBF2F2F8EE611A40EE201A86
:1046100000EE102A71EE810AB8EE400A10E00C6834
:10462000B3FBF2F2C4F3080401EE904AB8EE612A3B
:1046300001EE902A00EE202AB8EE610A72EE010A1D
:104640000A6820EE200AC2F34622521C00EE902A8D
:10465000F8EE600A80EE201AFCEEC10AC0ED000AF6
:104660000A68C2F30642521C00EE902AF8EE600A75
:1046700080EE201AFCEEC10AC0ED010A0968C1F300
:104680000661491C00EE901AF8EE600A80EE201ACE
:10469000BCEEC10A80ED020A30BD084C0B68B4FBC9
:1046A000F2F2C3F3080301EE903ABFE72844025840
:1046B0000000003900093D000090D00340787D01E2
:1046C000424A30B5414D141D13681C35DFED400AD8
:1046D0001268291FB7EE001A24682D6813F003032F
:1046E00004F48074C2F30552C5F3CC0515FB04F441
:1046F00000EE104AB8EE400A05D0364C012B5DD0D2
:10470000022B5BD159E0314C334B283C2568AD0678
:1047100015D525680C68C5F3C105C4F30804EB4042
:1047200001EE904AB3FBF2F2F8EE611A40EE201A65
:1047300000EE102A71EE810AB8EE400A10E00C6813
:10474000B3FBF2F2C4F3080401EE904AB8EE612A1A
:1047500001EE902A00EE202AB8EE610A72EE010AFC
:104760000A6820EE200AC2F34622521C00EE902A6C
:10477000F8EE600A80EE201AFCEEC10AC0ED000AD5
:104780000A68C2F30642521C00EE902AF8EE600A54
:1047900080EE201AFCEEC10AC0ED010A0968C1F3DF
:1047A0000661491C00EE901AF8EE600A80EE201AAD
:1047B000BCEEC10A80ED020A30BD084C0B68B4FBA8
:1047C000F2F2C3F3080301EE903ABFE7284402581F
:1047D0000000003900093D000090D00340787D01C1
:1047E0002DE9FC5F0446FE4D50F8241B0026DFF83F
:1047F000F49337460090080123D5606E50B1B0F5B0
:10480000801F0CD0B0F5001F11D0B0F5401F23D091
:10481000012615E0286840F4003028601CE0286874
:1048200040F400102860201D03F0F4F906E0286829
:1048300040F080702860009803F056FA06000BD014
:1048400037462088C00529D5606D052824D2DFE8C9
:1048500000F00C1119212100626ED9F8001021F42A
:1048600040111143C9F80010EBE7286840F400300C
:1048700028600FE0286840F400202860201D03F025
:10488000C9F906E0286840F480002860009803F029
:104890002BFA06466EB100E00126374320888005DA
:1048A0002ED5A06D802821D00CDC90B140280ED1EF
:1048B00014E0626DD9F8001021F007011143C9F826
:1048C0000010EBE7C02819D0B0F5807F16D0012684
:1048D00015E0286840F4003028600FE0286840F4B4
:1048E00000202860201D03F095F906E0286840F4B8
:1048F00080002860009803F0F7F9064696B1374328
:104900002088DFF8E082400508F1080832D5D4F8A5
:10491000A400B0F5800F23D00DDCA0B1B0F5001FCE
:104920000FD115E0A26DD9F8001021F4E071114308
:10493000C9F80010E4E7B0F5C00F19D0B0F5000FCA
:1049400016D0012615E0286840F4003028600FE0FA
:10495000286840F400202860201D03F05BF906E081
:10496000286840F480002860009803F0BDF90646EE
:1049700076B137432088000533D5D4F8A800B0F1CC
:10498000007F24D00EDCA8B1B0F1807F10D116E0FA
:10499000D4F8A420D8F8001021F460011143C8F81D
:1049A0000010E7E7B0F1407F19D0B0F1806F16D06A
:1049B000012615E0286840F4003028600FE02868E0
:1049C00040F400202860201D03F024F906E0286848
:1049D00040F480002860009803F086F906466EB126
:1049E00037432068800122D5A06CF0B110280FD089
:1049F000202812D0302818D0012617E0D4F8A8209B
:104A0000D8F8001021F0E0611143C8F80010E8E781
:104A1000286840F40030286007E0286840F400105F
:104A20002860201D03F0F6F806466EB13743208853
:104A3000C00431D5E06DB0F5005F23D00DDCA0B12E
:104A4000B0F5805F0FD115E06648A26C001F0168C9
:104A500021F0300111430160E9E7B0F5405F19D062
:104A6000B0F5804F16D0012615E0286840F40030DC
:104A700028600FE0286840F400202860201D03F023
:104A8000C9F806E0286840F480002860009803F028
:104A90002BF9064686B13743208880042FD5206E37
:104AA000B0F5403F29D010DC38B3B0F5803F14D0CA
:104AB000B0F5003F0FD118E0E26DD9F8001021F4F5
:104AC000E0411143C9F80010E6E7B0F5802F14D09B
:104AD000B0F5A02F11D0012610E0286840F4801016
:104AE0002860201D03F096F806E0286840F40000D6
:104AF0002860009803F0F8F806468EB13743208806
:104B0000400430D5D4F8AC00B0F1405F29D010DCBF
:104B100038B3B0F1805F14D0B0F1005F0FD118E06E
:104B2000226ED9F8001021F4E0211143C9F80010D9
:104B3000E5E7B0F1804F14D0B0F1A04F11D00126BD
:104B400010E0286840F480102860201D03F062F80F
:104B500006E0286840F400002860009803F0C4F8DC
:104B600006466EB137432088000422D5E06EF0B1CE
:104B7000B0F1805F0ED0B0F1005F10D0012617E0D9
:104B8000D4F8AC20D8F8001021F0E0411143C8F867
:104B90000010E8E7286840F40030286007E0286843
:104BA00040F480102860201D03F034F806466EB1F2
:104BB00037432068C00126D5606C10B3012813D09C
:104BC000022816D003281CD001261BE0E26ED9F87B
:104BD000001021F040511143C9F80010E9E700002E
:104BE0002C44025850440258286840F40030286091
:104BF00007E0286840F400102860201D03F00AF840
:104C0000064676B137432068DFF8F4B340021FD57B
:104C1000FC48016841F480710160FFF7E3F88246C7
:104C200010E0F748626C3C30016821F00301114349
:104C30000160E8E7FFF7D6F8A0EB0A00642801D985
:104C4000032604E0EF480068C005F3D58EB1374372
:104C50002078DFF8ACA3C0070AF1440A78D0A06F2F
:104C6000182873D05CDCC8B308285FD010285BD14B
:104C700064E0DFF88CA3B4F8B0100AF1600ADAF847
:104C8000000001F4407100F44070884211D0DAF85D
:104C90000010DAF8002021F4407142F48032CAF8A2
:104CA0000020DAF8002022F48032CAF80020CAF886
:104CB0000010D4F8B000B0F5807F14D1FFF792F85F
:104CC00001900CE0FFF78EF80199411A41F288300B
:104CD000814204D9032647F00307B9E736E0DAF842
:104CE00000008007EED5D4F8B010C1F301200328EE
:104CF00058460DD0016821F47C510160B4F8B02011
:104D0000DAF80010C2F30B021143CAF800109FE753
:104D1000BD4A036802EA111223F47C511143ECE707
:104D2000202813D0282811D0012610E0286840F44C
:104D300080102860201D02F06DFF06E0286840F416
:104D400000002860009802F0CFFF06465EB13743AE
:104D50002078800724D5606F06281FD2DFE800F096
:104D60001C0C141C1C1CA26FDAF8001021F0380176
:104D70001143CAF80010EBE7286840F4801028605F
:104D8000201D02F047FF06E0286840F4000028607C
:104D9000009802F0A9FF064676B100E001263743ED
:104DA0002078400725D5D4F8900006281FD2DFE8E8
:104DB00000F01C0C141C1C1C626FDAF8001021F0AF
:104DC00007011143CAF80010EAE7286840F4801090
:104DD0002860201D02F01EFF06E0286840F4000055
:104DE0002860009802F080FF06469EB100E0012690
:104DF00037432078800631D5D4F88C00B0F1405F7D
:104E00002AD011DC40B3B0F1805F15D0B0F1005F63
:104E100010D119E0D4F89020D8F8001021F0070143
:104E20001143C8F80010E4E7B0F1804F14D0B0F19E
:104E3000A04F11D0012610E0286840F4002028601F
:104E4000201D02F0E7FE06E0286840F08070286030
:104E5000009802F049FF06468EB13743207840069D
:104E600031D5D4F89800B0F5406F2AD011DC40B3AA
:104E7000B0F5806F15D0B0F5006F10D119E0D4F8FF
:104E80008C20DAF8001021F0E0411143CAF800103C
:104E9000E4E7B0F5805F14D0B0F5A05F11D0012633
:104EA00010E0286840F400202860201D02F0B2FEC7
:104EB00006E0286840F080702860009802F014FF37
:104EC00006468EB137432078000631D5D4F89C00D1
:104ED000B0F5C04F2AD011DC40B3B0F5005F15D05B
:104EE000B0F5804F10D119E0D4F89820D8F8001010
:104EF00021F4E0511143C8F80010E4E7B0F5004F89
:104F000014D0B0F5204F11D0012610E0286840F4ED
:104F100000202860201D02F07DFE06E0286840F099
:104F200080702860009802F0DFFE064666B33743C3
:104F3000207800070BD5D4F88010B1F5805F2DD014
:104F4000DAF8002022F440520A43CAF80020207800
:104F5000C0060BD5D4F89410B1F5807F26D0D8F8D0
:104F6000002022F440720A43C8F8002020680003A1
:104F700036D5D4F8A00008B3B0F5803F26D0B0F500
:104F8000003F2BD001262AE0D4F89C20D8F800104E
:104F900021F460411143C8F80010C9E7009802F0FD
:104FA000A3FE286840F080702860D0E7009802F0E7
:104FB0009BFE286840F080702860D7E7286840F49E
:104FC00000202860201D02F025FE06E0286840F041
:104FD00080702860009802F087FE0646B6B137431D
:104FE000206840032BD5D4F88400B0F5801F17D07B
:104FF000B0F5001F19D0B0F5401F1ED001261DE0EE
:105000001044025800480258CFFFFF00D4F8A020F7
:10501000D8F8001021F440311143C8F80010DFE740
:10502000286840F40030286007E0286840F4000059
:105030002860009802F058FE064656B137432068B3
:10504000C0031FD5E06C70B1B0F5803F10D00126D1
:1050500017E0D4F88420DAF8001021F4401111434D
:10506000CAF80010EBE7286840F40030286007E039
:10507000286840F400102860201D02F0CBFD064691
:10508000DEB137432068800007D5286840F0807083
:105090002860009802F028FE0743206880031AD594
:1050A000E06FB0B1B0F5807F0FD0B0F5007F10D0C9
:1050B000B0F5407F0DD001260CE02D48E26C016870
:1050C00021F4803111430160DCE7286840F40030AE
:1050D0002860EEB337432068C00207D5226FD9F8A5
:1050E000001021F000411143C9F800102068C000F1
:1050F00008D5D4F8B420DBF8001021F48041114326
:10510000CBF800102068800207D5A26ED9F80010F5
:1051100021F080711143C9F80010206840000CD5BF
:10512000DBF8001021F40041CBF80010DBF8001090
:10513000D4F8B8201143CBF800102068002806DA14
:105140000B48226D016821F040511143016000E0DD
:1051500003E05FB10120BDE8FC9FE26FDAF80010C8
:1051600021F440711143CAF80010B4E70020F2E7BF
:105170004C4402582DE9F047DFF8C49104460E462E
:10518000D9F8000000F00700B0420CD2D9F80010A6
:1051900021F007013143C9F80010D9F8000000F0F0
:1051A0000700B04272D12078DFF89881800707D5D8
:1051B000E268D8F8001021F00F011143C8F8001080
:1051C0002078C00767D05F49A368D8F80020183955
:1051D00022F470621A43C8F80020606802281CD0CC
:1051E00003281DD0096801281DD04907002963DA6A
:1051F000544D083D296821F0070101432960FEF75D
:10520000F1FD6168074641F28830022914D0032974
:1052100020D0012982462AD039E009688903E5E7D0
:1052200009688901E2E7C905E0E700BFFEF7DAFD9A
:10523000C11B514501D926E082462868C0F3C2004F
:105240000228F3D127E000BFFEF7CCFDC11B51457A
:1052500001D918E082462868C0F3C2000328F3D1C0
:1052600019E000BFFEF7BEFDC11B51450BD82868F1
:10527000C0F3C2000128F5D10DE000BFFEF7B2FD7A
:10528000C11B514503D90320BDE8F08714E028680D
:1052900010F0380FF2D1D9F80010484601F007019C
:1052A000B1420BD9016821F0070131430160006868
:1052B00000F00700B04201D00120E5E72078400768
:1052C00007D52269D8F8001021F070011143C8F801
:1052D000001021781B48001D090705D56269016887
:1052E00021F07001114301602178C90605D5A2693A
:1052F000016821F4E061114301602078800607D540
:105300001048E2690830016821F070011143016022
:1053100000F064F8D8F800104FF4807292FAA2F20C
:1053200001F47061B2FA82F2D140074A515CC84080
:10533000064908600F20FEF771FD0020A4E7000079
:10534000002000521844025870000108B4070024DD
:1053500010B5FFF7F5F8084901230A6893FAA3F39B
:10536000064902F00F02B3FA83F3DA40044B9A5C69
:10537000D040086010BD000018440258B80700244F
:105380007000010810B5FFF7E3FF07491022096814
:1053900092FAA2F201F07001B2FA82F2D140034A0D
:1053A000515CC84010BD00001C4402587000010848
:1053B00010B5FFF7CDFF07494FF48072096892FAE4
:1053C000A2F201F4E061B2FA82F2D140024A515CE9
:1053D000C84010BD1C440258700001084749F0B590
:1053E00047480968454B103B11F0380409D00111BA
:1053F000082C04D0434A102C0BD0182C0BD0084694
:10540000F0BD19688906FBD51968C1F3C101C84010
:10541000F0BD1046F0BD394CDFF8E0C01834261D51
:105420000CF1240C2768351D2468DFED370AB7EE30
:10543000001A3668DCF800C017F0030706F0010612
:10544000C4F30514CCF3CC0C1CFB06F600EE106A7A
:10545000B8EE400A09D0012F01D0022F3BD02868B6
:10546000B1FBF4F1C0F308003AE01968890615D5DC
:105470001A682968C2F3C102C1F30801D04001EEE5
:10548000901AB0FBF4F0F8EE611A40EE201A00EE2C
:10549000100A71EE810AB8EE400A0BE02968B0FBF1
:1054A000F4F0C1F3080101EE901AB8EE612A01EEA2
:1054B000900A1BE020EE200A2868C0F34620401C1A
:1054C00000EE900AF8EE600A80EE201ABCEEC10AE7
:1054D00010EE100AF0BD2868B2FBF4F1C0F308002A
:1054E00001EE900AB8EE612A01EE901A00EE202A31
:1054F000B8EE610A72EE010ADCE7000010440258BF
:105500000090D00340787D01000000392DE9F05F64
:10551000FD4C0546007841F28838DFF8EC93103CEA
:10552000F94FC00709F118094CD03868C0F3C20020
:1055300002281AD03868C0F3C200032805D1D9F870
:10554000000000F0030002280FD06868B0F5803F2B
:1055500012D010B1B0F5A02F18D0206820F4803000
:105560002060206820F4802009E02068800329D58D
:10557000686800286CD025E0206840F48030206006
:10558000686890B1FEF72EFC06460AE0206840F4F9
:1055900080202060F0E700BFFEF724FC811B41451E
:1055A00075D820688003F7D50CE0FEF71BFC064693
:1055B00005E000BFFEF716FC811B4145F0D82068CE
:1055C0008003F7D42878D04E0C3E800769D5386820
:1055D0004FF47C3B10F0380F13D03868C0F3C20092
:1055E000032803D1D9F8000080070AD0E86870B317
:1055F000216821F0190101432160FEF7F3FB824687
:105600002EE02068400702D5E8680028B2D0E9689B
:10561000206820F0190008432060FEF7E3FB824673
:1056200006E000BFFEF7DEFBA0EB0A000228B7D8B9
:1056300020684007F6D5296932689BFAABF0B0FACA
:1056400080F0814022F47C300843306029E016E08D
:10565000BEE000BFFEF7C6FBA0EB0A0002289FD801
:1056600020684007F6D5286932689BFAABF1B1FA99
:1056700081F1884022F47C310143316011E02068DF
:1056800020F001002060FEF7ADFB824606E0EFE06F
:10569000FEF7A8FBA0EB0A0002288FD8206840077D
:1056A000F6D42878C00647D538684FF0F84BC0F3D9
:1056B000C200012815D03868C0F3C200032805D104
:1056C000D9F8000000F0030001280AD0E86900289A
:1056D000206822D040F080002060FEF783FB8246E5
:1056E0000CE02068C0050CD5E869802870D108E07E
:1056F000FEF778FBA0EB0A00022898D82068C005C6
:10570000F6D5286A32689BFAABF1B1FA81F188408C
:1057100022F0F841014331600EE020F0800020606B
:10572000FEF760FB064604E0FEF75CFB801B0228E8
:1057300095D82068C005F7D42878000729D5724885
:105740006969643000298246016811D041F0010185
:105750000160FEF747FB064605E000BFFEF742FB8F
:10576000801B022899D8DAF800008007F6D510E0EF
:1057700021F001010160FEF735FB064605E000BFA0
:10578000FEF730FB801B022872D8DAF80000800791
:10579000F6D42878800625D5A8690028206810D07E
:1057A00040F480502060FEF71DFB064605E000BF78
:1057B000FEF718FB801B02285AD820688004F7D512
:1057C00010E020F480502060FEF70CFB064606E057
:1057D000D4E000BFFEF706FB801B022848D82068F3
:1057E0008004F7D4287840074DD5DFF820A1DAF8F7
:1057F000001041F48071CAF80010FEF7F3FA064673
:1058000005E000BFFEF7EEFA801B642830D8DAF816
:105810000000C005F6D53C4EA868603601280AD0C5
:1058200008B1052811D0306820F0010030603068E0
:1058300020F0040002E0306840F001003060A86809
:1058400090B1FEF7CFFA82460AE0306840F00400DB
:105850003060F0E7FEF7C6FAA0EB0A01414507D831
:1058600030688007F6D50EE0FEF7BCFA824607E006
:1058700083E000BFFEF7B6FAA0EB0A0141457CD8F1
:1058800030688007F6D4686AE8B33968C1F3C201AA
:10589000032973D00228206820F08070206003D094
:1058A000FEF7A0FA054683E0FEF79CFA064604E000
:1058B000FEF798FA801B022877D820688001F7D479
:1058C000EB6A40F2F332D9F800104FF4FE0755F8B6
:1058D000286F914341EA03113143C9F80010287B36
:1058E0004FF0FE4C084EB5F8088040022B8A203657
:1058F0002A7DA8F10108311DA0F5007080B25B1E61
:10590000C8F3080804E056E0104402580048025862
:10591000521E07EA034340EA08000CEA02674FF60A
:10592000F8721843384330600B6892FAA2F72E6A77
:10593000B7FA87F722489343BE4033430B600168B0
:10594000AA6921F00C01114301600168EA6921F0A4
:10595000020111430160016841F480310160016876
:1059600041F400310160016841F480210160016867
:1059700041F001010160206801E016E01DE040F007
:1059800080702060FEF72EFA054604E0FEF72AFA42
:10599000401B022809D820688001F7D50BE000BF22
:1059A000FEF720FA401B022802D90320BDE8F09F31
:1059B00020688001F4D40020F8E70120F6E7000019
:1059C0002C440258704700002DE9F041064600685B
:1059D000DFF8A4E0002715460C4640224FF63F7C36
:1059E000016B002B406B01EA0E0100EA0C00C1F3D1
:1059F0000543237002EA1142C1F3062C84F801C06A
:105A000001F07F01A170E27000F03F023368C0F343
:105A10000421C0F342309B6B6360EF706970AA7021
:105A2000287017D1207802F0CFF92070607802F04A
:105A3000CBF96070A07802F0C7F9A070687802F026
:105A4000C3F96870A87802F0BFF9A870287802F04E
:105A5000BBF928703068C16801F08001A1F5003100
:105A60008139C1603068C16801F0800161F408616A
:105A7000C1600020BDE8F0817F7F7F000848016899
:105A8000CA6802F0800262F40252CA600068016CC7
:105A900021F001010164016C21F0010101647047F2
:105AA000700D0024704770474FF0B04110B50446A8
:105AB0004FF48020C1F888002068816809040CD563
:105AC000C068000509D5204600F048F82068C16884
:105AD00001F0800161F40861C16020681C4A016C1A
