:020000040800F2
:1000000058A9002499030008E9600008455E00082B
:1000100071600008E5230008497100080000000035
:10002000000000000000000000000000AB0300081A
:100030009926000800000000EB600008116300082A
:100040004D710008B3030008C1640008056300088F
:10005000B3030008B3030008B3030008B3030008A8
:10006000B3030008B3030008B3030008B303000898
:10007000B3030008B3030008B3030008B303000888
:10008000B3030008B3030008B3030008B303000878
:10009000B3030008B3030008B3030008B303000868
:1000A000B3030008B3030008B3030008D9640008D1
:1000B000B3030008B3030008E5640008B3030008B5
:1000C000B3030008B3030008B3030008B303000838
:1000D000B303000805710008B3030008B303000868
:1000E000B30300089562000800000000B303000895
:1000F000B3030008B3030008B3030008B303000808
:10010000B3030008B303000819650008B30300082F
:10011000B3030008B3030008B3030008B3030008E7
:10012000B3030008B3030008B3030008B3030008D7
:10013000B3030008B3030008B3030008B3030008C7
:1001400000000000000000000000000000000000AF
:10015000B3030008B3030008B3030008B3030008A7
:10016000B3030008B3030008B3030008B303000897
:10017000B3030008B3030008B30300080000000045
:10018000B3030008B3030008B3030008B303000877
:10019000B3030008B3030008B3030008B303000867
:1001A000B3030008B3030008B3030008B303000857
:1001B000B3030008B3030008B3030008B303000847
:1001C000B3030008B3030008B3030008B303000837
:1001D000B3030008B3030008B3030008B303000827
:1001E000B3030008B3030008B3030008B303000817
:1001F000B3030008B3030008B3030008B303000807
:10020000B3030008B3030008B3030008B3030008F6
:10021000B3030008B3030008B3030008B3030008E6
:10022000B3030008B3030008B30300080000000094
:10023000B3030008B303000800000000B303000884
:10024000B3030008B3030008B3030008B3030008B6
:10025000B3030008B3030008B3030008B3030008A6
:10026000B3030008B3030008B3030008B303000896
:10027000B3030008B3030008B30300080000000044
:10028000B303000800000000B303000800000000F2
:1002900000000000B303000800F002F800F06DF861
:1002A0000AA090E8000C82448344AAF10107DA45D1
:1002B00001D100F062F8AFF2090EBAE80F0013F0B6
:1002C000010F18BFFB1A43F0010318476CCF000061
:1002D0008CCF00000A444FF0000C10F8013B13F0E3
:1002E000070408BF10F8014B1D1108BF10F8015B8F
:1002F000641E05D010F8016B641E01F8016BF9D182
:1003000013F0080F1EBF10F8014BAD1C0C1B09D1D8
:100310006D1E58BF01F801CBFAD505E014F8016B4A
:1003200001F8016B6D1EF9D59142D6D370470000DC
:100330000023002400250026103A28BF78C1FBD8EE
:10034000520728BF30C148BF0B607047642900F0D6
:100350002B81752900F02881782900F061816329BB
:1003600000F00383732900F00883002070471FB555
:1003700007F03AFD1FBD10B510BD00F019FB114686
:10038000FFF7F5FF06F00CFF00F037FB03B4FFF7B3
:10039000F2FF03BC06F0F8FE094880470948004711
:1003A000FEE7FEE7FEE7FEE7FEE7FEE7FEE7FEE725
:1003B000FEE7FEE704480549054A064B7047000082
:1003C00039640008990200085809002458A900243B
:1003D000587900245879002453EA020C00F069800F
:1003E0002DE9F04B4FF00006002B1FBFB3FA83F549
:1003F00003FA05F424FA05F65E4012BF1643B2FA7A
:1004000082F502FA05F4C5F120051EBF22FA05FCAB
:1004100044EA0C04203556EA044C4FEA144418BF51
:10042000641C4FF000084FF00009904271EB030C80
:1004300039D3002919BFB1FA81F701FA07F6B0FAEA
:1004400080F700FA07F6C7F120071EBF20FA07FC65
:1004500046EA0C062037B6FBF4FCA7EB0507103F75
:1004600007F01F0BCBF120060CFA0BFB2CFA06F65B
:1004700044BFB3460026202FA4BF5E464FF0000BBA
:100480005BEA060C08BF4FF0010B19EB0B09ABFB45
:10049000027C48EB0608C01B06FB02CC0BFB03CC1E
:1004A00071EB0C01C1E70B46024641464846BDE8E8
:1004B000F08B13B54FF000004FF00001AFF3008058
:1004C000BDE81C40704700000FB4044910B503AAF2
:1004D000029800F057FA10BC5DF814FB0C020024DF
:1004E0000FB41CB5074B06AA7B44694600900598DB
:1004F00000F019FA0020694600F028FA1CBC5DF8EB
:1005000014FB00006104000070B5044685690068B2
:10051000C10601D5302600E02026C00707D070BDF7
:10052000D4E9012130469047206A401C20626D1EAC
:10053000F6D570BD70B5044685690078C00707D14F
:1005400070BDD4E9012120209047206A401C206220
:100550006D1EF6D570BD70B50C460546012A05D056
:100560002878800600D5EA69002302E0012305E02F
:100570005B1C934202D2E05C0028F9D1A869E6181E
:10058000C01AA861286A184428622846FFF7BCFFF1
:1005900004E0D5E9012114F8010B9047B442F8D3E7
:1005A0002846FFF7C7FF70BD2DE9F041064600243D
:1005B00010687529314616A510D0AFF300800028C9
:1005C00002DA404213A507E031688A0701D512A577
:1005D00002E0490704D511A5012401E0AFF3008032
:1005E00000210A2206F1240709E0B0FBF2FCB0FB6F
:1005F000F2F302FB1C00303078541846491C0028E6
:10060000F3D123462A463046BDE8F04100F02DB92B
:10061000000000002D0000002B0000002000000062
:1006200070B504460D4621461068AFF3008021885E
:10063000090502D50F4A7A4402E00E4A7A440E3286
:10064000002104F1240305E000F00F060009965D87
:100650005E54491C0028F7D120780023000704D5F8
:10066000702D02D009B1022311322046BDE870403E
:1006700000F0FBB802C100002DE9F05F8946044696
:100680004FF0000ADFF874B1FB44C0F820A0204608
:10069000E1688847002874D0252806D0D4E90121D4
:1006A0009047206A401C2062F1E700265F46204602
:1006B000E16888472028054607DB312D05D27819E7
:1006C00010F8200C08B10643F1E7B00701D526F079
:1006D0000406C4F81CA00027C4F818A02A2D09D0CD
:1006E000284606F04AFD38B304EB8708303DC8F8C9
:1006F000185019E059F8041B204604EB8702916159
:10070000E1688847012F054618D1E069002820DA02
:1007100026F020061DE0D8F8180000EB800005EB5D
:1007200040003038C8F818002046E1688847054680
:1007300006F023FD0028EED1012F0AD02E2D08D17E
:100740002046E16888477F1C0546022F46F02006B8
:10075000C4DBA069002803DA404246F00106A0612C
:10076000F00701D026F010066C2D0BD0682D09D0B3
:100770004C2D39D06A2D35D0742D35D07A2D33D00B
:1007800016E038E0E1682F4620468847B842054623
:1007900009D16C2F26D04FF48060E16806432046D3
:1007A0008847054604E06C2F1AD04FF4807006434A
:1007B0000DB3A5F14100192802D8203546F4006692
:1007C0004A462946204626604E46FFF7BFFD80B1C7
:1007D00001280BD0F61D26F0070000F1080956E7A6
:1007E0004020E4E78020D8E70020D6E706F104099E
:1007F0004DE7284652E7206ABDE8F09FD8C00000C8
:1008000010B5203AC0F00B80B1E81850203AA0E8AB
:100810001850B1E81850A0E81850BFF4F5AF5FEADF
:10082000027C24BFB1E81850A0E8185044BF18C992
:1008300018C0BDE810405FEA827C24BF51F8043B39
:1008400040F8043B08BF7047D20728BF31F8023B8D
:1008500048BF11F8012B28BF20F8023B48BF00F821
:10086000012B70477047704770472DE9F0470D46E0
:1008700099469246044600F124080168880604D58A
:10088000E06921F01001216000E00120A84201DDB3
:10089000471B00E00027A1697A1902EB0900081A3A
:1008A000A0612078C00602D42046FFF72DFE002666
:1008B00008E0D4E901211AF806009047206A401C9C
:1008C000761C20624E45F4DB2078C0060AD520460F
:1008D000FFF71AFE06E0D4E9012130209047206A94
:1008E000401C2062381EA7F10107F4DC07E0D4E9C0
:1008F000012118F805009047206A401C2062281E3C
:10090000A5F10105F3DC2046FFF714FE2078000670
:1009100002D50220BDE8F0870120FBE701694A1CEF
:1009200002610878704700B58FB0CDE90131002130
:10093000059105497944CDE9031011466846FFF752
:100940009BFE0FB000BD0000E5FFFFFF0A6802F844
:10095000010B0A60704710B5436913B1AFF3008013
:1009600001E0FFF7F8FD012010BD127800F124012D
:100970000A7000224A700122EDE711684FF0FF3241
:10098000E9E70000074B70B50D467B44FFF7CBFF4E
:100990000446284600F008F810B14FF0FF3070BD53
:1009A000204670BDFF670000007B00F080007047AC
:1009B000754600F02BF8AE4605006946534620F018
:1009C0000700854618B020B5FFF7F4FCBDE82040CD
:1009D0004FF000064FF000074FF000084FF0000BFB
:1009E00021F00701AC46ACE8C009ACE8C009ACE8AE
:1009F000C009ACE8C0098D46704710B50446AFF396
:100A000000802046BDE81040FFF7C0BC004870479A
:100A1000F808002400F068B8084810B50178491CAF
:100A2000017001783C2908D10021017000F05CF8C8
:100A3000BDE81040012000F015BF10BDC402002425
:100A40007047000004497222044810B501F0A8FF65
:100A50000349486010BD00004CC50008C8070024C9
:100A6000BC02002404497222044810B501F0C7FFFB
:100A70000349086010BD00004CC50008C8070024E9
:100A8000BC020024002810B511D0012800D102209A
:100A9000012181F31088064C0021A060217081F3B0
:100AA000108800BFFFF7B6FF20780128FAD110BDEB
:100AB000F80100240B49002270B54FF0E02449688A
:100AC00065694843A369A1699942FCD002D2A3EBAE
:100AD000010302E0A5EB010633441A440B468242AF
:100AE000F1D370BDF8010024014802F094B9000070
:100AF0006406002470B5134C06460D46206840017C
:100B00000DD5012000F082FE4FF47A60FFF7BAFFA6
:100B1000206840F480302060012000F04BFE0B4A3A
:100B200040F6FF700849C2E90250C2E900161046BB
:100B300002F042F9002803D0BDE8704001F0ADBDDD
:100B400070BD0000D04402580048005864060024DC
:100B50000A480021084B032210B50360017141715E
:100B600041610262816101F07DFF002803D0BDE890
:100B7000104001F092BD10BD004C0258C80700247F
:100B8000114A38B505460C46106840F00400106064
:100B900010680322114600F0040000901E2002F0AD
:100BA000F1FA1E2002F0E1FA094A0020074911601B
:100BB000C2E90140C2E90350104604F09AFCBDE8C6
:100BC0003840034804F0E4BCE84402580008004000
:100BD000B80500240948C723094A002110B5064C6E
:100BE000C0E902120161C0E9004304F082FCBDE8E3
:100BF0001040024804F0CCBC000C0040F805002472
:100C00003F420F0070B51E4905461E4A062D1E487C
:100C100086B00DD2DFE805F00322222B2B2B1B4CD4
:100C2000086840F004000860086800F004000590BF
:100C3000174E0120032156F82520CDE90020CDE9EB
:100C400002016946204601F0A9FF36F8250001227D
:100C500081B2204602F0A5F806B070BD08681446BF
:100C600040F080000860086800F08000DFE704467C
:100C7000086840F008000860086800F00800D6E73F
:100C8000E0440258001C0258000C025800080258A8
:100C9000F47D000870B5144E12483060304603F001
:100CA0000FFD08B101F0F9FC0F4803F01FFD08B17A
:100CB00001F0F3FC002442F2107504E0641CA4B2BD
:100CC0000A20FFF7F7FE30684068C043C00701D034
:100CD000AC42F3D3AC4203D3BDE8704001F0DDBCBD
:100CE00070BD000000180248EC07002470B50B4BE3
:100CF000002204461146481C01EB4105C1B203EB3A
:100D0000850042608260427003F825200429F2D3F6
:100D1000042004F0CDFB0248446070BD00040024B0
:100D2000F80100240D4900220B4B10B50C240B6078
:100D3000C1E90102CA6008460A61C1E90542CA6107
:100D400004F034FF08B101F0A8FCBDE810400449EC
:100D50000122024804F0AEBF00100140300400241C
:100D6000080200240D48012370B50B4A10250260CB
:100D70009B2403710021C0E90245417103264161B2
:100D80000662816101F06EFE002803D0BDE870406C
:100D900001F083BC70BD0000004C0258C80700245D
:100DA00070B5084D5FF00004074855F8241003F0B3
:100DB000E2FC08B1601C70BD641C202CF4D3002040
:100DC00070BD00003C020024E40600240E4970B50A
:100DD0000646A1F16C0000240268088822B1304662
:100DE000BDE8704000F068BD4D88002145430846CD
:100DF00000F030FB00F0CCFCB0B2044901E0088008
:100E0000641CAC42FBD370BDF003002400000860FA
:100E10002DE9F04F394CA4F16C05A071296839B166
:100E200000F06EFDE88A2080288B6080BDE8F08F9E
:100E3000002832484FF4305E4FF0F00C4FF4487603
:100E400049F241384FF4A0774FF02C0280884FF4DC
:100E5000F0714FF02A034FF02B0545F2105B45F27D
:100E600010390BD027804045BA46A4F802C001D003
:100E7000484527D122816381A58135E0A4F800C0CF
:100E80004045678001D0484507D1228148456381AC
:100E9000A5812ED1278061802BE0584508D1A4F888
:100EA00008E04FF4285363814FF42C50A08106E0F2
:100EB000A0F5C857633F1CD122816581A3812180A1
:100EC000668016E0584506D14FF42853A4F808E090
:100ED0004FF42C5504E0A0F5C857633F04D122819C
:100EE0006381A58126806180484502D12180A4F8D4
:100EF00002A00020BDE8F04F00F0D0B9F0030024BC
:100F00002DE9FE4F161A4FF000085D1A4FF0FF341E
:100F1000002E4746CDE9001002DD4FF0010002E04F
:100F200003D14FF00000834602E0C6F10006A3465D
:100F3000002D02DD4FF0010002E003D14FF0000070
:100F4000824602E0C5F10005A246AE4201DD34460C
:100F500000E02C46601C0290002017E0009881B24F
:100F6000019880B200F018F8B044A0452F4404DD89
:100F70000198A8EB040858440190A74203DD0098AB
:100F80003F1B5044009009F1010080B20299814654
:100F90008842E3DDBDE8FE8F084A10B5084C1268B0
:100FA00022B12268BDE8104000F0BCBC00F052FA4B
:100FB00000F0EEFB03492088088010BD8403002464
:100FC000E801002400000860F0B51C4615460E46F6
:100FD00007460B46FFF794FF3A4623463146104634
:100FE000FFF78EFF23462A4619463846FFF788FF4B
:100FF0002A46234631461046BDE8F040FFF780BF41
:101000002DE9FC4F8046144603200F460025A0EB37
:10101000440649E0391B019108EB050A89B21FFA21
:101020008AF0FFF7B9FF791B009108EB04091FFA5A
:1010300089F089B2FFF7B0FF07EB050B1FFA8BF1C0
:101040001FFA89F0FFF7A8FF07EB04091FFA89F1DF
:101050001FFA8AF0FFF7A0FFA8EB050A1FFA8AF033
:101060001FFA89F1FFF798FFA8EB04091FFA8BF12B
:101070001FFA89F0FFF790FF01991FFA8AF089B2F1
:10108000FFF78AFF00991FFA89F089B2FFF784FF02
:101090006D1C002E03DA06EB8506B61D04E0281B46
:1010A000641E06EB80060A36A542B3DDBDE8FC8F60
:1010B0002DE9F041044639480E46006820B120462B
:1010C000BDE8F04100F02EBC344D270A4FEA162847
:1010D0006C352846A9884089A1F51343413B0CD0C3
:1010E000A1F5A643103B08D0A1F5AA43103B10D0B0
:1010F000A1F5C853633B25D048E000F08FFD38468A
:1011000000F080FDE0B200F07DFDA88900F086FDD2
:1011100036E000F083FD384600F074FD6889401C1D
:1011200080B200F07BFDE0B200F06CFDA88900F019
:1011300075FD404600F066FDA889401C80B200F0B5
:101140006DFD20E0A97919B92988091B491E8CB2C7
:1011500000F064FD270A384600F054FDE0B200F0CC
:1011600051FD384600F04EFDE0B200F04BFDA8897D
:1011700000F054FD404600F045FDF0B200F042FDA5
:10118000404600F03FFDF0B200F03CFD04492889E4
:101190008B1C08801A80BDE8F081000084030024C5
:1011A000FEFF07602DE9F8431E46144B8046089861
:1011B0001B6833B133460090404600F0D1FBBDE8D8
:1011C000F883A2EB0802DFF83890521C0C4687B275
:1011D00095B20FE02146404600F03CF900F0D8FA05
:1011E0000020494602E0401C0F8080B2A842FAD39A
:1011F000641CA4B2B442EDD9E1E7000084030024EA
:101200000000086010B5244C2288824202D962880E
:101210008A4201D8002010BD1F4A6C3A12681AB1E8
:10122000BDE8104000F0AEBC00F014F9A08841F613
:101230006312A0F51341413905D0A0F5A64110393C
:1012400001D0904201D12E2005E0A0F5AA4110392D
:1012500003D14FF4385000F0E1FC00F0C9FCA18844
:101260009142D8D00120411EC8B2FCD200F0C0FC8F
:1012700001460120421ED0B2FCD200F0B9FCCAB235
:101280004FF6FF736FF30A0103EA0222920A41EA62
:10129000421141EAD02010BDF0030024F0B56C4C9F
:1012A000002541F663172146A2798988012A01D0D9
:1012B0001AB11BE0B94202D118E0B94216D1082890
:1012C00014D2DFE800F00406080A0C0E1012062003
:1012D0000CE007200AE0042008E0052006E00120D9
:1012E00004E0002002E0032000E0022045F210327A
:1012F000A1F5134345F21056413B05D0914203D06E
:10130000B14201D0B94277D1082812D2DFE800F00B
:10131000110406080A0C0E1080250AE0402508E09A
:10132000C02506E0202504E0602502E0A02500E0BD
:10133000E025B14202D14FF4585000E036209142EE
:1013400005D0B14203D0B94201D045F00805294685
:1013500000F028FAA188B9420AD06288A80620883D
:1013600002D5904202D303E0904201D922806080EE
:10137000B142608941D100F051FC002000F042FCF4
:101380006089401C80B200F049FC002000F03AFC6B
:101390006089801C80B200F041FC2088401EC0F3B0
:1013A0000F2000F02FFC6089C01C80B200F036FCDA
:1013B0002078401EC0B200F025FCA08900F02EFC71
:1013C000002000F01FFCA089401C80B200F026FC29
:1013D000002000F017FCA089801C80B200F01EFCE9
:1013E0006088401EC0F30F2000F00CFCA089C01CD8
:1013F00080B200F013FC22E028E000F00FFC002097
:1014000000F000FC002000F0FDFB2088401EC0F32F
:101410000F2000F0F7FB2078401EC0B200F0F2FB76
:10142000A08900F0FBFB002000F0ECFB002000F0A6
:10143000E9FB6088401EC0F30F2000F0E3FBA078BA
:10144000BDE8F040401EC0B200F0DCBBF0BD0000C3
:10145000F0030024F0B53F4A060A04460D46104644
:101460000F0A91884089A1F51343413B28D0A1F58B
:10147000A643103B24D0A1F5C853633B2FD0A1F560
:10148000AA43103B64D100F0C9FB304600F0BAFB20
:101490005089401C80B200F0C1FBE0B200F0B2FB0A
:1014A000908900F0BBFB384600F0ACFB9089401CF3
:1014B00080B200F0B3FBE8B2BDE8F04000F0A2BBA0
:1014C00000F0ACFB304600F09DFBE0B200F09AFB70
:1014D000908900F0A3FB384600F094FBEBE791798C
:1014E00029B300F09BFB304600F08CFBE0B200F02B
:1014F00089FB1088401EC0F30F2000F083FB10789A
:10150000401EC0B200F07EFB908900F087FB384699
:1015100000F078FBE8B200F075FB5088401EC0F385
:101520000F2000F06FFB9078401EC0B2C4E7118816
:10153000091B491E8CB200F071FB002000F062FB19
:10154000002000F05FFB200A00F05CFBE0B2D9E76E
:10155000F0BD0000F00300242DE9FF4F58071D46A1
:101560000C468A4600D00120DFF8B8B0690800EBCD
:10157000D500002610FB01F1203A01F0FF09D0B29E
:1015800002904BE00C2D11D0102D14D0182D17D037
:10159000202D45D10298244901EBC0104FF00008DE
:1015A000875D380613D52148026814E00298204967
:1015B00000EB400008E002981E4901EB0010EDE747
:1015C00002981D4900EBC00001EB8000E6E70D9892
:1015D00028B91648426821460098FFF769FD790648
:1015E000BBF80200641CA4B20F0EA04218D9A4EBF1
:1015F0000A00A84209D100985446BBF80010401CCC
:1016000080B2009081420BD906E008F1010000F0A1
:10161000FF08B8F1080FC4D3761CF6B24E45B1D31B
:10162000BDE8FF8FF0030024CC950008E8010024FA
:101630000C7E000880820008708800082DE9FF4FAA
:1016400081B04FF000081D46934681464646DDF8BE
:1016500038A044464FEA5A0727E0281B401EC1B273
:101660000A2004F015FCBBFBF0F00A21B0FBF1F2FC
:1016700001FB120026B9691E8C4201DA48B101262D
:10168000534607FB04913030CDF80080C2B288B2D7
:1016900006E007FB04902022534680B2CDF800807C
:1016A0000299FFF759FF641CE4B2AC42D5D305B0F0
:1016B000BDE8F08F2DE9F84F0D46044658194FF05C
:1016C000000A111987B21FFA81F8DDE90AB604F0A1
:1016D000FF0912E0444503D305EB0B004C4685B2ED
:1016E000BD420FD25B4629462046CDF800A0FFF749
:1016F00033FF04EB5B0084B2761C3278A2F1200049
:101700005E28E7D9BDE8F88F2DE9FF4F81B04FF093
:1017100000081E4681464446DDE90EBA0AF001057E
:101720004FEA5B072CE0301B401EC1B20A2004F0D8
:10173000AFFB03990A22B8F1000FB1FBF0F1B1FB46
:10174000F2F302FB131005D1711E8C4202DA48B18C
:101750004FF001085B4607FB049130300095C2B2A0
:1017600088B208E05FEA0A605B4607FB04900095D8
:1017700080B20AD530220299FFF7EEFE641CE4B273
:10178000B442D0D305B0BDE8F08F2022F3E70000CB
:10179000024803490089088070470000F0030024D4
:1017A000FEFF0760024B9A1C1880118070470000F2
:1017B000FEFF076011490246114B062A114830B45A
:1017C0001AD2DFE802F003080A0F11130888012279
:1017D00081B20D480DE0888800E00889012281B2BD
:1017E000184606E0898902E0098A00E0898A012218
:1017F00089B230BC01F0D5BA30BC7047F47D000826
:10180000001C0258000C02580008025811490246F8
:10181000114B062A114830B41AD2DFE802F003084F
:101820000A0F11130888002281B20D480DE0888844
:1018300000E00889002281B2184606E0898902E0AA
:10184000098A00E0898A002289B230BC01F0A9BA75
:1018500030BC7047F47D0008001C0258000C025890
:101860000008025810490246104B062A104830B4AE
:1018700017D2DFE802F00307090D0F11088881B2C3
:101880000C480BE0888800E0088981B2184605E022
:10189000898902E0098A00E0898A89B230BC01F0B6
:1018A0007CBA30BC70470000F47D0008001C025870
:1018B000000C02580008025808B500900548018B3A
:1018C000C08A491E8BB2401E82B20021084600F039
:1018D00047F808BD8403002410B5B0B002230DF111
:1018E000240C1C0700948CE80B00CDE90C326846F0
:1018F00001F0ECFD002800D0012030B010BD000048
:1019000007490A464875938812889BB292B220B163
:10191000012801D1CA820B837047CB820A837047AA
:1019200084030024F0B50C4C95B2DFF830C0234698
:10193000677D1E7DDA691B685CF8266027B103FBB2
:1019400001004243B552F0BD6468201A401E03FBFB
:10195000001050433552F0BD84030024F0010024F0
:101960002DE9F047274D0027DDF820A06C7D14B14C
:101970000446164606E01E466B680C46991A1B1A6A
:10198000491E5B1E2868DFF88090321B861A95F886
:1019900014C000FB0144591AD9F80030DFF87080F8
:1019A000761EED69194858F82C8043F4000C05FBAD
:1019B0000484B3B2C9F800C04FF440360660022573
:1019C00045630364ED030368491C05EB02421143C0
:1019D00023F001020260C4634164C0F838A00268C9
:1019E000410242F00102026002E07F1C8F4202D2FB
:1019F00042689207F9D5816841F002018160BDE833
:101A0000F087000084030024D844025800100052DC
:101A1000F00100242DE9F0438DB0144D144600224E
:101A2000DDE916C7DDE91498009202924FEA0C2C0A
:101A30002E6801964FEA08286D68CDE904430395A6
:101A40004B460B95CDE9091606AE694686E80811A6
:101A50008DF832208DF83120024604488DF8307020
:101A6000A83801F00DFA0DB0BDE8F083840300241E
:101A70000B4B10B5842401291A6804EBC01001D067
:101A800021B107E0115841F0010102E0115821F0A5
:101A9000010111501868416A41F00101416210BD15
:101AA000DC02002470B51E46044603460548049D2A
:101AB00001F006FB23462A4631460248BDE8704045
:101AC00001F028BBDC0200242B4830B587B0016848
:101AD00041F040010160016801F040010591016899
:101AE00041F480710160006800210122234C00F460
:101AF00080700590402003238DE80F006946204642
:101B000001F04CF81E4D842069460090284601F0F3
:101B100045F84021204601F03BF9042104462846BF
:101B200001F036F944EA40042846802101F030F9FA
:101B300044EA800010F0FF000CD001280DD00228EC
:101B40000ED003280FD0042810D0052811D0002073
:101B500007B030BD44F24230FAE747F28400F7E7BD
:101B600047F21600F4E747F21800F1E748F21600D2
:101B7000EEE741F21800EBE7E04402580018025883
:101B800000200258F0B50C4BDFF830C01C465F7DDA
:101B9000267D2568E2695CF8264027B105FB010037
:101BA0004243A05AF0BD5B68181A401E05FB0010A6
:101BB0005043205AF0BD000084030024F0010024AB
:101BC0000149087570470000840300240749012873
:101BD000096806D0002803D1886920F001008861D7
:101BE0007047886940F00100F9E70000DC0200243A
:101BF000034808B50088ADF80000BDF8000008BD36
:101C00000000086001B5BDF800100348ADF80010F1
:101C1000BDF80010018008BD0000086001B5BDF8E6
:101C200000100348ADF80010BDF80010018008BD99
:101C3000FEFF07602DE9FF5FFFF746FFBF4C05463B
:101C4000A0F586404FF0010A42384FF0080B4FF4E0
:101C5000F07C4FF0060937D0A5F5E04084384FF40A
:101C6000487143D0A5F5E0404FF08C0816384FF08E
:101C700003004FF480664FF4167747D0A5F5E04394
:101C8000183B4FF4A06250D0A5F50043163B4FD04F
:101C9000A5F58053183B4ED04AF201039D424FF404
:101CA000407E54D140F256524FF0180CC4E9002E39
:101CB0008F23238146262682D527A78160811C2277
:101CC000A4F80EC06082C8E04FF48873282205266D
:101CD000C4E900C3A4F808A0A4F80AA0A28158226D
:101CE000A4F80EB02682A4F812B0B6E0C4E9001C35
:101CF000A4F808A02E23A4F80AA01722A381D226B4
:101D0000E2811627268218226782A6E0C4E90067CE
:101D1000142121816081A023A4F80C804FF00C0CC9
:101D2000E1812382A4F812C060E0C4E9002198E0B8
:101D3000C4E9006795E0C4E90021A4F80C800A23F7
:101D4000238210222381E3816382608185E0A5F5EF
:101D50002043023B4FF0500315D0A5F52048B8F1C1
:101D6000030820D0A5F52042043A2ED0A5F5204046
:101D700005383DD0A5F5204006384AD0A5F52040CD
:101D800007385AD06DE0C4E900212026268130278B
:101D90002782A3814FF00E08A4F80A901622A4F817
:101DA0000E80608259E0C4E9002E20262681A3819E
:101DB000302727824FF0070CA4F80AC04FF00C0818
:101DC000A4F80E801722608247E0C4E9006E4FF04D
:101DD000880CA4F808C018222282A023A381A4F8AA
:101DE0000A904FF01D08A4F80E806082122234E0A1
:101DF0004FF45476C4E9006C70202081A081102734
:101E000027821722A4F80AB0E2812F22A4F81290A8
:101E100023E0C4E90017802626814FF0580CA4F86F
:101E20000CC0282020824FF00408A4F80A80172252
:101E3000E2810246A4F812A00FE04FF42073C4E937
:101E4000003C60272781A4F810B03826A681022024
:101E500060812922E2813E226082A0210520FFF7D5
:101E60003BFD364F00262168A5F580526C37DFF820
:101E7000D080183A4FF00203A7F58A70314D3980AF
:101E800062687A80304FE361C8F80070C0E900569C
:101E90008660C660066101D1DB06036123895D1E91
:101EA000456165896F1E40F8187FA7893B445F1E16
:101EB0004760E7893D44A5F1010CC0F808C0A2F1D4
:101EC000010CAC444F1E1F44C0E9037C278A3944EF
:101ED0001944491E4161618A11442944491E8161A6
:101EE0008677467706771548A83800F0F3FF072075
:101EF000CDE90069CDE90206D8F80010FF230222DF
:101F00000020FFF787FDA0880022114680B20090D4
:101F1000208883B21046FFF7C5FD0120FFF7F0FCD3
:101F20000A4801222021267500F03BFF04B04FF043
:101F3000FF30BDE8F05FFFF7BFBC00008403002462
:101F4000F001002400100050000000C000040258FE
:101F5000034900234FF48072A1F1380002F0E6BE7D
:101F60001C07002402490022024802F01FBF0000A3
:101F700035020024E406002402490022A1F12400D5
:101F800002F038BF0807002438B517480024154967
:101F90007F22FF23E0E8021480E81C000461446112
:101FA000114802F055FF08B100F077FB0E48002100
:101FB00002F0E1FB45F25005A84211D00023009445
:101FC00032211A460A2000F099F823231D22082105
:101FD000122000F055F8044800212A4602F0D0FBF8
:101FE000002038BD00400058E4060024F0B58BB056
:101FF0000DF1140C00248DF800104FF070658DF871
:1020000001204FF080468DF802300194B7158DF80D
:1020100003408CE870008DF820000D480997006897
:10202000C16801F0800161F42071C160084800229C
:10203000694602F08DFF08B100F02FFB0322042156
:10204000292001F09FF8292001F08FF80BB0F0BD96
:10205000E4060024084808B5016841F08051016099
:10206000006800F08050009001F0BEF8034801685D
:10207000C943C903FBD408BDE044025808480258CC
:1020800008B58DF803008DF8011069468DF802201F
:10209000002203488DF8003003F03CF808BD000032
:1020A000E40600241448012310B500210222036035
:1020B0004161D3038161C16101624162C0E90221D2
:1020C0004360016160380068C16801F0800161F41B
:1020D0000251C1600849A1F1600002F0B1FB08B1F2
:1020E00000F0DBFA00220421022001F04BF8BDE8E9
:1020F0001040022001F039B84407002410B586B022
:102100008DF800000020089C8DF8011069468DF8BC
:102110000220024603900490034801938DF8034087
:1021200003F066F806B010BDE40600240D4810B5B3
:102130000068C16801F0800161F40861C16000229B
:102140000848114602F0F8FB08B100F0A6FA002298
:102150000421022001F016F8BDE81040022001F031
:1021600004B80000E40600240C4A10B51268D368D5
:1021700003F0800363F49063D3600246074802F0E3
:1021800015FC08B100F089FA04220320114600F082
:10219000F9FFBDE81040032000F0E7BFE40600248B
:1021A000F0B5144800220823114F87B04FF0400CBF
:1021B00002210126C0E90072C0E902638E021025E7
:1021C0000561CF01CD02C0E90726C0E90952062406
:1021D000C0E905C78DE81A00CDE9034105910691D4
:1021E000694603F09FF8034800F006F807B0F0BD19
:1021F00040410052FC0700240023012218461146EA
:1022000010B500F021F84FF4FA70FEF753FC0023EC
:1022100001221846022100F017F800230822184670
:10222000032100F011F80122042100204FF408736B
:1022300000F00AF8BDE81040024840F2A52103F082
:102240000DB90000FC0700241FB54FF0000410B1C9
:10225000012802D002E0102400E008240748CDE95C
:1022600002234FF6FF72CDE90014694603F008F926
:10227000002800D0012004B010BD0000FC0700249D
:1022800030B44FF47A730E4AB3FBF0F40C4B9FED6D
:102290000D1B083314600D4AD268521E4A4300EEEB
:1022A000102AB8EE400B20EE010BBCEEC00B10EE76
:1022B000102A1A600A4630BC014605A0FEF704B990
:1022C0002C0400407B14AE47E17A843F6C07002465
:1022D0005468652050574D20696E20504234206963
:1022E000732067656E657261746564206173202573
:1022F00064204B687A2C2025642525200D0A0000D7
:1023000070B5164605464FF47A72194CB2FBF5F2D9
:102310000020164B491E2360C4E90110C4E90320C4
:10232000204603F0E3FA04F140016020B6EE001B02
:1023300008600222E068401E00EE100A2046B8EE57
:10234000400B20EE010BBCEEC00B81ED010A8A6050
:10235000002203F037FA0021204603F00FFB284645
:10236000F1B2BDE87040FFF78BBF000000040040F1
:102370006C0700242DE9F041174C074615460E4620
:102380002068C0000DD50020FFF740FA4FF47A60B6
:10239000FEF778FB206840F4803020600020FFF7D3
:1023A00009FA012001F05CFD0C4C4FF400700C495F
:1023B000C4E9037084E86200204603F012FD08B10E
:1023C00000F06BF9D4E90210401A401C04F0A0FAA6
:1023D000401CBDE8F0810000D0440258740600247F
:1023E00000300050FEE70000F0B5BFF34F8FBFF3A1
:1023F0006F8F1D4900200860BFF34F8FBFF36F8FB1
:102400001A4B196841F400311960BFF34F8FBFF3C5
:102410006F8F164970310860BFF34F8F081F43F666
:10242000FF740068104D1035C0F34E31C0F3C9027F
:1024300004EA4116104600BF46EA80772F60401E2E
:10244000FAD2491EF4D2BFF34F8F186840F480309F
:102450001860BFF34F8FBFF36F8F03484C30016894
:1024600041F004010160F0BD50EF00E014ED00E028
:1024700030B5002308E000BF01EB830504682D6838
:102480004FEA354525605B1CB3EB520FF4D3D207FE
:1024900003D0026831F8231011800068006830BD55
:1024A000F0B500230BE000BF01EB8304056826684C
:1024B000E77834BA24F0FF043C432C605B1CB3EB98
:1024C000920FF1D394071BD002F00304012C03D127
:1024D000056811F823602E70022C05D101EB8304EE
:1024E0000568248864BA2C80D243920708D101EB96
:1024F000830103680A8852BA1A80026889781170C9
:1025000000680068F0BD00001CB5FFF76DFF00F02B
:1025100088FC03F039FF0020FEF774FB0120FEF772
:1025200071FB0220FEF76EFB0320FEF76BFB04201D
:10253000FEF768FB0520FEF765FB4FF4E130FEF780
:10254000F1FB4FF4C870FEF7D1FBFEF743FB04200C
:102550004FF4FA71FEF7CEFA5F217F204FF4C0529C
:10256000FFF708FFFFF710FD00210420FFF7FCFD37
:1025700000230B211A460320FFF738FDFFF7D6FD95
:10258000FFF790FDFFF766FD3222C8210220FFF71A
:10259000B7FEFEF7DDFAFEF765FAFEF7E3FBFEF79E
:1025A00051FA374840688047FFF7FAFDFFF742FBD2
:1025B00000F046F9FEF76EFB334C182531484FF416
:1025C000784B4FF4487A04F1280904F1500804F1DB
:1025D0007807C0F800B004F1A0061F20FEF7F6FB54
:1025E0002849C1F800B000F0EBF820205246CDE9B0
:1025F0000004282103460A20FFF75CF818235246FE
:1026000050210A20CDE90059FFF754F8182352460B
:1026100078210A20CDE90058FFF74CF818235246DC
:10262000A0210A20CDE90057FFF744F818235246AD
:10263000C8210A20CDE90056FFF73CF813481823BB
:10264000F0215246CDE900500A20FFF733F8104838
:1026500018234FF48C715246CDE900500A20FFF741
:1026600029F80C4818234FF4A0715246CDE90050C8
:102670000A20FFF71FF84FF47A70FEF703FAACE771
:10268000F4000024E8010024300800248806002417
:10269000B0060024D806002470470120FFF78AF80E
:1026A0000220FFF7B3F8F8E7F0B5D1E90125D1E949
:1026B0000343D1E905762A43D1F800C044EA030474
:1026C000D1E9073542EA0402496A42EA0702BCF14D
:1026D000010F42EA060208D004681A432A430A435B
:1026E000E30BDB031A4302600BE0066844682B43EC
:1026F00026F4F84529430B4303606FF30E0422438D
:1027000042600020F0BD426942EA4101416100207F
:10271000704738B591E81C00C9686FF01F051A436F
:1027200005EB441444EA41210A430092026100206F
:1027300038BD00002DE9F043914691E81C006FF090
:102740000F05521E2E0105EB03131A430B7E06EBF9
:1027500004268C8A2F034FEA054C0D8A32434FF032
:102760007F4808EB0366CB68B9F1010F07EB05451D
:102770000CEB04540CD081683F1107EB03331A4370
:102780002A432243324301F070410A43826011E040
:102790008168DFF828C0C7681B03A3F58053234373
:1027A0002A4301EA0C0132430B43836007F0704473
:1027B0002243C2600020BDE8F0830000FF0F0FFF3E
:1027C00038B5FFF7D9FBFFF7CDFBFFF7C1FB0D488D
:1027D000817800910CA1437802788038FDF780FE63
:1027E0000E4C0FA1A078009006486378E278583824
:1027F000FDF776FE227810A10248BDE83840303857
:10280000FDF76EBE0807002454696D653A25303225
:10281000643A253032643A253032640035020024AF
:10282000446174653A3230253032642D253032648B
:102830002D253032640000005765656B3A25640031
:10284000F8B51F4A111D081D16680D6804681DA102
:102850002448FDF745FE234823A128300746FDF70D
:102860003FFE204829A12B462246503000960646BE
:10287000FDF736FE1B484FF080722AA178300546DE
:10288000FDF72EFE2C482DA182881648A030044664
:10289000FDF726FE13492DA0FDF716FE2BA03946A5
:1028A000FDF712FE29A03146FDF70EFE27A02946AE
:1028B000FDF70AFE2146BDE8F84024A0FDF704BE5E
:1028C00000E8F11F424F415244204E414D45203A0D
:1028D0002053544D3332483720434F5245424F41E5
:1028E0005244000030080024435055204E414D45CD
:1028F000203A2053544D3332483734334949313626
:10290000204C5146503137360000000043505520CE
:102910004944203A20253038582025303858202581
:10292000303858004253502056455253494F4E209C
:102930003A20253038580000F00300244C4344204E
:102940004944203A20253034580000002573200DDA
:102950000A00000030B501255FF01F0305FA03F4FB
:102960000C4201D15B1EF9D27AB1082A09D0102A93
:1029700004D0182A07D1072B05D206E0082B02D273
:1029800003E0102B01D3012030BD036859610068BA
:10299000816821F0180111438160002030BD0000E2
:1029A0002DE9F041057F04460020012D03460BD0A0
:1029B000266A0125257702276777012E12D0022E7D
:1029C00014D0032E16D108E00220BDE8F08100BF2C
:1029D000236851F820601E60401C9042F8D32068A4
:1029E000036807E02046FFF75BFD02E02046FFF7A3
:1029F0003FFD03466577002020771846E5E72DE97F
:102A0000F041057F04460020012D034610D001252A
:102A10002577022666772668B76847F00107B76012
:102A2000266A012E11D0022E13D0032E15D107E0F5
:102A30000220BDE8F081236851F820601E60401C30
:102A40009042F8D32068036807E02046FFF728FD8E
:102A500002E02046FFF70CFD034665770020207753
:102A60001846E6E710B5040010D0607F20B90020BA
:102A70002077204600F032F821790220607739B1C2
:102A8000D4E902122046FFF765FF48B1012010BDCE
:102A90002168114848612068816821F0180181602F
:102AA0006079A0B12168206908610122206863690A
:102AB000816821F06001194381602068A369816801
:102AC00021F08001194381606277002010BD2168E8
:102AD0004FF0FF30E8E70000B71DC104054808B516
:102AE000016841F400210160006800F400200090BA
:102AF00008BD0000E044025810B528B190F8351028
:102B0000022903D080214165012010BD1D4A4FF4E8
:102B1000956301688C189C4207D8042280F8352000
:102B2000086820F00100086029E00C6824F00E0419
:102B30000C6001680A440A6822F001020A60016E12
:102B40000122114B0C6824F480740C6090F85C1026
:102B500002FA01F11960D0E919134B60C16E31B16D
:102B60000B6823F480730B60D0E91C134B600023C7
:102B7000016D80F8343080F8352001B1884700209D
:102B800010BD0000F0FFFDBF045402580248016868
:102B900041F0010101607047200400582DE9F84F11
:102BA0006F4D00224FF001094FF0030E4FF00F0B55
:102BB0000B6809FA02F803EA0803434574D14C682C
:102BC000022C01D0122C0FD1D4080E69570700EB4C
:102BD0008404A246246AFF0E0BFA07FCBE4024EAD6
:102BE0000C042643CAF820600F79540006680EFAD8
:102BF00004FC07F0030726EA0C06A74037430760EA
:102C00004E68012E05D0022E03D0112E01D0122EB7
:102C10000FD18668CF6826EA0C06A7403743876045
:102C200046680F7926EA0806C7F30017974037432E
:102C30004760C7688E6827EA0C07A6403E43C66017
:102C40004C68E40030D5474C266846F00206266002
:102C5000246822F0030606F1B04604F00204009452
:102C60009407270FD6F80844DFF8FC800BFA07FC1E
:102C7000404524EA0C0402D14FF0000C41E0DFF89B
:102C8000ECC0604502D14FF0010C3AE0DFF8E0C043
:102C9000604502D14FF0020C33E0DFF8D8C0604548
:102CA00003D14FF0030C2CE053E0DFF8CCC06045BB
:102CB00002D14FF0040C24E0DFF8C0C0604502D11F
:102CC0004FF0050C1DE0DFF8B8C0604502D14FF0B1
:102CD000060C16E0DFF8ACC0604502D14FF0070CDF
:102CE0000FE0DFF8A4C0604502D14FF0080C08E007
:102CF000DFF898C0604502D14FF0090C01E04FF0B9
:102D00000A0C0CFA07FC4CEA040CC6F808C42C6840
:102D10004E6824EA0304F60300D51C432C606C685B
:102D20004E6824EA0304B60300D51C436C604FF0E0
:102D3000B0444F682668FF0226EA030600D51E430A
:102D400026604F686668BF0226EA030600D51E4368
:102D50006660521C102AFFF42BAFBDE8F88F00000C
:102D600080000058F4440258000002580004025841
:102D700000080258000C02580010025800140258B3
:102D800000180258001C0258002002580024025863
:102D90000069084000D00120704742694A40426102
:102DA00070470AB1018370474183704701488068CA
:102DB00070470000D002002470B5040011D02268D2
:102DC0004CF6CC4145F25550116021680860D4E9B9
:102DD000000141602168A0688860FFF7E7FF0546B1
:102DE00009E0012070BD00BFFFF7E0FF401B302865
:102DF00001D9032070BD2068C0680028F4D1206884
:102E0000E16802698A4201D0016102E04AF6AA2122
:102E10000160002070BD01684AF6AA200860002009
:102E20007047032010B500F0CDF90F2000F008F82E
:102E300008B1012010BD00F097F9002010BD00007E
:102E400070B50D4D04464FF47A700C4A297812681B
:102E5000B0FBF1F0B2FBF0F002F036FB48B9102CF9
:102E600007D200222146501E00F08CF900206C6031
:102E700070BD012070BD0000D0020024C8020024F3
:102E80002DE9F041044690F8A00016460F460128AF
:102E90001DD0012584F8A050022084F8A10006EB83
:102EA000860000EBC600342204EB80003830FDF7CA
:102EB000A7FC32463946204602F0F2FF2168002086
:102EC0004D6284F8A15084F8A000BDE8F081022092
:102ED000FBE700002DE9F041040004D094F8A100C4
:102EE000002518B107E00120BDE8F081204684F8F4
:102EF000A05000F06BF83448022184F8A1100122A0
:102F000002CC8B6923F070438B6194E84A0019432B
:102F1000E3681E4354F8043D31439E69314399618F
:102F200021688B6803408B602168A68AA7698B683B
:102F30003B4343EA06438B602168CB680340CB6088
:102F40002168A38B276ACE683E4346EA0346CE60DB
:102F500021680B6903400B612368A68CA76A196975
:102F6000394341EA0641196121684B6903404B61CD
:102F70002068A38D266B4169314341EA03414161D9
:102F8000236894F8351094F83600DE6A000406F0E1
:102F90007F46DE62236840EA012094F83460D96AF3
:102FA00031430143D9622068416B41F0060141631E
:102FB0002068816941F001018161C4F8A45084F85E
:102FC000A120002090E7000000F800F0364810B57E
:102FD00086B0016841F008010160006800F0080057
:102FE000059031481038016841F010010160006817
:102FF00000F0100005902C48001F016841F002010C
:103000000160016801F002010591016841F02001B1
:103010000160016801F020010591016841F0400163
:103020000160016801F040010591016841F08001F3
:103030000160016801F080010591016841F480712F
:10304000016000680324202100F4807005900120B5
:10305000CDE90204CDE9001014486946FFF79EFD52
:10306000022100220E2304934FF480608DE81700A4
:103070000F486946FFF792FD4FF40C6000900D4831
:103080006946FFF78BFD4FF47E4000900A48694681
:10309000FFF784FD40F2F760009008486946FFF7AB
:1030A0007DFD06B010BD0000E44402580004025843
:1030B0000014025800180258001C02580020025840
:1030C00070B5044690F8A0000E46012820D003EB0E
:1030D000830000EBC301012584F8A050022084F88E
:1030E000A10004EB81018E63086E3044C1E90F0238
:1030F000486E1044486438311A46204602F0D0FE2B
:10310000216800204D6284F8A15084F8A00070BDB1
:10311000022070BD70B5044690F8A0000E4601284C
:1031200020D003EB830000EBC301012584F8A050FD
:10313000022084F8A10004EB8101886B3044C8634D
:10314000086C10444864C1E9186238311A462046B8
:1031500002F0A6FE216800204D6284F8A15084F898
:10316000A00070BD022070BD7047002809DB410936
:1031700000F01F028900012001F1E0219040C1F818
:10318000000170470E4BF0B41B680D46C3F30223D9
:10319000C3F10706042E00D90426191D072901D200
:1031A000002300E0DB1E012404FA06F19C40491EC6
:1031B0002940641E994014402143F0BC03F0CCBF69
:1031C0000CED00E0064900F0070210B54FF6FF04D1
:1031D0000868044B204040EA02201843086010BDF4
:1031E0000CED00E00000FA0570B50B4D286840F0CA
:1031F00001002860FFF7DAFD4FF47A76044606E016
:10320000FFF7D4FD001BB04201D9032070BD286830
:10321000C003F5D5002070BD084802580248016877
:1032200041F48071016070470048025810B500F009
:1032300053FF08494FF480730A6893FAA3F30649D1
:1032400002F47062B3FA83F3DA40044B9A5CD04024
:10325000086010BD18440258C802002414C70008B2
:1032600010B500F0F3FE07491022096892FAA2F2A5
:1032700001F07001B2FA82F2D140034A515CC840B9
:1032800010BD00002044025814C70008424A30B55F
:10329000414D141D13681435DFED400A1268291FD3
:1032A000B7EE001A24682D6813F0030304F010042D
:1032B000C2F30532C5F3CC0515FB04F400EE104A49
:1032C000B8EE400A05D0364C012B5DD0022B5BD105
:1032D00059E0314C334B283C2568AD0615D525689F
:1032E0000C68C5F3C105C4F30804EB4001EE904A35
:1032F000B3FBF2F2F8EE611A40EE201A00EE102A4B
:1033000071EE810AB8EE400A10E00C68B3FBF2F2ED
:10331000C4F3080401EE904AB8EE612A01EE902A47
:1033200000EE202AB8EE610A72EE010A0A6820EE69
:10333000200AC2F34622521C00EE902AF8EE600AE0
:1033400080EE201AFCEEC10AC0ED000A0A68C2F342
:103350000642521C00EE902AF8EE600A80EE201A17
:10336000FCEEC10AC0ED010A0968C1F30661491CFF
:1033700000EE901AF8EE600A80EE201ABCEEC10A48
:1033800080ED020A30BD084C0B68B4FBF2F2C3F3C7
:10339000080301EE903ABFE72844025800000039C4
:1033A00000093D000090D00340787D01424A30B5CD
:1033B000414D141D13681C35DFED400A1268291FAA
:1033C000B7EE001A24682D6813F0030304F4807428
:1033D000C2F30552C5F3CC0515FB04F400EE104A08
:1033E000B8EE400A05D0364C012B5DD0022B5BD1E4
:1033F00059E0314C334B283C2568AD0615D525687E
:103400000C68C5F3C105C4F30804EB4001EE904A13
:10341000B3FBF2F2F8EE611A40EE201A00EE102A29
:1034200071EE810AB8EE400A10E00C68B3FBF2F2CC
:10343000C4F3080401EE904AB8EE612A01EE902A26
:1034400000EE202AB8EE610A72EE010A0A6820EE48
:10345000200AC2F34622521C00EE902AF8EE600ABF
:1034600080EE201AFCEEC10AC0ED000A0A68C2F321
:103470000642521C00EE902AF8EE600A80EE201AF6
:10348000FCEEC10AC0ED010A0968C1F30661491CDE
:1034900000EE901AF8EE600A80EE201ABCEEC10A27
:1034A00080ED020A30BD084C0B68B4FBF2F2C3F3A6
:1034B000080301EE903ABFE72844025800000039A3
:1034C00000093D000090D00340787D012DE9FC5FAC
:1034D0000446FE4D50F8241B0026DFF8F4933746CF
:1034E0000090080123D5606E50B1B0F5801F0CD05C
:1034F000B0F5001F11D0B0F5401F23D0012615E014
:10350000286840F4003028601CE0286840F400106F
:103510002860201D02F0EAFD06E0286840F0807077
:103520002860009802F04CFE06000BD03746208839
:10353000C00529D5606D052824D2DFE800F00C1104
:1035400019212100626ED9F8001021F440111143B5
:10355000C9F80010EBE7286840F4003028600FE05D
:10356000286840F400202860201D02F0BFFD06E01E
:10357000286840F480002860009802F021FE06468A
:103580006EB100E001263743208880052ED5A06D5E
:10359000802821D00CDC90B140280ED114E0626D5F
:1035A000D9F8001021F007011143C9F80010EBE72A
:1035B000C02819D0B0F5807F16D0012615E0286804
:1035C00040F4003028600FE0286840F400202860B4
:1035D000201D02F08BFD06E0286840F48000286082
:1035E000009802F0EDFD064696B137432088DFF8DB
:1035F000E082400508F1080832D5D4F8A400B0F5FF
:10360000800F23D00DDCA0B1B0F5001F0FD115E065
:10361000A26DD9F8001021F4E0711143C9F800102F
:10362000E4E7B0F5C00F19D0B0F5000F16D00126B1
:1036300015E0286840F4003028600FE0286840F466
:1036400000202860201D02F051FD06E0286840F4AB
:1036500080002860009802F0B3FD064676B137433B
:103660002088000533D5D4F8A800B0F1007F24D01D
:103670000EDCA8B1B0F1807F10D116E0D4F8A42000
:10368000D8F8001021F460011143C8F80010E7E7F2
:10369000B0F1407F19D0B0F1806F16D0012615E04F
:1036A000286840F4003028600FE0286840F40020CB
:1036B0002860201D02F01AFD06E0286840F4800012
:1036C0002860009802F07CFD06466EB13743206802
:1036D000800122D5A06CF0B110280FD0202812D084
:1036E000302818D0012617E0D4F8A820D8F8001008
:1036F00021F0E0611143C8F80010E8E7286840F4C1
:103700000030286007E0286840F400102860201D81
:1037100002F0ECFC06466EB137432088C00431D578
:10372000E06DB0F5005F23D00DDCA0B1B0F5805F97
:103730000FD115E06648A26C001F016821F030012E
:1037400011430160E9E7B0F5405F19D0B0F5804F53
:1037500016D0012615E0286840F4003028600FE0FC
:10376000286840F400202860201D02F0BFFC06E01D
:10377000286840F480002860009802F021FD064689
:1037800086B13743208880042FD5206EB0F5403FA6
:1037900029D010DC38B3B0F5803F14D0B0F5003F2D
:1037A0000FD118E0E26DD9F8001021F4E041114387
:1037B000C9F80010E6E7B0F5802F14D0B0F5A02FBF
:1037C00011D0012610E0286840F480102860201DE8
:1037D00002F08CFC06E0286840F4000028600098A5
:1037E00002F0EEFC06468EB137432088400430D507
:1037F000D4F8AC00B0F1405F29D010DC38B3B0F1A0
:10380000805F14D0B0F1005F0FD118E0226ED9F8BC
:10381000001021F4E0211143C9F80010E5E7B0F1F0
:10382000804F14D0B0F1A04F11D0012610E02868CD
:1038300040F480102860201D02F058FC06E0286843
:1038400040F400002860009802F0BAFC06466EB111
:1038500037432088000422D5E06EF0B1B0F1805FDC
:103860000ED0B0F1005F10D0012617E0D4F8AC20E4
:10387000D8F8001021F0E0411143C8F80010E8E743
:10388000286840F40030286007E0286840F4801081
:103890002860201D02F02AFC06466EB137432068DE
:1038A000C00126D5606C10B3012813D0022816D0B1
:1038B00003281CD001261BE0E26ED9F8001021F08D
:1038C00040511143C9F80010E9E700002C440258A8
:1038D00050440258286840F40030286007E0286807
:1038E00040F400102860201D02F000FC064676B16E
:1038F00037432068DFF8F4B340021FD5FC48016865
:1039000041F480710160FFF751FA824610E0F748F8
:10391000626C3C30016821F0030111430160E8E76B
:10392000FFF744FAA0EB0A00642801D9032604E05B
:10393000EF480068C005F3D58EB137432078DFF833
:10394000ACA3C0070AF1440A78D0A06F182873D03E
:103950005CDCC8B308285FD010285BD164E0DFF8D6
:103960008CA3B4F8B0100AF1600ADAF8000001F490
:10397000407100F44070884211D0DAF80010DAF893
:10398000002021F4407142F48032CAF80020DAF8B5
:10399000002022F48032CAF80020CAF80010D4F8BF
:1039A000B000B0F5807F14D1FFF700FA01900CE071
:1039B000FFF7FCF90199411A41F28830814204D99C
:1039C000032647F00307B9E736E0DAF8000080077E
:1039D000EED5D4F8B010C1F30120032858460DD01D
:1039E000016821F47C510160B4F8B020DAF80010CD
:1039F000C2F30B021143CAF800109FE7BD4A0368E7
:103A000002EA111223F47C511143ECE7202813D071
:103A1000282811D0012610E0286840F48010286082
:103A2000201D02F063FB06E0286840F400002860D7
:103A3000009802F0C5FB06465EB137432078800748
:103A400024D5606F06281FD2DFE800F01C0C141C80
:103A50001C1CA26FDAF8001021F038011143CAF8DB
:103A60000010EBE7286840F480102860201D02F069
:103A70003DFB06E0286840F400002860009802F052
:103A80009FFB064676B100E00126374320784007C9
:103A900025D5D4F8900006281FD2DFE800F01C0CD2
:103AA000141C1C1C626FDAF8001021F0070111438E
:103AB000CAF80010EAE7286840F480102860201D4A
:103AC00002F014FB06E0286840F40000286000982B
:103AD00002F076FB06469EB100E0012637432078CF
:103AE000800631D5D4F88C00B0F1405F2AD011DCCB
:103AF00040B3B0F1805F15D0B0F1005F10D119E094
:103B0000D4F89020D8F8001021F007011143C8F82C
:103B10000010E4E7B0F1804F14D0B0F1A04F11D005
:103B2000012610E0286840F400202860201D02F0E3
:103B3000DDFA06E0286840F080702860009802F006
:103B40003FFB06468EB137432078400631D5D4F886
:103B50009800B0F5406F2AD011DC40B3B0F5806F0B
:103B600015D0B0F5006F10D119E0D4F88C20DAF838
:103B7000001021F0E0411143CAF80010E4E7B0F56D
:103B8000805F14D0B0F5A05F11D0012610E0286846
:103B900040F400202860201D02F0A8FA06E0286802
:103BA00040F080702860009802F00AFB06468EB153
:103BB00037432078000631D5D4F89C00B0F5C04FCB
:103BC0002AD011DC40B3B0F5005F15D0B0F5804FBE
:103BD00010D119E0D4F89820D8F8001021F4E05161
:103BE0001143C8F80010E4E7B0F5004F14D0B0F569
:103BF000204F11D0012610E0286840F400202860F2
:103C0000201D02F073FA06E0286840F080702860FA
:103C1000009802F0D5FA064666B3374320780007CD
:103C20000BD5D4F88010B1F5805F2DD0DAF80020E4
:103C300022F440520A43CAF800202078C0060BD56F
:103C4000D4F89410B1F5807F26D0D8F8002022F463
:103C500040720A43C8F800202068000336D5D4F823
:103C6000A00008B3B0F5803F26D0B0F5003F2BD0C0
:103C700001262AE0D4F89C20D8F8001021F46041F5
:103C80001143C8F80010C9E7009802F099FA2868B3
:103C900040F080702860D0E7009802F091FA286820
:103CA00040F080702860D7E7286840F40020286042
:103CB000201D02F01BFA06E0286840F080702860A2
:103CC000009802F07DFA0646B6B1374320684003FB
:103CD0002BD5D4F88400B0F5801F17D0B0F5001FA5
:103CE00019D0B0F5401F1ED001261DE01044025827
:103CF00000480258CFFFFF00D4F8A020D8F80010E9
:103D000021F440311143C8F80010DFE7286840F47F
:103D10000030286007E0286840F400002860009820
:103D200002F04EFA064656B137432068C0031FD54D
:103D3000E06C70B1B0F5803F10D0012617E0D4F8E8
:103D40008420DAF8001021F440111143CAF8001061
:103D5000EBE7286840F40030286007E0286840F46A
:103D600000102860201D02F0C1F90646DEB137437D
:103D70002068800007D5286840F08070286000988F
:103D800002F01EFA0743206880031AD5E06FB0B135
:103D9000B0F5807F0FD0B0F5007F10D0B0F5407F38
:103DA0000DD001260CE02D48E26C016821F4803131
:103DB00011430160DCE7286840F400302860EEB36E
:103DC00037432068C00207D5226FD9F8001021F0D0
:103DD00000411143C9F800102068C00008D5D4F88C
:103DE000B420DBF8001021F480411143CBF800101F
:103DF0002068800207D5A26ED9F8001021F08071EA
:103E00001143C9F80010206840000CD5DBF8001001
:103E100021F40041CBF80010DBF80010D4F8B820F2
:103E20001143CBF800102068002806DA0B48226DF9
:103E3000016821F040511143016000E003E05FB1EF
:103E40000120BDE8FC9FE26FDAF8001021F4407118
:103E50001143CAF80010B4E70020F2E74C440258BE
:103E600002490A6802430A6070470000A0440258F1
:103E70002DE9F047DFF8C49104460E46D9F800005A
:103E800000F00700B0420CD2D9F8001021F0070171
:103E90003143C9F80010D9F8000000F00700B04223
:103EA00072D12078DFF89881800707D5E268D8F8CA
:103EB000001021F00F011143C8F800102078C0074E
:103EC00067D05F49A368D8F80020183922F47062DF
:103ED0001A43C8F80020606802281CD003281DD0AF
:103EE000096801281DD04907002963DA544D083DAF
:103EF000296821F0070101432960FEF757FF616837
:103F0000074641F28830022914D0032920D0012924
:103F100082462AD039E009688903E5E70968890102
:103F2000E2E7C905E0E700BFFEF740FFC11B5145CE
:103F300001D926E082462868C0F3C2000228F3D1E6
:103F400027E000BFFEF732FFC11B514501D918E041
:103F500082462868C0F3C2000328F3D119E000BFED
:103F6000FEF724FFC11B51450BD82868C0F3C200DF
:103F70000128F5D10DE000BFFEF718FFC11B514528
:103F800003D90320BDE8F08714E0286810F0380F4B
:103F9000F2D1D9F80010484601F00701B1420BD91F
:103FA000016821F0070131430160006800F007005B
:103FB000B04201D00120E5E72078400707D522690B
:103FC000D8F8001021F070011143C8F800102178D2
:103FD0001B48001D090705D56269016821F07001C1
:103FE000114301602178C90605D5A269016821F451
:103FF000E061114301602078800607D51048E2692E
:104000000830016821F070011143016000F064F88C
:10401000D8F800104FF4807292FAA2F201F47061A5
:10402000B2FA82F2D140074A515CC84006490860A2
:104030000F20FEF705FF0020A4E70000002000523B
:104040001844025814C70008C802002410B5FFF72E
:10405000EDF8084901230A6893FAA3F3064902F030
:104060000F02B3FA83F3DA40044B9A5CD040086045
:1040700010BD000018440258CC02002414C70008E8
:1040800010B5FFF7E3FF07491022096892FAA2F280
:1040900001F07001B2FA82F2D140034A515CC8408B
:1040A00010BD00001C44025814C7000810B5FFF7EB
:1040B000CDFF07494FF48072096892FAA2F201F429
:1040C000E061B2FA82F2D140024A515CC84010BDB0
:1040D0001C44025814C700084749F0B5474809680E
:1040E000454B103B11F0380409D00111082C04D0C5
:1040F000434A102C0BD0182C0BD00846F0BD196881
:104100008906FBD51968C1F3C101C840F0BD10464E
:10411000F0BD394CDFF8E0C01834261D0CF1240C3A
:104120002768351D2468DFED370AB7EE001A3668B8
:10413000DCF800C017F0030706F00106C4F305140D
:10414000CCF3CC0C1CFB06F600EE106AB8EE400A6D
:1041500009D0012F01D0022F3BD02868B1FBF4F128
:10416000C0F308003AE01968890615D51A6829686D
:10417000C2F3C102C1F30801D04001EE901AB0FBB6
:10418000F4F0F8EE611A40EE201A00EE100A71EE1B
:10419000810AB8EE400A0BE02968B0FBF4F0C1F3E5
:1041A000080101EE901AB8EE612A01EE900A1BE0B8
:1041B00020EE200A2868C0F34620401C00EE900A3A
:1041C000F8EE600A80EE201ABCEEC10A10EE100A6A
:1041D000F0BD2868B2FBF4F1C0F3080001EE900ACC
:1041E000B8EE612A01EE901A00EE202AB8EE610ABC
:1041F00072EE010ADCE70000104402580090D00380
:1042000040787D01000000392DE9F05FFD4C054646
:10421000007841F28838DFF8EC93103CF94FC00782
:1042200009F118094CD03868C0F3C20002281AD02E
:104230003868C0F3C200032805D1D9F8000000F0A7
:10424000030002280FD06868B0F5803F12D010B18B
:10425000B0F5A02F18D0206820F4803020602068AE
:1042600020F4802009E02068800329D568680028B0
:104270006CD025E0206840F480302060686890B100
:10428000FEF794FD06460AE0206840F48020206096
:10429000F0E700BFFEF78AFD811B414575D8206815
:1042A0008003F7D50CE0FEF781FD064605E000BF70
:1042B000FEF77CFD811B4145F0D820688003F7D4D0
:1042C0002878D04E0C3E800769D538684FF47C3B87
:1042D00010F0380F13D03868C0F3C200032803D1A0
:1042E000D9F8000080070AD0E86870B3216821F08F
:1042F000190101432160FEF759FD82462EE0206836
:10430000400702D5E8680028B2D0E968206820F0AC
:10431000190008432060FEF749FD824606E000BF11
:10432000FEF744FDA0EB0A000228B7D8206840073A
:10433000F6D5296932689BFAABF0B0FA80F081407B
:1043400022F47C300843306029E016E0BEE000BF74
:10435000FEF72CFDA0EB0A0002289FD8206840073A
:10436000F6D5286932689BFAABF1B1FA81F1884041
:1043700022F47C310143316011E0206820F001001B
:104380002060FEF713FD824606E0EFE0FEF70EFD2B
:10439000A0EB0A0002288FD820684007F6D42878BE
:1043A000C00647D538684FF0F84BC0F3C20001286B
:1043B00015D03868C0F3C200032805D1D9F8000031
:1043C00000F0030001280AD0E8690028206822D004
:1043D00040F080002060FEF7E9FC82460CE0206897
:1043E000C0050CD5E869802870D108E0FEF7DEFC36
:1043F000A0EB0A00022898D82068C005F6D5286AE4
:1044000032689BFAABF1B1FA81F1884022F0F841B1
:10441000014331600EE020F080002060FEF7C6FC12
:10442000064604E0FEF7C2FC801B022895D82068EF
:10443000C005F7D42878000729D572486969643027
:1044400000298246016811D041F001010160FEF7A8
:10445000ADFC064605E000BFFEF7A8FC801B022865
:1044600099D8DAF800008007F6D510E021F00101B4
:104470000160FEF79BFC064605E000BFFEF796FCD8
:10448000801B022872D8DAF800008007F6D428785A
:10449000800625D5A8690028206810D040F48050F7
:1044A0002060FEF783FC064605E000BFFEF77EFCB9
:1044B000801B02285AD820688004F7D510E020F429
:1044C00080502060FEF772FC064606E0D4E000BF94
:1044D000FEF76CFC801B022848D820688004F7D4C3
:1044E000287840074DD5DFF820A1DAF8001041F414
:1044F0008071CAF80010FEF759FC064605E000BFBF
:10450000FEF754FC801B642830D8DAF80000C005A0
:10451000F6D53C4EA868603601280AD008B10528B7
:1045200011D0306820F001003060306820F00400C5
:1045300002E0306840F001003060A86890B1FEF7FA
:1045400035FC82460AE0306840F004003060F0E755
:10455000FEF72CFCA0EB0A01414507D83068800724
:10456000F6D50EE0FEF722FC824607E083E000BFAE
:10457000FEF71CFCA0EB0A0141457CD8306880079F
:10458000F6D4686AE8B33968C1F3C201032973D06D
:104590000228206820F08070206003D0FEF706FC1F
:1045A000054683E0FEF702FC064604E0FEF7FEFB4C
:1045B000801B022877D820688001F7D4EB6A40F28C
:1045C000F332D9F800104FF4FE0755F8286F9143E5
:1045D00041EA03113143C9F80010287B4FF0FE4C2B
:1045E000084EB5F8088040022B8A20362A7DA8F1B3
:1045F0000108311DA0F5007080B25B1EC8F30808E9
:1046000004E056E01044025800480258521E07EADF
:10461000034340EA08000CEA02674FF6F8721843B9
:10462000384330600B6892FAA2F72E6AB7FA87F720
:1046300022489343BE4033430B600168AA6921F0CE
:104640000C01114301600168EA6921F00201114384
:104650000160016841F480310160016841F400317A
:104660000160016841F480210160016841F00101AD
:104670000160206801E016E01DE040F080702060DD
:10468000FEF794FB054604E0FEF790FB401B022872
:1046900009D820688001F7D50BE000BFFEF786FB44
:1046A000401B022802D90320BDE8F09F206880014A
:1046B000F4D40020F8E70120F6E700002C4402586B
:1046C00010B5040010D02068016821F02C010160B1
:1046D0002068416821F060014160204600F026F822
:1046E00000206072207210BD012010BD10B50400C2
:1046F00002D0607A10B106E0012010BD00202072C7
:10470000204600F01FF8022060720122D4E9000365
:10471000016821F02001194301602068016841F01F
:10472000040101606272002010BD000004480168AD
:1047300041F040010160016821F0400101607047D3
:104740008444025800B5B1B04FF4003041121F91BB
:1047500000906846FEF7BAFE0548016841F0400146
:104760000160006800F040002F9031B000BD0000F3
:10477000DC44025870470068503050F82100704700
:104780000068503040F82120704700002DE9F041CA
:1047900006460068DFF8A4E0002715460C464022D4
:1047A0004FF63F7C016B002B406B01EA0E0100EAE3
:1047B0000C00C1F30543237002EA1142C1F3062C39
:1047C00084F801C001F07F01A170E27000F03F02A7
:1047D0003368C0F30421C0F342309B6B6360EF7019
:1047E0006970AA70287017D1207801F059FD2070E7
:1047F000607801F055FD6070A07801F051FDA07067
:10480000687801F04DFD6870A87801F049FDA87046
:10481000287801F045FD28703068C16801F08001FA
:10482000A1F500318139C1603068C16801F08001B3
:1048300061F40861C1600020BDE8F0817F7F7F00E6
:104840002DE9F04390F82020012A70D04FF00109A3
:1048500080F82090022380F821308A6812B10A681B
:1048600052008A60CA68002492B10A68CC60D307FB
:1048700002D04FF40033CB60130703D5CB6843F469
:104880008013CB60920603D5CA6842F40002CA6066
:104890000A6992B10A680C61D30702D04FF48023F1
:1048A0000B61130703D50B6943F400130B619206E8
:1048B00003D50A6942F080720A6108C90568DFF809
:1048C000748091E8C400D1F80CC01A433E4348EA12
:1048D0004307D5F84080324301F110063B4342EADA
:1048E0000C0296E8C01028EA0308D1E907313243E8
:1048F000C5F8408005683A4342EA0C021A432B6C23
:104900000A434FF0B04113432B64D1F8802042F4A6
:104910008022C1F880200B6843F480230B6080F86C
:10492000219080F820400020BDE8F083FFE70220BE
:10493000FAE7000084FFFF0170B590F82020012AFB
:1049400032D0012380F82030022280F82120046830
:10495000CA2640F60805A268666253240668AA4380
:1049600074620A4301688A6001688A6842F40062DE
:104970008A60026894684FF0B04144F40044946047
:10498000D1F8802042F48022C1F880200A6842F4E5
:1049900080220A600468FF210022616280F82130D1
:1049A00080F82020104670BD022070BD2DE9F74F21
:1049B000044690F820008B4601281AD002224FF0BE
:1049C000010884F82080CA2184F82120532022681D
:1049D0000025FF264FF0030A4FF47A7951622168CF
:1049E00048622068806840050FD5FEF7DFF907466A
:1049F00007E00220BDE8FE8FFEF7D8F9C01B48454E
:104A000019D82068C0684007F6D42068816821F46E
:104A1000806181602068C16801F0800161F490616B
:104A2000C160FEF7C3F907460DE000BFFEF7BEF90F
:104A3000C01B484507D921684E6284F821A0032095
:104A400084F82050D6E72068C0684007EED5226879
:104A50004FF0B040C2F814B0424621688B6823F092
:104A600007038B6021688B68029F3B438B60D0F803
:104A7000801041F40021C0F88010016841F4002149
:104A800001602068816841F480418160206881680C
:104A900041F4806181602068466284F82120002012
:104AA00084F82050A6E700000EA010B5FBF70CFD1F
:104AB000FCF776F9A0B119A0FBF706FD1E480168C6
:104AC000CA6802F0800262F40252CA600068016C97
:104AD00021F001010164016C21F00101016410BDAC
:104AE00016A0E9E754616D70657231204576656EF8
:104AF000742064657465637465642C20616C6C203B
:104B000074686520424B522077696C6C2062652086
:104B1000726573657421200D0A0000000A0D205291
:104B20005443B1B8B7DDBCC4B4E6C6F7B8B4CEBB25
:104B3000CAA7B0DC200A0D00E40600240A0D2052AA
:104B40005443B1B8B7DDBCC4B4E6C6F7B8B4CEBB05
:104B5000B3C9B9A6200A0D00704770474FF0B041A5
:104B600010B504464FF48020C1F8880020688168A1
:104B700009040CD5C068000509D5204600F048F8A6
:104B80002068C16801F0800161F40861C16020689B
:104B90001C4A016C11420CD0C068800409D5204623
:104BA000FFF782FF2068C16801F0800161F40251C3
:104BB000C1602068144A016C11420CD0C0684004E6
:104BC00009D52046FFF7C8FF2068C16801F08001C1
:104BD00061F48141C16020680C4A016C11420DD022
:104BE000C06800040AD52046FFF7B7FF2068C168F7
:104BF00001F08001A1F500418139C160012084F8F4
:104C0000210010BD04000100040008000400400061
:104C100010B50E4900230C4AA1F12400FFF7B6FDA0
:104C20000B48FBF751FC094883784278017809A0CA
:104C3000FBF74AFC044883784278C1780AA0BDE8B3
:104C40001040FBF741BC0000350200240807002497
:104C5000F4D10008252E32643A252E32643A252EEE
:104C60003264200D0A000000252E32642D252E32DC
:104C7000642D252E3264200D0A00000070474FF08D
:104C8000B04110B504464FF40020C1F888002068F8
:104C9000C168490508D5C16801F0800161F49061DF
:104CA000C1602046FFF7EAFF012084F8210010BD13
:104CB00001A0FBF709BC00005254435F416C6172D4
:104CC0006D414576656E7443616C6C6261636B2106
:104CD0000D0A00004FF0B04110B504464FF400300B
:104CE000C1F8880020688168C9040BD5C168C9056E
:104CF00008D5C16801F0800161F4C071C16020462F
:104D0000FFF7D6FF2068816889040BD5C168890543
:104D100008D5C16801F0800161F42071C1602046AE
:104D2000FFF728FD012084F8210010BDF0B50C46E6
:104D30004FF480718A4204D161620068C169406C9D
:104D400005E04FF4007161620068016A806C4027E1
:104D500001F07F06C1F30625C0F30E02C1F3054042
:104D60002070657007EA1147A670C1F3056CE77003
:104D700001F0804E626001F0803184F820C0C4F8F8
:104D80001CE0616183B901F08BFA2070607801F05A
:104D900087FA6070A07801F083FAA07094F8200080
:104DA00001F07EFA84F820000020F0BD10B50B461B
:104DB00001680F48002A496801EA000101F03F0438
:104DC0004FEA1140D870C1F304225A709C70C1F3AD
:104DD000423119700AD101F063FAD870587801F0A5
:104DE0005FFA5870987801F05BFA9870002010BD57
:104DF0003FFFFF0030B50B460168144D4024002AE8
:104E0000896A596001680969C1F30E0199600068F7
:104E1000016801EA050104EA1142C1F30540187076
:104E2000C1F306245C7001F07F019970DA700AD139
:104E300001F036FA1870587801F032FA5870987804
:104E400001F02EFA9870002030BD00007F7F7F00B7
:104E50002DE9F041040003D094F8210018B108E0D6
:104E60000120BDE8F081002084F82000204600F0F9
:104E700047F8022084F82100CA2122685320516299
:104E800021684862204601F01FFA002820684FF090
:104E9000FF0104D00422416284F82120E0E7174D8D
:104EA000012382682A408260D4E90006A769256947
:104EB00082683D4332432A4382602268E068106181
:104EC00020682289056945EA024202612068C268B9
:104ED00022F08002C2602068C26C22F00302C26429
:104EE00020686569E269C66C2A433243C26420685F
:104EF000416284F821300020B3E70000BFFF8FFF3C
:104F0000124800B5C3B0016841F480310160006807
:104F100000F480304290FEF781F904202F900021A8
:104F20003891012231922FA8FFF76EF94FF48000DB
:104F30000090811368462C91FEF7C8FA0348843824
:104F4000016841F40041016043B000BDF4440258DF
:104F50002DE9F05F044690F820000B46012851D05F
:104F60000221012084F8200084F821104FF000066F
:104F7000206880684FEA4060F2B3002863DA18784E
:104F800001F08EF993F8200001F08AF9597893F82E
:104F900000C0DA789878090293F8205040EA0C4073
:104FA000DF6941EA0241D3F814C0084340EA0565CD
:104FB0003D4345EA0C052268D3F818C0CA215F6852
:104FC00053204FF0FF0851624FF47A7A216847EA84
:104FD0000C074FF0030B4862586AB0F5807F2068D9
:104FE000816832D021F4007181602068C16801F0CD
:104FF000800161F4207100E007E0C160FDF7D6FE9A
:1050000081465EE00220BDE8F09F002800DBDE70F4
:10501000187801F04EF90204587801F04AF942EA92
:105020000022987801F045F9D978024393F82000DE
:1050300042EA014201F03DF9D96942EA0065586946
:105040000D430543B7E7DE709CE721F48071816072
:105050002068C16801F0800161F4C071C160FDF792
:10506000A5FE81460CE000BFFDF7A0FEA0EB090005
:10507000504505D92268C2F8248084F821B01CE08C
:105080002068C068C007EFD02068C5612068476409
:105090002068816841F4807181602068816841F4F2
:1050A00080511FE0FDF782FEA0EB0900504508D9B2
:1050B0002268C2F8248084F821B0032084F820609C
:1050C000A1E72068C0688007ECD5206805622068E9
:1050D00087642068816841F400718160206881687C
:1050E00041F4005181604FF0B040D0F8803001228F
:1050F00043F40033C0F88030036843F400330360A6
:105100002068C0F8248084F82120002084F82060E2
:1051100079E700002DE9F047044690F820000B469F
:10512000012828D04FF0010984F82090022184F84A
:105130002110587812B301F0B3F8987801F0B0F864
:1051400059789878DA781B78090240EA024541EAF2
:10515000433005432268CA215320516221684862C6
:10516000204601F0B1F84FF000064FF0FF074FF076
:10517000040858BB19E00220BDE8F087C10603D53A
:1051800000F0EF000A305870D87801F092F802046D
:10519000587801F08EF842EA0022987801F089F8F8
:1051A0001978024342EA4135D4E721680F480540A7
:1051B0004D602068C16821F08001C160206880686E
:1051C00080060BD4204600F091F838B121684F6278
:1051D00084F82180012084F82060CDE721684F62A7
:1051E00084F82190002084F82060C5E73FFFFF008D
:1051F0002DE9F047044690F820000D46012813D011
:105200004FF0010A84F820A0022184F821102068C0
:105210004FF0000680684FEA406042B100281ADA79
:10522000287801F03DF817E00220BDE8F08700285B
:1052300000DBEE70287801F03CF80204687801F099
:1052400038F842EA0022A87801F033F8E9780243FE
:1052500042EA01470AE0EE7069782A78A878EB788C
:10526000090240EA024741EA034007432268CA2193
:105270005320516221684862204601F025F84FF022
:10528000FF084FF00409E0B92168174807400F6094
:105290002068816821F4802181602068D5E90312AB
:1052A00083681143194381602068C16821F080013F
:1052B000C1602068806880060CD4204600F016F893
:1052C00040B12268C2F8248084F82190012084F83B
:1052D0002060AAE72268C2F8248084F821A0002078
:1052E00084F82060A1E700007F7F7F0070B504464E
:1052F0000068C16821F0A001C160FDF757FD4FF4BF
:105300007A76054607E000BFFDF750FD401BB0422E
:1053100001D9032070BD2068C0688006F4D5002044
:1053200070BD000070B504000D4603D094F82C0049
:1053300010B107E0012070BD002084F82D00204648
:1053400000F018F8022084F82C002068211DFDF7D9
:10535000ABF9D4E900022946FDF7ECF90448012134
:10536000026842F00042026084F82C10002070BDF8
:1053700000400052334810B586B0016841F0020188
:105380000160006800F0020005902E482038016896
:1053900041F480510160006800F480500590294874
:1053A0001438016841F004010160016801F0040152
:1053B0000591016841F008010160016801F00801F0
:1053C0000591016841F010010160016801F01001D0
:1053D0000591016841F020010160016801F02001A0
:1053E0000591016841F0400101600068022101223D
:1053F00000F0400005900D2003230C248DE81F00D1
:1054000011486946FDF7CAFB4CF2037000900F4843
:105410006946FDF7C3FB4FF6837000900C48694660
:10542000FDF7BCFB4FF63F0000900A486946FDF7C8
:10543000B5FB48F23710009007486946FDF7AEFB10
:1054400006B010BDF444025800080258000C02587F
:1054500000100258001402580018025810B50446F3
:1054600090F82C00022809D0022084F82C00206833
:10547000FDF749F9012084F82C00002010BD000040
:1054800070B5044690F82C000D4602280DD002207D
:1054900084F82C002068FDF73CF92868022805D024
:1054A0005FF0010084F82C00002070BD0520F9E7B2
:1054B00004284FF0E020016903D021F004010161CC
:1054C000704741F00401FAE7401EB0F1807F10B54B
:1054D00001D3012010BD4FF0E02460610F2160175F
:1054E00001F03AFE0020A0610721216110BD704744
:1054F000704710B5040003D094F83D0010B107E0E8
:10550000012010BD002084F83C00204600F00CF87B
:10551000022084F83D002068211D01F003F80120DD
:1055200084F83D00002010BD38B5164905460068D6
:10553000154C88420FD1206840F008002060206898
:105540000122042100F0080000903220FDF71AFE2D
:105550003220FDF70AFE0D492868884211D12068E3
:1055600040F00200206020680422032100F00200C5
:1055700000901D20FDF706FEBDE838401D20FDF718
:10558000F4BD38BD000C0040E8440258000400405F
:105590000168CA6842F00102CA600068018841F0EF
:1055A000010101800020704710B5017F022915D14B
:1055B000164C218859B1012910D1042100F00BFAB1
:1055C0002061E16888420AD9A0EB01000FE04FF0AA
:1055D000040100F000FAE0600121218010BD08D232
:1055E0004FF6FF72A2EB0101084400F10100A06038
:1055F00001E0FDF752F8FEF759FDA26841000020D6
:10560000B1FBF2F16160208010BD000010020024A7
:1056100070B50446006800250169C943890715D49F
:10562000C168C943890711D4EA1E026101212177AB
:10563000206880698007204602D0FFF7B5FF04E0AC
:1056400000F0A6F8204600F097F925772068016958
:10565000C943490717D4C168C943490713D4022174
:105660006FF00402026121772068806910F4407FA6
:10567000204602D0FFF798FF04E000F089F82046AA
:1056800000F07AF9257720680169C943090716D423
:10569000C168C943090712D404216FF008020261EE
:1056A00021772068C0698007204602D0FFF77CFF81
:1056B00004E000F06DF8204600F05EF925772068E0
:1056C0000169C943C90617D4C168C943C90613D4BF
:1056D00008216FF01002026121772068C06910F480
:1056E000407F204602D0FFF75FFF04E000F050F853
:1056F000204600F041F9257720680169C943C907B0
:1057000008D1C168C943C90704D1891E0161204677
:1057100000F060F920686FF080050169C94309064F
:1057200007D4C168C943090603D405612046FFF7C1
:10573000DEFE20680169C943C90507D4C168C943B1
:10574000090603D405612046FFF7D1FE20680169F0
:10575000C943490609D4C168C943490605D46FF055
:1057600040010161204600F058F920680169C943F1
:1057700089060BD4C168C943890607D46FF020019C
:1057800001612046BDE87040FFF7B2BE70BD000069
:105790000A49884211D1007F0949012807D002280F
:1057A00007D0042807D0082807D1086A00474869AD
:1057B000FCE78869FAE7C869F8E77047F80500244C
:1057C0001002002470B5044690F83C000D460128F4
:1057D0000ED0012684F83C60022084F83D000C2A9B
:1057E00045D007DC5AB1042A1BD0082A78D12CE016
:1057F000022070BD102A4ED0142A71D15DE02068BD
:1058000000F0FEFE2068816941F008018161206896
:10581000816921F00401816120682A69816911434D
:1058200011E0206800F040FF2068816941F40061C8
:1058300081612068816921F4806181612068296922
:10584000826942EA012181614AE0206800F078FF24
:105850002068C16941F00801C1612068C16921F077
:105860000401C16120682A69C169114311E02068FF
:1058700000F0ACFF2068C16941F40061C16120689B
:10588000C16921F48061C16120682969C26942EA65
:105890000121C16124E0206800F0CEFF2068416D45
:1058A00041F0080141652068416D21F00401416526
:1058B00020682A69416D114311E0206800F0F2FF71
:1058C0002068416D41F4006141652068416D21F41B
:1058D0008061416520682969426D42EA0121416584
:1058E000002084F83D6084F83C0070BD10B50400D1
:1058F00003D094F83D0010B107E0012010BD002056
:1059000084F83C00204600F00DF8022084F83D00A9
:105910002068211D00F006FE012084F83D000020D3
:1059200010BD0000124800B587B0016841F00201C7
:105930000160006800F0020005900D480838016819
:1059400041F00201016000680DF1040C102100F02B
:1059500002000590022000910122694603238CE891
:105960000D0004900348FDF719F907B000BD0000D1
:10597000E8440258000402587047000010B50122A4
:105980000446006800F030FE0D48216881420BD0CB
:105990000C48814208D00C48814205D00B48814216
:1059A00002D00B48814203D1486C40F40040486467
:1059B0002068018841F001010180002010BD000035
:1059C000000001400004014000400140004401404B
:1059D00000480140704790F83C300022012B0AD06B
:1059E000012380F83C3041B1042909D008290AD0AC
:1059F0000C290DD10AE00220704701684A6B07E0CC
:105A000001688A6B04E00168CA6B01E001680A6CF6
:105A1000002180F83C10104670477047704770476F
:105A200090F8791090F87A000843704770B50268D2
:105A30000446D0691368916810F00F0F64D0594D77
:105A400003F490760D40354376D0C50707D0DD05C9
:105A500005D501251562E26F42F00102E267820777
:105A600008D5CA0706D0256802222A62E26F42F0F2
:105A70000402E267420708D5CA0706D02568042257
:105A80002A62E26F42F00202E26702070ED503F0DB
:105A9000200201F080552A4352EAC17206D02568DF
:105AA00008222A62E26F42F00802E267E26F002AEF
:105AB0003AD0800608D503F0200001F08051084359
:105AC00002D0204601F000F8E06F000703D4206800
:105AD000806840062AD5204600F0E8FF20688168EB
