:020000040800F2
:1000000098EC0724AD020008F56700085165000868
:100010007D67000847260008718000080000000086
:10002000000000000000000000000000BF02000807
:10003000A928000800000000F7670008A57500085F
:1000400075800008C7020008697700088D6C0008F9
:10005000C7020008C7020008C7020008C70200085C
:10006000C7020008C7020008C7020008C70200084C
:1000700099280008C7020008C7020008C702000844
:100080009D280008C7020008C7020008C702000830
:10009000C7020008C7020008C7020008C70200081C
:1000A000C7020008C7020008C702000881770008DD
:1000B000C7020008C70200088D770008C7020008C1
:1000C000C7020008C7020008C7020008C7020008EC
:1000D000C70200082D800008C7020008C7020008F8
:1000E000C70200081D6C000800000000C7020008DD
:1000F000C7020008C7020008C7020008C7020008BC
:10010000C7020008C7020008C1770008C70200083C
:10011000C7020008C7020008CD770008C702000820
:10012000C7020008C7020008C7020008C70200088B
:10013000C7020008C7020008C7020008C70200087B
:1001400000000000000000000000000000000000AF
:10015000C7020008C7020008C7020008C70200085B
:10016000C7020008C7020008C7020008C70200084B
:10017000C7020008C7020008C7020008000000000C
:10018000C7020008C7020008C7020008C70200082B
:10019000C7020008C7020008C7020008C70200081B
:1001A000C7020008C7020008C7020008C70200080B
:1001B000C7020008C7020008C7020008C7020008FB
:1001C000C7020008C7020008C7020008C7020008EB
:1001D000C7020008C7020008C7020008C7020008DB
:1001E000C7020008C7020008C7020008C7020008CB
:1001F000C7020008C7020008C7020008C7020008BB
:10020000C7020008C7020008C7020008C7020008AA
:10021000C7020008C7020008C7020008C70200089A
:10022000C7020008C7020008C7020008000000005B
:10023000C7020008C702000800000000C70200084B
:10024000C7020008C7020008C7020008C70200086A
:10025000C7020008C7020008C7020008C70200085A
:10026000C7020008C7020008C7020008C70200084A
:10027000C7020008C7020008C7020008000000000B
:10028000C702000800000000C702000800000000CC
:1002900000000000C7020008DFF80CD000F07AF878
:1002A00000480047C18D000898EC072406488047A5
:1002B00006480047FEE7FEE7FEE7FEE7FEE7FEE74B
:1002C000FEE7FEE7FEE7FEE7E17600089902000898
:1002D0002DE9F05F0546002092469B46884606467B
:1002E000814640241BE0284641464746224600F00E
:1002F00041F853465A46C01A914110D31146184648
:10030000224600F028F82D1A67EB01084F462246D6
:100310000120002100F01FF817EB00094E41201EBC
:10032000A4F10104DFDC484631462A464346BDE8D5
:10033000F09F40EA01039B0703D009E008C9121FA0
:1003400008C0042AFAD203E011F8013B00F8013B8F
:10035000521EF9D27047202A04DB203A00FA02F13B
:10036000002070479140C2F1200320FA03F31943A3
:1003700090407047202A04DB203A21FA02F0002145
:10038000704721FA02F3D040C2F1200291400843A5
:1003900019467047064C074D06E0E06840F001033F
:1003A00094E8070098471034AC42F6D3FFF778FF83
:1003B000C8F00008E8F0000870B58C1810F8015B70
:1003C00015F0070301D110F8013B2A1106D110F8EE
:1003D000012B03E010F8016B01F8016B5B1EF9D1F2
:1003E0002B0705D40023521E0DD401F8013BFAE778
:1003F00010F8013BCB1A921C03E013F8015B01F8E3
:10040000015B521EF9D5A142D8D3002070BD7047C0
:1004100006480178491C017001783C2904D100216B
:100420000170012000F0E8BE70470000280200249F
:1004300070470000002810B511D0012800D102201B
:10044000012181F31088064C0021A060217081F306
:10045000108800BFFFF7DBFF20780128FAD110BD1C
:10046000E80200240B49002270B54FF0E0244968EF
:1004700065694843A369A1699942FCD002D2A3EB04
:10048000010302E0A5EB010633441A440B46824205
:10049000F1D370BDE802002410B500F08DF8074CD0
:1004A000E06001F093FD00F087F82061E168BDE8AD
:1004B0001040411A02A007F0E3BD0000040300242D
:1004C0004572617368207468652077686F6C652079
:1004D000466C61736820636F6D706C657465212074
:1004E0005370616E642054696D653A2025646D73A4
:1004F0000D0A000070B5054600F05EF8074CE0609C
:10050000284601F077FD00F057F82061E168BDE86A
:100510007040411A02A007F0B3BD0000040300249C
:100520004572617368207468652077686F6C652018
:10053000466C61736820636F6D706C657465212013
:100540005370616E642054696D653A2025646D7343
:100550000D0A000070B5164D00244FF40E760020F1
:10056000314602F059F845F8240018B1641CE4B291
:10057000032CF4D34FF416760020314602F04CF8E9
:100580000C4D31462860002002F046F84FF400710F
:100590006860002002F040F8032CA86006D12968AA
:1005A00021B1696811B108B1002070BD012070BD92
:1005B000809C072458030024012080F310880448FD
:1005C000C1680161002181F3108800697047000053
:1005D000E80200247CB50D461446002101AA0091D2
:1005E000694608F089F800280BD10199009ECB6973
:1005F0004A899B1E534302FB06F15A082A604908A8
:1006000021607CBD114A38B5136843F004031360C0
:100610001268401E00230E4C02F0040200920D4AA4
:10062000C2E9023013611046C2E9004105F00BFC3B
:1006300003221E20114602F057FF1E2002F047FF42
:10064000BDE83840034805F065BC0000E8440258A6
:10065000000800403C05002470B51E4905461E4AAE
:10066000062D1E4886B00DD2DFE805F00322222BAE
:100670002B2B1B4C086840F004000860086800F051
:1006800004000590174E0120032156F82520CDE9DE
:100690000020CDE902016946204602F05FFC36F8F1
:1006A0002500012281B2204602F05BFD06B070BD3C
:1006B0000868144640F080000860086800F0800078
:1006C000DFE70446086840F008000860086800F0AA
:1006D0000800D6E7E0440258001C0258000C0258FB
:1006E00000080258CCE1000870B50B4B002204460C
:1006F0001146481C01EB4105C1B203EB8500426085
:100700008260427003F825200429F2D3042005F00A
:1007100079FB0248446070BDD8090024E802002437
:100720000D4900220B4B10B50C240B60C1E90102EE
:10073000CA6008460A61C1E90542CA6105F0F2FDD6
:1007400008B102F0B2F8BDE81040044901220248A5
:1007500005F06CBE00100140080A0024FC020024D1
:100760000E4970B50646A1F16C00002402680888A5
:1007700022B13046BDE8704000F068BD4D880021D0
:100780004543084600F030FB00F0CCFCB0B2044911
:1007900001E00880641CAC42FBD370BDB0080024AB
:1007A000000008602DE9F04F394CA4F16C05A071F0
:1007B000296839B100F06EFDE88A2080288B6080BE
:1007C000BDE8F08F002832484FF4305E4FF0F00C57
:1007D0004FF4487649F241384FF4A0774FF02C029D
:1007E00080884FF4F0714FF02A034FF02B0545F24B
:1007F000105B45F210390BD027804045BA46A4F86B
:1008000002C001D0484527D122816381A58135E00E
:10081000A4F800C04045678001D0484507D1228137
:1008200048456381A5812ED1278061802BE0584502
:1008300008D1A4F808E04FF4285363814FF42C50FA
:10084000A08106E0A0F5C857633F1CD122816581D5
:10085000A3812180668016E0584506D14FF42853C5
:10086000A4F808E04FF42C5504E0A0F5C857633F06
:1008700004D122816381A58126806180484502D10F
:100880002180A4F802A00020BDE8F04F00F0D0B90C
:10089000B00800242DE9FE4F161A4FF000085D1A2B
:1008A0004FF0FF34002E4746CDE9001002DD4FF037
:1008B000010002E003D14FF00000834602E0C6F1E0
:1008C0000006A346002D02DD4FF0010002E003D137
:1008D0004FF00000824602E0C5F10005A246AE429C
:1008E00001DD344600E02C46601C0290002017E039
:1008F000009881B2019880B200F018F8B044A04589
:100900002F4404DD0198A8EB040858440190A74245
:1009100003DD00983F1B5044009009F1010080B2B4
:10092000029981468842E3DDBDE8FE8F084A10B592
:10093000084C126822B12268BDE8104000F0BCBC2F
:1009400000F052FA00F0EEFB03492088088010BD49
:10095000440800245002002400000860F0B51C4642
:1009600015460E4607460B46FFF794FF3A462346C8
:1009700031461046FFF78EFF23462A461946384671
:10098000FFF788FF2A46234631461046BDE8F0406F
:10099000FFF780BF2DE9FC4F8046144603200F4629
:1009A0000025A0EB440649E0391B019108EB050A3C
:1009B00089B21FFA8AF0FFF7B9FF791B009108EBA3
:1009C00004091FFA89F089B2FFF7B0FF07EB050BA6
:1009D0001FFA8BF11FFA89F0FFF7A8FF07EB040954
:1009E0001FFA89F11FFA8AF0FFF7A0FFA8EB050AAA
:1009F0001FFA8AF01FFA89F1FFF798FFA8EB0409A4
:100A00001FFA8BF11FFA89F0FFF790FF01991FFA87
:100A10008AF089B2FFF78AFF00991FFA89F089B23C
:100A2000FFF784FF6D1C002E03DA06EB8506B61D6A
:100A300004E0281B641E06EB80060A36A542B3DDDF
:100A4000BDE8FC8F2DE9F041044639480E460068A8
:100A500020B12046BDE8F04100F02EBC344D270AFD
:100A60004FEA16286C352846A9884089A1F513431A
:100A7000413B0CD0A1F5A643103B08D0A1F5AA43F9
:100A8000103B10D0A1F5C853633B25D048E000F0DF
:100A90008FFD384600F080FDE0B200F07DFDA889B2
:100AA00000F086FD36E000F083FD384600F074FD6E
:100AB0006889401C80B200F07BFDE0B200F06CFD64
:100AC000A88900F075FD404600F066FDA889401C2D
:100AD00080B200F06DFD20E0A97919B92988091BC1
:100AE000491E8CB200F064FD270A384600F054FD20
:100AF000E0B200F051FD384600F04EFDE0B200F0EB
:100B00004BFDA88900F054FD404600F045FDF0B2D1
:100B100000F042FD404600F03FFDF0B200F03CFD29
:100B2000044928898B1C08801A80BDE8F0810000E8
:100B300044080024FEFF07602DE9F8431E46144BCD
:100B4000804608981B6833B133460090404600F059
:100B5000D1FBBDE8F883A2EB0802DFF83890521C05
:100B60000C4687B295B20FE02146404600F03CF9B2
:100B700000F0D8FA0020494602E0401C0F8080B205
:100B8000A842FAD3641CA4B2B442EDD9E1E7000054
:100B9000440800240000086010B5244C22888242DA
:100BA00002D962888A4201D8002010BD1F4A6C3ADF
:100BB00012681AB1BDE8104000F0AEBC00F014F9A4
:100BC000A08841F66312A0F51341413905D0A0F584
:100BD000A641103901D0904201D12E2005E0A0F5A8
:100BE000AA41103903D14FF4385000F0E1FC00F075
:100BF000C9FCA1889142D8D00120411EC8B2FCD2C4
:100C000000F0C0FC01460120421ED0B2FCD200F030
:100C1000B9FCCAB24FF6FF736FF30A0103EA02226E
:100C2000920A41EA421141EAD02010BDB0080024E6
:100C3000F0B56C4C002541F663172146A2798988EE
:100C4000012A01D01AB11BE0B94202D118E0B94221
:100C500016D1082814D2DFE800F00406080A0C0EAA
:100C6000101206200CE007200AE0042008E005200E
:100C700006E0012004E0002002E0032000E0022062
:100C800045F21032A1F5134345F21056413B05D011
:100C9000914203D0B14201D0B94277D1082812D293
:100CA000DFE800F0110406080A0C0E1080250AE0A7
:100CB000402508E0C02506E0202504E0602502E08C
:100CC000A02500E0E025B14202D14FF4585000E0E9
:100CD0003620914205D0B14203D0B94201D045F04F
:100CE0000805294600F028FAA188B9420AD062888E
:100CF000A806208802D5904202D303E0904201D991
:100D000022806080B142608941D100F051FC002016
:100D100000F042FC6089401C80B200F049FC0020D9
:100D200000F03AFC6089801C80B200F041FC208811
:100D3000401EC0F30F2000F02FFC6089C01C80B261
:100D400000F036FC2078401EC0B200F025FCA089DF
:100D500000F02EFC002000F01FFCA089401C80B297
:100D600000F026FC002000F017FCA089801C80B257
:100D700000F01EFC6088401EC0F30F2000F00CFC49
:100D8000A089C01C80B200F013FC22E028E000F033
:100D90000FFC002000F000FC002000F0FDFB20888C
:100DA000401EC0F30F2000F0F7FB2078401EC0B2B9
:100DB00000F0F2FBA08900F0FBFB002000F0ECFB50
:100DC000002000F0E9FB6088401EC0F30F2000F017
:100DD000E3FBA078BDE8F040401EC0B200F0DCBBF1
:100DE000F0BD0000B0080024F0B53F4A060A0446F2
:100DF0000D4610460F0A91884089A1F51343413BE7
:100E000028D0A1F5A643103B24D0A1F5C853633BDD
:100E10002FD0A1F5AA43103B64D100F0C9FB3046A6
:100E200000F0BAFB5089401C80B200F0C1FBE0B278
:100E300000F0B2FB908900F0BBFB384600F0ACFB41
:100E40009089401C80B200F0B3FBE8B2BDE8F040EE
:100E500000F0A2BB00F0ACFB304600F09DFBE0B21E
:100E600000F09AFB908900F0A3FB384600F094FB59
:100E7000EBE7917929B300F09BFB304600F08CFB47
:100E8000E0B200F089FB1088401EC0F30F2000F094
:100E900083FB1078401EC0B200F07EFB908900F00A
:100EA00087FB384600F078FBE8B200F075FB50880D
:100EB000401EC0F30F2000F06FFB9078401EC0B2C0
:100EC000C4E71188091B491E8CB200F071FB002099
:100ED00000F062FB002000F05FFB200A00F05CFBEA
:100EE000E0B2D9E7F0BD0000B00800242DE9FF4FC3
:100EF00058071D460C468A4600D00120DFF8B8B0DE
:100F0000690800EBD500002610FB01F1203A01F042
:100F1000FF09D0B202904BE00C2D11D0102D14D04F
:100F2000182D17D0202D45D10298244901EBC0106F
:100F30004FF00008875D380613D52148026814E099
:100F40000298204900EB400008E002981E4901EB9E
:100F50000010EDE702981D4900EBC00001EB800096
:100F6000E6E70D9828B91648426821460098FFF731
:100F700069FD7906BBF80200641CA4B20F0EA04202
:100F800018D9A4EB0A00A84209D100985446BBF82E
:100F90000010401C80B2009081420BD906E008F19D
:100FA000010000F0FF08B8F1080FC4D3761CF6B2B8
:100FB0004E45B1D3BDE8FF8FB00800244CB2000805
:100FC000500200248C9A0008009F0008F0A400083A
:100FD0002DE9FF4F81B04FF000081D469346814632
:100FE0004646DDF838A044464FEA5A0727E0281B5A
:100FF000401EC1B20A2005F0D1FABBFBF0F00A2175
:10100000B0FBF1F201FB120026B9691E8C4201DA35
:1010100048B10126534607FB04913030CDF80080DB
:10102000C2B288B206E007FB04902022534680B289
:10103000CDF800800299FFF759FF641CE4B2AC427E
:10104000D5D305B0BDE8F08F2DE9F84F0D46044625
:1010500058194FF0000A111987B21FFA81F8DDE91B
:101060000AB604F0FF0912E0444503D305EB0B0078
:101070004C4685B2BD420FD25B4629462046CDF88C
:1010800000A0FFF733FF04EB5B0084B2761C3278DC
:10109000A2F120005E28E7D9BDE8F88F2DE9FF4FC7
:1010A00081B04FF000081E4681464446DDE90EBA85
:1010B0000AF001054FEA5B072CE0301B401EC1B26D
:1010C0000A2005F06BFA03990A22B8F1000FB1FB70
:1010D000F0F1B1FBF2F302FB131005D1711E8C424B
:1010E00002DA48B14FF001085B4607FB049130304B
:1010F0000095C2B288B208E05FEA0A605B4607FB6F
:101100000490009580B20AD530220299FFF7EEFED6
:10111000641CE4B2B442D0D305B0BDE8F08F202205
:10112000F3E7000002480349008908807047000087
:10113000B0080024FEFF0760024B9A1C1880118043
:1011400070470000FEFF076011490246114B062A56
:10115000114830B41AD2DFE802F003080A0F111365
:101160000888012281B20D480DE0888800E00889D6
:10117000012281B2184606E0898902E0098A00E06E
:10118000898A012289B230BC01F0EBBF30BC7047C4
:10119000CCE10008001C0258000C0258000802585C
:1011A00011490246114B062A114830B41AD2DFE821
:1011B00002F003080A0F11130888002281B20D48BB
:1011C0000DE0888800E00889002281B2184606E018
:1011D000898902E0098A00E0898A002289B230BC4C
:1011E00001F0BFBF30BC7047CCE10008001C0258C2
:1011F000000C02580008025810490246104B062AFB
:10120000104830B417D2DFE802F00307090D0F11C0
:10121000088881B20C480BE0888800E0088981B218
:10122000184605E0898902E0098A00E0898A89B2C6
:1012300030BC01F092BF30BC70470000CCE1000828
:10124000001C0258000C02580008025808B5009013
:101250000548018BC08A491E8BB2401E82B2002114
:10126000084600F047F808BD4408002410B5B0B0A7
:1012700002230DF1240C1C0700948CE80B00CDE92F
:101280000C32684602F070FC002800D0012030B01B
:1012900010BD000007490A464875938812889BB222
:1012A00092B220B1012801D1CA820B837047CB8250
:1012B0000A83704744080024F0B50C4C95B2DFF85F
:1012C00030C02346677D1E7DDA691B685CF82660A6
:1012D00027B103FB01004243B552F0BD6468201AF8
:1012E000401E03FB001050433552F0BD440800245B
:1012F000580200242DE9F047274D0027DDF820A0F3
:101300006C7D14B10446164606E01E466B680C461A
:10131000991A1B1A491E5B1E2868DFF88090321B41
:10132000861A95F814C000FB0144591AD9F8003008
:10133000DFF87080761EED69194858F82C8043F468
:10134000000C05FB0484B3B2C9F800C04FF440366A
:101350000660022545630364ED030368491C05EB41
:101360000242114323F001020260C4634164C0F8E9
:1013700038A00268410242F00102026002E07F1CD4
:101380008F4202D242689207F9D5816841F002018A
:101390008160BDE8F087000044080024D84402586A
:1013A00000100052580200242DE9F0438DB0144D76
:1013B00014460022DDE916C7DDE914980092029276
:1013C0004FEA0C2C2E6801964FEA08286D68CDE98B
:1013D000044303954B460B95CDE9091606AE6946C5
:1013E00086E808118DF832208DF831200246044835
:1013F0008DF83070A83801F0F5FE0DB0BDE8F0832F
:10140000440800240B4B10B5842401291A6804EB0E
:10141000C01001D021B107E0115841F0010102E0F4
:10142000115821F0010111501868416A41F0010181
:10143000416210BD9C07002470B51E460446034659
:101440000548049D01F0EEFF23462A463146024836
:10145000BDE8704002F010B89C0700242B4830B55E
:1014600087B0016841F040010160016801F040016E
:101470000591016841F4807101600068002101223A
:10148000234C00F480700590402003238DE80F006A
:101490006946204601F062FD1E4D84206946009099
:1014A000284601F05BFD4021204601F051FE042159
:1014B0000446284601F04CFE44EA400428468021B8
:1014C00001F046FE44EA800010F0FF000CD0012835
:1014D0000DD002280ED003280FD0042810D00528E4
:1014E00011D0002007B030BD44F24230FAE747F295
:1014F0008400F7E747F21600F4E747F21800F1E737
:1015000048F21600EEE741F21800EBE7E04402581B
:101510000018025800200258F0B50C4BDFF830C01C
:101520001C465F7D267D2568E2695CF8264027B170
:1015300005FB01004243A05AF0BD5B68181A401E2B
:1015400005FB00105043205AF0BD00004408002461
:10155000580200240149087570470000440800241F
:1015600007490128096806D0002803D1886920F0BE
:10157000010088617047886940F00100F9E70000C8
:101580009C070024034808B50088ADF80000BDF8AA
:10159000000008BD0000086001B5BDF80010034858
:1015A000ADF80010BDF80010018008BD0000086013
:1015B00001B5BDF800100348ADF80010BDF80010EB
:1015C000018008BDFEFF07604FF000700E4B2DE953
:1015D000F04190FAA0F20D4800210124B2FA82F203
:1015E000A602521EC0E90561C161102501620427EF
:1015F000C0E9035280E8980001F0ECFF002800D019
:101600000120BDE8F081000000500052740B00245E
:10161000074A491E10B51268116141F2883201462D
:10162000034802F099F8002800D0012010BD000006
:10163000740B0024F0B58FB014AC94E8E0000024E3
:10164000039609970D94CDE907540B940C94CDE9BA
:101650000523CDE90001044841F28832694601F0D2
:1016600075FF0FB0F0BD0000740B0024074A491E3F
:1016700010B51268116141F288320146034802F048
:10168000C9F8002800D0012010BD0000740B002410
:101690002DE9FF5FFFF7E2FEBF4C0546A0F586404F
:1016A0004FF0010A42384FF0080B4FF4F07C4FF036
:1016B000060937D0A5F5E04084384FF4487143D08F
:1016C000A5F5E0404FF08C0816384FF003004FF4BA
:1016D00080664FF4167747D0A5F5E043183B4FF4EA
:1016E000A06250D0A5F50043163B4FD0A5F580531E
:1016F000183B4ED04AF201039D424FF4407E54D134
:1017000040F256524FF0180CC4E9002E8F2323816B
:1017100046262682D527A78160811C22A4F80EC008
:101720006082C8E04FF4887328220526C4E900C30C
:10173000A4F808A0A4F80AA0A2815822A4F80EB028
:101740002682A4F812B0B6E0C4E9001CA4F808A0F0
:101750002E23A4F80AA01722A381D226E2811627FD
:10176000268218226782A6E0C4E90067142121813D
:101770006081A023A4F80C804FF00C0CE18123823F
:10178000A4F812C060E0C4E9002198E0C4E9006751
:1017900095E0C4E90021A4F80C800A2323821022DA
:1017A0002381E3816382608185E0A5F52043023BCC
:1017B0004FF0500315D0A5F52048B8F1030820D00C
:1017C000A5F52042043A2ED0A5F5204005383DD09D
:1017D000A5F5204006384AD0A5F5204007385AD054
:1017E0006DE0C4E900212026268130272782A381CD
:1017F0004FF00E08A4F80A901622A4F80E8060821A
:1018000059E0C4E9002E20262681A38130272782B3
:101810004FF0070CA4F80AC04FF00C08A4F80E8093
:101820001722608247E0C4E9006E4FF0880CA4F8EC
:1018300008C018222282A023A381A4F80A904FF0A6
:101840001D08A4F80E806082122234E04FF4547612
:10185000C4E9006C70202081A08110272782172204
:10186000A4F80AB0E2812F22A4F8129023E0C4E980
:101870000017802626814FF0580CA4F80CC02820B1
:1018800020824FF00408A4F80A801722E281024661
:10189000A4F812A00FE04FF42073C4E9003C6027C5
:1018A0002781A4F810B03826A68102206081292261
:1018B000E2813E226082A0210520FFF7D7FC364F4F
:1018C00000262168A5F580526C37DFF8D080183AE1
:1018D0004FF00203A7F58A70314D398062687A8033
:1018E000304FE361C8F80070C0E900568660C660FA
:1018F000066101D1DB06036123895D1E45616589AF
:101900006F1E40F8187FA7893B445F1E4760E78938
:101910003D44A5F1010CC0F808C0A2F1010CAC4493
:101920004F1E1F44C0E9037C278A39441944491ECD
:101930004161618A11442944491E81618677467755
:1019400006771548A83801F077FC0720CDE9006933
:10195000CDE90206D8F80010FF2302220020FFF78D
:1019600023FDA0880022114680B20090208883B217
:101970001046FFF761FD0120FFF78CFC0A480122A9
:101980002021267501F0EDFB04B04FF0FF30BDE8DB
:10199000F05FFFF75BBC00004408002458020024FD
:1019A00000100050000000C000040258034900234A
:1019B0004FF48072A1F1380003F0E7BA5409002413
:1019C00002490022024803F021BB0000610200240A
:1019D0001C09002402490022A1F1240003F03ABBB3
:1019E00040090024F0B58BB00DF1140C00248DF8E3
:1019F00000104FF070658DF801204FF080468DF893
:101A000002300194B7158DF803408CE870008DF812
:101A100020000D4809970068C16801F0800161F459
:101A20002071C16008480022694603F041FB08B1FB
:101A300000F03BFF03220421292001F055FD29205D
:101A400001F045FD0BB0F0BD1C09002408B58DF870
:101A500003008DF8011069468DF80220002203482A
:101A60008DF8003003F006FC08BD00001C090024BE
:101A700010B586B08DF800000020089C8DF801108C
:101A800069468DF8022002460390049003480193B2
:101A90008DF8034003F05CFC06B010BD1C09002467
:101AA0002DE9F04116460F46FEF786FD104C002545
:101AB000E06006E00F483246394600F03DFB6D1C01
:101AC000ADB2A068B0FBF6F0A842F3D8FEF774FD03
:101AD00020614FF47A72D4E9021401FB02F3021B75
:101AE0000548B3FBF2F3BDE8F04106F0C9BA0000C7
:101AF00004030024C00B002408EF00082DE9F8437C
:101B000016468846FEF758FD1A4D32464146E860B3
:101B1000194800F011FBFEF74FFD286117A006F0F1
:101B2000AFFA154F002412E0395D1EA006F0A8FAA6
:101B3000E043C00604D004F01F000F2802D004E0E8
:101B40001AA000E01AA006F09BFA641CA4B2B442EA
:101B5000EAD34FF47A70D5E903127043531A324630
:101B6000B0FBF3F041460090124806F089FABDE858
:101B7000F883000004030024C00B0024577269742A
:101B80006520466C61736820737563636573732C9D
:101B9000546865206461746173206172653A0D0A4E
:101BA0000000000020253032580000000D0A00001F
:101BB000202D200060EF000810B500F0D3FAA0F54A
:101BC0006F401A49133806284FF480522BD2DFE8B1
:101BD00000F003090F151B214FF480108860144892
:101BE0008A801CE04FF40010886012488A8016E05A
:101BF0004FF48000886010488A8010E04FF40000A5
:101C000088600E488A800AE04FF0807088600C4837
:101C10008A8004E04FF0007088600A488A80BDE83E
:101C2000104006F02DBA08A0F9E7000004030024D4
:101C3000CCEC000828ED0008E8ED0008A8EE00084C
:101C400048EE000888ED0008556E6B6E6F772046F1
:101C50006C6173682C20506C6561736520636865E6
:101C6000636B2074686520464C415348210D0A007F
:101C7000F0B5144800220823114F87B04FF0400CF4
:101C800002210126C0E90072C0E902638E0210251C
:101C90000561CF01CD02C0E90726C0E9095206243B
:101CA000C0E905C78DE81A00CDE903410591069109
:101CB000694603F0E7FB034800F006F807B0F0BD03
:101CC00040410052A4090024002301221846114675
:101CD00010B500F021F84FF4FA70FEF7C3FB0023B3
:101CE00001221846022100F017F8002308221846A6
:101CF000032100F011F80122042100204FF40873A1
:101D000000F00AF8BDE81040024840F2A52103F0B7
:101D100055BC0000A40900241FB54FF0000410B109
:101D2000012802D002E0102400E008240748CDE991
:101D300002234FF6FF72CDE90014694603F050FC10
:101D4000002800D0012004B010BD0000A409002428
:101D50000146014803F018BEC02B0024044810B50A
:101D600003F024FE042801D0012010BD002010BD86
:101D7000C02B00240D4800214FF4804310B50A4CBD
:101D80000422C0E90041C0E90213C0E9041203F0D3
:101D900029FE08B1012010BD044904487C3103F03C
:101DA000F3FD002010BD000000700052C02B002485
:101DB00038B50C4C012383F3108813460A460146BC
:101DC0000948009403F08AFE054602E0641E00D232
:101DD0000125FFF7C3FF0028F8D180F310882846BB
:101DE00038BD000000E1F505C02B002438B50C4CCF
:101DF000012383F3108813460A46014609480094DC
:101E000003F02CFF054602E0641E00D20125FFF717
:101E1000A5FF0028F8D180F31088284638BD0000BF
:101E200000E1F505C02B002410B500FB02F4491EAB
:101E30008AB2401E9FED111B082B4FF080410FD03E
:101E40000C2B0CD100EE104AC862B8EE400B20EE0D
:101E5000010B0A85BCEEC00B10EE100A086410BD21
:101E600000EE104AC862B8EE400B20EE010B0A8566
:101E7000BCEEC00B10EE100AC86310BD7B14AE4759
:101E8000E17A843F70B586B01D48694603F024FCB2
:101E90001B487C30FFF75CFF194C7C34206810B184
:101EA00001280AD12AE0606810B1012802D004E0BC
:101EB00014A000E018A006F0E3F8D4E90601A0FBA6
:101EC00001569DF8001019A006F0DAF8E1681EA08E
:101ED00006F0D6F8A16920A006F0D2F8E16924A0A6
:101EE00006F0CEF8290D41EA063127A006F0C8F821
:101EF00061692BA006F0C4F806B070BD2EA0DAE729
:101F0000C02B00244361726420547970653A5344B5
:101F100053432056310D0A00436172642054797096
:101F2000653A534453432056320D0A0043617264AC
:101F3000204D616E75666163747572657249443ACD
:101F400025640D0A00000000436172642052434181
:101F50003A25640D0A0000004C6F67696320426CEB
:101F60006F636B4E62723A2564200D0A0000000018
:101F70004C6F67696320426C6F636B53697A653A93
:101F80002564200D0A0000004361726420436170E3
:101F900061636974793A2564204D420D0A0000009E
:101FA0004361726420426C6F636B53697A653A25B2
:101FB000640D0A0D0A0000004361726420547970B8
:101FC000653A534448430D0A000000000EB500F086
:101FD0008DF900F017F9002000904FF4407302468D
:101FE000014601900290C720FFF724FBBDE80E4098
:101FF00000F008B93EB5044601460BA006F040F8D3
:10200000240300F073F900F0FDF84FF44051002272
:1020100088108DE80700831021462020FFF70AFB77
:10202000BDE83E4000F0EEB845726173652074680B
:102030006520536563746F7220696E3A25780D0AC6
:10204000000000007FB5FFF7BFFA00F055F800F080
:1020500089F81C4C014660801BA006F011F86088CE
:10206000A0F56F41183902D0012004B070BD0320E3
:1020700000F09CF800248DF80C00C0074FF4407568
:102080000AD100F033F900222B46B7201146009404
:1020900001940294FFF7CEFA00F028F94FF0407057
:1020A000009400222B461146CDE90140C020FFF7E5
:1020B000C1FA30208DF80C00012103A8FFF7D6FAF1
:1020C0000020D2E704030024546865204944206FAF
:1020D000662074686520573235515858206D6F75E9
:1020E0006E746564206F6E20626F61726420697324
:1020F0003A25780D0A0000003EB5022000F056F89F
:102100000446800706D400F0F1F8022044F00201F2
:1021100000F03CF9002000904FF480730246014625
:10212000019002903820FFF785FA024901200870DB
:102130003EBD0000040300243EB5154604464FF49E
:102140004052901083038DE80D00831008220B206D
:10215000FFF770FA03B029462046BDE83040FFF78C
:1021600057BA00001FB510494FF40050097829B143
:102170004FF44062910302910B1404E04FF480622B
:10218000910302910B14CDE900200022902011460A
:10219000FFF750FA022103A8FFF73AFABDF80C0046
:1021A00004B040BA10BD0000040300241FB5002194
:1021B00001288DF80C1003D0022803D0032803D087
:1021C000052002E0352000E015200D4A127822B1EA
:1021D0004FF040720091131403E04FF080720091B1
:1021E0001314CDE9011200221146FFF723FA012151
:1021F00003A8FFF70DFA9DF80C0004B010BD000015
:102200000403002410B50120FFF7D0FFC007FAD166
:1022100010BD00002DE9F05FC1F30B06DFF89880D8
:102220000F0B8246C6F58054154624A0894605F05A
:1022300027FFA54200D82C46404639034FF4805270
:102240008B46FFF779FF002006E0321818F80210DD
:10225000FF2903D1401C80B2A042F6D3A04224D271
:102260003846FFF7C7FE002007E000BF83191AF8C1
:102270000020401C80B208F80320A042F6D34FF49F
:10228000805259464FEA080000F046F8A54210D0A7
:10229000291B4FF000068DB27F1C4FF48050854201
:1022A000A244A144C7D90446C6E72246494650463F
:1022B000EAE7BDE8F09F0000C01B00245772697474
:1022C0006520616464726573733A25582C4E756D90
:1022D000626572206F6620627974657320746F2066
:1022E00077726974653A25580D0A000009480EB5E1
:1022F0000178002000900190029011B14FF44073DA
:1023000001E04FF48073002206201146FFF792F996
:102310000EBD0000040300242DE9F04107460E46DF
:10232000C8B21546C0F58074A24200D814464FF4D6
:10233000807822463146384600F00EF8A54209D092
:10234000291B8DB245452744264401D94446F0E770
:102350002C46EEE7BDE8F081FEB516460C46054674
:10236000FFF7C4FF4FF44051881082038DE8070047
:102370008310214600220220FFF75CF931462846EF
:10238000FFF774F9BDE8FE40FFF73CBF03B5012835
:1023900083B004D002280BD003280BD001200E49B3
:1023A0000A78002142B14FF040720091131407E007
:1023B0003120F4E71120F2E74FF0807200911314FE
:1023C000CDE9011200221146FFF734F9012104A8DA
:1023D000FFF74CF905B000BD0403002470B51C4A9A
:1023E000002102E04C1C5054A1B29942FAD3FEF7EE
:1023F000E3F8184D0024E86011E000BF04FB02F18F
:102400001348FFF7A9FF14A005F03AFE6006B0F1EB
:102410007E4F02D111A005F033FE641CA4B2AA883D
:10242000A868B0FBF2F0A042E8D8FEF7C5F8286132
:102430004FF47A72D5E9021401FB02F3021B08483B
:10244000B3FBF2F3BDE87040890A05F019BE000045
:10245000C00B0024040300242E0000000D0A00001D
:1024600084F00008F8B5002014460D46104902E03B
:10247000421C085490B2A042FAD3FEF79DF80D4ECC
:1024800022462946F0600A48FFF7C4FEFEF794F89A
:102490004FF47A713061F2686143831A2246B1FBCE
:1024A000F3F029460090044805F0EAFDF8BD00006D
:1024B000C00B002404030024B8EF0008F8B5002086
:1024C00014460D46104902E0421C085490B2A04246
:1024D000FAD3FEF771F80D4E22462946F0600A48FD
:1024E000FFF71AFFFEF768F84FF47A713061F2686F
:1024F0006143831A2246B1FBF3F029460090044859
:1025000005F0BEFDF8BD0000C00B0024040300244C
:102510001CF00008034603480A461946006806F006
:1025200075B90000809C072430B504460848074D63
:1025300050F8241005EB84008A00006A002100F0A6
:102540007BF82919012081F8380030BD18030024D8
:10255000E4E100082DE9F0411E4E04460F46301913
:10256000002590F8380010B93168204688474FF0B0
:10257000FF326FB3184B53F82410B7FBF1FCB7FBD5
:10258000F1F001FB1C7101B1401C1349183951F8DD
:102590002410491E1CD406EB8406376A57F821C064
:1025A000BCF1000F04D0002585420FD1002206E0C7
:1025B0006D1CF9E7356A8F18521C45F827008242D6
:1025C000F8D353F824004843BDE8F081491EE5D50F
:1025D0001046F9E718030024FCE1000810B50C4C84
:1025E00000220C4B114603EB800354F8200005E059
:1025F0001C6A54F8214004B1521C491C8842F7D887
:102600004FF47A714A43B2FBF0F080B210BD000083
:10261000E4E100081803002410B50446FFF79AFF10
:10262000411C05D0034901EB84018968084410BDB1
:10263000002010BD1803002402E000BF00F8011BB9
:10264000521EFBD27047FEE7F0B5BFF34F8FBFF3CA
:102650006F8F1D4900200860BFF34F8FBFF36F8F4E
:102660001A4B196841F400311960BFF34F8FBFF363
:102670006F8F164970310860BFF34F8F081F43F604
:10268000FF740068104D1035C0F34E31C0F3C9021D
:1026900004EA4116104600BF46EA80772F60401ECC
:1026A000FAD2491EF4D2BFF34F8F186840F480303D
:1026B0001860BFF34F8FBFF36F8F03484C30016832
:1026C00041F004010160F0BD50EF00E014ED00E0C6
:1026D0001FB5FFF7B9FF00F057FD04F0A1FF002080
:1026E000FDF7BAFF0120FDF7B7FF0220FDF7B4FFA9
:1026F0000320FDF7B1FF0420FDF7AEFF0520FDF735
:10270000ABFF4FF4E130FEF70BF84FF4C870FDF764
:10271000EBFF474840688047FFF7AAFA0020FFF721
:1027200003FF0120FFF700FF0420FFF7FDFEFEF787
:102730004BFFFFF787FCFFF71DFBFDF70BFF0121A8
:102740003CA0FFF7E7FEFEF7A3FF00F081F93A4C4B
:1027500018253A494FF47840DFF8E4B04FF4487A4E
:1027600004F1280904F1500804F17807086004F125
:10277000A0061F20FDF7F4FF03AA02A92DA0FDF774
:1027800029FF02992FA005F07BFC039937A005F0E3
:1027900077FC00F01DF920205246CDE900042821E5
:1027A00003460A20FEF750FC1823524650210A2007
:1027B000CDE90059FEF748FC1823524678210A203B
:1027C000CDE90058FEF740FC18235246A0210A200C
:1027D000CDE90057FEF738FC18235246C8210A20DD
:1027E000CDE90056FEF730FC29481823F021524667
:1027F000CDE900500A20FEF727FC182352460A2094
:10280000CDE9005B4FF48C71FEF71EFC21481823C4
:102810004FF4A0715246CDE900500A20FEF714FC97
:102820004FF47A70FDF706FEFFF72CFBA1E70000DE
:1028300034010024303A00007C03002450020024BC
:10284000E8080024546865205344204361726420E2
:10285000546F74616C2053697A652061726520251C
:1028600064204B4221200D0A0000000054686520BE
:102870005344204361726420467265652053697A2F
:102880006520617265202564204B4221200D0A00DD
:10289000C008002410090024704700000148806827
:1028A00000F0E0B94404002470470120FEF74CFC1E
:1028B0000220FEF775FCF8E7F0B5D1E90125D1E972
:1028C0000343D1E905762A43D1F800C044EA030462
:1028D000D1E9073542EA0402496A42EA0702BCF13B
:1028E000010F42EA060208D004681A432A430A4349
:1028F000E30BDB031A4302600BE0066844682B43DA
:1029000026F4F84529430B4303606FF30E0422437A
:1029100042600020F0BD426942EA4101416100206D
:10292000704738B591E81C00C9686FF01F051A435D
:1029300005EB441444EA41210A430092026100205D
:1029400038BD00002DE9F043914691E81C006FF07E
:102950000F05521E2E0105EB03131A430B7E06EBE7
:1029600004268C8A2F034FEA054C0D8A32434FF020
:102970007F4808EB0366CB68B9F1010F07EB05450B
:102980000CEB04540CD081683F1107EB03331A435E
:102990002A432243324301F070410A43826011E02E
:1029A0008168DFF828C0C7681B03A3F58053234361
:1029B0002A4301EA0C0132430B43836007F0704461
:1029C0002243C2600020BDE8F0830000FF0F0FFF2C
:1029D00038B5FEF7FFFFFEF7F3FFFEF7E7FF0D4800
:1029E000817800910CA143780278803805F058FB7B
:1029F0000E4C0FA1A078009006486378E278583812
:102A000005F04EFB227810A10248BDE8384030386E
:102A100005F046BB4009002454696D653A25303203
:102A2000643A253032643A25303264006102002471
:102A3000446174653A3230253032642D2530326479
:102A40002D253032640000005765656B3A2564001F
:102A5000F8B51F4A111D081D16680D6804681DA1F0
:102A6000244805F01DFB234823A12830074605F024
:102A700017FB204829A12B462246503000960646D7
:102A800005F00EFB1B484FF080722AA178300546F6
:102A900005F006FB2C482DA182881648A03004467C
:102AA00005F0FEFA13492DA005F0EAFA2BA03946ED
:102AB00005F0E6FA29A0314605F0E2FA27A02946FA
:102AC00005F0DEFA2146BDE8F84024A005F0D8BAAA
:102AD00000E8F11F424F415244204E414D45203AFB
:102AE0002053544D3332483720434F5245424F41D3
:102AF000524400007C030024435055204E414D4574
:102B0000203A2053544D3332483734334949313613
:102B1000204C5146503137360000000043505520BC
:102B20004944203A2025303858202530385820256F
:102B3000303858004253502056455253494F4E208A
:102B40003A20253038580000B00800244C43442077
:102B50004944203A20253034580000002573200DC8
:102B60000A0000007047704770B5044600680425ED
:102B70000168890411D5416B89040ED5257122693C
:102B8000E90242F00102226141632068016821F4F8
:102B9000805101602046FFF7E6FF20680168890048
:102BA00014D5416B890011D5257122694FF0005170
:102BB00042F00202226141632068016821F08051E5
:102BC00001602046BDE87040FFF7CCBF70BD00003B
:102BD00010B528B190F83510022903D08021416545
:102BE000012010BD1D4A4FF4956301688C189C426A
:102BF00007D8042280F83520086820F0010008601A
:102C000029E00C6824F00E040C6001680A440A688C
:102C100022F001020A60016E0122114B0C6824F4BB
:102C200080740C6090F85C1002FA01F11960D0E930
:102C300019134B60C16E31B10B6823F480730B60C4
:102C4000D0E91C134B600023016D80F8343080F80C
:102C5000352001B18847002010BD0000F0FFFDBF06
:102C6000045402582DE9F84FAB4A00274FF416538D
:102C7000044600974FF49569DFF898821668082299
:102C8000A56DB6FBF3FB00682E6800EB080CCC4585
:102C90004FF0010A78D894F85C3002FA03F131421F
:102CA0000FD0016811F0040F0BD0016821F004016E
:102CB000016094F85C008240AA60606D40F0010001
:102CC000606594F85C109548884030420DD02168CA
:102CD00001EB08024A452CD8496911F0800F04D055
:102CE000A860606D40F0020060658C4894F85C104C
:102CF000C01C884030420DD0216801EB08024A45D3
:102D000019D8096811F0020F04D0A860606D40F076
:102D10000400606594F85C1010208840304224D094
:102D2000216801EB08024A45096806D801F008014C
:102D300005E00868D9E70868ECE701F00401A1B1F3
:102D4000A86020680168490304D50068000308D51D
:102D5000A16C07E00168C90503D4016821F00801EE
:102D60000160216C09B12046884794F85C1020204E
:102D7000884030423AD0216801EB08024A45096890
:102D800003D801F0100102E065E001F0020169B32F
:102D9000A86094F8350004282068016806D049032B
:102DA00042D5006800031DD4616C1CE021F01601BF
:102DB00001602068416921F080014161206C08B9FF
:102DC000A06C20B12068016821F00801016094F82E
:102DD0005C203F219140A96084F8347084F835A0CC
:102DE000216D31E0E16B09B120468847606D002814
:102DF00074D0606DC00726D02068042184F8351097
:102E0000016821F00101016020680099491C0091CE
:102E1000594502D80168C907F7D184F834700068B1
:102E2000C0070DD003200CE00168C905DAD40268A0
:102E300022F01002026084F8347084F835A0D1E7E3
:102E4000504684F83500E16C002960D001B020467E
:102E5000BDE8F04F0847324901448C2957D8314D1D
:102E60000423E66D291DD5F800C003FA06F81CEA14
:102E7000080F13D0D0F800C05FEA4C7C0ED5026872
:102E8000920603D4026822F00402026094F85C20E7
:102E90000868934018430860216CD5E7D5F800C056
:102EA000022303FA06F81CEA080F18D0D0F800C075
:102EB0005FEA8C7C13D50268920607D4056825F07A
:102EC0000A05056084F8347084F835A094F85C2015
:102ED0000868934018430860E16BB5E717E02B687A
:102EE000B240134213D00268120710D5026822F0D4
:102EF0000E02026094F85C3050460A680AFA03F346
:102F00001A430A60C4F854A084F8347099E7BDE805
:102F1000F88F0000F0FFFDBF640300240100800073
:102F2000F8ABFDA70054025870B5044600F01EF936
:102F30000546601C02D004480078044400F016F9ED
:102F4000401BA042FAD370BD6C0300240248016804
:102F500041F0010101607047200400582DE9F84F4D
:102F60006F4D00224FF001094FF0030E4FF00F0B91
:102F70000B6809FA02F803EA0803434574D14C6868
:102F8000022C01D0122C0FD1D4080E69570700EB88
:102F90008404A246246AFF0E0BFA07FCBE4024EA12
:102FA0000C042643CAF820600F79540006680EFA14
:102FB00004FC07F0030726EA0C06A7403743076026
:102FC0004E68012E05D0022E03D0112E01D0122EF4
:102FD0000FD18668CF6826EA0C06A7403743876082
:102FE00046680F7926EA0806C7F30017974037436B
:102FF0004760C7688E6827EA0C07A6403E43C66054
:103000004C68E40030D5474C266846F0020626603E
:10301000246822F0030606F1B04604F0020400948E
:103020009407270FD6F80844DFF8FC800BFA07FC5A
:10303000404524EA0C0402D14FF0000C41E0DFF8D7
:10304000ECC0604502D14FF0010C3AE0DFF8E0C07F
:10305000604502D14FF0020C33E0DFF8D8C0604584
:1030600003D14FF0030C2CE053E0DFF8CCC06045F7
:1030700002D14FF0040C24E0DFF8C0C0604502D15B
:103080004FF0050C1DE0DFF8B8C0604502D14FF0ED
:10309000060C16E0DFF8ACC0604502D14FF0070C1B
:1030A0000FE0DFF8A4C0604502D14FF0080C08E043
:1030B000DFF898C0604502D14FF0090C01E04FF0F5
:1030C0000A0C0CFA07FC4CEA040CC6F808C42C687D
:1030D0004E6824EA0304F60300D51C432C606C6898
:1030E0004E6824EA0304B60300D51C436C604FF01D
:1030F000B0444F682668FF0226EA030600D51E4347
:1031000026604F686668BF0226EA030600D51E43A4
:103110006660521C102AFFF42BAFBDE8F88F000048
:1031200080000058F444025800000258000402587D
:1031300000080258000C02580010025800140258EF
:1031400000180258001C025800200258002402589F
:103150000069084000D00120704742694A4042613E
:1031600070470AB101837047418370470148806806
:10317000704700006C030024024881680278114403
:10318000816070476C030024032010B500F0CCF977
:103190000F2000F007F808B1012010BD00F096F9EB
:1031A000002010BD70B50D4D04464FF47A700C4AE6
:1031B00029781268B0FBF1F0B2FBF0F002F02EFEBD
:1031C00048B9102C07D200222146501E00F08CF97D
:1031D00000206C6070BD012070BD00006C030024F5
:1031E000640300242DE9F041044690F8A00016463F
:1031F0000F4601281DD0012584F8A050022084F834
:10320000A10006EB860000EBC600342204EB800030
:103210003830FDF78EF832463946204603F0C6F9BD
:10322000216800204D6284F8A15084F8A000BDE818
:10323000F0810220FBE700002DE9F041040004D0FA
:1032400094F8A100002518B107E00120BDE8F08145
:10325000204684F8A05000F06BF83448022184F82E
:10326000A110012202CC8B6923F070438B6194E89A
:103270004A001943E3681E4354F8043D31439E69F4
:103280003143996121688B6803408B602168A68A6D
:10329000A7698B683B4343EA06438B602168CB6890
:1032A0000340CB602168A38B276ACE683E4346EA81
:1032B0000346CE6021680B6903400B612368A68C2E
:1032C000A76A1969394341EA0641196121684B69C6
:1032D00003404B612068A38D266B4169314341EA6D
:1032E00003414161236894F8351094F83600DE6A92
:1032F000000406F07F46DE62236840EA012094F86D
:103300003460D96A31430143D9622068416B41F08E
:10331000060141632068816941F001018161C4F8BF
:10332000A45084F8A120002090E7000000F800F0ED
:10333000364810B586B0016841F0080101600068A8
:1033400000F00800059031481038016841F0100184
:103350000160006800F0100005902C48001F016813
:1033600041F002010160016801F00201059101686C
:1033700041F020010160016801F020010591016820
:1033800041F040010160016801F0400105910168D0
:1033900041F080010160016801F080010591016840
:1033A00041F48071016000680324202100F48070E2
:1033B00005900120CDE90204CDE9001014486946CA
:1033C000FFF7CCFD022100220E2304934FF480600E
:1033D0008DE817000F486946FFF7C0FD4FF40C60F9
:1033E00000900D486946FFF7B9FD4FF47E4000900C
:1033F0000A486946FFF7B2FD40F2F76000900848BE
:103400006946FFF7ABFD06B010BD0000E44402586A
:10341000000402580014025800180258001C0258F8
:103420000020025870B5044690F8A0000E4601280E
:1034300020D003EB830000EBC301012584F8A050EA
:10344000022084F8A10004EB81018E63086E3044F1
:10345000C1E90F02486E1044486438311A462046CC
:1034600003F0A4F8216800204D6284F8A15084F88C
:10347000A00070BD022070BD70B5044690F8A00099
:103480000E46012820D003EB830000EBC301012589
:1034900084F8A050022084F8A10004EB8101886B1D
:1034A0003044C863086C10444864C1E9186238317C
:1034B0001A46204603F07AF8216800204D6284F80D
:1034C000A15084F8A00070BD022070BD7047002894
:1034D00009DB410900F01F028900012001F1E02110
:1034E0009040C1F8000170470E4BF0B41B680D46C8
:1034F000C3F30223C3F10706042E00D90426191DC5
:10350000072901D2002300E0DB1E012404FA06F1A2
:103510009C40491E2940641E994014402143F0BC40
:1035200004F0D2BD0CED00E0064900F0070210B532
:103530004FF6FF040868044B204040EA022018437D
:10354000086010BD0CED00E00000FA052DE9F84F11
:1035500017468B460446FFF709FE824694F8400062
:1035600001280ED001264FF0000884F8406094F83E
:103570004100012807D0022584F840802846BDE894
:10358000F88F0220FBE74FF00209C4F8448084F86A
:1035900041900022202153462046009703F046FA2E
:1035A0000500E9D100225946204603F025F9DBF851
:1035B000240058B90122534602212046009703F007
:1035C00035FA0500D8D12168C1F80C9084F8416023
:1035D000D2E700002DE9F84F0446FFF7C7FD064685
:1035E00064B194F8400001280BD000254FF0010A87
:1035F00084F840A094F8410028B10CE00120BDE817
:10360000F88F0220FBE784F84050204600F05AF87B
:1036100041F28830A06421684FF47062A06892FA89
:10362000A2F30A68401EB3FA83F322F47062984052
:1036300002430A60A06C00222021334600902046FD
:1036400003F0F4F9B0BB23684FF07F42666892FA4A
:10365000A2F7E168D4E907C299461B68B7FA87F870
:10366000164F41EA0C0106FA08F6324311434FF4B3
:10367000F8123B4092FAA2F21943C9F80010B2FACC
:1036800082FC2268D4E904310D4FA669D2F8048087
:1036900003FA0CF308EA0708314348EA030841EA51
:1036A0000801516021680A6842F001030B606564FB
:1036B00084F841A084F84050A1E700002FFFFF00EC
:1036C000FEF8E0FF214830B587B0016841F4804141
:1036D0000160006800F4804005901C480C300168CF
:1036E00041F002010160016801F0020105910168E9
:1036F00041F020010160006803240221144D00F014
:1037000020000590402001220A2304938DE8170031
:1037100069462846FFF722FC0021CDE90214200269
:103720000C4C694600902046FFF718FC04200090DE
:103730000921284604916946FFF710FCC02069461C
:1037400000902046FFF70AFC07B030BDD444025871
:1037500000040258001402582DE9F84F15460E4691
:103760000446FFF703FD82462068816994F84030E3
:1037700000F12009012B0DD001274FF0000884F83B
:10378000407094F84120012A06D0022084F840803D
:10379000BDE8F88F0220FBE7C4F844809EB32222E4
:1037A00084F841200269521CA2630269521C6263C0
:1037B0002663426922F0406242F0806242612068E2
:1037C00081610DE00621204603F030F9C0B999F877
:1037D0000020206B411C21630270A06B401EA0637F
:1037E000A06B53464FF0010200950028EAD14FF03C
:1037F0000201204603F01AF910B922680221D160B3
:1038000084F84170C2E7FFE7616C012041F00801D4
:103810006164BBE72DE9F84F15460E460446FFF7F5
:10382000A5FC94F8401082462068012900F1200987
:103830000ED001274FF0000884F8407094F8411032
:10384000012907D05FF0020084F84080BDE8F88FBE
:103850000220FBE7C4F844807EB3122184F84110B3
:103860000169491CE1620169491CA1626662416902
:1038700021F0406141610DE00421204603F0D6F8BB
:10388000C0B9606A411C6162017889F80010E06A81
:10389000401EE062E06A53464FF0010200950028A6
:1038A000EAD14FF00201204603F0C0F810B92268B7
:1038B0000221D16084F84170C6E7FFE7616C012006
:1038C00041F008016164BFE710B500F04BFF084903
:1038D0004FF480730A6893FAA3F3064902F4706206
:1038E000B3FA83F3DA40044B9A5CD040086010BD11
:1038F00018440258640300242CE2000810B500F0BC
:10390000EBFE07491022096892FAA2F201F0700159
:10391000B2FA82F2D140034A515CC84010BD0000A7
:10392000204402582CE20008424A30B5414D141D93
:1039300013681435DFED400A1268291FB7EE001A2C
:1039400024682D6813F0030304F01004C2F3053259
:10395000C5F3CC0515FB04F400EE104AB8EE400A9E
:1039600005D0364C012B5DD0022B5BD159E0314C98
:10397000334B283C2568AD0615D525680C68C5F382
:10398000C105C4F30804EB4001EE904AB3FBF2F228
:10399000F8EE611A40EE201A00EE102A71EE810A4C
:1039A000B8EE400A10E00C68B3FBF2F2C4F308046E
:1039B00001EE904AB8EE612A01EE902A00EE202A2C
:1039C000B8EE610A72EE010A0A6820EE200AC2F31C
:1039D0004622521C00EE902AF8EE600A80EE201A71
:1039E000FCEEC10AC0ED000A0A68C2F30642521C8E
:1039F00000EE902AF8EE600A80EE201AFCEEC10A72
:103A0000C0ED010A0968C1F30661491C00EE901A75
:103A1000F8EE600A80EE201ABCEEC10A80ED020AC0
:103A200030BD084C0B68B4FBF2F2C3F3080301EE9F
:103A3000903ABFE7284402580000003900093D00D1
:103A40000090D00340787D01424A30B5414D141DAD
:103A500013681C35DFED400A1268291FB7EE001A03
:103A600024682D6813F0030304F48074C2F3055234
:103A7000C5F3CC0515FB04F400EE104AB8EE400A7D
:103A800005D0364C012B5DD0022B5BD159E0314C77
:103A9000334B283C2568AD0615D525680C68C5F361
:103AA000C105C4F30804EB4001EE904AB3FBF2F207
:103AB000F8EE611A40EE201A00EE102A71EE810A2B
:103AC000B8EE400A10E00C68B3FBF2F2C4F308044D
:103AD00001EE904AB8EE612A01EE902A00EE202A0B
:103AE000B8EE610A72EE010A0A6820EE200AC2F3FB
:103AF0004622521C00EE902AF8EE600A80EE201A50
:103B0000FCEEC10AC0ED000A0A68C2F30642521C6C
:103B100000EE902AF8EE600A80EE201AFCEEC10A50
:103B2000C0ED010A0968C1F30661491C00EE901A54
:103B3000F8EE600A80EE201ABCEEC10A80ED020A9F
:103B400030BD084C0B68B4FBF2F2C3F3080301EE7E
:103B5000903ABFE7284402580000003900093D00B0
:103B60000090D00340787D012DE9FC5F0446FE4DB6
:103B700050F8241B0026DFF8F49337460090080124
:103B800023D5606E50B1B0F5801F0CD0B0F5001F8A
:103B900011D0B0F5401F23D0012615E0286840F46D
:103BA000003028601CE0286840F400102860201DC8
:103BB00002F060FF06E0286840F0807028600098FE
:103BC00002F0C2FF06000BD037462088C00529D579
:103BD000606D052824D2DFE800F00C1119212100C6
:103BE000626ED9F8001021F440111143C9F8001099
:103BF000EBE7286840F4003028600FE0286840F4C4
:103C000000202860201D02F035FF06E0286840F4FF
:103C100080002860009802F097FF06466EB100E031
:103C200001263743208880052ED5A06D802821D01D
:103C30000CDC90B140280ED114E0626DD9F8001070
:103C400021F007011143C9F80010EBE7C02819D093
:103C5000B0F5807F16D0012615E0286840F40030CA
:103C600028600FE0286840F400202860201D02F042
:103C700001FF06E0286840F480002860009802F008
:103C800063FF064696B137432088DFF8E08240059F
:103C900008F1080832D5D4F8A400B0F5800F23D07D
:103CA0000DDCA0B1B0F5001F0FD115E0A26DD9F861
:103CB000001021F4E0711143C9F80010E4E7B0F5F9
:103CC000C00F19D0B0F5000F16D0012615E02868F6
:103CD00040F4003028600FE0286840F4002028609D
:103CE000201D02F0C7FE06E0286840F4800028602E
:103CF000009802F029FF064676B137432088000578
:103D000033D5D4F8A800B0F1007F24D00EDCA8B1E0
:103D1000B0F1807F10D116E0D4F8A420D8F80010BC
:103D200021F460011143C8F80010E7E7B0F1407FCB
:103D300019D0B0F1806F16D0012615E0286840F444
:103D4000003028600FE0286840F400202860201D23
:103D500002F090FE06E0286840F480002860009899
:103D600002F0F2FE06466EB137432068800122D58C
:103D7000A06CF0B110280FD0202812D0302818D015
:103D8000012617E0D4F8A820D8F8001021F0E0614F
:103D90001143C8F80010E8E7286840F400302860B4
:103DA00007E0286840F400102860201D02F062FE41
:103DB00006466EB137432088C00431D5E06DB0F5BA
:103DC000005F23D00DDCA0B1B0F5805F0FD115E00E
:103DD0006648A26C001F016821F0300111430160A8
:103DE000E9E7B0F5405F19D0B0F5804F16D0012655
:103DF00015E0286840F4003028600FE0286840F49F
:103E000000202860201D02F035FE06E0286840F4FE
:103E100080002860009802F097FE064686B137437E
:103E2000208880042FD5206EB0F5403F29D010DCCB
:103E300038B3B0F5803F14D0B0F5003F0FD118E093
:103E4000E26DD9F8001021F4E0411143C9F80010E7
:103E5000E6E7B0F5802F14D0B0F5A02F11D00126E1
:103E600010E0286840F480102860201D02F002FE57
:103E700006E0286840F400002860009802F064FE24
:103E800006468EB137432088400430D5D4F8AC00C4
:103E9000B0F1405F29D010DC38B3B0F1805F14D0AE
:103EA000B0F1005F0FD118E0226ED9F8001021F4B4
:103EB000E0211143C9F80010E5E7B0F1804F14D0BC
:103EC000B0F1A04F11D0012610E0286840F4801016
:103ED0002860201D02F0CEFD06E0286840F40000B6
:103EE0002860009802F030FE06466EB13743208805
:103EF000000422D5E06EF0B1B0F1805F0ED0B0F1D9
:103F0000005F10D0012617E0D4F8AC20D8F80010DC
:103F100021F0E0411143C8F80010E8E7286840F4B8
:103F20000030286007E0286840F480102860201DD9
:103F300002F0A0FD06466EB137432068C00126D5C9
:103F4000606C10B3012813D0022816D003281CD0AF
:103F500001261BE0E26ED9F8001021F04051114318
:103F6000C9F80010E9E700002C44025850440258F8
:103F7000286840F40030286007E0286840F400100A
:103F80002860201D02F076FD064676B13743206892
:103F9000DFF8F4B340021FD5FC48016841F480719A
:103FA0000160FFF7E3F8824610E0F748626C3C30AE
:103FB000016821F0030111430160E8E7FFF7D6F83B
:103FC000A0EB0A00642801D9032604E0EF4800684A
:103FD000C005F3D58EB137432078DFF8ACA3C00716
:103FE0000AF1440A78D0A06F182873D05CDCC8B3FB
:103FF00008285FD010285BD164E0DFF88CA3B4F808
:10400000B0100AF1600ADAF8000001F4407100F41F
:104010004070884211D0DAF80010DAF8002021F45C
:10402000407142F48032CAF80020DAF8002022F40D
:104030008032CAF80020CAF80010D4F8B000B0F5F9
:10404000807F14D1FFF792F801900CE0FFF78EF813
:104050000199411A41F28830814204D9032647F080
:104060000307B9E736E0DAF800008007EED5D4F8A8
:10407000B010C1F30120032858460DD0016821F487
:104080007C510160B4F8B020DAF80010C2F30B02E2
:104090001143CAF800109FE7BD4A036802EA1112F3
:1040A00023F47C511143ECE7202813D0282811D0A9
:1040B000012610E0286840F480102860201D02F0DE
:1040C000D9FC06E0286840F400002860009802F05F
:1040D0003BFD06465EB137432078800724D5606FEC
:1040E00006281FD2DFE800F01C0C141C1C1CA26F59
:1040F000DAF8001021F038011143CAF80010EBE79C
:10410000286840F480102860201D02F0B3FC06E00F
:10411000286840F400002860009802F015FD06466B
:1041200076B100E0012637432078400725D5D4F842
:10413000900006281FD2DFE800F01C0C141C1C1C89
:10414000626FDAF8001021F007011143CAF800107D
:10415000EAE7286840F480102860201D02F08AFCFD
:1041600006E0286840F400002860009802F0ECFCAB
:1041700006469EB100E0012637432078800631D5FF
:10418000D4F88C00B0F1405F2AD011DC40B3B0F11C
:10419000805F15D0B0F1005F10D119E0D4F8902005
:1041A000D8F8001021F007011143C8F80010E4E727
:1041B000B0F1804F14D0B0F1A04F11D0012610E023
:1041C000286840F400202860201D02F053FC06E01F
:1041D000286840F080702860009802F0B5FC064620
:1041E0008EB137432078400631D5D4F89800B0F529
:1041F000406F2AD011DC40B3B0F5806F15D0B0F518
:10420000006F10D119E0D4F88C20DAF8001021F0FA
:10421000E0411143CAF80010E4E7B0F5805F14D024
:10422000B0F5A05F11D0012610E0286840F400200E
:104230002860201D02F01EFC06E0286840F0807017
:104240002860009802F080FC06468EB13743207843
:10425000000631D5D4F89C00B0F5C04F2AD011DC4F
:1042600040B3B0F5005F15D0B0F5804F10D119E024
:10427000D4F89820D8F8001021F4E0511143C8F880
:104280000010E4E7B0F5004F14D0B0F5204F11D086
:10429000012610E0286840F400202860201D02F06C
:1042A000E9FB06E0286840F080702860009802F082
:1042B0004BFC064666B33743207800070BD5D4F88D
:1042C0008010B1F5805F2DD0DAF8002022F4405242
:1042D0000A43CAF800202078C0060BD5D4F8941001
:1042E000B1F5807F26D0D8F8002022F440720A432E
:1042F000C8F800202068000336D5D4F8A00008B321
:10430000B0F5803F26D0B0F5003F2BD001262AE043
:10431000D4F89C20D8F8001021F460411143C8F86B
:104320000010C9E7009802F00FFC286840F0807088
:104330002860D0E7009802F007FC286840F0807001
:104340002860D7E7286840F400202860201D02F08C
:1043500091FB06E0286840F080702860009802F029
:10436000F3FB0646B6B13743206840032BD5D4F89B
:104370008400B0F5801F17D0B0F5001F19D0B0F53C
:10438000401F1ED001261DE010440258004802586C
:10439000CFFFFF00D4F8A020D8F8001021F440315E
:1043A0001143C8F80010DFE7286840F400302860A7
:1043B00007E0286840F400002860009802F0C4FB81
:1043C000064656B137432068C0031FD5E06C70B174
:1043D000B0F5803F10D0012617E0D4F88420DAF839
:1043E000001021F440111143CAF80010EBE72868CF
:1043F00040F40030286007E0286840F4001028608E
:10440000201D02F037FB0646DEB1374320688000EE
:1044100007D5286840F080702860009802F094FB6F
:104420000743206880031AD5E06FB0B1B0F5807FF4
:104430000FD0B0F5007F10D0B0F5407F0DD0012631
:104440000CE02D48E26C016821F4803111430160D9
:10445000DCE7286840F400302860EEB3374320687A
:10446000C00207D5226FD9F8001021F00041114396
:10447000C9F800102068C00008D5D4F8B420DBF8D3
:10448000001021F480411143CBF800102068800215
:1044900007D5A26ED9F8001021F080711143C9F838
:1044A0000010206840000CD5DBF8001021F400411A
:1044B000CBF80010DBF80010D4F8B8201143CBF88B
:1044C00000102068002806DA0B48226D016821F0F0
:1044D00040511143016000E003E05FB10120BDE8FD
:1044E000FC9FE26FDAF8001021F440711143CAF822
:1044F0000010B4E70020F2E74C4402582DE9F047E1
:10450000DFF8C49104460E46D9F8000000F0070019
:10451000B0420CD2D9F8001021F007013143C9F89C
:104520000010D9F8000000F00700B04272D12078E6
:10453000DFF89881800707D5E268D8F8001021F0ED
:104540000F011143C8F800102078C00767D05F49F9
:10455000A368D8F80020183922F470621A43C8F80A
:104560000020606802281CD003281DD0096801289B
:104570001DD04907002963DA544D083D296821F010
:10458000070101432960FEF7F1FD6168074641F22A
:104590008830022914D0032920D0012982462AD04C
:1045A00039E009688903E5E709688901E2E7C90597
:1045B000E0E700BFFEF7DAFDC11B514501D926E057
:1045C00082462868C0F3C2000228F3D127E000BF6A
:1045D000FEF7CCFDC11B514501D918E08246286881
:1045E000C0F3C2000328F3D119E000BFFEF7BEFDFF
:1045F000C11B51450BD82868C0F3C2000128F5D172
:104600000DE000BFFEF7B2FDC11B514503D90320E9
:10461000BDE8F08714E0286810F0380FF2D1D9F81F
:104620000010484601F00701B1420BD9016821F0A2
:10463000070131430160006800F00700B04201D07B
:104640000120E5E72078400707D52269D8F8001057
:1046500021F070011143C8F8001021781B48001D9B
:10466000090705D56269016821F0700111430160F5
:104670002178C90605D5A269016821F4E0611143DA
:1046800001602078800607D51048E269083001688B
:1046900021F070011143016000F064F8D8F80010B7
:1046A0004FF4807292FAA2F201F47061B2FA82F2CF
:1046B000D140074A515CC840064908600F20FEF708
:1046C00071FD0020A4E700000020005218440258A9
:1046D0002CE200086403002410B5FFF7F5F8084940
:1046E00001230A6893FAA3F3064902F00F02B3FA12
:1046F00083F3DA40044B9A5CD040086010BD0000A0
:1047000018440258680300242CE2000810B5FFF793
:10471000E3FF07491022096892FAA2F201F0700142
:10472000B2FA82F2D140034A515CC84010BD000089
:104730001C4402582CE2000810B5FFF7CDFF0749D2
:104740004FF48072096892FAA2F201F4E061B2FAC1
:1047500082F2D140024A515CC84010BD1C4402584C
:104760002CE200084749F0B547480968454B103B23
:1047700011F0380409D00111082C04D0434A102C40
:104780000BD0182C0BD00846F0BD19688906FBD554
:104790001968C1F3C101C840F0BD1046F0BD394CE5
:1047A000DFF8E0C01834261D0CF1240C2768351DF5
:1047B0002468DFED370AB7EE001A3668DCF800C06F
:1047C00017F0030706F00106C4F30514CCF3CC0C74
:1047D0001CFB06F600EE106AB8EE400A09D0012F65
:1047E00001D0022F3BD02868B1FBF4F1C0F30800E0
:1047F0003AE01968890615D51A682968C2F3C1021A
:10480000C1F30801D04001EE901AB0FBF4F0F8EECD
:10481000611A40EE201A00EE100A71EE810AB8EE1D
:10482000400A0BE02968B0FBF4F0C1F3080101EE87
:10483000901AB8EE612A01EE900A1BE020EE200AE1
:104840002868C0F34620401C00EE900AF8EE600A8B
:1048500080EE201ABCEEC10A10EE100AF0BD2868E6
:10486000B2FBF4F1C0F3080001EE900AB8EE612A41
:1048700001EE901A00EE202AB8EE610A72EE010AEB
:10488000DCE70000104402580090D00340787D011E
:10489000000000392DE9F05FFD4C0546007841F23B
:1048A0008838DFF8EC93103CF94FC00709F118097C
:1048B0004CD03868C0F3C20002281AD03868C0F360
:1048C000C200032805D1D9F8000000F00300022837
:1048D0000FD06868B0F5803F12D010B1B0F5A02FAE
:1048E00018D0206820F480302060206820F48020D8
:1048F00009E02068800329D5686800286CD025E08D
:10490000206840F480302060686890B1FEF72EFC8B
:1049100006460AE0206840F480202060F0E700BFEF
:10492000FEF724FC811B414575D820688003F7D52C
:104930000CE0FEF71BFC064605E000BFFEF716FC88
:10494000811B4145F0D820688003F7D42878D04EE9
:104950000C3E800769D538684FF47C3B10F0380F67
:1049600013D03868C0F3C200032803D1D9F800007F
:1049700080070AD0E86870B3216821F0190101436B
:104980002160FEF7F3FB82462EE02068400702D547
:10499000E8680028B2D0E968206820F019000843D0
:1049A0002060FEF7E3FB824606E000BFFEF7DEFB79
:1049B000A0EB0A000228B7D820684007F6D529697D
:1049C00032689BFAABF0B0FA80F0814022F47C3080
:1049D0000843306029E016E0BEE000BFFEF7C6FBEA
:1049E000A0EB0A0002289FD820684007F6D5286966
:1049F00032689BFAABF1B1FA81F1884022F47C3144
:104A00000143316011E0206820F001002060FEF7D2
:104A1000ADFB824606E0EFE0FEF7A8FBA0EB0A0044
:104A200002288FD820684007F6D42878C00647D5DA
:104A300038684FF0F84BC0F3C200012815D0386831
:104A4000C0F3C200032805D1D9F8000000F003002C
:104A500001280AD0E8690028206822D040F08000B0
:104A60002060FEF783FB82460CE02068C0050CD571
:104A7000E869802870D108E0FEF778FBA0EB0A0017
:104A8000022898D82068C005F6D5286A32689BFAB3
:104A9000ABF1B1FA81F1884022F0F8410143316075
:104AA0000EE020F080002060FEF760FB064604E088
:104AB000FEF75CFB801B022895D82068C005F7D460
:104AC0002878000729D57248696964300029824630
:104AD000016811D041F001010160FEF747FB064675
:104AE00005E000BFFEF742FB801B022899D8DAF8E8
:104AF00000008007F6D510E021F001010160FEF70B
:104B000035FB064605E000BFFEF730FB801B0228A0
:104B100072D8DAF800008007F6D42878800625D508
:104B2000A8690028206810D040F480502060FEF76B
:104B30001DFB064605E000BFFEF718FB801B0228A0
:104B40005AD820688004F7D510E020F48050206007
:104B5000FEF70CFB064606E0D4E000BFFEF706FBBE
:104B6000801B022848D820688004F7D428784007A2
:104B70004DD5DFF820A1DAF8001041F48071CAF8B1
:104B80000010FEF7F3FA064605E000BFFEF7EEFA66
:104B9000801B642830D8DAF80000C005F6D53C4EFA
:104BA000A868603601280AD008B1052811D03068FD
:104BB00020F001003060306820F0040002E030682E
:104BC00040F001003060A86890B1FEF7CFFA82464D
:104BD0000AE0306840F004003060F0E7FEF7C6FA03
:104BE000A0EB0A01414507D830688007F6D50EE0F2
:104BF000FEF7BCFA824607E083E000BFFEF7B6FA94
:104C0000A0EB0A0141457CD830688007F6D4686A79
:104C1000E8B33968C1F3C201032973D002282068C0
:104C200020F08070206003D0FEF7A0FA054683E0F4
:104C3000FEF79CFA064604E0FEF798FA801B02286D
:104C400077D820688001F7D4EB6A40F2F332D9F8C4
:104C500000104FF4FE0755F8286F914341EA031105
:104C60003143C9F80010287B4FF0FE4C084EB5F8D0
:104C7000088040022B8A20362A7DA8F10108311DC8
:104C8000A0F5007080B25B1EC8F3080804E056E08F
:104C90001044025800480258521E07EA034340EAF3
:104CA00008000CEA02674FF6F87218433843306088
:104CB0000B6892FAA2F72E6AB7FA87F72248934355
:104CC000BE4033430B600168AA6921F00C01114317
:104CD00001600168EA6921F0020111430160016885
:104CE00041F480310160016841F4003101600168E4
:104CF00041F480210160016841F0010101602068F8
:104D000001E016E01DE040F080702060FEF72EFA12
:104D1000054604E0FEF72AFA401B022809D820685D
:104D20008001F7D50BE000BFFEF720FA401B0228F8
:104D300002D90320BDE8F09F20688001F4D4002050
:104D4000F8E70120F6E700002C4402587047000005
:104D50002DE9F04106460068DFF8A4E0002715467B
:104D60000C4640224FF63F7C016B002B406B01EA62
:104D70000E0100EA0C00C1F30543237002EA114260
:104D8000C1F3062C84F801C001F07F01A170E2702C
:104D900000F03F023368C0F30421C0F342309B6B44
:104DA0006360EF706970AA70287017D1207801F0E5
:104DB0003BFF2070607801F037FF6070A07801F051
:104DC00033FFA070687801F02FFF6870A87801F0B9
:104DD0002BFFA870287801F027FF28703068C16881
:104DE00001F08001A1F500318139C1603068C168EE
:104DF00001F0800161F40861C1600020BDE8F0812C
:104E00007F7F7F0008480168CA6802F0800262F470
:104E10000252CA600068016C21F001010164016C5A
:104E200021F00101016470471C090024704770479C
:104E30004FF0B04110B504464FF48020C1F888000F
:104E40002068816809040CD5C068000509D5204692
:104E500000F048F82068C16801F0800161F4086141
:104E6000C16020681C4A016C11420CD0C0688004EB
:104E700009D52046FFF7C6FF2068C16801F0800110
:104E800061F40251C1602068144A016C11420CD0D7
:104E9000C068400409D52046FFF7C8FF2068C168F4
:104EA00001F0800161F48141C16020680C4A016C0D
:104EB00011420DD0C06800040AD52046FFF7B7FFA5
:104EC0002068C16801F08001A1F500418139C1600D
:104ED000012084F8210010BD040001000400080036
:104EE0000400400004490023024AA1F12400FFF716
:104EF0002FBF0000610200244009002470474FF0DA
:104F0000B04110B504464FF40020C1F88800206875
:104F1000C168490508D5C16801F0800161F490615C
:104F2000C1602046FFF7EAFF012084F8210010BD90
:104F300070474FF0B04110B504464FF40030C1F84F
:104F4000880020688168C9040BD5C168C90508D5E7
:104F5000C16801F0800161F4C071C1602046FFF7B3
:104F6000E7FF2068816889040BD5C168890508D5E9
:104F7000C16801F0800161F42071C1602046FFF733
:104F8000E5FE012084F8210010BDF0B50C464FF479
:104F900080718A4204D161620068C169406C05E099
:104FA0004FF4007161620068016A806C402701F073
:104FB0007F06C1F30625C0F30E02C1F30540207041
:104FC000657007EA1147A670C1F3056CE77001F040
:104FD000804E626001F0803184F820C0C4F81CE08B
:104FE000616183B901F020FE2070607801F01CFE41
:104FF0006070A07801F018FEA07094F8200001F015
:1050000013FE84F820000020F0BD000010B50B4610
:1050100001680F48002A496801EA000101F03F04D5
:105020004FEA1140D870C1F304225A709C70C1F34A
:10503000423119700AD101F0F7FDD870587801F0AB
:10504000F3FD5870987801F0EFFD9870002010BDC6
:105050003FFFFF0030B50B460168144D4024002A85
:10506000896A596001680969C1F30E019960006895
:10507000016801EA050104EA1142C1F30540187014
:10508000C1F306245C7001F07F019970DA700AD1D7
:1050900001F0CAFD1870587801F0C6FD5870987874
:1050A00001F0C2FD9870002030BD00007F7F7F00BE
:1050B0002DE9F05F044690F820000B46012851D0FE
:1050C0000221012084F8200084F821104FF000060E
:1050D000206880684FEA4060F2B3002863DA1878ED
:1050E00001F0A2FD93F8200001F09EFD597893F89D
:1050F00000C0DA789878090293F8205040EA0C4012
:10510000DF6941EA0241D3F814C0084340EA05656B
:105110003D4345EA0C052268D3F818C0CA215F68F0
:1051200053204FF0FF0851624FF47A7A216847EA22
:105130000C074FF0030B4862586AB0F5807F206877
:10514000816832D021F4007181602068C16801F06B
:10515000800161F4207100E007E0C160FEF706F80D
:1051600081465EE00220BDE8F09F002800DBDE7093
:10517000187801F062FD0204587801F05EFD42EA01
:105180000022987801F059FDD978024393F8200065
:1051900042EA014201F051FDD96942EA00655869CD
:1051A0000D430543B7E7DE709CE721F48071816011
:1051B0002068C16801F0800161F4C071C160FDF731
:1051C000D5FF81460CE000BFFDF7D0FFA0EB090042
:1051D000504505D92268C2F8248084F821B01CE02B
:1051E0002068C068C007EFD02068C56120684764A8
:1051F0002068816841F4807181602068816841F491
:1052000080511FE0FDF7B2FFA0EB0900504508D91F
:105210002268C2F8248084F821B0032084F820603A
:10522000A1E72068C0688007ECD520680562206887
:1052300087642068816841F400718160206881681A
:1052400041F4005181604FF0B040D0F8803001222D
:1052500043F40033C0F88030036843F40033036044
:105260002068C0F8248084F82120002084F8206081
:1052700079E700002DE9F047044690F820000B463E
:10528000012828D04FF0010984F82090022184F8E9
:105290002110587812B301F0C7FC987801F0C4FCD3
:1052A00059789878DA781B78090240EA024541EA91
:1052B000433005432268CA21532051622168486265
:1052C000204601F0C5FC4FF000064FF0FF074FF0FD
:1052D000040858BB19E00220BDE8F087C10603D5D9
:1052E00000F0EF000A305870D87801F0A6FC0204F4
:1052F000587801F0A2FC42EA0022987801F09DFC67
:105300001978024342EA4135D4E721680F48054045
:105310004D602068C16821F08001C160206880680C
:1053200080060BD4204600F091F838B121684F6216
:1053300084F82180012084F82060CDE721684F6245
:1053400084F82190002084F82060C5E73FFFFF002B
:105350002DE9F047044690F820000D46012813D0AF
:105360004FF0010A84F820A0022184F8211020685F
:105370004FF0000680684FEA406042B100281ADA18
:10538000287801F051FC17E00220BDE8F0870028E2
:1053900000DBEE70287801F050FC0204687801F020
:1053A0004CFC42EA0022A87801F047FCE97802436D
:1053B00042EA01470AE0EE7069782A78A878EB782B
:1053C000090240EA024741EA034007432268CA2132
:1053D0005320516221684862204601F039FC4FF0A9
:1053E000FF084FF00409E0B92168174807400F6033
:1053F0002068816821F4802181602068D5E903124A
:1054000083681143194381602068C16821F08001DD
:10541000C1602068806880060CD4204600F016F831
:1054200040B12268C2F8248084F82190012084F8D9
:105430002060AAE72268C2F8248084F821A0002016
:1054400084F82060A1E700007F7F7F0070B50446EC
:105450000068C16821F0A001C160FDF787FE4FF42C
:105460007A76054607E000BFFDF780FE401BB0429C
:1054700001D9032070BD2068C0688006F4D50020E3
:1054800070BD000070B504000D4603D094F82C00E8
:1054900010B107E0012070BD002084F82D002046E7
:1054A00000F018F8022084F82C002068211DFDF778
:1054B00003FAD4E900022946FDF744FA0448012121
:1054C000026842F00042026084F82C10002070BD97
:1054D00000400052334810B586B0016841F0020127
:1054E0000160006800F0020005902E482038016835
:1054F00041F480510160006800F480500590294813
:105500001438016841F004010160016801F00401F0
:105510000591016841F008010160016801F008018E
:105520000591016841F010010160016801F010016E
:105530000591016841F020010160016801F020013E
:105540000591016841F040010160006802210122DB
:1055500000F0400005900D2003230C248DE81F006F
:1055600011486946FDF7FAFC4CF2037000900F48B1
:105570006946FDF7F3FC4FF6837000900C486946CE
:10558000FDF7ECFC4FF63F0000900A486946FDF736
:10559000E5FC48F23710009007486946FDF7DEFC4D
:1055A00006B010BDF444025800080258000C02581E
:1055B00000100258001402580018025810B5044692
:1055C00090F82C00022809D0022084F82C002068D2
:1055D000FDF7A1F9012084F82C00002010BD000087
:1055E00070B5044690F82C000D4602280DD002201C
:1055F00084F82C002068FDF794F92868022805D06B
:105600005FF0010084F82C00002070BD0520F9E750
:105610002DE9FC4104460D46816B032084F83000DF
:1056200003293ED0B5F5004F3BD0B5F5804F05D0EE
:1056300045B1606B40F00060606327E0204601F0F8
:1056400089FF20E00026009601963146206801F08F
:105650002BFE800102D54FF4006014E0694620461D
:1056600001F05CFE78B90198C0030BD5B4F8441082
:105670002068090401F010FB28B92068002101F01E
:1056800055FB00B93046616B01436163606B0126D5
:1056900058B121680F48886384F830600120BDE864
:1056A000FC81606B40F08050C6E7D4E90470D4E917
:1056B00001122B46042804D2A56DB5F5007F00D059
:1056C0000420CDE90070206801F0F4FD84F830601A
:1056D0000020E4E7FF05200030B550F86C2F0123CF
:1056E0004FF6FF74120E0A700268120C04EA0222CE
:1056F0004A804A880488C4F3072422434A800278F7
:1057000012064A604C684268120E44EA02424A603D
:105710004C684268C2F3074244EA02224A604C687D
:105720008288C2F3072214434C6002790A728268AD
:10573000120E4A728268120C1206CA60CC68028984
:10574000C2F3072244EA0242CA60CC68027A44EA01
:105750000222CA60CC68C26844EA1264CC600C7C45
:10576000C268C2F30742150912072C430C74120DCC
:105770004A824A8A8489C4F3072422434A82007BEE
:10578000400808754B75002030BD0000F0B5C26DB3
:10579000120E93090B70C2F3830402F003024C70E3
:1057A0008A70C26D120CCA70B0F85C20120A0A71BD
:1057B00090F85C204A714FF6FF73026E120E03EAF6
:1057C0000212CA80CB88026EC2F307421409234337
:1057D000CB8002F00F020A72B0F860200025C2F3FD
:1057E0000722D3094B72C2F38014C2F34016C2F3EE
:1057F00000178C72CE720F734D730123846B4FF4BC
:10580000007664B1012C45D002685E499163416B1A
:1058100041F08051416380F830300120F0BD9207A3
:10582000120D0A610C6990F8602044EA82020A6154
:105830000C69426E120E9709C2F3C20C3C430C6114
:1058400002F0070281F814C04A75426EC2F30742A3
:10585000940757098F75640FC2F38202CA750C76DC
:105860000A7EB0F86440C4F3072442EAD4120A76F0
:105870000A69521C82640F7EBF1CBA4082640F7A90
:1058800003FA07F7C7644FEA572C02FB0CF2C0E992
:1058900014261CE090F860209206920A0A610C69B6
:1058A000426E120E44EA02220A610C69426EC2F391
:1058B000074214430C610A69B0F86440521C4FEA75
:1058C00082228264C4F30724C0E913624665C4F3EC
:1058D00080124FEA84644A764FEA54648C7690F8DA
:1058E00064208C7E4FEAD21602F07F0244EA06045E
:1058F0008C76CA7650F8682F4FEA12624FEAD214BB
:105900000C77C2F34116C2F382074FEA82724E77D8
:105910008F774FEA1272CA77CC7F0268C2F30742D0
:1059200044EA9214CC77C2F3401602F0010281F8E7
:10593000206081F8215081F822200288C2F30722DA
:105940004FEAD21481F82340C2F38015C2F3401607
:10595000C2F30017C2F3810C02F0030281F8245055
:1059600081F8256081F8267081F827C081F8282009
:1059700000784FEA500081F8290081F82A304FF072
:105980000000F0BDFF052000826B0A60C26B4A6018
:10599000026C8A60426CCA60826C0A61C26C4A61A5
:1059A000026D8A61406DC8610020704770B5B0F823
:1059B0004410002504460068090401F0C1FA18B13A
:1059C000616B0143616304E02068002101F06CFC1D
:1059D00005462168024AC5F343208A6370BD000072
:1059E000FF05200070B5040004D094F830000025B5
:1059F00010B105E0012070BD2046257600F036F894
:105A0000032084F83000204600F00FF80128F2D07F
:105A1000E1682046FFF7FCFD0128ECD0012065631A
:105A2000E56284F83000002070BD7CB50446FA20A1
:105A300000210B460A46CDE90010206801F03AFC2F
:105A4000206801F047FC204601F03AFD4FF00105C7
:105A500020B9204601F0CEFC002805D084F8305053
:105A6000616B0143616301207CBD0000184810B5E3
:105A700086B0016841F480310160006800F4803034
:105A8000059013480C30016841F004010160016881
:105A900001F004010591016841F00801016000680E
:105AA0000221012200F00800059003230C244FF48A
:105AB000F8508DE81F0007486946FDF74FFA0420AB
:105AC000009005486946FDF749FA06B010BD000090
:105AD000D444025800080258000C02582DE9F04F37
