:020000040800F2
:10000000A034002071030008D13C0008CB36000862
:10001000393C00085D080008195400080000000081
:10002000000000000000000000000000AD02000819
:10003000C90800080000000009030008DD440008AA
:100040008B0300088B0300088B0300088B03000858
:100050008B0300088B0300088B0300088B03000848
:100060008B0300088B0300088B0300088B03000838
:100070008B0300088B0300088B0300088B03000828
:100080008B0300088B0300088B0300088B03000818
:100090008B0300088B0300088B0300088B03000808
:1000A0008B0300088B0300088B0300088B030008F8
:1000B0008B0300088B0300088B0300088B030008E8
:1000C0008B0300088B0300088B0300088B030008D8
:1000D0008B0300086D5300088B0300088B03000896
:1000E0008B0300088B030008000000008B0300084E
:1000F0008B0300088B0300088B0300088B030008A8
:100100008B0300088B0300088B0300088B03000897
:100110008B0300088B0300088B0300088B03000887
:100120008B0300088B0300088B0300088B03000877
:100130008B0300088B0300088B0300088B03000867
:1001400000000000000000000000000000000000AF
:100150008B0300088B0300088B0300088B03000847
:100160008B0300088B0300088B0300088B03000837
:100170008B0300088B0300088B03000800000000BD
:100180008B0300088B0300088B0300088B03000817
:100190008B0300088B0300088B0300088B03000807
:1001A0008B0300088B0300088B0300088B030008F7
:1001B0008B0300088B0300088B0300088B030008E7
:1001C0008B0300088B0300088B0300088B030008D7
:1001D0008B0300088B0300088B0300088B030008C7
:1001E0008B0300088B0300088B0300088B030008B7
:1001F0008B0300088B0300088B0300088B030008A7
:100200008B0300088B0300088B0300088B03000896
:100210008B0300088B0300088B0300088B03000886
:100220008B0300088B0300088B030008000000000C
:100230008B0300088B030008000000008B030008FC
:100240008B0300088B0300088B0300088B03000856
:100250008B0300088B0300088B0300088B03000846
:100260008B0300088B0300088B0300088B03000836
:100270008B0300088B0300088B03000800000000BC
:100280008B030008000000008B0300080000000042
:10029000000000008B030008DFF80CD000F0EEF83F
:1002A00000480047DD570008A03400202D4B196896
:1002B0000868B0E8F04F80F30988BFF36F8F4FF004
:1002C000000080F3118870470000000008480068B3
:1002D000006880F308884FF0000080F3148862B64D
:1002E00061B6BFF34F8FBFF36F8F00DF00BF00BF5A
:1002F00008ED00E0DFF80C00016841F470010160D6
:10030000704700BF88ED00E0EFF30980BFF36F8F07
:10031000144B1A681EF0100F08BF20ED108A20E958
:10032000F04F106009B44FF0100072B680F31188DE
:10033000BFF34F8FBFF36F8F62B605F07FFE4FF0B4
:10034000000080F3118809BC19680868B0E8F04F14
:100350001EF0100F08BFB0EC108A80F30988BFF3BD
:100360006F8F70473C000020EFF30580704700005E
:100370000648804706480047FEE7FEE7FEE7FEE73F
:10038000FEE7FEE7FEE7FEE7FEE7FEE705460008BC
:10039000990200082DE9F05F0546002092469B4631
:1003A00088460646814640241BE02846414647468B
:1003B000224600F053F853465A46C01A914110D3D2
:1003C00011461846224600F03AF82D1A67EB01084C
:1003D0004F4622460120002100F031F817EB0009BA
:1003E0004E41201EA4F10104DFDC484631462A4676
:1003F0004346BDE8F09F40EA01039B0703D009E0B4
:1004000008C9121F08C0042AFAD203E011F8013B00
:1004100000F8013B521EF9D27047D2B201E000F859
:10042000012B491EFBD270470022F6E710B5134698
:100430000A4604461946FFF7F0FF204610BD202A61
:1004400004DB203A00FA02F1002070479140C2F12B
:10045000200320FA03F3194390407047202A04DB5D
:10046000203A21FA02F00021704721FA02F3D0402D
:10047000C2F120029140084319467047064C074DCF
:1004800006E0E06840F0010394E807009847103464
:10049000AC42F6D3FFF704FF6466000884660008E8
:1004A0001CB51648052100234FF40072CDE9001059
:1004B00013A1164805F09CFE1548062100234FF4B1
:1004C0000072CDE9001013A1154805F091FE154802
:1004D000072100234FF40072CDE9001012A1154846
:1004E00005F086FE14480A2100234FF40072CDE97E
:1004F000001012A1144805F07BFE1CBD0000002076
:10050000765461736B55736572494600D560000877
:1005100004000020765461736B4C454400000000D9
:10052000615F000808000020765461736B4D7367AB
:1005300050726F00715F00080C00002076546173E8
:100540006B53746172740000835F000830B587B02C
:100550000546062D64D2DFE805F003132333435329
:100560003C4C00BF3C48006840F004003A49086039
:100570000846006800F00400019000BF00BF50E092
:10058000364C00BF3448006840F0800032490860B3
:100590000846006800F08000019000BF00BF40E006
:1005A0002E4C00BF2C48006840F080002A490860AB
:1005B0000846006800F08000019000BF00BF30E0F6
:1005C000274C00BF2448006840F00800224908601A
:1005D0000846006800F00800019000BF00BF20E05E
:1005E0001F4C00BF1C48006840F008001A49086012
:1005F0000846006800F00800019000BF00BF10E04E
:10060000174C00BF1448006840F008001249086009
:100610000846006800F00800019000BF00BF00E03D
:1006200000BF00BF0F4850F8250002900120039042
:1006300004900320059002A9204600F077FA0948AB
:1006400030F8250081B20122204600F0A1FB07B05E
:1006500030BD000000080258E0440258001C025857
:10066000000C0258E064000810B504460C480D491F
:1006700008600846446000218160C16001618161B9
:100680000C21416102F090FE08B100F01EF9012238
:100690000549044802F0A7FF08B100F016F910BDA3
:1006A000001001409C0000201200002010B50446FC
:1006B000062C3AD2DFE804F0030C151E27301C4844
:1006C00030F8240081B201221A4800F061FB2DE0CD
:1006D000174830F8240081B20122174800F058FB77
:1006E00024E0134830F8240081B20122124800F0BF
:1006F0004FFB1BE00E4830F8240081B201220F4866
:1007000000F046FB12E00A4830F8240081B20122D2
:100710000A4800F03DFB09E0054830F8240081B2AA
:100720000122064800F034FB00E000BF00BF10BD0E
:10073000E064000800080258001C0258000C02582F
:1007400010B50446062C3AD2DFE804F0030C151E5F
:1007500027301C4830F8240081B200221A4800F0EB
:1007600017FB2DE0174830F8240081B2002217480B
:1007700000F00EFB24E0134830F8240081B2002280
:10078000124800F005FB1BE00E4830F8240081B24F
:1007900000220F4800F0FCFA12E00A4830F824006A
:1007A00081B200220A4800F0F3FA09E0054830F867
:1007B000240081B20022064800F0EAFA00E000BFFF
:1007C00000BF10BDE064000800080258001C025879
:1007D000000C025810B50446062C34D2DFE804F0B1
:1007E000030B131B232B194830F8240081B218483F
:1007F00000F0CAFA28E0154830F8240081B2154804
:1008000000F0C2FA20E0114830F8240081B211480B
:1008100000F0BAFA18E00D4830F8240081B20E4812
:1008200000F0B2FA10E0094830F8240081B20A481A
:1008300000F0AAFA08E0054830F8240081B2064822
:1008400000F0A2FA00E000BF00BF10BDE0640008A5
:1008500000080258001C0258000C025800BFFEE7B6
:1008600010B503F07BFD03F02BFD0348006840F05A
:1008700004000149086010BD9CEF00E010B50024A1
:10088000FFF7EEFF00F090FA03F044FE0020FFF7C0
:100890005DFE0120FFF75AFE0220FFF757FE0320FE
:1008A000FFF754FE0420FFF751FE0520FFF74EFE30
:1008B0000120FFF745FF4FF4E130FFF7D5FE03F0CD
:1008C0008BFD03F0FFFA10BD704705E00120FFF734
:1008D000EDFE0220FFF734FFF8E730B502460023B3
:1008E00000240868012816D013686FF30E03D1E9BD
:1008F00001052843CD6828430D6928434D692843E5
:100900008D692843CD6928430D6A28434D6A2843E1
:100910000343136019E0136823F4F843D1E9070592
:1009200028434D6A2843034354686FF30E04D1E90A
:1009300001052843CD6828430D6928434D692843A4
:100940008D692843044313605460002030BD024683
:10095000506940EA410050610020704718B50346D5
:1009600000200090D1E9000420438C68641E40EA16
:100970004410CC6840EA44200090009818610020A0
:1009800018BD000070B50346154600220024012D55
:100990001FD09A6802F070420868401E4E68761EAA
:1009A00040EA06168868401E46EA0026C868401ECF
:1009B00046EA0036088A401E46EA0046888A401EFB
:1009C00046EA0056087E401E46EA006002439A60EE
:1009D00022E09A6811480240C868401E0603888ACF
:1009E000401E46EA00500243DC6804F07044086888
:1009F000401E4E68761E40EA06168868401E46EA8B
:100A00000026088A401E46EA0046087E401E46EA46
:100A1000006004439A60DC60002070BDFF0F0FFF90
:100A200010B504460CB9012010BD94F83500022819
:100A300003D0802060650120F6E7344920688842B1
:100A400005D333492068884201D8012000E0002006
:100A5000C0B1042084F835002C49206888420AD3AC
:100A60002B492068884206D82068006820F00100E1
:100A70002168086048E02068006820F001002168D3
:100A8000086041E02068006820F00E0021680860DE
:100A90001E49206888420AD31D492068884206D82A
:100AA0002068006820F001002168086005E02068E7
:100AB000006820F0010021680860206E006820F4C2
:100AC0008070216E086094F85C1001208840114904
:100AD0000860D4E919104860E06E40B1E06E00682B
:100AE00020F48070E16E0860D4E91C10486000BFFB
:100AF000002084F8340000BF012084F83500206D08
:100B000010B12046216D884700208DE7100002407B
:100B1000B8040240045402580348006840F0010041
:100B2000014908607047000020040058F8B50246EB
:100B30000B460021002600240020824D00BFFCE06F
:100B4000012707FA01F61F6807EA0604B4427CD1C0
:100B50005F68022F02D05F68122F1AD14FEAD10CC2
:100B600002F1200757F82C004F074FEAD76C0F27E8
:100B700007FA0CF7B8434FEA417C4FEADC6C1F6977
:100B800007FA0CF738434FEAD10C02F1200747F877
:100B90002C0010684FEA410C032707FA0CF7B84302
:100BA0001F7907F003074FEA410C07FA0CF73843A7
:100BB00010605F68012F08D05F68022F05D05F6862
:100BC000112F02D05F68122F17D190684FEA410CA5
:100BD000032707FA0CF7B8434FEA410CDF6807FA1E
:100BE0000CF738439060506801278F40B8431F7955
:100BF000C7F300178F4038435060D0684FEA410C6C
:100C0000032707FA0CF7B8434FEA410C9F6807FA2D
:100C10000CF73843D0605F6807F08057B7F1805F0A
:100C200095D100BF484F3F6847F00207DFF818C171
:100C3000CCF8007067463F6807F00207009700BFD6
:100C400000BF424F4FEA910C00E075E057F82C00CE
:100C50008F074FEA177C0F2707FA0CF7B8433C4F72
:100C6000BA4201D100272DE03A4FBA4201D1012703
:100C700028E0394FBA4201D1022723E0374FBA4268
:100C800001D103271EE0364FBA4201D1042719E0F3
:100C9000344FBA4201D1052714E0334FBA4201D193
:100CA00006270FE0314FBA4201D107270AE0304F43
:100CB000BA4201D1082705E02E4FBA4201D10927D7
:100CC00000E00A274FEA817C4FEA1C7C07FA0CF708
:100CD00038431E4F4FEA910C47F82C002868A04378
:100CE0005F6807F48037B7F5803F00D12043286064
:100CF0006868A0435F6807F40037B7F5003F00D18C
:100D0000204368604FF0B0473868A0435F6807F43D
:100D10008017B7F5801F00D120434FF0B0473860EF
:100D20007868A0435F6807F40017B7F5001F00D18B
:100D300020434FF0B0477860491C1029FFF400AF02
:100D4000F8BD000080000058F44402580804005820
:100D5000000002580004025800080258000C025813
:100D6000001002580014025800180258001C0258C3
:100D70000020025800240258024613690B400BB1B0
:100D8000012000E00020704742694A4042617047FC
:100D90000AB1018300E04183704700000148006808
:100DA000704700003000002010B5032000F04CFA1E
:100DB0000F2000F007F808B1012010BD00F0F4F991
:100DC0000020FAE770B504460E4800784FF47A71B7
:100DD000B1FBF0F00C490968B1FBF0F5284602F0D0
:100DE000E8F908B1012070BD102C07D2002221467D
:100DF000501E00F0EAF90548046001E00120F2E726
:100E00000020F0E7380000202800002034000020F7
:100E100070B504460E46154600BF94F8A0000128A0
:100E200001D1022070BD012084F8A00000BF022083
:100E300084F8A10005EB850101EBC50204F138013E
:100E400001EB820034223146FFF7D5FA2A463146BB
:100E5000204602F0E7FD01202168486284F8A100E5
:100E600000BF002084F8A00000BF00BFDAE7000048
:100E700070B50446002500260CB9012070BD94F819
:100E8000A10028B9002084F8A000204600F07EF8D8
:100E9000022084F8A1002068806920F07040216859
:100EA0008861D4E901010843E168084321690843E6
:100EB000216889690843216888612068806832490F
:100EC000084021688860A08A050420688068A169BC
:100ED00029430843216888602068C0682A4908407F
:100EE0002168C860A08B05042068C068216A294376
:100EF00008432168C86020680069234908402168C8
:100F00000861A08C050420680069A16A2943084390
:100F100021680861206840691B49084021684861D0
:100F2000A08D050420684069216B2943084321688E
:100F3000486194F83500050294F8360006042068EC
:100F4000C06A00F07F402168C86246EA050094F854
:100F5000341008432168C96A08432168C8622068C0
:100F6000406B40F00600216848632068806940F0CB
:100F70000100216888610020C4F8A400012084F8E1
:100F8000A10000207AE7000000F800F010B586B05C
:100F9000044600BF4848006840F008004649086021
:100FA0000846006800F00800009000BF00BF00BFC6
:100FB00041481038006840F010003F49103908607F
:100FC0000846006800F01000009000BF00BF00BF9E
:100FD0003948001F006840F002003749091F0860C7
:100FE0000846006800F00200009000BF00BF00BF8C
:100FF0000846006840F0200008600846006800F0DD
:101000002000009000BF00BF00BF0846006840F00D
:10101000400008600846006800F04000009000BFF3
:1010200000BF00BF0846006840F080000860084626
:10103000006800F08000009000BF00BF00BF0846BD
:10104000006840F4807008600846006800F4807012
:10105000009000BF00BF202001900120029003906B
:101060000320049001A91548FFF760FD4FF480604C
:1010700001900220029000200390032004900E2093
:10108000059001A90E48FFF751FD4FF40C60019047
:1010900001A90C48FFF74AFD4FF47E40019001A9D9
:1010A0000948FFF743FD40F2F760019001A90748A6
:1010B000FFF73CFD06B010BDE4440258000402589E
:1010C0000014025800180258001C02580020025850
:1010D0002DE9F04104460E461746984600BF94F8A5
:1010E000A000012802D10220BDE8F081012084F88F
:1010F000A00000BF022084F8A10008EB880000EBEC
:10110000C80104F1380000EB81052E60A86A304464
:101110006860AF60E86A3844E86042462946204685
:1011200002F080FC01202168486284F8A10000BF21
:10113000002084F8A00000BF00BFD5E72DE9F041F2
:1011400004460E461746984600BF94F8A0000128B2
:1011500002D10220BDE8F081012084F8A00000BF88
:10116000022084F8A10008EB880000EBC80104F11C
:10117000380000EB8105286830446860A86838446E
:10118000E860AE62EF6242462946204602F04AFC21
:1011900001202168486284F8A10000BF002084F883
:1011A000A00000BF00BFD5E77047014608460028F1
:1011B00009DB00F01F0301229A4043099B0003F161
:1011C000E023C3F8002100BF70472DE9F05F80469F
:1011D0000D461646002704F031F9074639462A46DF
:1011E000334601F00700C0F1070ABAF1040F02D933
:1011F0004FF0040A01E0C0F1070AD14600F1040AE9
:10120000BAF1070F02D24FF0000A01E0A0F1030A81
:10121000D4464FF0010A0AFA09FAAAF1010A0AEAC9
:10122000020A0AFA0CFA4FF0010B0BFA0CFBABF1B5
:10123000010B0BEA030B4AEA0B042146404604F07B
:1012400005F9BDE8F09F000000BF00F00702064B63
:1012500019684FF6FF031940044B0B4343EA022180
:10126000014B196000BF70470CED00E00000FA056B
:1012700010B501F00FFA0949096801F470614FF4E3
:10128000807292FAA2F2B2FA82F2D140044A515C20
:10129000C840044908600846006810BD1844025858
:1012A000286500082800002010B501F0ABF90749B7
:1012B000096801F07001102292FAA2F2B2FA82F2E9
:1012C000D140034A515CC84010BD00002044025880
:1012D0002865000870B50146002201200023002483
:1012E0009FED811AB0EE410A9FED7F1AF0EE410AA0
:1012F0007E4D2D6805F003027C4D2D68C5F3053049
:101300007A4D2D1D2D6805F01003784D14352D688C
:10131000C5F3CC0515FB03F501EE105AB8EE411AE2
:10132000B0EE410A22B1012A4DD0022A7DD169E0F6
:101330006E4D283D2D68C5F340152DB36B4D283DEE
:101340002D68C5F3C1066A4D25FA06F4B4FBF0F525
:1013500001EE105AF8EE411A9FED661A80EE012A4E
:10136000624D10352D68C5F3080501EE105AB8EE30
:10137000411A32EE011AB7EE002A31EE021A21EEBE
:10138000811AF0EE410A1DE0594DB5FBF0F501EE72
:10139000105AF8EE411A9FED571A80EE012A534D6C
:1013A00010352D68C5F3080501EE105AB8EE411A44
:1013B00032EE011AB7EE002A31EE021A21EE811A3E
:1013C000F0EE410A5EE04C4DB5FBF0F501EE105A2F
:1013D000B8EE412A9FED471AC0EE011A434D103571
:1013E0002D68C5F3080501EE105AB8EE411A31EE2A
:1013F000811AF7EE001A31EE211A22EE011AF0EEF0
:10140000410A3FE03D4DB5FBF0F501EE105AF8EE14
:10141000411A9FED381A80EE012A344D10352D689F
:10142000C5F3080501EE105A00E00CE0B8EE411AD1
:1014300032EE011AB7EE002A31EE021A21EE811ABD
:10144000F0EE410A1EE02C4DB5FBF0F501EE105A0E
:10145000B8EE412A9FED271AC0EE011A234D103530
:101460002D68C5F3080501EE105AB8EE411A31EEA9
:10147000811AF7EE001A31EE211A22EE011AF0EE6F
:10148000410A00BF00BF194D10352D68C5F3462530
:101490006D1C01EE105AB8EE411AC0EE811ABCEE76
:1014A000E11A81ED001A114D10352D68C5F306457E
:1014B0006D1C01EE105AB8EE411AC0EE811ABCEE56
:1014C000E11A81ED011A094D10352D68C5F3066545
:1014D0006D1C01EE105AB8EE411AC0EE811ABCEE36
:1014E000E11A81ED021A70BD000000002844025884
:1014F0000090D0030000004600093D0000127A0071
:1015000070B5014600220120002300249FED811ABE
:10151000B0EE410A9FED7F1AF0EE410A7E4D2D6834
:1015200005F003027C4D2D68C5F305507A4D2D1D45
:101530002D6805F48073784D1C352D68C5F3CC05F6
:1015400015FB03F501EE105AB8EE411AB0EE410A50
:1015500022B1012A4DD0022A7DD169E06E4D283D8D
:101560002D68C5F340152DB36B4D283D2D68C5F38F
:10157000C1066A4D25FA06F4B4FBF0F501EE105AE7
:10158000F8EE411A9FED661A80EE012A624D183579
:101590002D68C5F3080501EE105AB8EE411A32EE77
:1015A000011AB7EE002A31EE021A21EE811AF0EE8E
:1015B000410A1DE0594DB5FBF0F501EE105AF8EE69
:1015C000411A9FED571A80EE012A534D18352D68A8
:1015D000C5F3080501EE105AB8EE411A32EE011AB1
:1015E000B7EE002A31EE021A21EE811AF0EE410A1E
:1015F0005EE04C4DB5FBF0F501EE105AB8EE412A15
:101600009FED471AC0EE011A434D18352D68C5F3FA
:10161000080501EE105AB8EE411A31EE811AF7EEC4
:10162000001A31EE211A22EE011AF0EE410A3FE0D3
:101630003D4DB5FBF0F501EE105AF8EE411A9FED65
:10164000381A80EE012A344D18352D68C5F3080587
:1016500001EE105A00E00CE0B8EE411A32EE011A29
:10166000B7EE002A31EE021A21EE811AF0EE410A9D
:101670001EE02C4DB5FBF0F501EE105AB8EE412AF4
:101680009FED271AC0EE011A234D18352D68C5F3BA
:10169000080501EE105AB8EE411A31EE811AF7EE44
:1016A000001A31EE211A22EE011AF0EE410A00BFB3
:1016B00000BF194D18352D68C5F346256D1C01EE88
:1016C000105AB8EE411AC0EE811ABCEEE11A81ED53
:1016D000001A114D18352D68C5F306456D1C01EE35
:1016E000105AB8EE411AC0EE811ABCEEE11A81ED33
:1016F000011A094D18352D68C5F306656D1C01EEFC
:10170000105AB8EE411AC0EE811ABCEEE11A81ED12
:10171000021A70BD00000000284402580090D00357
:101720000000004600093D0000127A002DE9F0415A
:1017300004464FF00008002700250026206800F02E
:10174000006000283AD0606E48B1B0F5801F0DD01F
:10175000B0F5001F15D0B0F5401F1FD11DE0FB48AC
:10176000006840F40030F949086019E0F748006863
:1017700040F40010F5490860201D02F0ABFA054660
:101780000EE0F248006840F08070F049086004F113
:10179000240002F01BFB054602E001E0012500BF2A
:1017A00000BF55B9E9482430006820F44010616E4C
:1017B0000843E6492431086000E02E43208800F405
:1017C0008070A8B3606D052824D2DFE800F0030A1A
:1017D00015212200DD48006840F40030DB49086034
:1017E0001AE0DA48006840F40020D8490860201D5B
:1017F00002F070FA05460FE0D448006840F480001B
:10180000D249086004F1240002F0E0FA054603E042
:1018100002E001E0012500BF00BF55B9CB482430EC
:10182000006820F00700616D0843C8492431086052
:1018300000E02E43208800F40070D8B3A06D80280B
:101840001CD003DC40B1402826D10CE0C02821D0B8
:10185000B0F5807F20D11EE0BC48006840F4003025
:10186000BA4908601AE0B948006840F40020B74956
:101870000860201D02F02EFA05460FE0B34800680C
:1018800040F48000B149086004F1240002F09EFA9F
:10189000054603E002E001E0012500BF00BF55B9A5
:1018A000AA482430006820F4E070A16D0843A749DD
:1018B0002431086000E02E43208800F4806078B373
:1018C000D4F8A400B0F5800F1ED004DC50B1B0F500
:1018D000001F28D10DE0B0F5C00F22D0B0F5000FE9
:1018E00021D11FE09948006840F400309749086012
:1018F0001BE09648006840F4002094490860201DD1
:1019000002F0E8F9054610E09048006840F48000D5
:101910008E49086004F1240002F058FA054604E0FC
:1019200012E002E001E0012500BF00BF5DB9874879
:101930002C30006820F46000D4F8A41008438349D8
:101940002C31086000E02E43208800F4006078B35A
:10195000D4F8A800B0F1007F1ED004DC50B1B0F183
:10196000807F28D10DE0B0F1407F22D0B0F1806FB0
:1019700021D11FE07548006840F4003073490860C9
:101980001BE07248006840F4002070490860201D88
:1019900002F0A0F9054610E06C48006840F48000B1
:1019A0006A49086004F1240002F010FA054604E0D8
:1019B00012E002E001E0012500BF00BF5DB963480D
:1019C0002C30006820F0E060D4F8A81008435F498C
:1019D0002C31086000E02E43206800F0007050B306
:1019E000A06CC8B1102804D0202809D0302814D108
:1019F00011E05648006840F40030544908600EE099
:101A00005248006840F4001050490860201D02F060
:101A100061F9054603E002E001E0012500BF00BFD7
:101A200055B94A482030006820F03000A16C0843C6
:101A300046492031086000E02E43208800F48050A1
:101A400078B3E06DB0F5005F1ED004DC50B1B0F5A6
:101A5000805F28D10DE0B0F5405F21D0B0F5804F18
:101A600021D11FE03948006840F400303749086050
:101A70001BE03648006840F4002034490860201D0F
:101A800002F028F9054610E03048006840F4800074
:101A90002E49086004F1240002F098F9054604E09C
:101AA00003E010E001E0012500BF00BF55B9274861
:101AB0002430006820F4E040E16D084323492431DC
:101AC000086000E02E43208800F40050E0B3206E50
:101AD000B0F5403F27D007DC68B1B0F5803F0BD0B0
:101AE000B0F5003F22D112E0B0F5802F1CD0B0F548
:101AF000A02F1BD119E01BE01448006840F48010AF
:101B000012490860201D02F0E5F8054610E00F4874
:101B1000006840F400000D49086004F1240002F060
:101B200055F9054604E003E002E001E0012500BFAD
:101B300000BF6DB905482430006820F4E020216E14
:101B4000084302492431086003E000002C44025895
:101B50002E43208800F4804078B3D4F8AC00B0F174
:101B6000405F27D007DC68B1B0F1805F0BD0B0F1E7
:101B7000005F23D112E0B0F1804F1CD0B0F1A04F34
:101B80001CD119E01CE0FA48006840F48010F849C4
:101B90000860201D02F09EF8054611E0F448006838
:101BA00040F40000F249086004F1240002F00EF94C
:101BB000054605E004E003E002E010E0012500BF77
:101BC00000BF5DB9EA482C30006820F0E040D4F84E
:101BD000AC100843E6492C31086000E02E43208811
:101BE00000F4004048B3E06EC0B1B0F1805F03D0B4
:101BF000B0F1005F13D106E0DD48006840F400302A
:101C0000DB4908600DE0DA48006840F48010D849EC
:101C10000860201D02F05EF8054602E001E00125A3
:101C200000BF00BF55B9D2482430006820F04050B2
:101C3000E16E0843CE492431086000E02E4320685D
:101C400000F0807050B3606CC8B1012804D0022845
:101C500009D0032814D111E0C548006840F40030D1
:101C6000C34908600EE0C248006840F40010C04953
:101C70000860201D02F02EF8054603E002E001E0B6
:101C8000012500BF00BF55B9B9482030006820F0D9
:101C90000300616C0843B6492031086000E02E4320
:101CA000206800F48000E8B3B248006840F4807017
:101CB000B0490860FFF772F8074606E0FFF76EF8D4
:101CC000C01B642801D9032505E0AA48006800F478
:101CD00080700028F2D000BF9DBBA548443000684A
:101CE00000F44070B4F8B01001F44071884214D090
:101CF0009F484430006820F440789D484430006894
:101D000040F480309A49443108600846006820F465
:101D1000803008600846C0F80080D4F8B000B0F504
:101D2000807F00E045E015D1FFF738F8074609E06D
:101D3000FFF734F8C01B41F28831884202D90325ED
:101D400007E035E08A4844300068C0F340000028CE
:101D5000EED000BF55BB00BFB4F8B00000F4407037
:101D6000B0F5407F0ED182481C38006820F47C51C9
:101D7000814AD4F8B000104041EA10107C491C3967
:101D8000086007E07A481C38006820F47C507849E5
:101D90001C390860764844300068B4F8B010C1F3CC
:101DA0000B01084372494431086002E02E4300E011
:101DB0002E43207800F00100B8B3A06F182823D07C
:101DC00005DC48B1082808D0102820D110E02028D0
:101DD0001BD028281BD119E01BE06548006840F49F
:101DE000801063490860201D01F074FF054610E073
:101DF0005F48006840F400005D49086004F1240079
:101E000001F0E4FF054604E003E002E001E0012503
:101E100000BF00BF55B956482830006820F0380090
:101E2000A16F084352492831086000E02E43207812
:101E300000F0020080B3606F06281FD2DFE800F0D8
:101E400003040F1B1C1D1BE04948006840F4801070
:101E500047490860201D01F03DFF054610E0444859
:101E6000006840F400004249086004F1240001F0D9
:101E7000ADFF054604E003E002E001E0012500BFFC
:101E800000BF55B93A482830006820F00700616F5C
:101E9000084337492831086000E02E43207800F0DD
:101EA000040090B3D4F8900006281FD2DFE800F0B9
:101EB00003040F1B1C1D1BE02D48006840F480101C
:101EC0002B490860201D01F005FF054610E0284859
:101ED000006840F400002649086004F1240001F085
:101EE00075FF054604E003E002E001E0012500BFC4
:101EF00000BF5DB91E482C30006820F00700D4F800
:101F0000901008431A492C31086000E02E432078D5
:101F100000F0200090B3D4F88C00B0F1405F2ED0D8
:101F200007DC68B1B0F1805F0BD0B0F1005F29D160
:101F300012E0B0F1804F23D0B0F1A04F22D120E0C9
:101F400022E00B48006840F4002009490860201D89
:101F500001F0C0FE054617E00548006840F08070BB
:101F60000349086004F1240001F030FF05460BE04E
:101F70002C44025800480258FFFCFF0F11E003E018
:101F800002E001E0012500BF00BF4DB9FE48006836
:101F900020F0E040D4F88C100843FB49086000E0D2
:101FA0002E43207800F0400080B3D4F89800B0F5BC
:101FB000406F2CD007DC68B1B0F5806F0BD0B0F566
:101FC000006F27D114E0B0F5805F21D0B0F5A05F9D
:101FD00020D11EE020E0EC482838006840F40020C2
:101FE000E94928390860201D01F074FE054613E018
:101FF000E5482838006840F08070E34928390860D7
:1020000004F1240001F0E2FE054605E013E003E0E0
:1020100002E001E0012500BF00BF5DB9DA48001D04
:10202000006820F4E050D4F898100843D649091D00
:10203000086000E02E43207800F0800080B3D4F8E0
:102040009C00B0F5C04F2CD007DC68B1B0F5005F44
:102050000BD0B0F5804F27D114E0B0F5004F21D060
:10206000B0F5204F20D11EE020E0C7482838006896
:1020700040F40020C44928390860201D01F02AFEE0
:10208000054613E0C0482838006840F08070BE491B
:102090002839086004F1240001F098FE054605E0A7
:1020A00013E003E002E001E0012500BF00BF5DB9DD
:1020B000B548001D006820F46040D4F89C10084327
:1020C000B149091D086000E02E43207800F00800A7
:1020D000D0B1D4F88000B0F5805F0CD104F12400B9
:1020E00001F074FEA8482838006840F08070A649C6
:1020F0002839086008E0A448006820F44050D4F86B
:1021000080100843A0490860207800F01000E0B17A
:10211000D4F89400B0F5807F0CD104F1240001F0D4
:1021200055FE99482838006840F080709649283953
:1021300008600AE09448001D006820F44070D4F85C
:10214000941008439049091D0860206800F400209D
:10215000A0B3D4F8A00030B1B0F5803F10D0B0F5F6
:10216000003F1CD11AE088482838006840F400205D
:10217000854928390860201D01F0ACFD054610E0B6
:1021800081482838006840F080707F49283908600D
:1021900004F1240001F01AFE054602E001E00125E9
:1021A00000BF00BF5DB97848001D006820F44030D2
:1021B000D4F8A01008437449091D086000E02E43BC
:1021C000206800F4802080B3D4F88400B0F5801F2C
:1021D00006D0B0F5001F0CD0B0F5401F18D116E0A6
:1021E00069482838006840F4003067492839086099
:1021F00010E065482838006840F40000624928393A
:10220000086004F1240001F0E1FD054602E001E070
:10221000012500BF00BF4DB95B48006820F44010A5
:10222000D4F8841008435849086000E02E43206821
:1022300000F4803048B3E06C18B1B0F5803F16D19F
:1022400008E051482838006840F400304E492839E9
:1022500008600EE04C482838006840F400104A49F5
:1022600028390860201D01F035FD054601E00125F3
:1022700000BF00BF55B944480838006820F48030DA
:10228000E16C084340490839086000E02E432068AB
:1022900000F0005060B13C482838006840F0807081
:1022A00039492839086004F1240001F08FFD064304
:1022B000206800F4003018B3E06FA0B1B0F5807F63
:1022C00006D0B0F5007F0CD0B0F5407F0CD109E00E
:1022D0002D482838006840F400302B492839086020
:1022E00004E003E002E001E0012500BF00BF45B9C2
:1022F0002548006820F44070E16F084322490860D7
:1023000000E02E43206800F4801048B11E48001FF2
:10231000006820F00040216F08431B49091F086036
:10232000206800F0805050B117484438006820F40D
:102330008040D4F8B4100843134944390860206839
:1023400000F4001048B11048001F006820F08070B1
:10235000A16E08430C49091F0860206800F0804006
:1023600088B100BF08484438006820F4004006499E
:102370004439086008460068D4F8B8100843024998
:102380004439086000BF01E054440258206800F05E
:10239000004038B10648006820F04050216D0843E5
:1023A0000349086016B90020BDE8F0810120FBE771
:1023B0004C44025870B504460D4600268D4800680E
:1023C00000F00700A8420ED28A48006820F00700FB
:1023D0002843884908600846006800F00700A842C2
:1023E00001D0012070BD207800F00200022807D142
:1023F0008148006820F00F00E16808437E490860CA
:10240000207800F00100002851D07B48006820F4BB
:102410007060A1680843784908606068022807D1A5
:10242000754818380068C0F34040F8B90120D9E772
:102430006068032807D1704818380068C0F340600E
:10244000A0B90120CEE76068012807D16A48183892
:102450000068C0F3002048B90120C3E76648183877
:102460000068C0F3800008B90120BBE76248083863
:10247000006820F00700616808435F490839086078
:10248000FEF78CFC06466068022811D108E0FEF7D2
:1024900085FC801B41F28831884201D90320A1E7E5
:1024A00055480838006800F038001028EFD13AE0AD
:1024B0006068032811D108E0FEF770FC801B41F230
:1024C0008831884201D903208CE74B4808380068DE
:1024D00000F038001828EFD125E06068012811D1FC
:1024E00008E0FEF75BFC801B41F28831884201D98D
:1024F000032077E740480838006800F038000828D3
:10250000EFD110E008E0FEF749FC801B41F2883172
:10251000884201D9032065E737480838006800F091
:1025200038000028EFD13348006800F00700A842C7
:102530000ED93048006820F0070028432D49086074
:102540000846006800F00700A84201D0012049E7D2
:10255000207800F00400042807D12748006820F004
:1025600070002169084324490860207800F00800C1
:10257000082809D12048001D006820F0700061691A
:1025800008431D49091D0860207800F0100010283C
:1025900009D11948001D006820F4E060A1690843D2
:1025A0001549091D0860207800F02000202809D175
:1025B00011480830006820F07000E16908430E49B6
:1025C0000831086000F066F80B49096801F4706191
:1025D0004FF4807292FAA2F2B2FA82F2D140074A24
:1025E000515CC840064908600F20FEF7EBFB002055
:1025F000F8E6000000200052184402582865000840
:102600002800002010B5FEF733FE0949096801F0E3
:102610000F01012292FAA2F2B2FA82F2D140054AE7
:10262000515CC840044908600846006810BD0000BD
:1026300018440258286500082C00002010B5FFF748
:10264000E1FF0749096801F07001102292FAA2F235
:10265000B2FA82F2D140034A515CC84010BD00007A
:102660001C4402582865000810B5FFF7CBFF074946
:10267000096801F4E0614FF4807292FAA2F2B2FAB2
:1026800082F2D140024A515CC84010BD1C4402583D
:102690002865000870B5012500EE905A002201213E
:1026A00000230024DFED861AB0EE610ADFED841A04
:1026B000B0EE611A0020834D2D6805F0380535B164
:1026C000082D15D0102D15D0182D7CD114E07D4D7E
:1026D000103D2D68C5F3401545B17A4D103D2D686C
:1026E000C5F3C106784D25FA06F000E07648E5E02E
:1026F0007648E3E07648E1E0724D18352D6805F044
:102700000302704D18352D68C5F305116D4D1C354C
:102710002D6805F001036B4D24352D68C5F3CC05FC
:1027200015FB03F501EE905AF8EE611AB0EE610A5E
:1027300022B1012A4FD0022A7DD16BE0614D103DBC
:102740002D68C5F340152DB35E4D103D2D68C5F3C2
:10275000C1065D4D25FA06F4B4FBF1F501EE905A81
:10276000B8EE612ADFED5B1AC0EE212A554D203507
:102770002D68C5F3080501EE905AF8EE611A72EE65
:10278000A11AF7EE002A71EEA21A62EE211AB0EE3B
:10279000611A1FE04C4DB5FBF1F501EE905AB8EE11
:1027A000612ADFED4C1AC0EE212A464D20352D68F6
:1027B000C5F3080501EE905AF8EE611A72EEA11AFF
:1027C000F7EE002A00E077E071EEA21A62EE211A1D
:1027D000B0EE611A5EE03D4DB5FBF1F501EE905AA9
:1027E000B8EE612ADFED3B1AC0EE212A354D2035C7
:1027F0002D68C5F3080501EE905AF8EE611A72EEE5
:10280000A11AF7EE002A71EEA21A62EE211AB0EEBA
:10281000611A3FE02E4DB5FBF1F501EE905AB8EE8E
:10282000612ADFED2C1AC0EE212A264D20352D68B5
:10283000C5F3080500E00EE001EE905AF8EE611ACB
:1028400072EEA11AF7EE002A71EEA21A62EE211AB8
:10285000B0EE611A1EE01D4DB5FBF1F501EE905A88
:10286000F8EE612ADFED1B1A80EE212A154D203586
:102870002D68C5F3080501EE905AF8EE611A72EE64
:10288000211AB7EE002A71EE821A62EEA11AB0EE9A
:10289000611A00BF00BF0B4D20352D68C5F34625DA
:1028A0006D1C00EE905AF8EE601A81EE212AFCEEC3
:1028B000C21A11EE900A01E0044800BF00BF70BDCB
:1028C00000000000104402580090D00300093D00B1
:1028D00000127A000000004670B5044600252078FA
:1028E00000F00100002872D0F948006800F03800BC
:1028F00010280CD0F648006800F03800182812D1D3
:10290000F3481830006800F0030002280BD1F048AB
:1029100010380068C0F3404000286DD0606800287F
:102920006AD1012070BD00BF6068B0F5803F08D15A
:10293000E7481038006840F48030E54910390860F5
:102940002EE0606868B9E2481038006820F48030F2
:10295000DF49103908600846006820F480200860CC
:102960001EE06068B0F5A02F0DD1D948103800687E
:1029700040F48020D649103908600846006840F4C9
:10298000803008600CE0D2481038006820F48030B5
:10299000CF49103908600846006820F4802008609C
:1029A00000BF6068A0B1FEF7F9F9054608E0FEF740
:1029B000F5F9401B41F28831884201D90320B1E783
:1029C000C34810380068C0F340400028EFD013E03F
:1029D000FEF7E4F9054608E0FEF7E0F9401B41F296
:1029E0008831884201D903209CE7B9481038006833
:1029F000C0F340400028EFD1207800F00200022808
:102A000047D1B348006800F0380058B1B0480068BA
:102A100000F0380018283ED1AD481830006800F0AA
:102A20000300B8BBAA4810380068C0F3800018B192
:102A3000E06808B9012075E7A5481038006820F063
:102A40001900E1680843A24910390860FEF7A6F9A9
:102A5000054606E0FEF7A2F9401B022801D9032033
:102A600060E79B4810380068C0F380000028F1D070
:102A700097480C38006820F47C304FF47C3292FA8E
:102A8000A2F2B2FA82F221699140084390490C39CE
:102A900008604AE0FFE7E06868B38D4810380068D6
:102AA00020F01900E1680843894910390860FEF7F1
:102AB00075F9054606E0FEF771F9401B022801D9B9
:102AC00003202FE7824810380068C0F380000028F8
:102AD000F1D07F480C38006820F47C304FF47C3211
:102AE00092FAA2F2B2FA82F221699140084378493F
:102AF0000C39086019E076481038006820F00100B1
:102B0000734910390860FEF749F9054606E0FEF7FB
:102B100045F9401B022801D9032003E76C4810380F
:102B20000068C0F380000028F1D1207800F0100088
:102B3000102877D16648006800F0380008280CD0CB
:102B40006348006800F03800182823D16048183026
:102B5000006800F0030001281CD15D4810380068AF
:102B6000C0F3002020B1E069802801D00120D9E61F
:102B700057480C38006820F0F8404FF0F84292FABD
:102B8000A2F2B2FA82F2216A9140084350490C390C
:102B9000086047E0E06958B34D481038006840F0DD
:102BA00080004B4910390860FEF7F8F8054606E04A
:102BB000FEF7F4F8401B022801D90320B2E644488E
:102BC00010380068C0F300200028F1D040480C38CD
:102BD000006820F0F8404FF0F84292FAA2F2B2FA00
:102BE00082F2216A9140084339490C39086019E0A2
:102BF00037481038006820F08000354910390860E7
:102C0000FEF7CCF8054606E0FEF7C8F8401B0228A0
:102C100001D9032086E62E4810380068C0F3002052
:102C20000028F1D1207800F00800082836D160692A
:102C3000D0B127486430006840F001002449643175
:102C40000860FEF7ABF8054606E0FEF7A7F8401B64
:102C5000022801D9032065E61D4864300068C0F3EE
:102C600040000028F1D019E019486430006820F0D5
:102C70000100174964310860FEF790F8054606E048
:102C8000FEF78CF8401B022801D903204AE61048C1
:102C900064300068C0F340000028F1D1207800F0D3
:102CA0002000202834D1A069D8B109481038006824
:102CB00040F48050064910390860FEF76FF8054669
:102CC00008E0FEF76BF8401B022803D9032029E631
:102CD00010440258AF480068C0F340300028F0D0DC
:102CE00016E0AC48006820F48050AA490860FEF75E
:102CF00055F8054606E0FEF751F8401B022801D9B9
:102D000003200FE6A3480068C0F340300028F2D14A
:102D1000207800F0040004287DD19F48006840F42A
:102D200080709D490860FEF739F8054606E0FEF719
:102D300035F8401B642801D90320F3E59648006864
:102D400000F480700028F2D000BFA068012808D1EC
:102D500090487030006840F001008E497031086082
:102D60002DE0A06868B98B487030006820F0010041
:102D70008849703108600846006820F00400086047
:102D80001DE0A06805280DD182487030006840F031
:102D900004008049703108600846006840F0010076
:102DA00008600CE07B487030006820F00100794931
:102DB000703108600846006820F00400086000BF19
:102DC000A068A0B1FDF7EAFF054608E0FDF7E6FFC1
:102DD000401B41F28831884201D90320A2E56D48A9
:102DE00070300068C0F340000028EFD013E0FDF71A
:102DF000D5FF054608E0FDF7D1FF401B41F28831C1
:102E0000884201D903208DE5624870300068C0F324
:102E100040000028EFD1606A00287CD05D48103067
:102E2000006800F03800182876D0606A022874D153
:102E30005848006820F0807056490860FDF7AEFFE2
:102E4000054606E0FDF7AAFF401B022801D9032032
:102E500068E550480068C0F340600028F2D100BF28
:102E6000D4E90A1041EA00104A492831096840F2C1
:102E7000F33291430843474928310860208E401EB1
:102E8000C0F30800616B491E4FF47E4202EA412103
:102E90000843218F491ED20102EA014108433C2127
:102EA000095D491E120202EA0161084339493031C5
:102EB000086000BF081D00684FF6F87188434FF6A0
:102EC000F87292FAA2F2B2FA82F2A16C914008432F
:102ED0003049343108602F482C30006820F00C0055
:102EE000216C08432B492C3108600846006820F00B
:102EF0000200616C084327492C31086008460068CD
:102F000040F4803008600846006840F400300860F3
:102F10000846006802E03BE038E01FE040F4802013
:102F200008600846006840F0010008601948006821
:102F300040F0807017490860FDF730FF054606E055
:102F4000FDF72CFF401B022801D90320EAE41148B9
:102F50000068C0F340600028F2D019E00D48006816
:102F600020F080700B490860FDF718FF054606E069
:102F7000FDF714FF401B022801D90320D2E40548C5
:102F80000068C0F340600028F2D101E00120C9E4EC
:102F90000020C7E4004402580048025870B50446B7
:102FA0000D460CB9012070BD94F82C0028B9002002
:102FB00084F82D00204600F019F8022084F82C0037
:102FC000211D2068FDF789FC2946D4E90002FDF7A0
:102FD000D9FC0548006840F0004003490860012022
:102FE00084F82C000020DEE70040005210B586B0C7
:102FF000044600BF4648006840F0020044490860AB
:103000000846006800F00200009000BF00BF00BF4B
:103010003F482038006840F480503D49203908601E
:103020000846006800F48050009000BF00BF00BF59
:1030300037481438006840F00400354914390860F6
:103040000846006800F00400009000BF00BF00BF09
:103050000846006840F0080008600846006800F074
:103060000800009000BF00BF00BF0846006840F0A5
:10307000100008600846006800F01000009000BFD3
:1030800000BF00BF0846006840F020000860084606
:10309000006800F02000009000BF00BF00BF08469D
:1030A000006840F0400008600846006800F04000FA
:1030B000009000BF00BF0D2001900220029001206F
:1030C0000390032004900C20059001A91148FDF7FE
:1030D0002DFD4CF20370019001A90F48FDF726FD6C
:1030E0004FF68370019001A90C48FDF71FFD4FF6C4
:1030F0003F00019001A90A48FDF718FD48F237107A
:10310000019001A90748FDF711FD06B010BD0000B0
:10311000F444025800080258000C025800100258EB
:10312000001402580018025870B504460D4694F871
:103130002C00022800D170BD022084F82C00294602
:103140002068FDF704FC012084F82C000020F2E741
:1031500070B504460D46164694F82C00022800D19E
:1031600070BD022084F82C00324629462068FDF705
:10317000F5FB2868022803D1052084F82C0002E022
:10318000012084F82C000020EAE7042808D14FF041
:10319000E021096941F004014FF0E022116107E0EC
:1031A0004FF0E021096921F004014FF0E0221161A4
:1031B000704770B504462546681EB0F1807F01D384
:1031C00001200FE0681E4FF0E02148610F214FF011
:1031D000FF3002F03BF900204FF0E021886107202A
:1031E0000861002070BD7047704700002DE9F04174
:1031F00004462068C569206807682068866805F06D
:103200000F08B8F1000F0DD105F0200050B107F004
:10321000200010B906F0805020B1204601F017FBC5
:10322000BDE8F081B8F1000F72D05D48304018B9A8
:1032300007F4907000287AD005F0010048B107F437
:10324000807030B1012021680862E06F40F0010019
:10325000E06705F0020048B106F0010030B102203D
:1032600021680862E06F40F00400E06705F00400A8
:1032700048B106F0010030B1042021680862E06F17
:1032800040F00200E06705F0080078B107F0200088
:1032900028B906F0805010B906F0010030B10820BE
:1032A00021680862E06F40F00800E067E06F70B3EB
:1032B00005F0200040B107F0200010B906F0805062
:1032C00010B1204601F0C3FAE06F00F0080020B909
:1032D0002068806800F0400018B3204601F097FA9B
:1032E0002068806800F04000B8B12068806820F055
:1032F000400021688860606F58B12A48616F086596
:10330000606FFDF78DFB10B1606F016D88470DE0B8
:103310000DE02046FFF768FF08E02046FFF764FF56
:1033200004E02046FFF760FF0020E06778E705F43F
:10333000801078B106F4800060B14FF480102168ED
:103340000862202084F8790084F87A002046FFF78C
:103350004AFF65E705F0800048B107F0800010B92A
:1033600006F4000018B1204601F088FF58E705F088
:10337000400030B107F0400018B1204601F057FA84
:103380004EE705F4000040B107F0804028B1206806
:10339000006820F080402168086000BF40E700001E
:1033A00001000010F747000810B504460CB90120D1
:1033B00010BDA06900B100E000BF94F8790028B901
:1033C000002084F87800204600F02AF8242084F8B1
:1033D00079002068006820F001002168086020461C
:1033E00001F07AFA012800D1E2E7606B10B12046C3
:1033F00001F052F92068406820F49040216848604C
:103400002068806820F02A002168886020680068B1
:1034100040F0010021680860204601F0B2F9C7E7DA
:1034200010B586B0044600BF2848006840F001008F
:10343000264908600846006800F00100009000BFBF
:1034400000BF00BF0846006840F001000860084661
:10345000006800F00100009000BF00BF00BF1B48E3
:103460001030006840F0100018491031086008461C
:10347000006800F01000009000BF00BF4FF4007023
:103480000190022002900120039003200490072065
:10349000059001A90E48FDF749FB4FF480600190AB
:1034A0000220029001200390022004900720059042
:1034B00001A90748FDF73AFB012200212520FDF76D
:1034C00084FE2520FDF771FE06B010BDE0440258D1
:1034D000000002582DE9F84F04460D46164699465D
:1034E0004FF0000A94F87A0020287AD105B116B975
:1034F0000120BDE8F88F00BF94F87800012801D1C1
:103500000220F6E7012084F8780000BF002068342C
:1035100060612220A074FDF741FC8246268066800F
:10352000683C00BFA068B0F5805F0AD1206920B96F
:1035300040F2FF10A4F86C001CE0FF20A4F86C001F
:1035400018E0A06848B9206918B9FF20A4F86C00F9
:1035500010E07F20A4F86C000CE0A068B0F1805F60
:1035600008D1206918B97F20A4F86C0002E03F2040
:10357000A4F86C0000BFB4F86C8024E0B4F86A00D2
:10358000401EA4F86A005346002220212046CDF8B0
:10359000009001F0B4FE08B10320AAE7A068B0F5DE
:1035A000805F09D1206938B92F462068808C00EAF5
:1035B00008003880AD1C06E02068808C08F0FF0110
:1035C000084005F8010BB4F86A000028D6D1202085
:1035D00084F87A0000BF002084F8780000BF88E7F4
:1035E000FFE7022085E710B5034693F87A0020280C
:1035F00067D101B10AB9012010BD00BF93F878006E
:10360000012801D10220F7E7012083F8780000BFEC
:103610005966A3F86820A3F86A2000BF9868B0F53F
:10362000805F0AD1186920B940F2FF10A3F86C003E
:103630001CE0FF20A3F86C0018E0986848B91869EE
:1036400018B9FF20A3F86C0010E07F20A3F86C00ED
:103650000CE09868B0F1805F08D1186918B97F2034
:10366000A3F86C0002E03F20A3F86C0000BF00202C
:10367000D867222083F87A0000BF002083F8780002
:1036800000BF1868806840F001001C68A0601868DE
:10369000006800F0005060B11868006840F4807065
:1036A0001C6820601868806840F080501C68A0602A
:1036B00005E01868006840F490701C6820600020E5
:1036C0009AE7022098E77047704700BFFEE70000C6
:1036D00018B5044606480094008B401E83B2044887
:1036E000C08A401E82B20021084600F031F818BDA1
:1036F0002003002070B5B0B004460E4615464FF0CA
:10370000005001900A940B9602210C910D910E9598
:1037100001A8FEF70BF810B9002030B070BD0120F1
:10372000FBE700000949487530B98988074AD1820A
:1037300011460988118308E0012806D10349098848
:10374000024AD182114689881183704720030020E4
:103750002DE9F04F04460D4616464FF0000CDFF8F9
:10376000289199F81590B9F1000F04D02046294608
:1037700032461F4611E02846DFF80C91D9F8049034
:10378000A9EB0609A9F101011A46DFF8FC90D9F866
:103790000490A9EB0409A9F10107DFF8EC90B9F84E
:1037A0000090A2EB000A0AF1010AA9EB0A091FFA2C
:1037B00089F8DFF8D49099F81490DFF8D0A05AF87F
:1037C0002990DFF8C4A0DAF81CA0DFF8BCB0DBF861
:1037D00000B00BFB010B0AFB0B9EDFF8B490D9F88D
:1037E000009049F40009DFF8A8A0CAF800904FF44F
:1037F0004039DFF8A0A0CAF800904FF00209CAF8DB
:103800003490D146C9F84080D9F8009029F00109D8
:10381000CAF80090D146C9F83CE0A7EB010909F1CC
:103820000109A2EB000A0AF1010A49EA0A49DFF894
:1038300064A0CAF84490DDF82490CAF83890D146C4
:10384000D9F8009049F00109CAF8009005E00CF1A0
:10385000010CBCF5001F00D308E0DFF83890D9F860
:10386000049009F00209B9F1000FF0D000BFDFF8B1
:103870002490D9F8089049F00209DFF818A0CAF896
:103880000890BDE8F08F0000200300201800002001
:10389000D8440258001000522DE9F04F8DB0054673
:1038A0000E4617469846DDE917ABDDF85890199C8F
:1038B000002000900290154800680190134840686D
:1038C00003900497CDF81480CDF818904FEA0A20A1
:1038D00007904FEA0B20089009960C4800680A9060
:1038E0000A4840680B90002001148DF83210011234
:1038F0008DF83110E0B28DF830002A466946044850
:10390000FDF786FA0DB0BDE8F08F0000200300201F
:10391000180200202DE9F04104460E4617461D46C8
:10392000DDF8188023463A4631460548FDF7D0FBBE
:103930002346424629460248FDF700FCBDE8F081D7
:103940001802002010B586B0002400BF2F48006880
:1039500040F040002D4908600846006800F0400033
:10396000009000BF00BF00BF0846006840F48070B0
:1039700008600846006800F48070009000BF00BF37
:103980004020019000200290012003900320049029
:1039900001A91F48FDF7CAF88420019001A91D481C
:1039A000FDF7C4F840211A48FDF7E6F90446042162
:1039B0001848FDF7E1F944EA4000C4B280211548F7
:1039C000FDF7DAF944EA8000C4B21CB944F242308F
:1039D00006B010BD012C02D147F28400F8E7022C9A
:1039E00002D147F21600F3E7032C02D147F2180088
:1039F000EEE7042C02D148F21600E9E7052C02D1CB
:103A000041F21800E4E70020E2E70000E044025839
:103A1000001802580020025801490875704700003C
:103A200020030020F0B50023002400258E880768BD
:103A3000FF68C7F30B473E4433040668843680278B
:103A400007FB0266766806F47047066884364FF016
:103A5000800C0CFB026677600E680768FF68C7F38E
:103A60000B473E44761C1E43076884370CFB0277E5
:103A70007E608E890768FF68C7F30A073E443304F7
:103A800006688436802707FB0266B66806F470472E
:103A9000066884360CFB0266B7608E680768FF68AC
:103AA000C7F30A073E44761C1E43076884370CFBA5
:103AB0000277BE6006688436802707FB0266366997
:103AC00026F00707066884360CFB026637610F692B
:103AD000066884360CFB026637613126765C330259
:103AE0003226765C34040E7E3506066884368027DE
:103AF00007FB0266B6690027066884360CFB02667F
:103B0000B76191F830601E4326432E43076884371F
:103B10000CFB0277BE6106688436802707FB0266CD
:103B2000766926F0FF07066884360CFB026677612B
:103B30004F69066884360CFB026677610668843636
:103B4000802707FB0266F76940F20776B7430668ED
:103B500084360CFB0266F761D1E907673E430768CC
:103B600084370CFB0277FE6106688436802707FBEA
:103B70000266B66A0027066884360CFB0266B762E6
:103B80004F6A066884360CFB0266B7620E690EB98E
:103B9000042313E00E69012E01D103230EE00E6908
:103BA000042E08D00E69022E05D00E69032E02D015
:103BB0000E69072E01D1022300E001230668843636
:103BC000802707FB0266F66A06F0E027066884365F
:103BD0004FF0800C0CFB0266F762D1E90076F61B11
:103BE0005E43F71D0E8D5E4347EA0647066884363E
:103BF0000CFB0266F76206688436802707FB0266C4
:103C0000366BF70AFF02066884360CFB02663763E0
:103C1000CF6A066884360CFB026637630668843612
:103C2000D701F65946F00107066884364FEAC21CF0
:103C300046F80C70F0BD00000120FCF737FD0220B3
:103C4000FCF77EFD15A001F0E9FB4FF47A7001F05E
:103C500081FD18A001F0E2FB4FF47A7001F07AFDCB
:103C600000BF00BF00BF00BF00BFBFF34F8F00BF4A
:103C700000BF00BF1448006800F4E0601349084327
:103C8000001D1149086000BF00BF00BFBFF34F8F88
:103C900000BF00BF00BF00BF00BFFDE74D656D2046
:103CA000416363657373204572726F7221210D0A3F
:103CB00000000000536F6674205265736574696E6E
:103CC000672E2E2E0D0A00000CED00E00000FA0514
:103CD0007047000070B50446002500263A48006889
:103CE00000F00300032801D1012070BD36482838B8
:103CF000006820F08060344928390860FDF74EF8EC
:103D0000054606E0FDF74AF8401B022801D90320CA
:103D1000EBE72D4828380068C0F3C0600028F1D1D7
:103D200000BF2948006820F47C30216840EA013057
:103D300025490860A088401EC0F30800A168491EFC
:103D40004FF47E4202EA41210843A189491ED20173
:103D500002EA01410843217C491E120202EA016184
:103D6000084319491031086000BF1748001D00685A
:103D700020F0C000616908431349091D0860084626
:103D8000006820F02000A16908430F49091D086060
:103D90000D482838006840F080600B4928390860D9
:103DA000FCF7FCFF054606E0FCF7F8FF401B022885
:103DB00001D9032099E7044828380068C0F3C0609F
:103DC0000028F1D0304690E72844025870B50446E8
:103DD000002500263A48006800F00300032801D1BE
:103DE000012070BD36482838006820F080503449E2
:103DF00028390860FCF7D2FF054606E0FCF7CEFF45
:103E0000401B022801D90320EBE72D482838006821
:103E1000C0F340700028F1D100BF2948006820F0AD
:103E20007C70218840EA015025490860A088401E26
:103E3000C0F30800A168491E4FF47E4202EA412106
:103E40000843A189491ED20102EA01410843217CAD
:103E5000491E120202EA016108431949183108603B
:103E600000BF1748001D006820F4406061690843E6
:103E70001349091D08600846006820F40070A16914
:103E800008430F49091D08600D482838006840F0B4
:103E900080500B4928390860FCF780FF054606E092
:103EA000FCF77CFF401B022801D9032099E7044856
:103EB00028380068C0F340700028F1D0304690E701
:103EC000284402581FB50024FFF73CFD044644F285
:103ED0004230844217D14FF4F070F24908604FF439
:103EE0008870486001200881488128208881082046
:103EF000C88105200882082048825822A021052078
:103F0000FFF7F8FB2FE147F28400844217D14FF40A
:103F10004870E44908604FF4F0704860012008815F
:103F200048812E2088811720C881D220088216203F
:103F300048821822A0210520FFF7DCFB13E147F29D
:103F40001600844218D14FF48060D64908604FF4BF
:103F50001670486014200881032048818C208881D5
:103F60001420C881A02008820C2048821222A0219F
:103F70000520FFF7BFFBF6E047F21800844207D1A7
:103F80004FF4A060C74908604FF448704860EAE009
:103F900048F21600844206D14011C24908604FF42D
:103FA00016704860DFE041F21800844215D14FF4EA
:103FB000A060BC4908604FF4487048608C2088813C
:103FC0000A2008820881C881488203204881102283
:103FD000A0210520FFF78EFBC5E04AF201008442D4
:103FE00018D140F25650AF4908604FF44070486015
:103FF0008F20088146200882D520888103204881AF
:104000001820C881032048821C22A0210520FFF728
:1040100071FBA8E04AF20200844217D14011A14985
:1040200008604FF4487048602020088130200882E2
:1040300050208881062048810E20C88103204882B4
:104040001622A0210520FFF755FB8CE04AF2030061
:10405000844217D14011934908604FF44070486082
:104060002020088150208881302008820720488144
:104070000C20C881032048821722A0210520FFF7C9
:1040800039FB70E04AF20400844218D14FF480609A
:10409000844908604FF440704860882008811820E7
:1040A0000882A0208881062048811D20C881032025
:1040B00048821222A0210520FFF71CFB53E04AF2A0
:1040C0000500844217D14FF45470764908604FF4CC
:1040D000F0704860702008818881102008820820D4
:1040E00048811720C881062048822F22A021052060
:1040F000FFF700FB37E04AF20600844218D14FF484
:104100004870684908604FF4167048608020088144
:104110005820888128200882042048811720C881DF
:10412000012048822822A0210520FFF7E3FA1AE0A7
:104130004AF20700844216D180115A4908604FF4B0
:10414000F07048606020088108200882382088814B
:10415000022048812920C881022048823E22A021D5
:104160000520FFF7C7FA4F4800884F4908804D489F
:104170008088488002204B49C8614C484C490860FF
:104180004C484D4908600020486000214A48816041
:10419000C160016141F21800844203D14FF08051A7
:1041A000454801613F480089401E434948613D48F8
:1041B0004089401E88613B4800893A498989084402
:1041C000401E3D49C861374840893649C98908447D
:1041D000401E3949086233480089324989890844B8
:1041E000304909680844401E334948622D484089D7
:1041F0002C49C98908442B4949680844401E2E4966
:10420000886228480089274989890844254909681E
:1042100008442449098A0844401E2749C8622148A5
:1042200040892049C98908441E49496808441D49F4
:10423000498A0844401E2049086300211E4880F82E
:10424000361080F8351080F83410FCF711FE00208D
:1042500007210622CDE90002CDE902101448FF2310
:10426000022201680020FFF717FB0E48808880B209
:1042700000900C48008883B2002211461046FFF7D8
:1042800049FB0120FFF74EFA0020FFF7C5FB012292
:1042900020210A48FCF77CFD4FF0FF30FFF718FAA9
:1042A0001FBD0000200300208C030020000000C080
:1042B00018000020001000501802002000040258CE
:1042C00010B50023234C236000BF00BF00BFBFF325
:1042D0004F8F00BF00BF00BF231F1868C0F34E31CF
:1042E00000BFC0F3C90200BF43F6E07303EA411305
:1042F0004FF0404404EA82742343174C236000BF0C
:1043000000BF131EA2F10102EED10B1EA1F10101AB
:10431000E7D100BF00BF00BFBFF34F8F00BF00BF9A
:1043200000BF0C4B703B1B6843F48033094C703C5E
:10433000236000BF00BF00BFBFF34F8F00BF00BFAF
:1043400000BF00BF00BF00BFBFF36F8F00BF00BF43
:1043500000BF10BD84ED00E060EF00E000BF00BFD3
:1043600000BFBFF34F8F00BF00BF00BF00BF00BF43
:1043700000BFBFF36F8F00BF00BF00BF0020144914
:10438000086000BF00BF00BFBFF34F8F00BF00BF7A
:1043900000BF00BF00BF00BFBFF36F8F00BF00BFF3
:1043A00000BF0C48006840F400300A49086000BFB4
:1043B00000BF00BFBFF34F8F00BF00BF00BF00BFF3
:1043C00000BF00BFBFF36F8F00BF00BF00BF7047CB
:1043D00050EF00E014ED00E000B587B01648174933
:1043E0000860002048600121144881600821C160F4
:1043F0001021016140214161890081610021C16179
:104400004FF4006101624900416200218162022093
:104410000090082001900620029003900220049052
:104420000590069069460548FEF7B8FD034800F080
:1044300007F807B000BD000040410052E401002031
:1044400070B505460024002301221146184600F0ED
:1044500021F84FF4FA7001F089F9002301220221BA
:10446000184600F017F8002308220321184600F030
:1044700011F84FF40874234601220421002000F0B3
:1044800009F840F2A5210248FEF74EFE70BD00007B
:10449000E40100202DE9FF4104460D4616461F4663
:1044A0004FF0000814B94FF0100803E0012C01D1BF
:1044B0004FF008080095CDF80480029603974FF658
:1044C000FF7269460448FEF743FE18B9002004B0A5
:1044D000BDE8F0810120FAE7E401002010B500BF3B
:1044E000102072B680F31188BFF34F8FBFF36F8F28
:1044F00062B600BF01F0ACFE18B14FF08050044925
:10450000086000BF002080F3118800BF10BD0000CC
:1045100004ED00E010B59CB000243848006820F09D
:1045200004003649086000BF0020009033480C307A
:10453000006840F4404031490C310860084600688A
:1045400000F44040009000BF00BF00BF2B480C307B
:10455000006800F40050B0F5005FF7D10120019031
:104560000004029000200490089002200A9002218A
:104570000B9105210C91A0210D9102210E9110911A
:1045800004210F91002112910821119101A8FEF739
:10459000A3F904460CB100BFFEE73F2014900320AE
:1045A0001590002016900820179040201890199020
:1045B00000011A9050201B90022114A8FDF7FAFE6A
:1045C00004460CB100BFFEE70D48006840F08000D3
:1045D0000B49086000BF0A48F430006840F0020050
:1045E0000749F43108600846006800F002000090B6
:1045F00000BF00BFFCF790FA1CB010BD0C48025879
:10460000004402582048006840F470001E490860C9
:104610001E48006840F001001C49086000201B494A
:1046200010310860194800681949084017490860A6
:104630000020164918310860091D0860091D08602E
:10464000124928310860091D0860091D0860091D0C
:104650000860091D0860091D0860091D0860091D22
:1046600008600A48006820F480200849086000209B
:10467000064960310860012006490860C006024909
:10468000803908607047000088ED00E0004402585F
:104690007FEDF6EA0881005190F8341001F0010135
:1046A00039B10168496821F40031826B1143026815
:1046B000516090F8341001F0020139B10168496885
:1046C00021F48031C26B11430268516090F83410BC
:1046D00001F0040139B10168496821F48021026CBC
:1046E00011430268516090F8341001F0080139B1AB
:1046F0000168496821F40041426C1143026851602D
:1047000090F8341001F0100139B10168896821F482
:104710008051826C11430268916090F8341001F06E
:10472000200139B10168896821F40051C26C11433C
:104730000268916090F8341001F0400199B101686D
:10474000496821F48011026D114302685160016DC6
:10475000B1F5801F07D10168496821F4C001426D9D
:1047600011430268516090F8341001F0800139B1B2
:104770000168496821F40021826D1143026851608B
:10478000704738B5044600250020E067FCF706FBBB
:1047900005462068006800F0080008280CD16FF07A
:1047A0007E402B4600224FF400110090204600F07E
:1047B000A6FD08B1032038BD2068006800F00400A1
:1047C00004280CD16FF07E402B4600224FF480016C
:1047D0000090204600F093FD08B10320EBE7202075
:1047E00084F8790084F87A0000BF002084F878000B
:1047F00000BF00BFDFE770B50546AC6B0020A4F832
:104800006A00A4F862002046FEF7EEFC70BD016865
:10481000096821F49071026811600168896821F0CB
:10482000010102689160202180F87A10704710B56C
:1048300004462068006820F04000216808602020BD
:1048400084F879002046FEF73FFF002010BD2DE9D7
:10485000F0410446B4F86C7094F87A00222833D101
:104860002068858CA068B0F5805F09D1206938B9CF
:10487000666E05EA07003080606E801C606605E0A9
:10488000F8B22840626E511C61661070B4F86A007C
:10489000401E80B2A4F86A00A0B92068006820F425
:1048A0009070216808602068806820F0010021680D
:1048B0008860202084F87A002046FEF704FF00205C
:1048C000BDE8F0810020FBE72068008B40F0080085
:1048D000216808830220F3E72DE9F04F89B00446F0
:1048E00000254FF08008A946AA4600200890FA4902
:1048F0002068884201D1012000E0002000B100E0E2
:1049000000BFA06AB0F1005F00D100BF2169A068BC
:10491000084361690843E16940EA0105A06A05436B
:1049200020680068ED490840284321680860206835
:10493000406820F44050E168084321684860A56958
:10494000E5492068884201D1012000E0002008B933
:10495000206A0543A06AB0F1005F03D1D4E90B01DE
:104960000843054320688068DD49084028432168E2
:1049700088602068C06A20F00F00616A08432168DF
:10498000C86200BFD7492068884224D1D648006851
:1049900000F03800182814D005DC48B108280AD0E7
:1049A000102817D10AE020280ED0282812D10EE0B6
:1049B0004FF001080EE04FF004080BE04FF0400804
:1049C00008E04FF0080805E04FF0100802E04FF053
:1049D000200800BF17E1C549206888421DD1C248A0
:1049E000006800F00700062816D2DFE800F0030692
:1049F000090C0F124FF000080EE04FF004080BE016
:104A00004FF0400808E04FF0080805E04FF01008AC
:104A100002E04FF0200800BFF5E0B5492068884269
:104A20001DD1B148006800F00700062816D2DFE863
:104A300000F00306090C0F124FF000080EE04FF0D3
:104A400004080BE04FF0400808E04FF0080805E0CC
:104A50004FF0100802E04FF0200800BFD3E0A54956
:104A6000206888421DD1A048006800F00700062891
:104A700016D2DFE800F00306090C0F124FF0000811
:104A80000EE04FF004080BE04FF0400808E04FF054
:104A9000080805E04FF0100802E04FF0200800BFC2
:104AA000B1E09549206888421DD18F48006800F028
:104AB0000700062816D2DFE800F00306090C0F12E3
:104AC0004FF000080EE04FF004080BE04FF04008F4
:104AD00008E04FF0080805E04FF0100802E04FF042
:104AE000200800BF8FE085492068884224D17E4895
:104AF000006800F03800182814D005DC48B10828F8
:104B00000AD0102817D10AE020280ED0282812D168
:104B10000EE04FF001080EE04FF004080BE04FF0FC
:104B2000400808E04FF0080805E04FF0100802E0E8
:104B30004FF0200800BF66E07149206888421DD10F
:104B40006948006800F00700062816D2DFE800F088
:104B50000306090C0F124FF000080EE04FF0040896
:104B60000BE04FF0400808E04FF0080805E04FF078
:104B7000100802E04FF0200800BF44E061492068BF
:104B800088421DD15848006800F00700062816D258
:104B9000DFE800F00306090C0F124FF000080EE0EA
:104BA0004FF004080BE04FF0400808E04FF0080811
:104BB00005E04FF0100802E04FF0200800BF22E0AF
:104BC0004549206888421ED14748001D006800F012
:104BD0000700062816D2DFE800F00306090C0F12C2
:104BE0004FF002080EE04FF004080BE04FF04008D1
:104BF00008E04FF0080805E04FF0100802E04FF021
:104C0000200800BF00BF00BF33492068884201D19F
:104C1000012000E0002000285DD00025B8F1100F31
:104C200033D009DCB8F1020F10D0B8F1040F11D065
:104C3000B8F1080F2ED117E0B8F1200F27D0B8F146
:104C4000400F0CD0B8F1800F24D124E0FCF72CFBEE
:104C5000054623E005A8FCF73DFB069D1EE002A8E3
:104C6000FCF74EFC039D19E01F4854380068C0F360
:104C7000401040B11C4854380068C0F3C1012248BC
:104C800020FA01F500E0204D08E0204D06E04FF449
:104C9000004503E000BF0120089000BF00BF002DC9
:104CA0000AD0606800EB4000A84203D860680003A7
:104CB000A84202D201200890D4E2B8F1100F7CD0B3
:104CC00026DCB8F1020F2DD0B8F1040F52D0B8F1A4
:104CD000080F73D19EE03FE1000C0058F369FFCF4D
:104CE000FFF4FF11001001405444025800440040FA
:104CF00000480040004C00400050004000140140BB
:104D000000780040007C00400090D00300093D0086
:104D1000B8F1200F7DD0B8F1400F54D0B8F1800F1A
:104D2000D7D109E1FCF7C0FA00270646FB49606AC3
:104D300031F810C062463B4630463946FBF72AFB45
:104D40004FF4807600220346A3FB060701FB0671A1
:104D500003FB021361684908064671185A41CDE900
:104D6000001266683246002308460199FBF712FBE1
:104D70000546E4E005A8FCF7ADFADDF818C0E74900
:104D8000606A31F810B05A46002360461946FBF7B6
:104D900001FB4FF4807C0022A0FB0C3B01FB0CB11B
:104DA00000FB0210616849085E1840EB0201D4F86C
:104DB00004C062460023304601E079E0BBE0FBF727
:104DC000E9FA0546BBE002A8FCF79AFBDDF80CC047
:104DD000D249606A31F810B05A460023604619463D
:104DE000FBF7D8FA4FF4807C0022A0FB0C3B01FBC0
:104DF0000CB100FB0210616849085E1840EB02012B
:104E0000D4F804C0624600233046FBF7C3FA0546D7
:104E100095E06EE0C2480068C0F3401038B3C04867
:104E20000068C0F3C101BF4820FA01FCBB49606AB9
:104E300031F810B05A46002360461946FBF7AAFA2B
:104E40004FF4807C0022A0FB0C3B01FB0CB100FB6B
:104E50000210616849085E1840EB0201D4F804C0F2
:104E6000624600233046FBF795FA05461FE0AB4942
:104E7000606A31F810C062460023AA481946FBF761
:104E800089FA4FF4807C0022A0FB0C3B01FB0CB1A3
:104E900000FB0210616849085E1840EB0201D4F87B
:104EA00004C0624600233046FBF774FA054646E02C
:104EB0009A49606A31F810C0624600239A48194640
:104EC000FBF768FA4FF4807C0022A0FB0C3B01FB4F
:104ED0000CB100FB0210616849085E1840EB02014A
:104EE000D4F804C0624600233046FBF753FA054667
:104EF00025E08A49606A31F810C0624600234FF409
:104F000000401946FBF746FA4FF4807C0022A0FBD4
:104F10000C3B01FB0CB100FB0210616849085E18F4
:104F200040EB0201D4F804C0624600233046FBF790
:104F300031FA054603E000BF0120089000BF00BF22
:104F4000B5F5407F05D3B5F5801F02D22068C56056
:104F500088E10120089085E1E069B0F5004F7CD13F
:104F6000B8F1100F7AD00CDCB8F1000F13D0B8F103
:104F7000010F21D0B8F1040F2FD0B8F1080F6ED176
:104F800051E0B8F1200F6BD0B8F1400F38D0B8F134
:104F9000800F64D197E0FDF751FB604A616A32F8F7
:104FA0001110B0FBF1F04000616800EB5100B0FB64
:104FB000F1F01FFA80FA89E0FDF756FB574A616A63
:104FC00032F81110B0FBF1F04000616800EB5100C5
:104FD000B0FBF1F01FFA80FA78E005A8FCF77AF947
:104FE00006994E4A606A32F81000B1FBF0F04000BA
:104FF000616800EB5100B0FBF1F01FFA80FA65E048
:1050000002A8FCF77DFA0399444A606A32F810005E
:10501000B1FBF0F04000616800EB5100B0FBF1F033
:105020001FFA80FA52E03E480068C0F34010C0B159
:105030003B480068C0F3C1013A48C840374A616A3A
:1050400032F81110B0FBF1F04000616800EB510044
:10505000B0FBF1F01FFA80FA12E044E011E031E019
:105060001FE02E49606A31F810002E49B1FBF0F0C4
:105070004000616800EB5100B0FBF1F01FFA80FACC
:1050800024E02649606A31F810002749B1FBF0F0AE
:105090004000616800EB5100B0FBF1F01FFA80FAAC
:1050A00014E01E49606A31F810004FF40041B1FB72
:1050B000F0F04000616800EB5100B0FBF1F01FFA26
:1050C00080FA03E000BF0120089000BF00BF4FF648
:1050D000F0700AEA0009CAF3420049EA00092068B0
:1050E000C0F80C90BEE0B8F1100F7CD00CDCB8F129
:1050F000000F1BD0B8F1010F29D0B8F1040F37D041
:10510000B8F1080F70D159E0B8F1200F6DD0B8F1A7
:10511000400F40D0B8F1800F66D19FE0386500089D
:10512000004402580090D00300093D00FDF786FAC4
:105130004E4A616A32F81110B0FBF1F0616800EB81
:105140005100B0FBF1F080B22168C86089E0FDF742
:105150008BFA464A616A32F81110B0FBF1F06168CF
:1051600000EB5100B0FBF1F080B22168C86078E03C
:1051700005A8FCF7AFF806993C4A606A32F81000BF
:10518000B1FBF0F0616800EB5100B0FBF1F080B2D0
:105190002168C86065E002A8FCF7B2F90399334AB8
:1051A000606A32F81000B1FBF0F0616800EB51006A
:1051B000B0FBF1F080B22168C86052E02C48006872
:1051C000C0F34010C0B12A480068C0F3C1012948AB
:1051D000C840264A616A32F81110B0FBF1F06168EC
:1051E00000EB510002E017E037E025E0B0FBF1F002
:1051F00080B22168C8600EE01C49606A31F8100076
:105200001C49B1FBF0F0616800EB5100B0FBF1F01C
:1052100080B22168C86024E01449606A31F8100047
:105220001549B1FBF0F0616800EB5100B0FBF1F003
:1052300080B22168C86014E00C49606A31F810003F
:105240004FF40041B1FBF0F0616800EB5100B0FB9E
:10525000F1F080B22168C86003E000BF012008902F
:1052600000BF00BF089809B0BDE8F08F386500089E
:10527000004402580090D00300093D00014691F817
:105280007900212839D1B1F86200C8B908680068EE
:1052900000F0005030B10868806820F400000B680E
:1052A000986005E00868006820F080000B681860CE
:1052B0000868006840F040000B68186000207047E4
:1052C0008868B0F5805F0BD1086948B9CA6D10884D
:1052D000C0F308000B681885C86D801CC86505E020
:1052E000CB6D581CC86518780B681885B1F862003A
:1052F000401EA1F862000020E1E70220DFE72DE96F
:10530000F04104460D4617469846069E21E0701C63
:10531000F8B12EB1FBF742FDA0EB0800B04218D95E
:105320002068006820F4D0702168086020688068D8
:1053300020F0010021688860202084F8790084F83A
:105340007A0000BF002084F8780000BF0320BDE889
:10535000F0812068C0692840A84201D1012000E006
:105360000020B842D3D00020F1E7000008B527485C
:105370000068C069C0F34010002843D00320FBF749
:10538000DFF94FF47A73012269462048FEF7A2F84C
:105390001F48008800F4004000BB1D48008800F44E
:1053A000804088B19DF800000A2803D000201849E9
:1053B000088027E01648008840F40040144908801F
:1053C0000320FBF773F91DE09DF800000D2806D1BE
:1053D0000F48008840F480400D49088012E09DF895
:1053E00000000B490988C1F30D010A4A50540848CE
:1053F0000088401C0649088008460088C72801DD4F
:10540000002008800148FDF7F1FE08BD9C00002047
:10541000100000201C01002000BFFEE70FB4054B68
:1054200010B503A9044A029800F034F810BC5DF8E6
:1054300014FB0000C1570008140000200248006857
:10544000C0F30220704700000CED00E010B500280A
:1054500004DB0A07130E054A135406E00A07140E6C
:10546000034A00F00F031B1FD45410BD00E400E0FA
:1054700018ED00E002E008C8121F08C1002AFAD1A6
:1054800070477047002001E001C1121F002AFBD1C4
:10549000704700002DE9FF4F8DB09B460F46044634
:1054A000002606E025280BD05A460F999047641C29
:1054B000761C20780028F5D111B03046BDE8F08F79
:1054C0000025A8460122984900E0054314F8013F51
:1054D000203B02FA03F00842F7D120782E2817D19A
:1054E00014F8010F45F004052A280ED06FF02F02A2
:1054F0002078A0F1300109290AD808EB880102EBD5
:10550000410100EB0108641CF2E757F8048B641CAE
:1055100020786C280DD004DC4C2812D06A2811D1D8
:1055200004E074280DD07A280CD10AE045F4001567
:1055300007E0617845F48015814202D1641C05F5CD
:105540008015641C2278692A45D008DC002AB3D073
:10555000582A69D0632A10D0642A08D13BE0702A07
:1055600067D0732A13D0752A5CD0782A5CD0104695
:105570005A460F999047761CD3E017F8040B8DF824
:10558000000000208DF80100E946012003E057F8F3
:10559000049B4FF0FF3069074FF0000501D40AE08B
:1055A0006D1C45450DDA8542FADB19F80510002916
:1055B000F6D106E06D1C8542FCDB19F805100029C8
:1055C000F8D12E4404E019F8010B5A460F99904780
:1055D0006D1EF8D2A5E00A200021CDE90801C5F32F
:1055E000025002280DD001CFC117031E71F1000334
:1055F0000DDA4FF0000CD0EB0C006CEB01012D2309
:1056000008E0FF1D27F00707F7E80201EDE72B058B
:1056100004D52B238DF8283001233BE0EB0739D04C
:105620002023F7E70A2000E010200021CDE908013F
:1056300007E01020002145F00405CDE908014FF0F6
:105640000808C5F3025002280FD001CF00214FF007
:10565000000A2B071FD5702A0DD0DDE908C38CF096
:10566000100C5CEA030C0CD015E0FF1D27F00707B7
:10567000F7E80201EBE740228DF828204FF0010AFD
:105680000BE050EA010306D030238DF828308DF866
:10569000292002239A46582A04D024A20DF1200979
:1056A0000B9209E026A2F9E7DDE90823FAF772FE7A
:1056B0000B9B9B5C09F8013D50EA0102F4D1ADEB74
:1056C000090020300890680701D44FF001080899BC
:1056D000884502DDA8EB010000E00020804600259F
:1056E00006E00AA85A46405D0F9990476D1C761C4B
:1056F0005545F6DB04E030205A460F999047761C5A
:10570000B8F10001A8F10108F5DC05E019F8010B7A
:105710005A460F999047761C0899481E0890002910
:10572000F4DC641CC5E60000092801003031323386
:1057300034353637383961626364656600000000CD
:1057400030313233343536373839414243444546B7
:105750000000000070B50446002504E04FF47A70A4
:1057600000F004F86D1CA542F8D370BD2DE9F04798
:10577000074600260420FDF708FD4FF0E020D0F892
:1057800014904FF4C87007FB00F84FF0E0208569D3
:1057900011E04FF0E0208469AC420CD0AC4202D260
:1057A000281B064403E0A9EB0400284406442546D0
:1057B000464500D300E0ECE700BFBDE8F0870000FD
:1057C00000BF054AD26902F04002002AF9D0C2B2F5
:1057D000014B1A85704700000010014000F0DAFA12
:1057E000FBF74CF8FAF75CFE00F0D4FB09E001206F
:1057F000FAF75CFF0220FAF7EDFF4FF47A7000F041
:105800007DFBF4E72DE9F04105460E461C4807688C
:105810001C480068001D00F073FA50B91948006870
:1058200090F82C10012088401749096881431648D8
:105830000160681C38B936B112480168091D134867
:1058400000F09CFA1AE07C190E4800684460BC42E3
:1058500007D20C480168091D0D48006800F074FA71
:105860000CE008480168091D0A48006800F06CFA5D
:1058700009480068844201D207480460BDE8F0810D
:10588000500000203C000020540000208C04002028
:1058900044000020400000206C00002010B50446A9
:1058A00000F078FA24480068401C23490860234827
:1058B000006840B9214804600846006801280DD1FD
:1058C00000F0EAF80AE01E48006838B91B48006892
:1058D000C06AE16A884201D8184804601948006823
:1058E000401C1849086008460068606494F82C1051
:1058F0000120884014490968084313490860E16A97
:1059000001EB8101114A02EB8100211D00F036FA02
:1059100000F072FA0A48006868B108480068C06A76
:10592000E16A884207D24FF0805009490860BFF30E
:105930004F8FBFF36F8F10BD4C0000203C00002044
:105940005800002068000020540000209C03002024
:1059500004ED00E010B516E000F01CFA0C48C06839
:10596000C468201D00F0CCF90A480068401E0949AF
:10597000086009480068401E0749086000F03CFACA
:10598000204600F00BF8044800680028E4D110BD60
:10599000780400204C0000204800002010B5044688
:1059A000206B00F04DFA204600F04AFA10BD0000CE
:1059B00000BFFFF7CFFF064800680128F9D94FF074
:1059C000805004490860BFF34F8FBFF36F8FF0E73B
:1059D0009C03002004ED00E02DE9F05F82460F46B5
:1059E00090469B460A9E0C9C4FEA8801A522206B9C
:1059F000FAF713FDA8F10100216B01EB800929F0F2
:105A0000070909F0070008B9012000E0002028B9C3
:105A100040F263321B491CA0FFF700FD002507E0A0
:105A2000795D04F134004155785D00B902E06D1CE8
:105A3000102DF5D300BF002143200155082E00D3BF
:105A40000726E662E66400202065201D00F079F953
:105A500004F1180000F075F92461C6F10800A06196
:105A600064620020606584F858005A4651464846F2
:105A700000F030F920600B9808B10B980460BDE885
:105A8000F09F0000686500084572726F723A2573D6
:105A90002C25640D0A00000010B5002407E004EB7B
:105AA00084010F4A02EB810000F03EF9641C082CCF
:105AB000F5D30C4800F038F90B4800F035F90B48E5
:105AC00000F032F90A4800F02FF90A4800F02CF9EA
:105AD00004480949086004480849086010BD0000EE
