:020000040800F2
:10000000203C0024AD020008D1870008B984000814
:100010003987000839250008E99F00080000000022
:10002000000000000000000000000000BF02000807
:10003000212C000800000000D38700086D8B000809
:10004000ED9F0008C7020008758D0008458A00086A
:10005000C7020008C7020008C7020008C70200085C
:10006000C7020008C7020008C7020008C70200084C
:10007000C7020008C7020008C7020008C70200083C
:10008000B1290008C7020008C7020008C70200081B
:10009000C7020008C7020008C7020008C70200081C
:1000A000C7020008C7020008C70200088D8D0008BB
:1000B000C7020008C70200089D8D0008C70200089B
:1000C000C7020008C7020008C7020008C7020008EC
:1000D000C7020008999F0008C7020008C70200086D
:1000E000C7020008C589000800000000C702000818
:1000F000C7020008C7020008C7020008C7020008BC
:10010000C7020008C7020008E18D0008C702000806
:10011000C7020008C7020008C7020008C70200089B
:10012000C7020008C7020008C7020008C70200088B
:10013000C7020008C7020008C7020008C70200087B
:1001400000000000000000000000000000000000AF
:10015000C7020008C7020008C7020008C70200085B
:10016000C7020008C7020008C7020008C70200084B
:10017000C7020008C7020008C7020008000000000C
:10018000C7020008C7020008C7020008C70200082B
:10019000C7020008C7020008C7020008C70200081B
:1001A000C7020008C7020008C7020008C70200080B
:1001B000C7020008C7020008C7020008C7020008FB
:1001C000C7020008C7020008C7020008C7020008EB
:1001D000C7020008C7020008C7020008C7020008DB
:1001E000C7020008C7020008C7020008C7020008CB
:1001F000C7020008C7020008C7020008C7020008BB
:10020000C7020008C7020008C7020008C7020008AA
:10021000C7020008C7020008C7020008C70200089A
:10022000C7020008C7020008C7020008000000005B
:10023000C7020008C702000800000000C70200084B
:10024000C7020008C7020008C7020008C70200086A
:10025000C7020008C7020008C7020008C70200085A
:10026000C7020008C7020008C7020008C70200084A
:10027000C7020008C7020008C7020008000000000B
:10028000C702000800000000C702000800000000CC
:1002900000000000C7020008DFF80CD000F07AF878
:1002A0000048004729A50008203C00240648804754
:1002B00006480047FEE7FEE7FEE7FEE7FEE7FEE74B
:1002C000FEE7FEE7FEE7FEE7E18C00089902000882
:1002D0002DE9F05F0546002092469B46884606467B
:1002E000814640241BE0284641464746224600F00E
:1002F00041F853465A46C01A914110D31146184648
:10030000224600F028F82D1A67EB01084F462246D6
:100310000120002100F01FF817EB00094E41201EBC
:10032000A4F10104DFDC484631462A464346BDE8D5
:10033000F09F40EA01039B0703D009E008C9121FA0
:1003400008C0042AFAD203E011F8013B00F8013B8F
:10035000521EF9D27047202A04DB203A00FA02F13B
:10036000002070479140C2F1200320FA03F31943A3
:1003700090407047202A04DB203A21FA02F0002145
:10038000704721FA02F3D040C2F1200291400843A5
:1003900019467047064C074D06E0E06840F001033F
:1003A00094E8070098471034AC42F6D3FFF778FF83
:1003B000E80601080807010870B58C1810F8015B01
:1003C00015F0070301D110F8013B2A1106D110F8EE
:1003D000012B03E010F8016B01F8016B5B1EF9D1F2
:1003E0002B0705D40023521E0DD401F8013BFAE778
:1003F00010F8013BCB1A921C03E013F8015B01F8E3
:10040000015B521EF9D5A142D8D3002070BD10B5B2
:1004100000F07EF810BD000010B508480078401CC0
:1004200006490870084600783C2806D1002008706C
:1004300000F06EF8012001F09DF910BDF0010024DC
:100440007047000010B572220349044802F096FD7F
:100450000349086010BD0000F4B30008C80300247D
:10046000FC01002410B572220349044802F0C5FDC6
:100470000349086010BD0000F4B30008C80300245D
:10048000F801002410B5044604B910BD012C00D1B8
:100490000224012009F001FE0948046000200949F6
:1004A000087009F0FAFD06E0FFF7B1FF0548007893
:1004B000012800D100E0F7E700BF00BFE5E700003A
:1004C000200200242402002470B5034600224FF0CD
:1004D000E02675690D4E366803FB06F44FF0E02602
:1004E000B16910E04FF0E026B06988420BD0884235
:1004F00002D20E1A324402E02E1A0E443244014651
:10050000A24200D300E0EDE700BF70BD1C02002452
:1005100010B5024803F0B1FF10BD0000BC09002473
:1005200070B504460D4612480068C0F3806078B18B
:10053000012001F0D5F84FF47A60FFF7A3FF0C48D3
:10054000006840F480300A490860012001F07EF81C
:1005500008480949086008464460856040F6FF7114
:10056000C16003F059FF08B102F05BFB70BD0000F1
:10057000D044025800480058BC09002410B50A486D
:100580000A49086000200871002108484171416152
:100590008161032005490862084602F073FD08B135
:1005A00002F03FFB10BD0000004C0258C8030024BD
:1005B00070B504460D46164619481A490860681E6B
:1005C00048600021174881604FF47A7090FBF4F185
:1005D0001448C1600021016107F026FC6020124927
:1005E00008601048C068401E00EE100AB8EE400BCC
:1005F000B6EE001B20EE010BBCEEC00B084680EDF2
:10060000010A022088600022064807F053FB0021FF
:10061000044807F05BFCF1B2204601F023FF70BDF7
:1006200000040040280700242009002438B50446AF
:100630000D4600BF1148006840F004000F490860F3
:100640000846006800F00400009000BF00BF0322CD
:1006500011461E2004F04CF91E2004F039F9084818
:10066000084908600846456000218160C460016156
:1006700007F038F9034807F0B0F938BDE8440258EC
:10068000000800406807002410B5094809490860BF
:10069000C72048600021074881600749C1600021E8
:1006A000016107F01FF9034807F097F910BD00003A
:1006B000000C0040A80700243F420F0010B50E4870
:1006C0000E49086040210D48C16000200B49486078
:1006D00000210A4801618160416107F003F920208F
:1006E0000749086000208860044807F0C5F80348FF
:1006F00007F064F910BD000000100040E807002476
:100700004C09002430B587B00546062D64D2DFE8D9
:1007100005F00313233343533C4C00BF3C480068AF
:1007200040F004003A4908600846006800F0040000
:10073000019000BF00BF50E0364C00BF3448006855
:1007400040F08000324908600846006800F08000F0
:10075000019000BF00BF40E02E4C00BF2C48006855
:1007600040F080002A4908600846006800F08000D8
:10077000019000BF00BF30E0274C00BF2448006854
:1007800040F00800224908600846006800F00800B0
:10079000019000BF00BF20E01F4C00BF1C48006854
:1007A00040F008001A4908600846006800F0080098
:1007B000019000BF00BF10E0174C00BF1448006854
:1007C00040F00800124908600846006800F0080080
:1007D000019000BF00BF00E000BF00BF0F4850F80D
:1007E000250002900120039004900320059002A9A7
:1007F000204603F0D3FC094830F8250081B20122DD
:10080000204603F0FDFD07B030BD0000000802588F
:10081000E0440258001C0258000C0258ECB50008D5
:1008200010B50446FFF74AFF204601F0DFFF10BD78
:1008300010B5134813490860084605F073FF08B166
:1008400002F0EFF90F4805F088FF08B102F0E9F96E
:10085000002404E0601C84B20A20FFF735FE09483A
:100860000068406800F0010018B942F2107084423C
:10087000F0DB42F21070844201DB02F0D2F910BDCD
:1008800000180248140B002410B5FFF717FF01F001
:10089000E9FF10BD70B50546002416E0002004EB0A
:1008A00044010E4A02EB8101486004EB440102EB73
:1008B0008101886004EB440102EB8101487004EB84
:1008C000440102F82100601CC4B2042CE6DB0420C1
:1008D00006F0A1FF0248056070BD0000700500240D
:1008E0001C02002410B50446FFF7E8FE204601F084
:1008F000E9FF10BD10B504460C480D4908600846D4
:10090000446000218160C160016181610C2141610D
:100910000021C16107F028FC08B102F082F9012230
:100920000449034807F0BEFC10BD00000010014060
:10093000A00500243402002410B50C480C490860BE
:10094000012008719B210A4881601021C1600021AB
:10095000417141618161032005490862084602F046
:1009600091FB08B102F05DF910BD0000004C025887
:10097000C803002410B5002400BF09E0064850F861
:100980002410064805F037FF08B1601C10BD641C38
:10099000202CF3D30020F9E76C020024E0090024A6
:1009A00070B5044600260D4805880D48006818B14A
:1009B000204600F023FF0FE008484088454300210F
:1009C000084600F01BFC00F02FFE002602E005495F
:1009D0000C80761CAE42FAD370BD00006005002486
:1009E000F40400240000086010B504465C488471DB
:1009F0005C48006850B1204600F02AFF5948C08A80
:100A0000574908805748008B488010BD002C51D1B1
:100A1000F020534908804FF4A07048800846808831
:100A200049F24131884205D04D48808845F2103165
:100A3000884214D12C204A4908812A2048812B2041
:100A400088810846808845F21031884206D14FF4EB
:100A5000A070434908804FF4F07048807BE0404824
:100A6000808845F21051884210D14FF430503C49F3
:100A700008814FF4285048814FF42C5088814FF45E
:100A8000F07008804FF44870488064E034488088F3
:100A900041F6631188425ED12C20314908812B2018
:100AA00048812A2088814FF4F07008804FF4487004
:100AB000488050E04FF4A07029490880F020488019
:100AC0000846808849F24131884205D02448808810
:100AD00045F21031884207D12C20214908812A2073
:100AE00048812B20888129E01D48808845F21051DB
:100AF000884210D14FF43050194908814FF42850E2
:100B000048814FF42C5088814FF4487008804FF48E
:100B1000F070488012E01248808841F663118842E4
:100B20000CD12C200E4908812A2048812B20888155
:100B30004FF4487008804FF4F0704880084880886F
:100B400045F21031884206D14FF4F0700449088014
:100B50004FF4A0704880002000F016FA00BF54E760
:100B600060050024F40400242DE9FF4F84B0814681
:100B70008A460020039002900698A0EB090507988A
:100B8000A0EB0A06CDF80490CDF800A0002D01DD01
:100B9000012705E00DB9002702E04FF0FF376D4255
:100BA000002E02DD4FF0010806E016B94FF00008F4
:100BB00002E04FF0FF387642B54201DD2C4600E0FE
:100BC00034464FF0000B21E0009A91B2019A90B2A6
:100BD00000F022F8039828440390029830440290D1
:100BE0000398A04205DD0398001B03900198384448
:100BF00001900298A04205DD0298001B0290009827
:100C0000404400900BF101001FFA80FB601C8345FB
:100C1000DADD08B0BDE8F08F30B504460D460A486D
:100C2000006830B1094829460268204600F026FED7
:100C300009E02946204600F0E1FA00F0F5FC0348FF
:100C400000880349088030BDF40400241002002409
:100C500000000860F0B504460D4616461F462B46B8
:100C6000324629462046FFF77FFF3B46224629466B
:100C70002046FFF779FF3B46324639462046FFF7CC
:100C800073FF3B46324629463046FFF76DFFF0BD05
:100C90002DE9F04306460F469046002445460320C2
:100CA000A0EB48093CE07A1B91B2321990B2FFF7F1
:100CB000B3FF3A1B91B2721990B2FFF7ADFF3A1928
:100CC00091B2721990B2FFF7A7FF7A1991B2321957
:100CD00090B2FFF7A1FF7A1991B2321B90B2FFF7E1
:100CE0009BFF3A1991B2721B90B2FFF795FF7A1BE6
:100CF00091B2321B90B2FFF78FFF3A1B91B2721B79
:100D000090B2FFF789FF641CB9F1000F03DAA0006D
:100D1000801D814404E0601B80000A3081446D1E08
:100D2000AC42C0DDBDE8F08370B504460D46164602
:100D30004348006828B132462946204600F09EFD0F
:100D400070BD4048808849F24131884205D03D4815
:100D5000808845F21031884214D13A49488900F020
:100D60009DFF201200F08EFFE0B200F08BFF3549AE
:100D7000888900F093FF281200F084FFE8B200F0A9
:100D800081FF54E02F48808845F21051884220D1DD
:100D90002C49488900F082FF201200F073FF294996
:100DA0004989491C88B200F079FFE0B200F06AFF7F
:100DB0002449888900F072FF281200F063FF21495E
:100DC0008989491C88B200F069FFE8B200F05AFF37
:100DD0002DE01C48808841F66311884227D11948CC
:100DE000807920B917480088401E001B84B215493D
:100DF000488900F053FF201200F044FFE0B200F0F9
:100E000041FF201200F03EFFE0B200F03BFF0D4931
:100E1000888900F043FF281200F034FFE8B200F0A8
:100E200031FF281200F02EFFE8B200F02BFF05483A
:100E3000008905490880891C0E8000BF80E70000FA
:100E4000F404002460050024FEFF07602DE9F84F3C
:100E500005460E4617469846DDF828904FF0000BE1
:100E60001448006840B143463A4631462846CDF81A
:100E7000009000F02BFD1BE0781B401C1FFA80FB4C
:100E8000344613E02146284600F0B8F900F0CCFBC8
:100E90004FF0000A06E00849A1F800900AF10100AD
:100EA0001FFA80FADA45F6DB601C84B24445E9DDBE
:100EB000BDE8F88FF4040024000008602DE9F0413B
:100EC00005460E4600240027A0462D480088A8426B
:100ED00003DD2B484088B04202DC0020BDE8F081F1
:100EE0002848006820B13146284600F07BFEF5E72F
:100EF0003146284600F082F92148808849F2413184
:100F000088420BD01E48808845F21031884205D0B7
:100F10001B48808841F66311884203D12E2000F0DF
:100F2000BDFE09E01648808845F21051884203D181
:100F30004FF4385000F0B2FE00F09AFE044610481C
:100F4000808841F66311884201D12046C6E702201D
:100F500009F0EFFA00F08CFE0446022009F0E9FAED
:100F600000F086FE8046E7B24FF6FF7000EA0727E2
:100F7000E012C002B91240EA411040EAE820ADE7B1
:100F800060050024F4040024F0B505460024002781
:100F900099488079012805D19748808841F66311E6
:100FA000884208D194488079F0B99348808841F606
:100FB0006311884218D1082D15D2DFE805F0040628
:100FC000080A0C0E101206250DE007250BE004257B
:100FD00009E0052507E0012505E0002503E00325DC
:100FE00001E0022500BF00BF8348808849F24131FB
:100FF000884211D08048808845F2103188420BD059
:101000007D48808845F21051884205D07A48808812
:1010100041F6631188427DD1082D1CD2DFE805F02E
:101020000406090C0F12151800BF14E044F08004E8
:1010300011E044F040040EE044F0C0040BE044F042
:10104000200408E044F0600405E044F0A00402E05D
:1010500044F0E00400BF00BF6748808845F21051AB
:10106000884202D14FF4585700E036276248808802
:1010700045F2103188420DD05F48808845F210510A
:10108000884207D05C48808841F66311884201D0CD
:1010900044F008042146384600F0D0FA56488088CB
:1010A00041F6631188421DD004F0200068B1524817
:1010B000008851494988884214DA4F480688408898
:1010C0004D490880084646800CE04B4800884A4954
:1010D0004988884206DD4848068840884649088095
:1010E000084646804448808845F21051884254D1D1
:1010F0004149488900F0D2FD002000F0C3FD3E497F
:101100004989491C88B200F0C9FD002000F0BAFDF1
:10111000394900E06FE04989891C88B200F0BEFDC2
:1011200035490988491EC1F30F2000F0ABFD324953
:101130004989C91C88B200F0B1FD2F490978491EC0
:10114000C8B200F09FFD2C49888900F0A7FD00205F
:1011500000F098FD28498989491C88B200F09EFD5D
:10116000002000F08FFD24498989891C88B200F095
:1011700095FD21494988491EC1F30F2000F082FDE9
:101180001D498989C91C88B200F088FD1A498978EF
:10119000491EC8B200F076FD2DE01749488900F0DD
:1011A0007DFD002000F06EFD002000F06BFD124977
:1011B0000988491EC1F30F2000F064FD0E4909782B
:1011C000491EC8B200F05EFD0B49888900F066FD3B
:1011D000002000F057FD002000F054FD064949882A
:1011E000491EC1F30F2000F04DFD03498978491EC7
:1011F000C8B200F047FDF0BD6005002410B50246FE
:101200000C464B48808849F24131884205D0484815
:10121000808845F21031884214D14549488900F050
:101220003DFD101200F02EFDD0B200F02BFD404924
:10123000888900F033FD201200F024FDE0B200F0B8
:1012400021FD73E03A48808841F66311884247D116
:1012500037488079A8B936480088401E801A82B283
:101260003349488900F01AFD002000F00BFD0020F2
:1012700000F008FD101200F005FDD0B200F002FDF4
:1012800016E02B49488900F009FD101200F0FAFC25
:10129000D0B200F0F7FC26490988491EC1F30F209F
:1012A00000F0F0FC22490978491EC8B200F0EAFCBF
:1012B0001F49888900F0F2FC201200F0E3FCE0B244
:1012C00000F0E0FC1A494988491EC1F30F2000F0E4
:1012D000D9FC17498978491EC8B200F0D3FC25E033
:1012E0001348808845F2105188421FD1104948891F
:1012F00000F0D4FC101200F0C5FC0D494989491CCE
:1013000088B200F0CBFCD0B200F0BCFC0849888960
:1013100000F0C4FC201200F0B5FC05498989491C85
:1013200088B200F0BBFCE0B200F0ACFC10BD0000E5
:10133000600500242DE9F84F80460F4616461C46EE
:10134000BB462046E31704EB5373DB1021464FEAFC
:10135000E47C04EB5C7C4FEAEC0CA4EBCC0CBCF121
:10136000000F02D04FF0010C01E04FF0000C63447D
:10137000224604EBD27C4FEA6C0C03FB0CF3DBB28D
:101380000093A6F12000C6B200255EE00C2C07D128
:1013900006EB46002F4901EB800010F805901BE09A
:1013A000102C05D12C4800EB061010F8059013E026
:1013B000182C07D106EBC600284901EB800010F875
:1013C000059009E0202C05D1254800EBC61010F847
:1013D000059001E0BDE8F88F4FF0000A2FE009F01A
:1013E000800030B11F48394602684046FFF79CFC38
:1013F00007E00A9828B91C48394602684046FFF7BA
:1014000093FC4FEA49604FEA1069781C87B217488D
:101410004088B84200DCDDE7A7EB0B00A0420AD110
:101420005F4608F101001FFA80F810480088404527
:1014300000DCCFE706E00AF1010000F0FF0ABAF194
:10144000080FCCDB00BF681CC5B2009885429DDB4D
:1014500000BFBFE734B60008A8BA000898C000086B
:10146000F4CD0008100200241402002460050024BA
:101470002DE9FF4F81B0074691461E460E9D4FF065
:10148000000A002439E0301B401EC1B20A2007F0D8
:101490003FF8B9FBF0F00A21B0FBF1F201FB1208B2
:1014A000BAF1000F16D1701EA04213DDB8F1000F83
:1014B0000ED10020AB4605EBDB71491001FB047136
:1014C000009088B22B4620220299FFF733FF12E0EA
:1014D0004FF0010A0020AB4605EBDB71491001FB20
:1014E0000471009088B208F13001CAB22B4602990B
:1014F000FFF720FF00BF601CC4B2B442C3DB05B0DD
:10150000BDE8F08F2DE9F84704460D469046994610
:10151000DDE9096704F0FF0A08EB04001FFA80F810
:1015200009EB05001FFA80F916E0444502DB54463A
:10153000A81985B24D4500DB14E0002000903A78F0
:10154000334629462046FFF7F5FE304606EBD071BC
:1015500004EB61018CB27F1C38787E2802DC38787D
:101560002028E2DA00BFBDE8F8872DE9FF4F82B0FE
:10157000064692461F46DDE90F48002001900025EF
:101580004DE0781B401EC1B20A2006F0C1FFBAFB35
:10159000F0F00A21B0FBF1F201FB1209019850BBF7
:1015A000781EA84227DDB9F1000F22D108F0800093
:1015B00078B108F00100A34604EBDB71491001FB90
:1015C0000561009088B2234630220399FFF7B2FEEE
:1015D0000EE008F00100A34604EBDB71491001FBAB
:1015E0000561009088B2234620220399FFF7A2FEEE
:1015F00013E00120019008F00100A34604EBDB7129
:10160000491001FB0561009088B209F13001CAB2AE
:1016100023460399FFF78EFE00BF681CC5B2BD428A
:10162000AFDB06B0BDE8F08F0248008902490880B0
:101630007047000060050024FEFF0760024A10802A
:10164000921C118070470000FEFF076010B5044631
:10165000062C3AD2DFE804F0030C151E27301C4894
:1016600030F8240081B201221A4802F0C9FE2DE0B0
:10167000174830F8240081B20122174802F0C0FE5A
:1016800024E0134830F8240081B20122124802F00D
:10169000B7FE1BE00E4830F8240081B201220F484B
:1016A00002F0AEFE12E00A4830F8240081B20122B6
:1016B0000A4802F0A5FE09E0054830F8240081B28E
:1016C0000122064802F09CFE00E000BF00BF10BDF2
:1016D000ECB5000800080258001C0258000C025823
:1016E00010B50446062C3AD2DFE804F0030C151EB0
:1016F00027301C4830F8240081B200221A4802F03A
:101700007FFE2DE0174830F8240081B200221748F0
:1017100002F076FE24E0134830F8240081B2002263
:10172000124802F06DFE1BE00E4830F8240081B232
:1017300000220F4802F064FE12E00A4830F824004C
:1017400081B200220A4802F05BFE09E0054830F849
:10175000240081B20022064802F052FE00E000BFE1
:1017600000BF10BDECB5000800080258001C02586C
:10177000000C025810B50446062C34D2DFE804F001
:10178000030B131B232B194830F8240081B218488F
:1017900002F032FE28E0154830F8240081B21548E6
:1017A00002F02AFE20E0114830F8240081B21148EE
:1017B00002F022FE18E00D4830F8240081B20E48F5
:1017C00002F01AFE10E0094830F8240081B20A48FD
:1017D00002F012FE08E0054830F8240081B2064805
:1017E00002F00AFE00E000BF00BF10BDECB500082B
:1017F00000080258001C0258000C025818B5044694
:1018000006480094008B401E83B20448C08A401EE4
:1018100082B20021084600F059F818BDF4040024F3
:1018200070B5B0B004460E4615464FF0005001901A
:101830000A940B9602210C910D910E9501A803F0CC
:1018400031FB10B9002030B070BD0120FBE7000073
:101850000949487530B98988074AD18211460988F3
:10186000118308E0012806D103490988024AD18280
:101870001146898811837047F404002470B5114B18
:101880005B7D6BB10F4BDB690E4D2D6805FB0105D0
:101890006B430C4D2D7D0C4E56F82550EA520FE04F
:1018A000084B1D685B681B1A5B1E05FB0313054D87
:1018B000ED696B43034D2D7D034E56F82550EA52DA
:1018C00070BD0000F4040024080200242DE9F04F4C
:1018D00004460D4616464FF0000CDFF8289199F8A3
:1018E0001590B9F1000F04D02046294632461F4614
:1018F00011E02846DFF80C91D9F80490A9EB06090D
:10190000A9F101011A46DFF8FC90D9F80490A9EB7F
:101910000409A9F10107DFF8EC90B9F80090A2EBF7
:10192000000A0AF1010AA9EB0A091FFA89F8DFF88F
:10193000D49099F81490DFF8D0A05AF82990DFF8E5
:10194000C4A0DAF81CA0DFF8BCB0DBF800B00BFBD9
:10195000010B0AFB0B9EDFF8B490D9F8009049F414
:101960000009DFF8A8A0CAF800904FF44039DFF86A
:10197000A0A0CAF800904FF00209CAF83490D146EE
:10198000C9F84080D9F8009029F00109CAF8009000
:10199000D146C9F83CE0A7EB010909F10109A2EB26
:1019A000000A0AF1010A49EA0A49DFF864A0CAF804
:1019B0004490DDF82490CAF83890D146D9F80090C8
:1019C00049F00109CAF8009005E00CF1010CBCF5E2
:1019D000001F00D308E0DFF83890D9F8049009F030
:1019E0000209B9F1000FF0D000BFDFF82490D9F858
:1019F000089049F00209DFF818A0CAF80890BDE87D
:101A0000F08F0000F404002408020024D844025897
:101A1000001000522DE9F04F8DB005460E461746D6
:101A20009846DDE917ABDDF85890199C002000902E
:101A3000029015480068019013484068039004978D
:101A4000CDF81480CDF818904FEA0A2007904FEA9D
:101A50000B20089009960C4800680A900A484068D4
:101A60000B90002001148DF8321001128DF8311006
:101A7000E0B28DF830002A466946044802F038FD8D
:101A80000DB0BDE8F08F0000F4040024EC03002446
:101A900010B501290CD1114A12688432C301D25801
:101AA00042F001030D4A12688432C40113510CE064
:101AB00059B90A4A12688432C301D25822F001038C
:101AC000064A12688432C4011351044A1268526AE9
:101AD00042F00102014B1B685A6210BDEC03002466
:101AE0002DE9F04104460E4617461D46DDF81880E4
:101AF00023463A463146054802F05AFE23464246FE
:101B00002946024802F08AFEBDE8F081EC03002479
:101B100010B586B0002400BF2F48006840F0400098
:101B20002D4908600846006800F04000009000BFA2
:101B300000BF00BF0846006840F480700860084697
:101B4000006800F48070009000BF00BF402001904A
:101B500000200290012003900320049001A91F4857
:101B600002F01CFB8420019001A91D4802F016FB25
:101B700040211A4802F038FC04460421184802F0BB
:101B800033FC44EA4000C4B28021154802F02CFC2A
:101B900044EA8000C4B21CB944F2423006B010BD21
:101BA000012C02D147F28400F8E7022C02D147F25F
:101BB0001600F3E7032C02D147F21800EEE7042CDD
:101BC00002D148F21600E9E7052C02D141F21800D3
:101BD000E4E70020E2E70000E04402580018025861
:101BE0000020025810B502461048407D68B10F48E9
:101BF000C0690E4B1B6803FB012358430B4B1B7D35
:101C00000B4C54F82330185A10BD0848036840683C
:101C1000801A401E03FB0010044BDB695843034B42
:101C20001B7D034C54F82330185AEDE7F4040024CC
:101C3000080200240149087570470000F4040024DC
:101C4000012808D109490968896941F00101074A59
:101C50001268916108E038B904490968896921F07E
:101C60000101024A1268916170470000EC030024F0
:101C700008B5034800880090BDF8000008BD0000CA
:101C80000000086001B5BDF800000090BDF800003C
:101C90000149088008BD00000000086001B5BDF8DA
:101CA00000000090BDF800000149088008BD000058
:101CB000FEFF07601FB50024FFF72AFF044644F229
:101CC0004230844217D14FF4F070F24908604FF46B
:101CD0008870486001200881488128208881082078
:101CE000C88105200882082048825822A0210520AA
:101CF000FFF796FD2FE147F28400844217D14FF49D
:101D00004870E44908604FF4F07048600120088191
:101D100048812E2088811720C881D2200882162071
:101D200048821822A0210520FFF77AFD13E147F22F
:101D30001600844218D14FF48060D64908604FF4F1
:101D40001670486014200881032048818C20888107
:101D50001420C881A02008820C2048821222A021D1
:101D60000520FFF75DFDF6E047F21800844207D139
:101D70004FF4A060C74908604FF448704860EAE03B
:101D800048F21600844206D14011C24908604FF45F
:101D900016704860DFE041F21800844215D14FF41C
:101DA000A060BC4908604FF4487048608C2088816E
:101DB0000A2008820881C8814882032048811022B5
:101DC000A0210520FFF72CFDC5E04AF20100844266
:101DD00018D140F25650AF4908604FF44070486047
:101DE0008F20088146200882D520888103204881E1
:101DF0001820C881032048821C22A0210520FFF75B
:101E00000FFDA8E04AF20200844217D14011A14917
:101E100008604FF448704860202008813020088214
:101E200050208881062048810E20C88103204882E6
:101E30001622A0210520FFF7F3FC8CE04AF20300F4
:101E4000844217D14011934908604FF440704860B4
:101E50002020088150208881302008820720488176
:101E60000C20C881032048821722A0210520FFF7FB
:101E7000D7FC70E04AF20400844218D14FF480602D
:101E8000844908604FF44070486088200881182019
:101E90000882A0208881062048811D20C881032057
:101EA00048821222A0210520FFF7BAFC53E04AF233
:101EB0000500844217D14FF45470764908604FF4FE
:101EC000F070486070200881888110200882082006
:101ED00048811720C881062048822F22A021052092
:101EE000FFF79EFC37E04AF20600844218D14FF417
:101EF0004870684908604FF4167048608020088177
:101F00005820888128200882042048811720C88111
:101F1000012048822822A0210520FFF781FC1AE039
:101F20004AF20700844216D180115A4908604FF4E2
:101F3000F07048606020088108200882382088817D
:101F4000022048812920C881022048823E22A02107
:101F50000520FFF765FC4F4800884F4908804D4831
:101F60008088488002204B49C8614C484C49086031
:101F70004C484D4908600020486000214A48816073
:101F8000C160016141F21800844203D14FF08051D9
:101F9000454801613F480089401E434948613D482A
:101FA0004089401E88613B4800893A498989084434
:101FB000401E3D49C861374840893649C9890844AF
:101FC000401E3949086233480089324989890844EA
:101FD000304909680844401E334948622D48408909
:101FE0002C49C98908442B4949680844401E2E4998
:101FF0008862284800892749898908442549096851
:1020000008442449098A0844401E2749C8622148D7
:1020100040892049C98908441E49496808441D4926
:10202000498A0844401E2049086300211E4880F860
:10203000361080F8351080F8341002F089FA00204C
:1020400007210622CDE90002CDE902101448FF2342
:10205000022201680020FFF7DDFC0E48808880B274
:1020600000900C48008883B2002211461046FFF70A
:1020700037FD0120FFF7ECFB0020FFF7DBFD01221D
:1020800020210A4802F0BCF94FF0FF30FFF7B6FB01
:102090001FBD0000F404002460050024000000C0FF
:1020A0000802002400100050EC0300240004025831
:1020B00010B500234FF480720249034804F00EFF6C
:1020C00010BD0000180A0024E009002410B5002209
:1020D0000249034804F050FF10BD000065020024CF
:1020E000E009002410B500220249034804F06AFF09
:1020F00010BD0000040A0024E009002408B51848B7
:1021000018490860002048607F2116488160FF213F
:10211000C160002101618161C16104F083FF08B1E8
:1021200000F07FFD00210F4804F065FB45F25001EF
:10213000884213D00020034602461D21009007204C
:1021400000F0B0F8032305220921122000F064F802
:1021500045F250020021034804F056FB002008BD60
:1021600000400058E0090024F0B58BB004460D464D
:1021700016461F468DF804508DF805608DF80670E0
:10218000002002908DF8070006904FF070600790D5
:102190004FF0804008908DF8244080150A900E483A
:1021A0000068C06800F0800060F420700A49096887
:1021B000C860002201A9084804F0C6FF08B100F079
:1021C00030FD03220421292002F092FB292002F095
:1021D0007FFB0BB0F0BD0000E009002408B500BF94
:1021E0000B48006840F080500949086008460068C4
:1021F00000F08050009000BF00BF02F0CBFB00BF9A
:1022000004480068C0F300400028F9D008BD000071
:10221000E044025808480258F8B504460D461746EF
:102220001E468DF803408DF801508DF802708DF830
:10223000006000226946024805F0A2F8F8BD0000DF
:10224000E009002410B501201449086002208860CC
:10225000002048618861C86108624862C8600861FE
:102260004FF4803048600E480068C06800F080007D
:1022700060F402500A490968C8600849084804F037
:102280002FFB08B100F0CDFC00220421022002F057
:102290002FFB022002F01CFB10BD0000400A0024AE
:1022A000E00900242DE9F04186B004460D461646AB
:1022B0001F46DDF830808DF804408DF805508DF80C
:1022C000066002978DF80780002004900590002298
:1022D00001A9034805F0E6F806B0BDE8F08100006A
:1022E000E009002410B50D480068C06800F08000C7
:1022F00060F4086009490968C8600022114607486F
:1023000004F080FB08B100F08CFC002204210220C4
:1023100002F0EEFA022002F0DBFA10BDE009002420
:1023200070B504460D460D480068C06800F0800096
:1023300060F4906009490968C86022462946074848
:1023400004F0AEFB08B100F06CFC0422114603203F
:1023500002F0CEFA032002F0BBFA70BDE0090024BF
:1023600000B587B016481749086000204860012171
:10237000144881600821C160102101614021416140
:10238000890081610021C1614FF40061016249004F
:102390004162002181620220009008200190062005
:1023A000029003900220049005900690694605482B
:1023B00005F03AF9034800F007F807B000BD000047
:1023C00040410052240B002470B505460024002330
:1023D00001221146184600F021F84FF4FA70FEF77A
:1023E00073F8002301220221184600F017F8002399
:1023F00008220321184600F011F84FF40874234610
:1024000001220421002000F009F840F2A521024831
:1024100005F0D0F970BD0000240B00242DE9FF4128
:1024200004460D4616461F464FF0000814B94FF0FB
:10243000100803E0012C01D14FF008080095CDF8F9
:102440000480029603974FF6FF726946044805F030
:10245000C5F918B9002004B0BDE8F0810120FAE701
:10246000240B00244FF47A7292FBF0F20A4B1A60AC
:102470000A4AD268521E4A4300EE102AB8EE400BB8
:102480009FED071B20EE010BBCEEC00B10EE102AD7
:10249000014B08331A6070472C04004028070024C1
:1024A0007B14AE47E17A843F416851B14168491ECF
:1024B000416031B9012141700178012901D1816860
:1024C0004160704770B504460D46164617480068CF
:1024D000C0F3007078B10020FFF702F94FF47A6082
:1024E000FDF7D0FF1148006840F480300F490860C4
:1024F0000020FFF7ABF8012003F018FB0C480D4952
:102500000860084646608560C4604FF40071016150
:1025100005F09AFF08B100F084FB0649CA68896893
:10252000511A481C06F096FE401C70BDD04402585B
:1025300000300050CC09002400BFFEE710B506F0C3
:10254000D7FA06F087FA0348006840F00400014912
:10255000086010BD9CEF00E030B503460C4600213A
:1025600000BF0BE04800401C34F810004D0034F868
:10257000155040EA05401D682860491CB1EB520F18
:10258000F0D302F0010020B1480034F810001D68BB
:1025900028801868006830BD30B504460B4600211D
:1025A00000BF13E013F8210005068800401C185CEA
:1025B00045EA00458800801C185C45EA00208D0033
:1025C000ED1C5D5D284325682860491CB1EB920F26
:1025D000E8D302F0030030B302F00300012803D176
:1025E00013F821002568287002F00300022808D1A2
:1025F0008800401C185C13F8215040EA052025682B
:10260000288002F0030003280DD18800401C185CCC
:1026100013F8215040EA0520256828808800801C96
:10262000185C256828702068006830BD1CB5FFF76D
:1026300085FF01F029FF06F0DBFA0020FEF762F8C3
:102640000120FEF75FF80220FEF75CF80320FEF79A
:1026500059F80420FEF756F80520FEF753F84FF41A
:10266000E130FEF747F94FF4C870FEF713F9FEF7B3
:102670000BF84FF4FA710420FDF752FF4FF4C052EB
:102680005F217F20FFF71EFFFFF738FD00210420A8
:10269000FFF746FE00231A460B210320FFF764FDD7
:1026A000FFF720FEFFF7CEFDFFF798FD3222C8218D
:1026B0000220FDF77DFFFDF761FFFDF7D3FEFEF77A
:1026C0003BF9FDF7BFFE4FF43060FEF7A9F84FF479
:1026D0003060FEF707F9FEF7D7F83E4948688047B3
:1026E000FFF73EFEFFF7E6FA00F08CFBFEF7A0F8DE
:1026F0004FF47840384908606AE01F20FEF750F92F
:102700004FF478403449086000F036FB334820210C
:102710000B464FF44872CDE9001028210A20FEF73D
:10272000F1FE2E48283018210B464FF44872CDE9AF
:10273000001050210A20FEF7E5FE284850301821ED
:102740000B464FF44872CDE9001078210A20FEF7BD
:10275000D9FE2248783018210B464FF44872CDE953
:102760000010A0210A20FEF7CDFE1C48A030182141
:102770000B464FF44872CDE90010C8210A20FEF73D
:10278000C1FE174818210B464FF44872CDE90010DE
:10279000F0210A20FEF7B6FE124818210B464FF42E
:1027A0004872CDE900104FF48C710A20FEF7AAFEA2
:1027B0000D4818210B464FF44872CDE900104FF434
:1027C000A0710A20FEF79EFE4FF47A70FDF75AFEC4
:1027D00093E70000FC000024100200240003002402
:1027E000680A0024900A0024B80A002410B50446A0
:1027F00019481A490860084600F086FD08B100F043
:1028000010FA164800F093FD08B100F00AFA1620FD
:1028100013494860002088600022104800F0CCFC7A
:1028200008B100F0FEF900210C4800F02FFE08B1BD
:1028300000F0F7F900231A461946084800F010FE88
:1028400008B100F0EEF922460021044800F071FCC6
:1028500008B100F0E6F910BD00740040580B0024E8
:10286000F80B002408B5134813490860084600F027
:102870004BFD08B100F0D5F90F4800F058FD08B144
:1028800000F0CFF916200D49486000208860002232
:10289000094800F091FC08B100F0C3F900202023A2
:1028A000074A01460090044800F026FE08B100F0F7
:1028B000B8F908BD00740040580B0024F80B002440
:1028C000C4FD000810B5044619481A4908600846B6
:1028D00000F01AFD08B100F0A4F9164800F027FD39
:1028E00008B100F09EF91620134948600020886066
:1028F0000022104800F060FC08B100F092F90021BD
:102900000C4800F0C3FD08B100F08BF900231A4613
:102910001946084800F0A4FD08B100F082F92246EB
:102920000021044800F026FC08B100F07AF910BD3F
:1029300000740040580B0024F80B002470B50446C6
:10294000A56B284600F0DEFC0120287170BD70B533
:102950000446A56B284600F0E9FB0120287170BDF4
:1029600070B50546AC6B206940F00400206120463C
:1029700000F0DCFC0120207170BD70B50546AC6B29
:10298000206940F004002061204600F0D1FB0120C6
:10299000207170BD70B50446A56B284600F0B3FCED
:1029A00070BD70B50446A56B284600F0C0FB70BD35
:1029B00010B50249886800F03BFF10BD580B002499
:1029C0000146087810381823B0FBF3F20848805C01
:1029D000C865032A05D908686FF30900001D8865DA
:1029E00003E008686FF309008865886D7047000090
:1029F00074FE000810B500210268174B9A4213D8E4
:102A0000154B8C3B9A420FD30378083B1424B3FB3D
:102A1000F4F1124B03EB81030366104B80334366E2
:102A200001238B40836616E00378103B1824B3FB28
:102A3000F4F10B4B9A4204D8094BA83B9A4200D3BD
:102A40000831084B03EB81030366064B8033436672
:102A500001238B40836610BD9454025800580258DD
:102A6000B80402400008024010B502680179E9B1DB
:102A700008291BD80E4B9A420CD80D4B8C3B9A421E
:102A800008D34B1E0B4C04EB8303C366094B403346
:102A9000036707E04B1E084C04EB8303C366064B39
:102AA000403303674B1E01249C40446710BD000067
:102AB000945402580059025800090240014600206F
:102AC0008A69D2B98A6A32B1012A0DD0022A03D0AA
:102AD000032A10D10EE000BFCA6A02F08072B2F180
:102AE000807F00D1012007E0CA6AB2F1C07F00D127
:102AF000012001E000E000BF36E08A69B2F5005F26
:102B00001BD18A6A32B1012A07D0022A03D0032AD4
:102B100011D10AE000BF01200EE0CA6A02F0807203
:102B2000B2F1807F00D1012006E0CA6AB2F1C07F15
:102B300000D1012000E000BF16E08A6A32B1012A0C
:102B400005D0022A04D0032A0CD103E000BF00BF45
:102B5000012008E0CA6A02F08072B2F1807F00D1E1
:102B6000012000E000BF00BF70470000F0B5846D99
:102B7000D0E919657560C56E15B1D0E91C65756041
:102B8000244E0568B54205D3234E0568B54201D8E9
:102B9000012500E00025CDB190F85C603F25B540EF
:102BA000A56005682D6825F48025066835600568F0
:102BB0006B608568402D04D10568AA600568E960EE
:102BC00026E00568A9600568EA6021E0134E056803
:102BD000B5421DD3114E8C360568B54218D80F4D3D
:102BE0002D1F2D6890F85C700126BE4035430B4EBA
:102BF000361F356005686B608568402D04D1056817
:102C0000AA600568E96003E00568A9600568EA60F4
:102C1000F0BD000010000240B80402400854025801
:102C2000704705E00120FEF711FD0220FEF758FD78
:102C3000F8E730B50246002300240868012816D0C2
:102C400013686FF30E03D1E901052843CD682843CB
:102C50000D6928434D6928438D692843CD69284370
:102C60000D6A28434D6A28430343136019E0136833
:102C700023F4F843D1E9070528434D6A2843034369
:102C800054686FF30E04D1E901052843CD68284349
:102C90000D6928434D6928438D6928430443136017
:102CA0005460002030BD0246506940EA4100506146
:102CB0000020704718B5034600200090D1E90004B9
:102CC00020438C68641E40EA4410CC6840EA4420EB
:102CD000009000981861002018BD000070B50346F0
:102CE000154600220024012D1FD09A6802F0704280
:102CF0000868401E4E68761E40EA06168868401E28
:102D000046EA0026C868401E46EA0036088A401E89
:102D100046EA0046888A401E46EA0056087E401E63
:102D200046EA006002439A6022E09A681148024035
:102D3000C868401E0603888A401E46EA00500243C7
:102D4000DC6804F070440868401E4E68761E40EA55
:102D500006168868401E46EA0026088A401E46EA93
:102D60000046087E401E46EA006004439A60DC602C
:102D7000002070BDFF0F0FFF08B5FFF7B3F9FFF795
:102D8000A5F9FFF795F90D48807800900B48437836
:102D900002780BA10F4807F041F90F4880780090A6
:102DA0000D484378C2780DA1124807F037F90A4858
:102DB000027811A1124807F031F908BD040A002475
:102DC00054696D653A253032643A253032643A25CB
:102DD00030326400680A002465020024446174658E
:102DE0003A3230253032642D253032642D25303290
:102DF00064000000900A00245765656B3A25640062
:102E0000B80A0024F8B51F480468001D0568001DB5
:102E100006681DA1244807F001F924A122482830A2
:102E200007F0FCF82B46324629A11F485030009489
:102E300007F0F4F84FF080722BA11B48783007F0B0
:102E4000EDF82E4882882EA11748A03007F0E6F84A
:102E500015492FA007F0D2F8134928312CA007F00C
:102E6000CDF8114950312AA007F0C8F80E49783141
:102E700027A007F0C3F80C49A03125A007F0BEF841
:102E8000F8BD000000E8F11F424F415244204E417E
:102E90004D45203A2053544D3332483720434F524A
:102EA00045424F4152440000000300244350552046
:102EB0004E414D45203A2053544D33324837343338
:102EC00049493136204C5146503137360000000018
:102ED000435055204944203A202530385820253089
:102EE0003858202530385800425350205645525308
:102EF000494F4E203A202530385800006005002404
:102F00004C4344204944203A2025303458000000E6
:102F10002573200D0A00000030B503460C461F2122
:102F200000BF01208840204018B9081EA1F101010E
:102F3000F7D1A2B1082A0DD0102A06D0182A0FD135
:102F4000072901D3012030BD0CE0082901D301205D
:102F5000F9E707E0102901D30120F4E702E001E0DE
:102F60000120F0E700BF186844611868806820F00D
:102F7000180010431D68A8600020E4E72DE9F04127
:102F800004460E4617460025A84600BF207F0128AC
:102F900002D10220BDE8F0810120207700BF02208D
:102FA0006077206A012810D0022815D003281AD192
:102FB000002504E056F82500216808606D1CBD421C
:102FC000F8D32068D0F800800EE03A46314620461B
:102FD000FFF7E2FA804607E03A4631462046FFF71F
:102FE000BBFA804600E000BF00BF0120607700BF51
:102FF0000020207700BF4046CCE72DE9F041044691
:103000000E4617460025A84600BF207F012802D1A2
:103010000220BDE8F0810120207700BF0220607708
:103020002068806840F0010021688860206A0128DB
:1030300010D0022815D003281AD1002504E056F834
:103040002500216808606D1CBD42F8D32068D0F8C7
:1030500000800EE03A4631462046FFF79DFA804652
:1030600007E03A4631462046FFF776FA804600E010
:1030700000BF00BF0120607700BF0020207700BFA5
:103080004046C6E710B504460CB9012010BD607F6C
:1030900020B900202077204600F036F80220607723
:1030A000207948B91748216848612068806820F075
:1030B00018002168886007E02046D4E90212FFF773
:1030C0002BFF08B10120E1E7607920B94FF0FF3014
:1030D0002168086102E02168206908612068806831
:1030E00020F060006169084321688860206880687A
:1030F00020F08000A1690843216888600120607782
:103100000020C3E7B71DC10408B500BF0649096820
:1031100041F40021044A11601146096801F40021BC
:10312000009100BF00BF08BDE044025870477047DF
:10313000704710B5034600BF5879012801D102201D
:1031400010BD0120587100BF022018711868006876
:103150004FF47C648C40A04342F040048C402043F8
:103160001C6820600120187100BF0020587100BF4A
:1031700000BFE5E710B5034600BF5879012801D12B
:10318000022010BD0120587100BF0220187118687C
:1031900000684FF47C648C40A04342F080048C4073
:1031A00020431C6820600120187100BF0020587166
:1031B00000BF00BFE5E700002DE9F04704460D46DB
:1031C00016460027B846B9462869012800D100BF35
:1031D0002868042800D100BF00BF6079012802D10F
:1031E0000220BDE8F0870120607100BF022020713D
:1031F0002868042840D1EEB901F008F981460CE0B6
:1032000001F004F9A0EB0900012806D9206940F07B
:103210000800206103202071E3E72068406B3849F3
:1032200008400028ECD1012000F0D8FEA8692168F0
:10323000086419E00CE001F0E9F8A0EB09000128AE
:1032400006D9206940F00800206103202071C8E7FA
:103250002068406B00F000400028ECD1012000F015
:10326000BDFEA86921684864E869B04021688864A7
:10327000286AB0402168C864286901280BD12068F9
:10328000876B1F20B0408743D5F8148008FA06F0FA
:103290000743206887632068C76B0720B0408743D7
:1032A000A96828680843E96840EA010808FA06F0B6
:1032B00007432068C763206800684FF48041B1402D
:1032C0008843216808602068076840F6FE70B040B7
:1032D0008743D5F8048008FA06F0074320680760A2
:1032E00020680168C020B04081432068016001204F
:1032F000207100BF0020607100BF00BF71E70000B7
:10330000008000207047704710B504460CB90120BA
:1033100010BD02202071204600F01EF80020206120
:10332000207100BF607100BF00BFF1E7704710B5AA
:1033300004460CB9012010BD207920B9002060712D
:10334000204600F025F80220207100202061012095
:1033500020710020EFE7000010B504460A4800681D
:1033600040F00050084908600846006820F000500E
:1033700008601021054800F04FFEA06800F0C8F971
:10338000102001F083FA10BD90440258000002584A
:1033900038B5044600BF2D48006840F001002B49B5
:1033A00008600846006800F00100009000BF00BF00
:1033B00000BF26480830006840F00050234908311B
:1033C00008600846006800F00050009000BF00BF91
:1033D00000BF1E480838006840F001001B4908394A
:1033E00008600846006800F00100009000BF00BFC0
:1033F0003020174908600320486000208860154885
:1034000000F0CCFE14481549086043204860402174
:10341000124881600021C1604FF480610161490060
:1034200041618161C910C1614902016200F026FC5D
:1034300000BF0A48A060846300BF0022032110205F
:1034400001F056FA102001F043FA38BDE04402586A
:10345000E40B002400000258880002406C0B00249A
:1034600038B50446002000902068009029B902F188
:103470000800009D2844009004E002F11400009D23
:103480002844009000980360002038BD024600BF29
:103490005079012801D1022070470120507100BFEE
:1034A000022010711068006801238B4018431368D4
:1034B000186061B91068006800F03E00022813D15E
:1034C0001068406840F00100136858600CE0106814
:1034D000006800F47810B0F5003F05D1106840682E
:1034E00040F00200136858600120107100BF0020F6
:1034F000507100BF00BFCFE72DE9F04704460D46ED
:1035000016469846089F4FF0000900BF60790128D1
:1035100002D10220BDE8F0870120607100BF0220C7
:10352000207115BB3648A168C8633648A168086495
:103530003548A168C8642068006840F4805021685C
:10354000086027B1042F06D0082F0CD107E02068AF
:1035500000F1080908E0206800F10C0904E0206887
:1035600000F1100900E000BF22E02848E168C863CC
:103570002748E16808642748E168C8642068006853
:1035800040F080502168086027B1042F06D0082F32
:103590000CD107E0206800F1140908E0206800F170
:1035A000180904E0206800F11C0900E000BF00BF1A
:1035B00065B92068006840F40050216808604346FF
:1035C0004A463146A06800F061FC0BE020680068C4
:1035D00040F000502168086043464A463146E068A2
:1035E00000F054FC00BF0020607100BF206800683C
:1035F0000121A94008432168086000208AE70000F3
:103600003D29000895290008612900084F29000874
:10361000A32900087B29000810B504460CB9012035
:1036200010BD94F83500022803D080206065012089
:10363000F6E734492068884205D333492068884238
:1036400001D8012000E00020C0B1042084F835003A
:103650002C49206888420AD32B492068884206D822
:103660002068006820F001002168086048E02068B8
:10367000006820F001002168086041E020680068CF
:1036800020F00E00216808601E49206888420AD395
:103690001D492068884206D82068006820F0010093
:1036A0002168086005E02068006820F001002168BA
:1036B0000860206E006820F48070216E086094F825
:1036C0005C100120884011490860D4E91910486055
:1036D000E06E40B1E06E006820F48070E16E08603A
:1036E000D4E91C10486000BF002084F8340000BFFB
:1036F000012084F83500206D10B12046216D8847E7
:1037000000208DE710000240B80402400454025823
:1037100070B5044600250CB9012070BD94F8350041
:10372000022803D1800260650120F6E73D49206848
:1037300088420AD33C492068884206D8206800683D
:1037400020F001002168086005E02068006820F092
:1037500001002168086033492068884205D3324956
:103760002068884201D8012000E00020B8B1002084
:103770002168086021684860216888602168C86005
:10378000216808612120216848612046FFF718F967
:10379000054694F85C103F208840A8601CE023494F
:1037A0002068884206D321498C312068884201D89C
:1037B000012000E0002078B1002021680860216825
:1037C0004860216888602168C86094F85C10012016
:1037D00088401649091F08602046FFF70BF9206E44
:1037E00028B10020216E0860D4E919104860606893
:1037F00058B16068082808D82046FFF735F900203E
:10380000E16E0860D4E91C1048600020E066206783
:103810006067606584F8350000BF84F8340000BF3D
:1038200000BF7AE710000240B80402400854025872
:103830002DE9F84304460027002500200090FE48AB
:1038400000684FF41651B0FBF1F8A66D3768FB49DC
:103850002068884205D3FA492068884201D80120AF
:1038600000E0002000287BD094F85C1008208840FD
:10387000384000B3F1492068884208D3F0492068F5
:10388000884204D82068006800F0040003E0206843
:10389000006800F0080070B12068006820F00400A3
:1038A0002168086094F85C1008208840B060606D62
:1038B00040F00100606594F85C10E24888403840B0
:1038C000C8B1DE492068884208D3DD4920688842B3
:1038D00004D82068406900F0800002E02068006899
:1038E000002040B194F85C10D6488840B060606D0C
:1038F00040F00200606594F85C10D248C01C88401B
:103900003840D0B1CD492068884208D3CC492068DE
:10391000884204D82068006800F0020002E02068B5
:103920000068002048B194F85C10C648C01C88406C
:10393000B060606D40F00400606594F85C10102089
:103940008840384030B3BD492068884209D3BC491B
:103950002068884205D82068006800F0080004E06C
:10396000EFE02068006800F0040098B194F85C1063
:1039700010208840B0602068006800F4802080B18A
:103980002068006800F4002028B9206C10B120469F
:10399000216C884715E0A06C98B12046A16C88473F
:1039A0000FE02068006800F4807028B92068006883
:1039B00020F0080021680860206C10B12046216CBE
:1039C000884794F85C10202088403840002873D045
:1039D0009A492068884208D399492068884204D8C7
:1039E0002068006800F0100003E02068006800F024
:1039F0000200002860D094F85C1020208840B0605D
:103A000094F83500042829D12068006820F01600B9
:103A1000216808602068406920F0800021684861C2
:103A2000206C08B9A06C28B12068006820F008005C
:103A30002168086094F85C103F208840B06000BFA7
:103A4000002084F8340000BF012084F83500206D88
:103A500010B12046216D8847BDE8F88320680068D2
:103A600000F4802080B12068006800F4002028B9AC
:103A7000606C10B12046616C88471DE0E06BD8B1E6
:103A80002046E16B884717E02068006800F48070EA
:103A900068B92068006820F010002168086000BF45
:103AA000002084F8340000BF012084F83500E06B6A
:103AB00010B12046E16B8847606D002840D0606DF2
:103AC00000F0010090B3042084F835005B492068C1
:103AD00088420AD35A492068884206D8206800687C
:103AE00020F001002168086005E02068006820F0EF
:103AF00001002168086000BF0098401C009040450C
:103B000000D905E02068006800F001000028F3D12A
:103B100000BF00BF002084F8340000BF20680068A8
:103B200000F0010018B1032084F8350002E0012004
:103B300084F83500E06C002802D02046E16C88470C
:103B400097E041492068884206D33F498C3120687C
:103B5000884201D8012000E00020002853D02568C9
:103B600039480838006894F85C20042191400840E6
:103B7000E0B1286800F00400C0B1286800F020001F
:103B800018B9286820F0040028602F48001F00683A
:103B900094F85C200421914008432B49091F0860D8
:103BA000206C80B32046216C884762E026480838A4
:103BB000006894F85C2002219140084020B32868F6
:103BC00000F0020000B3286800F0200058B928680F
:103BD00020F00A00286000BF002084F8340000BFF5
:103BE000012084F835001848001F006894F85C2014
:103BF0000221914008431449091F0860E06B10B18D
:103C00002046E16B884734E00F480838006894F894
:103C10005C2008219140084058B3286800F0080053
:103C200038B3286820F00E0028600748001F00689D
:103C300094F85C20012109E0EC020024100002400D
:103C4000B804024001008000085402589140084323
:103C5000094908600120606500BF002084F8340035
:103C600000BF012084F83500E06C10B12046E16C03
:103C7000884700BFF0E60000045402582DE9F041E7
:103C80000446002500F0C2FB0646002714B90120B7
:103C9000BDE8F08179492068884205D378492068D9
:103CA000884201D8012000E00020002871D0606A1D
:103CB00000B100BF00BF002084F8340000BF022024
:103CC00084F835006D49206888420AD36C49206821
:103CD000884206D82068006820F00100216808604A
:103CE00005E02068006820F00100216808600BE012
:103CF00000F08CFB801B052806D92020606503207E
:103D000084F835000120C3E72068006800F0010056
:103D10000028EDD1206805685A480540D4E9020121
:103D200008432169084361690843A1690843E169BF
:103D30000843216A08430543606A042803D1D4E993
:103D40000B0108430543206805602068456925F09C
:103D50000705606A0543606A04280DD1A06A05431F
:103D6000E06A48B12046FEF7A9FE28B14020606510
:103D7000012084F835008BE7206845612046FEF776
:103D80001FFE074694F85C103F208840B8604DE065
:103D9000FFE73D492068884206D33B498C312068C3
:103DA000884201D8012000E00020B8B300BF002005
:103DB00084F8340000BF022084F8350020680568CC
:103DC00047F6F0708543A068402801D1102105E036
:103DD000A068802801D1C10100E00021E06841EA2B
:103DE000D001206941EAD001606941EAD001A069AF
:103DF00041EAD0002022E16902EAD1010843216AA8
:103E000040EA11100543206805601F492068401AE8
:103E10001421B0FBF1F08000E06507E0FFE74020EF
:103E20006065032084F83500012031E72046FEF765
:103E3000E1FDA068802801D1002060602079216E1A
:103E40000860D4E919104860606860B160680828AB
:103E500009D82046FEF708FE0020E16E0860D4E98C
:103E60001C10486003E00020E066206760670020C7
:103E70006065012084F83500002009E71000024049
:103E8000B80402403F8010FE085402582DE9F0416A
:103E900004460D4616461F464FF0000814B901208F
:103EA000BDE8F08100BF94F83400012801D1022060
:103EB000F6E7012084F8340000BF94F835000128AB
:103EC0007CD1022084F835000020606541492068DB
:103ED00088420AD340492068884206D82068006892
:103EE00020F001002168086005E02068006820F0EB
:103EF0000100216808603B46324629462046FEF70D
:103F000035FE34492068884205D333492068884209
:103F100001D8012000E00020B0B12068006820F046
:103F20001E0040F01600216808602068406940F0DB
:103F3000800021684861206CB0B12068006840F0C2
:103F40000800216808600FE02068006820F00E007B
:103F500040F00A0021680860206C28B120680068E1
:103F600040F0040021680860206E006800F4803092
:103F700028B1206E006840F48070216E0860E06E09
:103F800028B1E06E006840F48070E16E086011496D
:103F9000206888420BD310492068884207D82068DF
:103FA000006840F001002168086011E006E0206828
:103FB000006840F001002168086009E000BF0020AF
:103FC00084F8340000BF4FF4006060654FF00108D2
:103FD000404665E710000240B804024070B5044650
:103FE00000F014FA06462546681C10B10448007813
:103FF000054400BF00F00AFA801BA842FAD370BD46
:10400000FC0200240348006840F0010001490860F8
:104010007047000020040058F0B50C46002500222F
:10402000002300219DE0012606FA01F504EA0502BD
:10403000AA427DD106684FEA410C032707FA0CF724
:104040003E430660CF0800F1200656F827604F0770
:104050004FEAD76C0F2707FA0CF7BE434FEAD10C93
:1040600000F1200747F82C6086684FEA410C0327CF
:1040700007FA0CF7BE438660476801268E40B743B7
:104080004760C6684FEA410C032707FA0CF7BE43A6
:10409000C660364E8F0856F827308E07370F0F262A
:1040A000BE403340324EB04201D100262DE0314EA9
:1040B000B04201D1012628E02F4EB04201D10226A4
:1040C00023E02E4EB04201D103261EE02C4EB0421A
:1040D00001D1042619E02B4EB04201D1052614E08F
:1040E000294EB04201D106260FE0284EB04201D140
:1040F00007260AE0264EB04201D1082605E0254EEB
:10410000B04201D1092600E00A268F073F0FBE40CA
:104110009E4225D18E07370F0F2606FA07F3134E5E
:104120008F0856F827609E43104F4FEA910C00E02D
:1041300016E047F82C60184E366896434FF0B047AB
:10414000C7F880603E46D6F884609643C7F884601E
:104150003E46366896433E603E46766896437E60AD
:10416000491C1029FFF45FAFF0BD0000080400589F
:10417000000002580004025800080258000C0258BF
:10418000001002580014025800180258001C02586F
:10419000002002580024025880000058F8B502465A
:1041A0000B460021002600240020824D00BFFCE0C9
:1041B000012707FA01F61F6807EA0604B4427CD11A
:1041C0005F68022F02D05F68122F1AD14FEAD10C1C
:1041D00002F1200757F82C004F074FEAD76C0F2742
:1041E00007FA0CF7B8434FEA417C4FEADC6C1F69D1
:1041F00007FA0CF738434FEAD10C02F1200747F8D1
:104200002C0010684FEA410C032707FA0CF7B8435B
:104210001F7907F003074FEA410C07FA0CF7384300
:1042200010605F68012F08D05F68022F05D05F68BB
:10423000112F02D05F68122F17D190684FEA410CFE
:10424000032707FA0CF7B8434FEA410CDF6807FA77
:104250000CF738439060506801278F40B8431F79AE
:10426000C7F300178F4038435060D0684FEA410CC5
:10427000032707FA0CF7B8434FEA410C9F6807FA87
:104280000CF73843D0605F6807F08057B7F1805F64
:1042900095D100BF484F3F6847F00207DFF818C1CB
:1042A000CCF8007067463F6807F00207009700BF30
:1042B00000BF424F4FEA910C00E075E057F82C0028
:1042C0008F074FEA177C0F2707FA0CF7B8433C4FCC
:1042D000BA4201D100272DE03A4FBA4201D101275D
:1042E00028E0394FBA4201D1022723E0374FBA42C2
:1042F00001D103271EE0364FBA4201D1042719E04D
:10430000344FBA4201D1052714E0334FBA4201D1EC
:1043100006270FE0314FBA4201D107270AE0304F9C
:10432000BA4201D1082705E02E4FBA4201D1092730
:1043300000E00A274FEA817C4FEA1C7C07FA0CF761
:1043400038431E4F4FEA910C47F82C002868A043D1
:104350005F6807F48037B7F5803F00D120432860BD
:104360006868A0435F6807F40037B7F5003F00D1E5
:10437000204368604FF0B0473868A0435F6807F497
:104380008017B7F5801F00D120434FF0B047386049
:104390007868A0435F6807F40017B7F5001F00D1E5
:1043A00020434FF0B0477860491C1029FFF400AF5C
:1043B000F8BD000080000058F4440258080400587A
:1043C000000002580004025800080258000C02586D
:1043D000001002580014025800180258001C02581D
:1043E0000020025800240258024613690B400BB10A
:1043F000012000E00020704742694A404261704756
:104400000AB1018300E04183704700000148006861
:1044100070470000F402002470B504460CB9012076
:1044200070BD4CF6CC402168086045F255502168BB
:104430000860D4E9001048602168A0688860FFF730
:10444000E5FF054606E0FFF7E1FF401B302801D9F4
:104450000320E5E72068C0680028F4D120680169DE
:10446000E068814203D02168E068086103E04AF611
:10447000AA20216808600020D2E701464AF6AA2057
:104480000A6810600020704710B5032000F06EFA33
:104490000F2000F007F808B1012010BD00F0F4F97A
:1044A0000020FAE770B504460E4800784FF47A71A0
:1044B000B1FBF0F00C490968B1FBF0F5284603F0B8
:1044C000BEF908B1012070BD102C07D20022214690
:1044D000501E00F00DFA0548046001E00120F2E7EB
:1044E0000020F0E7FC020024EC020024F802002483
:1044F00070B504460E46154600BF94F8A00001288A
:1045000001D1022070BD012084F8A00000BF02206C
:1045100084F8A10005EB850101EBC50204F1380127
:1045200001EB820034223146FBF703FF2A46314675
:10453000204603F0F8FF01202168486284F8A100BA
:1045400000BF002084F8A00000BF00BFDAE7000031
:1045500070B50446002500260CB9012070BD94F802
:10456000A10028B9002084F8A000204600F07EF8C1
:10457000022084F8A1002068806920F07040216842
:104580008861D4E901010843E168084321690843CF
:1045900021688969084321688861206880683249F8
:1045A000084021688860A08A050420688068A169A5
:1045B00029430843216888602068C0682A49084068
:1045C0002168C860A08B05042068C068216A29435F
:1045D00008432168C86020680069234908402168B1
:1045E0000861A08C050420680069A16A294308437A
:1045F00021680861206840691B49084021684861BA
:10460000A08D050420684069216B29430843216877
:10461000486194F83500050294F8360006042068D5
:10462000C06A00F07F402168C86246EA050094F83D
:10463000341008432168C96A08432168C8622068A9
:10464000406B40F00600216848632068806940F0B4
:104650000100216888610020C4F8A400012084F8CA
:10466000A10000207AE7000000F800F010B586B045
:10467000044600BF4848006840F00800464908600A
:104680000846006800F00800009000BF00BF00BFAF
:1046900041481038006840F010003F491039086068
:1046A0000846006800F01000009000BF00BF00BF87
:1046B0003948001F006840F002003749091F0860B0
:1046C0000846006800F00200009000BF00BF00BF75
:1046D0000846006840F0200008600846006800F0C6
:1046E0002000009000BF00BF00BF0846006840F0F7
:1046F000400008600846006800F04000009000BFDD
:1047000000BF00BF0846006840F08000086008460F
:10471000006800F08000009000BF00BF00BF0846A6
:10472000006840F4807008600846006800F48070FB
:10473000009000BF00BF2020019001200290039054
:104740000320049001A91548FFF728FD4FF480606D
:1047500001900220029000200390032004900E207C
:10476000059001A90E48FFF719FD4FF40C60019068
:1047700001A90C48FFF712FD4FF47E40019001A9FA
:104780000948FFF70BFD40F2F760019001A90748C7
:10479000FFF704FD06B010BDE444025800040258BF
:1047A0000014025800180258001C02580020025839
:1047B0002DE9F04104460E461746984600BF94F88E
:1047C000A000012802D10220BDE8F081012084F878
:1047D000A00000BF022084F8A10008EB880000EBD5
:1047E000C80104F1380000EB81052E60A86A30444E
:1047F0006860AF60E86A3844E8604246294620466F
:1048000003F091FE01202168486284F8A10000BFF6
:10481000002084F8A00000BF00BFD5E72DE9F041DB
:1048200004460E461746984600BF94F8A00001289B
:1048300002D10220BDE8F081012084F8A00000BF71
:10484000022084F8A10008EB880000EBC80104F105
:10485000380000EB8105286830446860A868384457
:10486000E860AE62EF6242462946204603F05BFEF6
:1048700001202168486284F8A10000BF002084F86C
:10488000A00000BF00BFD5E77047000010B501468B
:104890000846002817DB00F01F0301229A400B4B4B
:1048A000440943F8242000BF00BF00BFBFF34F8F6F
:1048B00000BF00BF00BF00BF00BF00BFBFF36F8FCE
:1048C00000BF00BF00BF00BF10BD000080E100E0DE
:1048D00001460846002809DB00F01F0301229A4028
:1048E00043099B0003F1E023C3F8002100BF704798
:1048F0002DE9F05F80460D461646002705F0A2FB25
:10490000074639462A46334601F00700C0F1070A38
:10491000BAF1040F02D94FF0040A01E0C0F1070A0E
:10492000D14600F1040ABAF1070F02D24FF0000A93
:1049300001E0A0F1030AD4464FF0010A0AFA09FA8D
:10494000AAF1010A0AEA020A0AFA0CFA4FF0010B6C
:104950000BFA0CFBABF1010B0BEA030B4AEA0B045D
:104960002146404605F076FBBDE8F09F00BF00F011
:104970000702064B19684FF6FF031940044B0B431F
:1049800043EA0221014B196000BF70470CED00E0C3
:104990000000FA0510B500240D48006840F0010041
:1049A0000B490860FFF732FD044607E0FFF72EFDD4
:1049B000001BB0F57A7F01D9032010BD04480068C0
:1049C00000F48030B0F5803FF0D10020F5E7000022
:1049D000084802580348006840F4807001490860A4
:1049E000704700000048025810B501F017FA094955
:1049F000096801F470614FF4807292FAA2F2B2FA7F
:104A000082F2D140044A515CC8400449086008461B
:104A1000006810BD1844025834FE0008EC0200245F
:104A200010B501F0B3F90749096801F070011022CF
:104A300092FAA2F2B2FA82F2D140034A515CC84023
:104A400010BD00002044025834FE000870B5014635
:104A500000220120002300249FED811AB0EE410ABC
:104A60009FED7F1AF0EE410A7E4D2D6805F003029E
:104A70007C4D2D68C5F305307A4D2D1D2D6805F050
:104A80001003784D14352D68C5F3CC0515FB03F5DF
:104A900001EE105AB8EE411AB0EE410A22B1012AD5
:104AA0004DD0022A7DD169E06E4D283D2D68C5F3B9
:104AB00040152DB36B4D283D2D68C5F3C1066A4DD9
:104AC00025FA06F4B4FBF0F501EE105AF8EE411A9F
:104AD0009FED661A80EE012A624D10352D68C5F3F0
:104AE000080501EE105AB8EE411A32EE011AB7EE7F
:104AF000002A31EE021A21EE811AF0EE410A1DE081
:104B0000594DB5FBF0F501EE105AF8EE411A9FED44
:104B1000571A80EE012A534D10352D68C5F308054C
:104B200001EE105AB8EE411A32EE011AB7EE002A21
:104B300031EE021A21EE811AF0EE410A5EE04C4D90
:104B4000B5FBF0F501EE105AB8EE412A9FED471A79
:104B5000C0EE011A434D10352D68C5F3080501EE6E
:104B6000105AB8EE411A31EE811AF7EE001A31EE02
:104B7000211A22EE011AF0EE410A3FE03D4DB5FB4D
:104B8000F0F501EE105AF8EE411A9FED381A80EE5A
:104B9000012A344D10352D68C5F3080501EE105A71
:104BA00000E00CE0B8EE411A32EE011AB7EE002A2E
:104BB00031EE021A21EE811AF0EE410A1EE02C4D70
:104BC000B5FBF0F501EE105AB8EE412A9FED271A19
:104BD000C0EE011A234D10352D68C5F3080501EE0E
:104BE000105AB8EE411A31EE811AF7EE001A31EE82
:104BF000211A22EE011AF0EE410A00BF00BF194D42
:104C000010352D68C5F346256D1C01EE105AB8EE1F
:104C1000411AC0EE811ABCEEE11A81ED001A114D65
:104C200010352D68C5F306456D1C01EE105AB8EE1F
:104C3000411AC0EE811ABCEEE11A81ED011A094D4C
:104C400010352D68C5F306656D1C01EE105AB8EEDF
:104C5000411AC0EE811ABCEEE11A81ED021A70BD54
:104C600000000000284402580090D00300000046D5
:104C700000093D0040787D0170B501460022012009
:104C8000002300249FED811AB0EE410A9FED7F1AA8
:104C9000F0EE410A7E4D2D6805F003027C4D2D6833
:104CA000C5F305507A4D2D1D2D6805F48073784DA0
:104CB0001C352D68C5F3CC0515FB03F501EE105A24
:104CC000B8EE411AB0EE410A22B1012A4DD0022AB3
:104CD0007DD169E06E4D283D2D68C5F340152DB39B
:104CE0006B4D283D2D68C5F3C1066A4D25FA06F4C3
:104CF000B4FBF0F501EE105AF8EE411A9FED661A7A
:104D000080EE012A624D18352D68C5F3080501EEC5
:104D1000105AB8EE411A32EE011AB7EE002A31EEFF
:104D2000021A21EE811AF0EE410A1DE0594DB5FB41
:104D3000F0F501EE105AF8EE411A9FED571A80EE89
:104D4000012A534D18352D68C5F3080501EE105A98
:104D5000B8EE411A32EE011AB7EE002A31EE021A0D
:104D600021EE811AF0EE410A5EE04C4DB5FBF0F504
:104D700001EE105AB8EE412A9FED471AC0EE011A13
:104D8000434D18352D68C5F3080501EE105AB8EEED
:104D9000411A31EE811AF7EE001A31EE211A22EE95
:104DA000011AF0EE410A3FE03D4DB5FBF0F501EE92
:104DB000105AF8EE411A9FED381A80EE012A344D50
:104DC00018352D68C5F3080501EE105A00E00CE017
:104DD000B8EE411A32EE011AB7EE002A31EE021A8D
:104DE00021EE811AF0EE410A1EE02C4DB5FBF0F5E4
:104DF00001EE105AB8EE412A9FED271AC0EE011AB3
:104E0000234D18352D68C5F3080501EE105AB8EE8C
:104E1000411A31EE811AF7EE001A31EE211A22EE14
:104E2000011AF0EE410A00BF00BF194D18352D6878
:104E3000C5F346256D1C01EE105AB8EE411AC0EEBE
:104E4000811ABCEEE11A81ED001A114D18352D685A
:104E5000C5F306456D1C01EE105AB8EE411AC0EEBE
:104E6000811ABCEEE11A81ED011A094D18352D6841
:104E7000C5F306656D1C01EE105AB8EE411AC0EE7E
:104E8000811ABCEEE11A81ED021A70BD000000002B
:104E9000284402580090D0030000004600093D005D
:104EA00040787D012DE9F04104464FF000080027CD
:104EB00000250026206800F0006000283AD0606ECF
:104EC00048B1B0F5801F0DD0B0F5001F15D0B0F57A
:104ED000401F1FD11DE0FB48006840F40030F94935
:104EE000086019E0F748006840F40010F5490860D0
:104EF000201D03F06FFC05460EE0F248006840F00C
:104F00008070F049086004F1240003F0DFFC0546DE
:104F100002E001E0012500BF00BF55B9E948243097
:104F2000006820F44010616E0843E64924310860AF
:104F300000E02E43208800F48070A8B3606D05283F
:104F400024D2DFE800F0030A15212200DD480068C2
:104F500040F40030DB4908601AE0DA48006840F4A9
:104F60000020D8490860201D03F034FC05460FE0FE
:104F7000D448006840F48000D249086004F124005D
:104F800003F0A4FC054603E002E001E0012500BFB8
:104F900000BF55B9CB482430006820F00700616D90
:104FA0000843C8492431086000E02E43208800F4FB
:104FB0000070D8B3A06D80281CD003DC40B140281D
:104FC00026D10CE0C02821D0B0F5807F20D11EE092
:104FD000BC48006840F40030BA4908601AE0B9489B
:104FE000006840F40020B7490860201D03F0F2FB80
:104FF00005460FE0B348006840F48000B1490860FE
:1050000004F1240003F062FC054603E002E001E045
:10501000012500BF00BF55B9AA482430006820F41C
:10502000E070A16D0843A7492431086000E02E43D9
:10503000208800F4806078B3D4F8A400B0F5800F25
:105040001ED004DC50B1B0F5001F28D10DE0B0F542
:10505000C00F22D0B0F5000F21D11FE099480068A1
:1050600040F40030974908601BE09648006840F41F
:10507000002094490860201D03F0ACFB054610E0B9
:105080009048006840F480008E49086004F12400D4
:1050900003F01CFC054604E012E002E001E00125FB
:1050A00000BF00BF5DB987482C30006820F4600065
:1050B000D4F8A410084383492C31086000E02E4343
:1050C000208800F4006078B3D4F8A800B0F1007F25
:1050D0001ED004DC50B1B0F1807F28D10DE0B0F1DA
:1050E000407F22D0B0F1806F21D11FE07548006869
:1050F00040F40030734908601BE07248006840F4D7
:10510000002070490860201D03F064FB054610E094
:105110006C48006840F480006A49086004F124008B
:1051200003F0D4FB054604E012E002E001E00125B3
:1051300000BF00BF5DB963482C30006820F0E0601C
:10514000D4F8A81008435F492C31086000E02E43D2
:10515000206800F0007050B3A06CC8B1102804D0D3
:10516000202809D0302814D111E05648006840F4B6
:105170000030544908600EE05248006840F40010C6
:1051800050490860201D03F025FB054603E002E0BE
:1051900001E0012500BF00BF55B94A482030006832
:1051A00020F03000A16C084346492031086000E03F
:1051B0002E43208800F4805078B3E06DB0F5005F96
:1051C0001ED004DC50B1B0F5805F28D10DE0B0F501
:1051D000405F21D0B0F5804F21D11FE039480068F1
:1051E00040F40030374908601BE03648006840F45E
:1051F000002034490860201D03F0ECFA054610E059
:105200003048006840F480002E49086004F1240012
:1052100003F05CFB054604E003E010E001E001253B
:1052200000BF00BF55B927482430006820F4E04093
:10523000E16D084323492431086000E02E432088B3
:1052400000F40050E0B3206EB0F5403F27D007DCFB
:1052500068B1B0F5803F0BD0B0F5003F22D112E02D
:10526000B0F5802F1CD0B0F5A02F1BD119E01BE0AA
:105270001448006840F4801012490860201D03F0B3
:10528000A9FA054610E00F48006840F400000D49F7
:10529000086004F1240003F019FB054604E003E074
:1052A00002E001E0012500BF00BF6DB905482430D0
:1052B000006820F4E020216E084302492431086090
:1052C00003E000002C4402582E43208800F4804064
:1052D00078B3D4F8AC00B0F1405F27D007DC68B1F8
:1052E000B0F1805F0BD0B0F1005F23D112E0B0F1DC
:1052F000804F1CD0B0F1A04F1CD119E01CE0FA483F
:10530000006840F48010F8490860201D03F062FA3C
:10531000054611E0F448006840F40000F2490860D6
:1053200004F1240003F0D2FA054605E004E003E0AE
:1053300002E010E0012500BF00BF5DB9EA482C3053
:10534000006820F0E040D4F8AC100843E6492C3166
:10535000086000E02E43208800F4004048B3E06E6F
:10536000C0B1B0F1805F03D0B0F1005F13D106E0AF
:10537000DD48006840F40030DB4908600DE0DA48A1
:10538000006840F48010D8490860201D03F022FA1C
:10539000054602E001E0012500BF00BF55B9D24833
:1053A0002430006820F04050E16E0843CE4924319B
:1053B000086000E02E43206800F0807050B3606CFD
:1053C000C8B1012804D0022809D0032814D111E063
:1053D000C548006840F40030C34908600EE0C24888
:1053E000006840F40010C0490860201D03F0F2F985
:1053F000054603E002E001E0012500BF00BF55B90A
:10540000B9482030006820F00300616C0843B649B9
:105410002031086000E02E43206800F48000E8B3EB
:10542000B248006840F48070B0490860FEF7EEFFB3
:10543000074606E0FEF7EAFFC01B642801D90325F2
:1054400005E0AA48006800F480700028F2D000BF90
:105450009DBBA5484430006800F44070B4F8B0101B
:1054600001F44071884214D09F484430006820F411
:1054700040789D484430006840F480309A49443177
:1054800008600846006820F4803008600846C0F8CC
:105490000080D4F8B000B0F5807F00E045E015D181
:1054A000FEF7B4FF074609E0FEF7B0FFC01B41F26C
:1054B0008831884202D9032507E035E08A48443024
:1054C0000068C0F340000028EED000BF55BB00BF0D
:1054D000B4F8B00000F44070B0F5407F0ED18248BF
:1054E0001C38006820F47C51814AD4F8B000104088
:1054F00041EA10107C491C39086007E07A481C38E2
:10550000006820F47C5078491C39086076484430A3
:105510000068B4F8B010C1F30B010843724944317C
:10552000086002E02E4300E02E43207800F00100E6
:10553000B8B3A06F182823D005DC48B1082808D0DC
:10554000102820D110E020281BD028281BD119E0DA
:105550001BE06548006840F4801063490860201D26
:1055600003F038F9054610E05F48006840F4000099
:105570005D49086004F1240003F0A8F9054604E041
:1055800003E002E001E0012500BF00BF55B9564825
:105590002830006820F03800A16F084352492831B4
:1055A000086000E02E43207800F0020080B3606FB6
:1055B00006281FD2DFE800F003040F1B1C1D1BE0B0
:1055C0004948006840F4801047490860201D03F0F6
:1055D00001F9054610E04448006840F400004249E3
:1055E000086004F1240003F071F9054604E003E0CB
:1055F00002E001E0012500BF00BF55B93A4828305C
:10560000006820F00700616F0843374928310860BF
:1056100000E02E43207800F0040090B3D4F890000E
:1056200006281FD2DFE800F003040F1B1C1D1BE03F
:105630002D48006840F480102B490860201D03F0BD
:10564000C9F8054610E02848006840F400002649E3
:10565000086004F1240003F039F9054604E003E092
:1056600002E001E0012500BF00BF5DB91E482C30FB
:10567000006820F00700D4F8901008431A492C3134
:10568000086000E02E43207800F0200090B3D4F8AA
:105690008C00B0F1405F2ED007DC68B1B0F1805FC4
:1056A0000BD0B0F1005F29D112E0B0F1804F23D0D0
:1056B000B0F1A04F22D120E022E00B48006840F476
:1056C000002009490860201D03F084F8054617E012
:1056D0000548006840F080700349086004F1240028
:1056E00003F0F4F805460BE02C4402580048025839
:1056F000FFFCFF0F11E003E002E001E0012500BF25
:1057000000BF4DB9FE48006820F0E040D4F88C108E
:105710000843FB49086000E02E43207800F0400079
:1057200080B3D4F89800B0F5406F2CD007DC68B196
:10573000B0F5806F0BD0B0F5006F27D114E0B0F555
:10574000805F21D0B0F5A05F20D11EE020E0EC48C2
:105750002838006840F40020E94928390860201DF5
:1057600003F038F8054613E0E5482838006840F0B3
:105770008070E3492839086004F1240003F0A6F89A
:10578000054605E013E003E002E001E0012500BF6B
:1057900000BF5DB9DA48001D006820F4E050D4F87D
:1057A00098100843D649091D086000E02E43207870
:1057B00000F0800080B3D4F89C00B0F5C04F2CD02E
:1057C00007DC68B1B0F5005F0BD0B0F5804F27D192
:1057D00014E0B0F5004F21D0B0F5204F20D11EE0ED
:1057E00020E0C7482838006840F40020C449283920
:1057F0000860201D02F0EEFF054613E0C04828387F
:10580000006840F08070BE492839086004F1240027
:1058100003F05CF8054605E013E003E002E001E078
:10582000012500BF00BF5DB9B548001D006820F428
:105830006040D4F89C100843B149091D086000E09D
:105840002E43207800F00800D0B1D4F88000B0F5E5
:10585000805F0CD104F1240003F038F8A848283800
:10586000006840F08070A6492839086008E0A44824
:10587000006820F44050D4F880100843A049086024
:10588000207800F01000E0B1D4F89400B0F5807FEB
:105890000CD104F1240003F019F899482838006865
:1058A00040F080709649283908600AE09448001D4D
:1058B000006820F44070D4F8941008439049091D02
:1058C0000860206800F40020A0B3D4F8A00030B134
:1058D000B0F5803F10D0B0F5003F1CD11AE08848E9
:1058E0002838006840F40020854928390860201DC8
:1058F00002F070FF054610E081482838006840F04B
:1059000080707F492839086004F1240002F0DEFF2E
:10591000054602E001E0012500BF00BF5DB97848FF
:10592000001D006820F44030D4F8A01008437449EA
:10593000091D086000E02E43206800F4802080B339
:10594000D4F88400B0F5801F06D0B0F5001F0CD04D
:10595000B0F5401F18D116E069482838006840F4B7
:10596000003067492839086010E065482838006829
:1059700040F4000062492839086004F1240002F074
:10598000A5FF054602E001E0012500BF00BF4DB9BB
:105990005B48006820F44010D4F88410084358494C
:1059A000086000E02E43206800F4803048B3E06CCB
:1059B00018B1B0F5803F16D108E05148283800688A
:1059C00040F400304E49283908600EE04C48283831
:1059D000006840F400104A4928390860201D02F090
:1059E000F9FE054601E0012500BF00BF55B9444856
:1059F0000838006820F48030E16C084340490839D9
:105A0000086000E02E43206800F0005060B13C4880
:105A10002838006840F0807039492839086004F15E
:105A2000240002F053FF0643206800F4003018B34E
:105A3000E06FA0B1B0F5807F06D0B0F5007F0CD04C
:105A4000B0F5407F0CD109E02D482838006840F4BB
:105A500000302B492839086004E003E002E001E04F
:105A6000012500BF00BF45B92548006820F44070FB
:105A7000E16F08432249086000E02E43206800F4EB
:105A8000801048B11E48001F006820F00040216FC0
:105A900008431B49091F0860206800F0805050B17E
:105AA00017484438006820F48040D4F8B410084304
:105AB000134944390860206800F4001048B11048C8
:105AC000001F006820F08070A16E08430C49091F78
:105AD0000860206800F0804088B100BF0848443862
